{
  "address": "0x2584385A9135b0B73Fb4c118B3f67724371A4F89",
  "abi": [
    {
      "inputs": [],
      "stateMutability": "nonpayable",
      "type": "constructor"
    },
    {
      "anonymous": false,
      "inputs": [
        {
          "indexed": true,
          "internalType": "address",
          "name": "account",
          "type": "address"
        },
        {
          "indexed": true,
          "internalType": "address",
          "name": "operator",
          "type": "address"
        },
        {
          "indexed": false,
          "internalType": "bool",
          "name": "approved",
          "type": "bool"
        }
      ],
      "name": "ApprovalForAll",
      "type": "event"
    },
    {
      "anonymous": false,
      "inputs": [
        {
          "indexed": false,
          "internalType": "uint256",
          "name": "id",
          "type": "uint256"
        },
        {
          "indexed": false,
          "internalType": "address",
          "name": "contributor",
          "type": "address"
        }
      ],
      "name": "ContributorAdded",
      "type": "event"
    },
    {
      "anonymous": false,
      "inputs": [
        {
          "indexed": true,
          "internalType": "bytes32",
          "name": "role",
          "type": "bytes32"
        },
        {
          "indexed": true,
          "internalType": "bytes32",
          "name": "previousAdminRole",
          "type": "bytes32"
        },
        {
          "indexed": true,
          "internalType": "bytes32",
          "name": "newAdminRole",
          "type": "bytes32"
        }
      ],
      "name": "RoleAdminChanged",
      "type": "event"
    },
    {
      "anonymous": false,
      "inputs": [
        {
          "indexed": true,
          "internalType": "bytes32",
          "name": "role",
          "type": "bytes32"
        },
        {
          "indexed": true,
          "internalType": "address",
          "name": "account",
          "type": "address"
        },
        {
          "indexed": true,
          "internalType": "address",
          "name": "sender",
          "type": "address"
        }
      ],
      "name": "RoleGranted",
      "type": "event"
    },
    {
      "anonymous": false,
      "inputs": [
        {
          "indexed": true,
          "internalType": "bytes32",
          "name": "role",
          "type": "bytes32"
        },
        {
          "indexed": true,
          "internalType": "address",
          "name": "account",
          "type": "address"
        },
        {
          "indexed": true,
          "internalType": "address",
          "name": "sender",
          "type": "address"
        }
      ],
      "name": "RoleRevoked",
      "type": "event"
    },
    {
      "anonymous": false,
      "inputs": [
        {
          "indexed": true,
          "internalType": "address",
          "name": "operator",
          "type": "address"
        },
        {
          "indexed": true,
          "internalType": "address",
          "name": "from",
          "type": "address"
        },
        {
          "indexed": true,
          "internalType": "address",
          "name": "to",
          "type": "address"
        },
        {
          "indexed": false,
          "internalType": "uint256[]",
          "name": "ids",
          "type": "uint256[]"
        },
        {
          "indexed": false,
          "internalType": "uint256[]",
          "name": "values",
          "type": "uint256[]"
        }
      ],
      "name": "TransferBatch",
      "type": "event"
    },
    {
      "anonymous": false,
      "inputs": [
        {
          "indexed": true,
          "internalType": "address",
          "name": "operator",
          "type": "address"
        },
        {
          "indexed": true,
          "internalType": "address",
          "name": "from",
          "type": "address"
        },
        {
          "indexed": true,
          "internalType": "address",
          "name": "to",
          "type": "address"
        },
        {
          "indexed": false,
          "internalType": "uint256",
          "name": "id",
          "type": "uint256"
        },
        {
          "indexed": false,
          "internalType": "uint256",
          "name": "value",
          "type": "uint256"
        }
      ],
      "name": "TransferSingle",
      "type": "event"
    },
    {
      "anonymous": false,
      "inputs": [
        {
          "indexed": false,
          "internalType": "string",
          "name": "value",
          "type": "string"
        },
        {
          "indexed": true,
          "internalType": "uint256",
          "name": "id",
          "type": "uint256"
        }
      ],
      "name": "URI",
      "type": "event"
    },
    {
      "anonymous": false,
      "inputs": [
        {
          "indexed": false,
          "internalType": "uint256",
          "name": "id",
          "type": "uint256"
        },
        {
          "indexed": false,
          "internalType": "string",
          "name": "metadataUri",
          "type": "string"
        }
      ],
      "name": "WorkstreamMinted",
      "type": "event"
    },
    {
      "inputs": [],
      "name": "DEFAULT_ADMIN_ROLE",
      "outputs": [
        {
          "internalType": "bytes32",
          "name": "",
          "type": "bytes32"
        }
      ],
      "stateMutability": "view",
      "type": "function"
    },
    {
      "inputs": [],
      "name": "FUX_TOKEN_ID",
      "outputs": [
        {
          "internalType": "uint256",
          "name": "",
          "type": "uint256"
        }
      ],
      "stateMutability": "view",
      "type": "function"
    },
    {
      "inputs": [],
      "name": "MINTER_ROLE",
      "outputs": [
        {
          "internalType": "bytes32",
          "name": "",
          "type": "bytes32"
        }
      ],
      "stateMutability": "view",
      "type": "function"
    },
    {
      "inputs": [],
      "name": "URI_SETTER_ROLE",
      "outputs": [
        {
          "internalType": "bytes32",
          "name": "",
          "type": "bytes32"
        }
      ],
      "stateMutability": "view",
      "type": "function"
    },
    {
      "inputs": [
        {
          "internalType": "uint256",
          "name": "workstreamId",
          "type": "uint256"
        },
        {
          "internalType": "address",
          "name": "contributor",
          "type": "address"
        }
      ],
      "name": "addContributor",
      "outputs": [],
      "stateMutability": "nonpayable",
      "type": "function"
    },
    {
      "inputs": [
        {
          "internalType": "address",
          "name": "account",
          "type": "address"
        },
        {
          "internalType": "uint256",
          "name": "id",
          "type": "uint256"
        }
      ],
      "name": "balanceOf",
      "outputs": [
        {
          "internalType": "uint256",
          "name": "",
          "type": "uint256"
        }
      ],
      "stateMutability": "view",
      "type": "function"
    },
    {
      "inputs": [
        {
          "internalType": "address[]",
          "name": "accounts",
          "type": "address[]"
        },
        {
          "internalType": "uint256[]",
          "name": "ids",
          "type": "uint256[]"
        }
      ],
      "name": "balanceOfBatch",
      "outputs": [
        {
          "internalType": "uint256[]",
          "name": "",
          "type": "uint256[]"
        }
      ],
      "stateMutability": "view",
      "type": "function"
    },
    {
      "inputs": [
        {
          "internalType": "uint256",
          "name": "",
          "type": "uint256"
        },
        {
          "internalType": "uint256",
          "name": "",
          "type": "uint256"
        }
      ],
      "name": "contributors",
      "outputs": [
        {
          "internalType": "address",
          "name": "",
          "type": "address"
        }
      ],
      "stateMutability": "view",
      "type": "function"
    },
    {
      "inputs": [
        {
          "internalType": "uint256",
          "name": "id",
          "type": "uint256"
        }
      ],
      "name": "exists",
      "outputs": [
        {
          "internalType": "bool",
          "name": "",
          "type": "bool"
        }
      ],
      "stateMutability": "view",
      "type": "function"
    },
    {
      "inputs": [
        {
          "internalType": "bytes32",
          "name": "role",
          "type": "bytes32"
        }
      ],
      "name": "getRoleAdmin",
      "outputs": [
        {
          "internalType": "bytes32",
          "name": "",
          "type": "bytes32"
        }
      ],
      "stateMutability": "view",
      "type": "function"
    },
    {
      "inputs": [
        {
          "internalType": "bytes32",
          "name": "role",
          "type": "bytes32"
        },
        {
          "internalType": "address",
          "name": "account",
          "type": "address"
        }
      ],
      "name": "grantRole",
      "outputs": [],
      "stateMutability": "nonpayable",
      "type": "function"
    },
    {
      "inputs": [
        {
          "internalType": "bytes32",
          "name": "role",
          "type": "bytes32"
        },
        {
          "internalType": "address",
          "name": "account",
          "type": "address"
        }
      ],
      "name": "hasRole",
      "outputs": [
        {
          "internalType": "bool",
          "name": "",
          "type": "bool"
        }
      ],
      "stateMutability": "view",
      "type": "function"
    },
    {
      "inputs": [
        {
          "internalType": "address",
          "name": "account",
          "type": "address"
        },
        {
          "internalType": "address",
          "name": "operator",
          "type": "address"
        }
      ],
      "name": "isApprovedForAll",
      "outputs": [
        {
          "internalType": "bool",
          "name": "",
          "type": "bool"
        }
      ],
      "stateMutability": "view",
      "type": "function"
    },
    {
      "inputs": [
        {
          "internalType": "address",
          "name": "to",
          "type": "address"
        },
        {
          "internalType": "uint256[]",
          "name": "ids",
          "type": "uint256[]"
        },
        {
          "internalType": "uint256[]",
          "name": "amounts",
          "type": "uint256[]"
        },
        {
          "internalType": "string",
          "name": "uri",
          "type": "string"
        },
        {
          "internalType": "bytes",
          "name": "data",
          "type": "bytes"
        }
      ],
      "name": "mintBatch",
      "outputs": [],
      "stateMutability": "nonpayable",
      "type": "function"
    },
    {
      "inputs": [],
      "name": "mintFux",
      "outputs": [],
      "stateMutability": "nonpayable",
      "type": "function"
    },
    {
      "inputs": [
        {
          "internalType": "uint256",
          "name": "id",
          "type": "uint256"
        },
        {
          "internalType": "string",
          "name": "name",
          "type": "string"
        },
        {
          "internalType": "string",
          "name": "metadataUri",
          "type": "string"
        }
      ],
      "name": "mintWorkstream",
      "outputs": [],
      "stateMutability": "nonpayable",
      "type": "function"
    },
    {
      "inputs": [
        {
          "internalType": "bytes32",
          "name": "role",
          "type": "bytes32"
        },
        {
          "internalType": "address",
          "name": "account",
          "type": "address"
        }
      ],
      "name": "renounceRole",
      "outputs": [],
      "stateMutability": "nonpayable",
      "type": "function"
    },
    {
      "inputs": [
        {
          "internalType": "bytes32",
          "name": "role",
          "type": "bytes32"
        },
        {
          "internalType": "address",
          "name": "account",
          "type": "address"
        }
      ],
      "name": "revokeRole",
      "outputs": [],
      "stateMutability": "nonpayable",
      "type": "function"
    },
    {
      "inputs": [
        {
          "internalType": "address",
          "name": "from",
          "type": "address"
        },
        {
          "internalType": "address",
          "name": "to",
          "type": "address"
        },
        {
          "internalType": "uint256[]",
          "name": "ids",
          "type": "uint256[]"
        },
        {
          "internalType": "uint256[]",
          "name": "amounts",
          "type": "uint256[]"
        },
        {
          "internalType": "bytes",
          "name": "data",
          "type": "bytes"
        }
      ],
      "name": "safeBatchTransferFrom",
      "outputs": [],
      "stateMutability": "nonpayable",
      "type": "function"
    },
    {
      "inputs": [
        {
          "internalType": "address",
          "name": "from",
          "type": "address"
        },
        {
          "internalType": "address",
          "name": "to",
          "type": "address"
        },
        {
          "internalType": "uint256",
          "name": "id",
          "type": "uint256"
        },
        {
          "internalType": "uint256",
          "name": "amount",
          "type": "uint256"
        },
        {
          "internalType": "bytes",
          "name": "data",
          "type": "bytes"
        }
      ],
      "name": "safeTransferFrom",
      "outputs": [],
      "stateMutability": "nonpayable",
      "type": "function"
    },
    {
      "inputs": [
        {
          "internalType": "address",
          "name": "operator",
          "type": "address"
        },
        {
          "internalType": "bool",
          "name": "approved",
          "type": "bool"
        }
      ],
      "name": "setApprovalForAll",
      "outputs": [],
      "stateMutability": "nonpayable",
      "type": "function"
    },
    {
      "inputs": [
        {
          "internalType": "string",
          "name": "newuri",
          "type": "string"
        }
      ],
      "name": "setURI",
      "outputs": [],
      "stateMutability": "nonpayable",
      "type": "function"
    },
    {
      "inputs": [
        {
          "internalType": "bytes4",
          "name": "interfaceId",
          "type": "bytes4"
        }
      ],
      "name": "supportsInterface",
      "outputs": [
        {
          "internalType": "bool",
          "name": "",
          "type": "bool"
        }
      ],
      "stateMutability": "view",
      "type": "function"
    },
    {
      "inputs": [
        {
          "internalType": "uint256",
          "name": "id",
          "type": "uint256"
        }
      ],
      "name": "totalSupply",
      "outputs": [
        {
          "internalType": "uint256",
          "name": "",
          "type": "uint256"
        }
      ],
      "stateMutability": "view",
      "type": "function"
    },
    {
      "inputs": [
        {
          "internalType": "uint256",
          "name": "tokenId",
          "type": "uint256"
        }
      ],
      "name": "uri",
      "outputs": [
        {
          "internalType": "string",
          "name": "",
          "type": "string"
        }
      ],
      "stateMutability": "view",
      "type": "function"
    },
    {
      "inputs": [
        {
          "internalType": "uint256",
          "name": "",
          "type": "uint256"
        }
      ],
      "name": "workstreams",
      "outputs": [
        {
          "internalType": "address",
          "name": "creator",
          "type": "address"
        },
        {
          "internalType": "string",
          "name": "name",
          "type": "string"
        },
        {
          "internalType": "bool",
          "name": "exists",
          "type": "bool"
        }
      ],
      "stateMutability": "view",
      "type": "function"
    }
  ],
  "transactionHash": "0x39f9865696d737e82c0dbad245acab3cd433580f0fb78a9a935f608aec47fdde",
  "args": [],
  "numDeployments": 1,
  "solcInputHash": "8c09e1cfa46dc691c7dbc0ff2f8f834d",
  "bytecode": "0x60a06040819052600060808190526200001b916005916200016d565b503480156200002957600080fd5b506040805160208101909152600081526200004481620000b0565b5062000052600033620000c9565b6200007e7f7804d923f43a17d325d77e781528e0793b2edd9890ab45fc64efd7b4b427744c33620000c9565b620000aa7f9f2df0fed2c77648de5860a4cc508cd0818c85b8b8a1ab4ceeef8d981c8956a633620000c9565b6200024f565b8051620000c59060029060208401906200016d565b5050565b60008281526003602090815260408083206001600160a01b038516845290915290205460ff16620000c55760008281526003602090815260408083206001600160a01b03851684529091529020805460ff19166001179055620001293390565b6001600160a01b0316816001600160a01b0316837f2f8788117e7eff1d82e926ec794901d17c78024a50270940304540a733656f0d60405160405180910390a45050565b8280546200017b9062000213565b90600052602060002090601f0160209004810192826200019f5760008555620001ea565b82601f10620001ba57805160ff1916838001178555620001ea565b82800160010185558215620001ea579182015b82811115620001ea578251825591602001919060010190620001cd565b50620001f8929150620001fc565b5090565b5b80821115620001f85760008155600101620001fd565b600181811c908216806200022857607f821691505b6020821081036200024957634e487b7160e01b600052602260045260246000fd5b50919050565b612ac3806200025f6000396000f3fe608060405234801561001057600080fd5b50600436106101ad5760003560e01c80637f345710116100ee578063c69cfd8611610097578063d547741f11610071578063d547741f14610416578063e985e9c514610429578063f242432a14610465578063f385facc1461047857600080fd5b8063c69cfd86146103dc578063d422831f1461038e578063d5391393146103ef57600080fd5b8063a22cb465116100c8578063a22cb46514610396578063af3595ba146103a9578063bd85b039146103bc57600080fd5b80637f3457101461032e57806391d1485414610355578063a217fddf1461038e57600080fd5b80632f2ff15d1161015b5780634e1273f4116101355780634e1273f41461029f5780634f558e79146102bf57806352c56f87146102e157806354346b661461030357600080fd5b80632f2ff15d1461026657806336568abe14610279578063373ff7351461028c57600080fd5b80630e89341c1161018c5780630e89341c14610210578063248a9ca3146102305780632eb2c2d61461025357600080fd5b8062fdd58e146101b257806301ffc9a7146101d857806302fe5305146101fb575b600080fd5b6101c56101c036600461208b565b610480565b6040519081526020015b60405180910390f35b6101eb6101e63660046120cb565b610529565b60405190151581526020016101cf565b61020e61020936600461219f565b61053a565b005b61022361021e3660046121dc565b610571565b6040516101cf9190612251565b6101c561023e3660046121dc565b60009081526003602052604090206001015490565b61020e6102613660046122f9565b61057c565b61020e6102743660046123a3565b61061e565b61020e6102873660046123a3565b610648565b61020e61029a3660046123cf565b6106d0565b6102b26102ad36600461245d565b61070e565b6040516101cf9190612563565b6101eb6102cd3660046121dc565b600090815260046020526040902054151590565b6102f46102ef3660046121dc565b61084c565b6040516101cf93929190612576565b6103166103113660046125aa565b610904565b6040516001600160a01b0390911681526020016101cf565b6101c57f7804d923f43a17d325d77e781528e0793b2edd9890ab45fc64efd7b4b427744c81565b6101eb6103633660046123a3565b60009182526003602090815260408084206001600160a01b0393909316845291905290205460ff1690565b6101c5600081565b61020e6103a43660046125cc565b61093c565b61020e6103b73660046123a3565b610947565b6101c56103ca3660046121dc565b60009081526004602052604090205490565b61020e6103ea366004612608565b610a92565b6101c57f9f2df0fed2c77648de5860a4cc508cd0818c85b8b8a1ab4ceeef8d981c8956a681565b61020e6104243660046123a3565b610c53565b6101eb610437366004612675565b6001600160a01b03918216600090815260016020908152604080832093909416825291909152205460ff1690565b61020e61047336600461269f565b610c78565b61020e610d13565b60006001600160a01b0383166105035760405162461bcd60e51b815260206004820152602b60248201527f455243313135353a2062616c616e636520717565727920666f7220746865207a60448201527f65726f206164647265737300000000000000000000000000000000000000000060648201526084015b60405180910390fd5b506000908152602081815260408083206001600160a01b03949094168352929052205490565b600061053482610d8a565b92915050565b7f7804d923f43a17d325d77e781528e0793b2edd9890ab45fc64efd7b4b427744c61056481610daf565b61056d82610dbc565b5050565b606061053482610dcf565b6001600160a01b03851633148061059857506105988533610437565b61060a5760405162461bcd60e51b815260206004820152603260248201527f455243313135353a207472616e736665722063616c6c6572206973206e6f742060448201527f6f776e6572206e6f7220617070726f766564000000000000000000000000000060648201526084016104fa565b6106178585858585610eaf565b5050505050565b60008281526003602052604090206001015461063981610daf565b6106438383611113565b505050565b6001600160a01b03811633146106c65760405162461bcd60e51b815260206004820152602f60248201527f416363657373436f6e74726f6c3a2063616e206f6e6c792072656e6f756e636560448201527f20726f6c657320666f722073656c66000000000000000000000000000000000060648201526084016104fa565b61056d82826111b5565b7f9f2df0fed2c77648de5860a4cc508cd0818c85b8b8a1ab4ceeef8d981c8956a66106fa81610daf565b61070686868685611238565b505050505050565b606081518351146107875760405162461bcd60e51b815260206004820152602960248201527f455243313135353a206163636f756e747320616e6420696473206c656e67746860448201527f206d69736d61746368000000000000000000000000000000000000000000000060648201526084016104fa565b6000835167ffffffffffffffff8111156107a3576107a36120e8565b6040519080825280602002602001820160405280156107cc578160200160208202803683370190505b50905060005b8451811015610844576108178582815181106107f0576107f0612704565b602002602001015185838151811061080a5761080a612704565b6020026020010151610480565b82828151811061082957610829612704565b602090810291909101015261083d81612730565b90506107d2565b509392505050565b600760205260009081526040902080546001820180546001600160a01b03909216929161087890612749565b80601f01602080910402602001604051908101604052809291908181526020018280546108a490612749565b80156108f15780601f106108c6576101008083540402835291602001916108f1565b820191906000526020600020905b8154815290600101906020018083116108d457829003601f168201915b5050506002909301549192505060ff1683565b6008602052816000526040600020818154811061092057600080fd5b6000918252602090912001546001600160a01b03169150829050565b61056d33838361140d565b60008281526007602052604090206002015460ff166109a85760405162461bcd60e51b815260206004820152601a60248201527f576f726b73747265616d20646f6573206e6f742065786973747300000000000060448201526064016104fa565b6000828152600760205260409020546001600160a01b03163314610a0e5760405162461bcd60e51b815260206004820152601d60248201527f6d73672e73656e646572206973206e6f74207468652063726561746f7200000060448201526064016104fa565b6000828152600860209081526040808320805460018101825590845292829020909201805473ffffffffffffffffffffffffffffffffffffffff19166001600160a01b0385169081179091558251858152918201527f7c29733edbbbc7f83fc8c5fb3231ab4c21421e8da3e7bb05cddc0c2be2d0cf65910160405180910390a15050565b60008381526007602052604090206002015460ff1615610af45760405162461bcd60e51b815260206004820152601e60248201527f576f726b73747265616d2065786973747320666f7220676976656e204944000060448201526064016104fa565b610afe8382611501565b610b1a3384600160405180602001604052806000815250611565565b6040805160608101825233815260208082018581526001838501819052600088815260078452949094208351815473ffffffffffffffffffffffffffffffffffffffff19166001600160a01b039091161781559051805193949193610b8793928501929190910190611fd6565b506040918201516002909101805491151560ff199092169190911790556000848152600860209081528282208054600181018255908352912001805473ffffffffffffffffffffffffffffffffffffffff191633179055517f03205b47e8ac382aa7ca86d69396c8ee19bfc417452392942760a14a3e9c963190610c0e9085908490612783565b60405180910390a1604080518481523360208201527f7c29733edbbbc7f83fc8c5fb3231ab4c21421e8da3e7bb05cddc0c2be2d0cf65910160405180910390a1505050565b600082815260036020526040902060010154610c6e81610daf565b61064383836111b5565b6001600160a01b038516331480610c945750610c948533610437565b610d065760405162461bcd60e51b815260206004820152602960248201527f455243313135353a2063616c6c6572206973206e6f74206f776e6572206e6f7260448201527f20617070726f766564000000000000000000000000000000000000000000000060648201526084016104fa565b6106178585858585611688565b610d1e336000610480565b15610d6b5760405162461bcd60e51b815260206004820152601460248201527f416c726561647920676f7420796f75722046555800000000000000000000000060448201526064016104fa565b610d88336000606460405180602001604052806000815250611565565b565b60006001600160e01b03198216637965db0b60e01b1480610534575061053482611841565b610db98133611891565b50565b805161056d906002906020840190611fd6565b600081815260066020526040812080546060929190610ded90612749565b80601f0160208091040260200160405190810160405280929190818152602001828054610e1990612749565b8015610e665780601f10610e3b57610100808354040283529160200191610e66565b820191906000526020600020905b815481529060010190602001808311610e4957829003601f168201915b505050505090506000815111610e8457610e7f83611911565b610ea8565b600581604051602001610e989291906127b8565b6040516020818303038152906040525b9392505050565b8151835114610f115760405162461bcd60e51b815260206004820152602860248201527f455243313135353a2069647320616e6420616d6f756e7473206c656e677468206044820152670dad2e6dac2e8c6d60c31b60648201526084016104fa565b6001600160a01b038416610f755760405162461bcd60e51b815260206004820152602560248201527f455243313135353a207472616e7366657220746f20746865207a65726f206164604482015264647265737360d81b60648201526084016104fa565b33610f848187878787876119a5565b60005b84518110156110ad576000858281518110610fa457610fa4612704565b602002602001015190506000858381518110610fc257610fc2612704565b602090810291909101810151600084815280835260408082206001600160a01b038e1683529093529190912054909150818110156110555760405162461bcd60e51b815260206004820152602a60248201527f455243313135353a20696e73756666696369656e742062616c616e636520666f60448201526939103a3930b739b332b960b11b60648201526084016104fa565b6000838152602081815260408083206001600160a01b038e8116855292528083208585039055908b1682528120805484929061109290849061285e565b92505081905550505050806110a690612730565b9050610f87565b50846001600160a01b0316866001600160a01b0316826001600160a01b03167f4a39dc06d4c0dbc64b70af90fd698a233a518aa5d07e595d983b8c0526c8f7fb87876040516110fd929190612876565b60405180910390a46107068187878787876119b3565b60008281526003602090815260408083206001600160a01b038516845290915290205460ff1661056d5760008281526003602090815260408083206001600160a01b03851684529091529020805460ff191660011790556111713390565b6001600160a01b0316816001600160a01b0316837f2f8788117e7eff1d82e926ec794901d17c78024a50270940304540a733656f0d60405160405180910390a45050565b60008281526003602090815260408083206001600160a01b038516845290915290205460ff161561056d5760008281526003602090815260408083206001600160a01b0385168085529252808320805460ff1916905551339285917ff6391f5c32d9c69d2a47ea670b442974b53935d1edc7fd64eb21e047a839171b9190a45050565b6001600160a01b0384166112985760405162461bcd60e51b815260206004820152602160248201527f455243313135353a206d696e7420746f20746865207a65726f206164647265736044820152607360f81b60648201526084016104fa565b81518351146112fa5760405162461bcd60e51b815260206004820152602860248201527f455243313135353a2069647320616e6420616d6f756e7473206c656e677468206044820152670dad2e6dac2e8c6d60c31b60648201526084016104fa565b3361130a816000878787876119a5565b60005b84518110156113a55783818151811061132857611328612704565b602002602001015160008087848151811061134557611345612704565b602002602001015181526020019081526020016000206000886001600160a01b03166001600160a01b03168152602001908152602001600020600082825461138d919061285e565b9091555081905061139d81612730565b91505061130d565b50846001600160a01b031660006001600160a01b0316826001600160a01b03167f4a39dc06d4c0dbc64b70af90fd698a233a518aa5d07e595d983b8c0526c8f7fb87876040516113f6929190612876565b60405180910390a4610617816000878787876119b3565b816001600160a01b0316836001600160a01b0316036114945760405162461bcd60e51b815260206004820152602960248201527f455243313135353a2073657474696e6720617070726f76616c2073746174757360448201527f20666f722073656c66000000000000000000000000000000000000000000000060648201526084016104fa565b6001600160a01b03838116600081815260016020908152604080832094871680845294825291829020805460ff191686151590811790915591519182527f17307eab39ab6107e8899845ad3d59bd9653f200f220920489ca2b5937696c31910160405180910390a3505050565b6000828152600660209081526040909120825161152092840190611fd6565b50817f6bb7ff708619ba0610cba295a58592e0451dee2622938c8755667688daf3529b61154c84610571565b6040516115599190612251565b60405180910390a25050565b6001600160a01b0384166115c55760405162461bcd60e51b815260206004820152602160248201527f455243313135353a206d696e7420746f20746865207a65726f206164647265736044820152607360f81b60648201526084016104fa565b3360006115d185611b58565b905060006115de85611b58565b90506115ef836000898585896119a5565b6000868152602081815260408083206001600160a01b038b1684529091528120805487929061161f90849061285e565b909155505060408051878152602081018790526001600160a01b03808a1692600092918716917fc3d58168c5ae7397731d063d5bbf3d657854427343f4c083240f7aacaa2d0f62910160405180910390a461167f83600089898989611ba3565b50505050505050565b6001600160a01b0384166116ec5760405162461bcd60e51b815260206004820152602560248201527f455243313135353a207472616e7366657220746f20746865207a65726f206164604482015264647265737360d81b60648201526084016104fa565b3360006116f885611b58565b9050600061170585611b58565b90506117158389898585896119a5565b6000868152602081815260408083206001600160a01b038c168452909152902054858110156117995760405162461bcd60e51b815260206004820152602a60248201527f455243313135353a20696e73756666696369656e742062616c616e636520666f60448201526939103a3930b739b332b960b11b60648201526084016104fa565b6000878152602081815260408083206001600160a01b038d8116855292528083208985039055908a168252812080548892906117d690849061285e565b909155505060408051888152602081018890526001600160a01b03808b16928c821692918816917fc3d58168c5ae7397731d063d5bbf3d657854427343f4c083240f7aacaa2d0f62910160405180910390a4611836848a8a8a8a8a611ba3565b505050505050505050565b60006001600160e01b03198216636cdb3d1360e11b148061187257506001600160e01b031982166303a24d0760e21b145b8061053457506301ffc9a760e01b6001600160e01b0319831614610534565b60008281526003602090815260408083206001600160a01b038516845290915290205460ff1661056d576118cf816001600160a01b03166014611c9f565b6118da836020611c9f565b6040516020016118eb92919061289b565b60408051601f198184030181529082905262461bcd60e51b82526104fa91600401612251565b60606002805461192090612749565b80601f016020809104026020016040519081016040528092919081815260200182805461194c90612749565b80156119995780601f1061196e57610100808354040283529160200191611999565b820191906000526020600020905b81548152906001019060200180831161197c57829003601f168201915b50505050509050919050565b610706868686868686611e48565b6001600160a01b0384163b156107065760405163bc197c8160e01b81526001600160a01b0385169063bc197c81906119f7908990899088908890889060040161291c565b6020604051808303816000875af1925050508015611a32575060408051601f3d908101601f19168201909252611a2f9181019061297a565b60015b611ae757611a3e612997565b806308c379a003611a775750611a526129b3565b80611a5d5750611a79565b8060405162461bcd60e51b81526004016104fa9190612251565b505b60405162461bcd60e51b815260206004820152603460248201527f455243313135353a207472616e7366657220746f206e6f6e204552433131353560448201527f526563656976657220696d706c656d656e74657200000000000000000000000060648201526084016104fa565b6001600160e01b0319811663bc197c8160e01b1461167f5760405162461bcd60e51b815260206004820152602860248201527f455243313135353a204552433131353552656365697665722072656a656374656044820152676420746f6b656e7360c01b60648201526084016104fa565b60408051600180825281830190925260609160009190602080830190803683370190505090508281600081518110611b9257611b92612704565b602090810291909101015292915050565b6001600160a01b0384163b156107065760405163f23a6e6160e01b81526001600160a01b0385169063f23a6e6190611be79089908990889088908890600401612a3d565b6020604051808303816000875af1925050508015611c22575060408051601f3d908101601f19168201909252611c1f9181019061297a565b60015b611c2e57611a3e612997565b6001600160e01b0319811663f23a6e6160e01b1461167f5760405162461bcd60e51b815260206004820152602860248201527f455243313135353a204552433131353552656365697665722072656a656374656044820152676420746f6b656e7360c01b60648201526084016104fa565b60606000611cae836002612a80565b611cb990600261285e565b67ffffffffffffffff811115611cd157611cd16120e8565b6040519080825280601f01601f191660200182016040528015611cfb576020820181803683370190505b509050600360fc1b81600081518110611d1657611d16612704565b60200101906001600160f81b031916908160001a905350600f60fb1b81600181518110611d4557611d45612704565b60200101906001600160f81b031916908160001a9053506000611d69846002612a80565b611d7490600161285e565b90505b6001811115611df9577f303132333435363738396162636465660000000000000000000000000000000085600f1660108110611db557611db5612704565b1a60f81b828281518110611dcb57611dcb612704565b60200101906001600160f81b031916908160001a90535060049490941c93611df281612a9f565b9050611d77565b508315610ea85760405162461bcd60e51b815260206004820181905260248201527f537472696e67733a20686578206c656e67746820696e73756666696369656e7460448201526064016104fa565b6001600160a01b038516611ecf5760005b8351811015611ecd57828181518110611e7457611e74612704565b602002602001015160046000868481518110611e9257611e92612704565b602002602001015181526020019081526020016000206000828254611eb7919061285e565b90915550611ec6905081612730565b9050611e59565b505b6001600160a01b0384166107065760005b835181101561167f576000848281518110611efd57611efd612704565b602002602001015190506000848381518110611f1b57611f1b612704565b6020026020010151905060006004600084815260200190815260200160002054905081811015611fb35760405162461bcd60e51b815260206004820152602860248201527f455243313135353a206275726e20616d6f756e74206578636565647320746f7460448201527f616c537570706c7900000000000000000000000000000000000000000000000060648201526084016104fa565b60009283526004602052604090922091039055611fcf81612730565b9050611ee0565b828054611fe290612749565b90600052602060002090601f016020900481019282612004576000855561204a565b82601f1061201d57805160ff191683800117855561204a565b8280016001018555821561204a579182015b8281111561204a57825182559160200191906001019061202f565b5061205692915061205a565b5090565b5b80821115612056576000815560010161205b565b80356001600160a01b038116811461208657600080fd5b919050565b6000806040838503121561209e57600080fd5b6120a78361206f565b946020939093013593505050565b6001600160e01b031981168114610db957600080fd5b6000602082840312156120dd57600080fd5b8135610ea8816120b5565b634e487b7160e01b600052604160045260246000fd5b601f8201601f1916810167ffffffffffffffff81118282101715612124576121246120e8565b6040525050565b600082601f83011261213c57600080fd5b813567ffffffffffffffff811115612156576121566120e8565b60405161216d601f8301601f1916602001826120fe565b81815284602083860101111561218257600080fd5b816020850160208301376000918101602001919091529392505050565b6000602082840312156121b157600080fd5b813567ffffffffffffffff8111156121c857600080fd5b6121d48482850161212b565b949350505050565b6000602082840312156121ee57600080fd5b5035919050565b60005b838110156122105781810151838201526020016121f8565b8381111561221f576000848401525b50505050565b6000815180845261223d8160208601602086016121f5565b601f01601f19169290920160200192915050565b602081526000610ea86020830184612225565b600067ffffffffffffffff82111561227e5761227e6120e8565b5060051b60200190565b600082601f83011261229957600080fd5b813560206122a682612264565b6040516122b382826120fe565b83815260059390931b85018201928281019150868411156122d357600080fd5b8286015b848110156122ee57803583529183019183016122d7565b509695505050505050565b600080600080600060a0868803121561231157600080fd5b61231a8661206f565b94506123286020870161206f565b9350604086013567ffffffffffffffff8082111561234557600080fd5b61235189838a01612288565b9450606088013591508082111561236757600080fd5b61237389838a01612288565b9350608088013591508082111561238957600080fd5b506123968882890161212b565b9150509295509295909350565b600080604083850312156123b657600080fd5b823591506123c66020840161206f565b90509250929050565b600080600080600060a086880312156123e757600080fd5b6123f08661206f565b9450602086013567ffffffffffffffff8082111561240d57600080fd5b61241989838a01612288565b9550604088013591508082111561242f57600080fd5b61243b89838a01612288565b9450606088013591508082111561245157600080fd5b61237389838a0161212b565b6000806040838503121561247057600080fd5b823567ffffffffffffffff8082111561248857600080fd5b818501915085601f83011261249c57600080fd5b813560206124a982612264565b6040516124b682826120fe565b83815260059390931b85018201928281019150898411156124d657600080fd5b948201945b838610156124fb576124ec8661206f565b825294820194908201906124db565b9650508601359250508082111561251157600080fd5b5061251e85828601612288565b9150509250929050565b600081518084526020808501945080840160005b838110156125585781518752958201959082019060010161253c565b509495945050505050565b602081526000610ea86020830184612528565b6001600160a01b03841681526060602082015260006125986060830185612225565b90508215156040830152949350505050565b600080604083850312156125bd57600080fd5b50508035926020909101359150565b600080604083850312156125df57600080fd5b6125e88361206f565b9150602083013580151581146125fd57600080fd5b809150509250929050565b60008060006060848603121561261d57600080fd5b83359250602084013567ffffffffffffffff8082111561263c57600080fd5b6126488783880161212b565b9350604086013591508082111561265e57600080fd5b5061266b8682870161212b565b9150509250925092565b6000806040838503121561268857600080fd5b6126918361206f565b91506123c66020840161206f565b600080600080600060a086880312156126b757600080fd5b6126c08661206f565b94506126ce6020870161206f565b93506040860135925060608601359150608086013567ffffffffffffffff8111156126f857600080fd5b6123968882890161212b565b634e487b7160e01b600052603260045260246000fd5b634e487b7160e01b600052601160045260246000fd5b6000600182016127425761274261271a565b5060010190565b600181811c9082168061275d57607f821691505b60208210810361277d57634e487b7160e01b600052602260045260246000fd5b50919050565b8281526040602082015260006121d46040830184612225565b600081516127ae8185602086016121f5565b9290920192915050565b600080845481600182811c9150808316806127d457607f831692505b602080841082036127f357634e487b7160e01b86526022600452602486fd5b818015612807576001811461281857612845565b60ff19861689528489019650612845565b60008b81526020902060005b8681101561283d5781548b820152908501908301612824565b505084890196505b505050505050612855818561279c565b95945050505050565b600082198211156128715761287161271a565b500190565b6040815260006128896040830185612528565b82810360208401526128558185612528565b7f416363657373436f6e74726f6c3a206163636f756e74200000000000000000008152600083516128d38160178501602088016121f5565b7f206973206d697373696e6720726f6c652000000000000000000000000000000060179184019182015283516129108160288401602088016121f5565b01602801949350505050565b60006001600160a01b03808816835280871660208401525060a0604083015261294860a0830186612528565b828103606084015261295a8186612528565b9050828103608084015261296e8185612225565b98975050505050505050565b60006020828403121561298c57600080fd5b8151610ea8816120b5565b600060033d11156129b05760046000803e5060005160e01c5b90565b600060443d10156129c15790565b6040516003193d81016004833e81513d67ffffffffffffffff81602484011181841117156129f157505050505090565b8285019150815181811115612a095750505050505090565b843d8701016020828501011115612a235750505050505090565b612a32602082860101876120fe565b509095945050505050565b60006001600160a01b03808816835280871660208401525084604083015283606083015260a06080830152612a7560a0830184612225565b979650505050505050565b6000816000190483118215151615612a9a57612a9a61271a565b500290565b600081612aae57612aae61271a565b50600019019056fea164736f6c634300080d000a",
  "devdoc": {
    "kind": "dev",
    "methods": {
      "balanceOf(address,uint256)": {
        "details": "See {IERC1155-balanceOf}. Requirements: - `account` cannot be the zero address."
      },
      "balanceOfBatch(address[],uint256[])": {
        "details": "See {IERC1155-balanceOfBatch}. Requirements: - `accounts` and `ids` must have the same length."
      },
      "exists(uint256)": {
        "details": "Indicates whether any token exist with a given id, or not."
      },
      "getRoleAdmin(bytes32)": {
        "details": "Returns the admin role that controls `role`. See {grantRole} and {revokeRole}. To change a role's admin, use {_setRoleAdmin}."
      },
      "grantRole(bytes32,address)": {
        "details": "Grants `role` to `account`. If `account` had not been already granted `role`, emits a {RoleGranted} event. Requirements: - the caller must have ``role``'s admin role."
      },
      "hasRole(bytes32,address)": {
        "details": "Returns `true` if `account` has been granted `role`."
      },
      "isApprovedForAll(address,address)": {
        "details": "See {IERC1155-isApprovedForAll}."
      },
      "renounceRole(bytes32,address)": {
        "details": "Revokes `role` from the calling account. Roles are often managed via {grantRole} and {revokeRole}: this function's purpose is to provide a mechanism for accounts to lose their privileges if they are compromised (such as when a trusted device is misplaced). If the calling account had been revoked `role`, emits a {RoleRevoked} event. Requirements: - the caller must be `account`."
      },
      "revokeRole(bytes32,address)": {
        "details": "Revokes `role` from `account`. If `account` had been granted `role`, emits a {RoleRevoked} event. Requirements: - the caller must have ``role``'s admin role."
      },
      "safeBatchTransferFrom(address,address,uint256[],uint256[],bytes)": {
        "details": "See {IERC1155-safeBatchTransferFrom}."
      },
      "safeTransferFrom(address,address,uint256,uint256,bytes)": {
        "details": "See {IERC1155-safeTransferFrom}."
      },
      "setApprovalForAll(address,bool)": {
        "details": "See {IERC1155-setApprovalForAll}."
      },
      "totalSupply(uint256)": {
        "details": "Total amount of tokens in with a given id."
      }
    },
    "version": 1
  },
  "userdoc": {
    "kind": "user",
    "methods": {},
    "version": 1
  },
  "storageLayout": {
    "storage": [
      {
        "astId": 418,
        "contract": "contracts/FUX.sol:FUX",
        "label": "_balances",
        "offset": 0,
        "slot": "0",
        "type": "t_mapping(t_uint256,t_mapping(t_address,t_uint256))"
      },
      {
        "astId": 424,
        "contract": "contracts/FUX.sol:FUX",
        "label": "_operatorApprovals",
        "offset": 0,
        "slot": "1",
        "type": "t_mapping(t_address,t_mapping(t_address,t_bool))"
      },
      {
        "astId": 426,
        "contract": "contracts/FUX.sol:FUX",
        "label": "_uri",
        "offset": 0,
        "slot": "2",
        "type": "t_string_storage"
      },
      {
        "astId": 24,
        "contract": "contracts/FUX.sol:FUX",
        "label": "_roles",
        "offset": 0,
        "slot": "3",
        "type": "t_mapping(t_bytes32,t_struct(RoleData)19_storage)"
      },
      {
        "astId": 1788,
        "contract": "contracts/FUX.sol:FUX",
        "label": "_totalSupply",
        "offset": 0,
        "slot": "4",
        "type": "t_mapping(t_uint256,t_uint256)"
      },
      {
        "astId": 1948,
        "contract": "contracts/FUX.sol:FUX",
        "label": "_baseURI",
        "offset": 0,
        "slot": "5",
        "type": "t_string_storage"
      },
      {
        "astId": 1952,
        "contract": "contracts/FUX.sol:FUX",
        "label": "_tokenURIs",
        "offset": 0,
        "slot": "6",
        "type": "t_mapping(t_uint256,t_string_storage)"
      },
      {
        "astId": 2645,
        "contract": "contracts/FUX.sol:FUX",
        "label": "workstreams",
        "offset": 0,
        "slot": "7",
        "type": "t_mapping(t_uint256,t_struct(Workstream)2640_storage)"
      },
      {
        "astId": 2650,
        "contract": "contracts/FUX.sol:FUX",
        "label": "contributors",
        "offset": 0,
        "slot": "8",
        "type": "t_mapping(t_uint256,t_array(t_address)dyn_storage)"
      }
    ],
    "types": {
      "t_address": {
        "encoding": "inplace",
        "label": "address",
        "numberOfBytes": "20"
      },
      "t_array(t_address)dyn_storage": {
        "base": "t_address",
        "encoding": "dynamic_array",
        "label": "address[]",
        "numberOfBytes": "32"
      },
      "t_bool": {
        "encoding": "inplace",
        "label": "bool",
        "numberOfBytes": "1"
      },
      "t_bytes32": {
        "encoding": "inplace",
        "label": "bytes32",
        "numberOfBytes": "32"
      },
      "t_mapping(t_address,t_bool)": {
        "encoding": "mapping",
        "key": "t_address",
        "label": "mapping(address => bool)",
        "numberOfBytes": "32",
        "value": "t_bool"
      },
      "t_mapping(t_address,t_mapping(t_address,t_bool))": {
        "encoding": "mapping",
        "key": "t_address",
        "label": "mapping(address => mapping(address => bool))",
        "numberOfBytes": "32",
        "value": "t_mapping(t_address,t_bool)"
      },
      "t_mapping(t_address,t_uint256)": {
        "encoding": "mapping",
        "key": "t_address",
        "label": "mapping(address => uint256)",
        "numberOfBytes": "32",
        "value": "t_uint256"
      },
      "t_mapping(t_bytes32,t_struct(RoleData)19_storage)": {
        "encoding": "mapping",
        "key": "t_bytes32",
        "label": "mapping(bytes32 => struct AccessControl.RoleData)",
        "numberOfBytes": "32",
        "value": "t_struct(RoleData)19_storage"
      },
      "t_mapping(t_uint256,t_array(t_address)dyn_storage)": {
        "encoding": "mapping",
        "key": "t_uint256",
        "label": "mapping(uint256 => address[])",
        "numberOfBytes": "32",
        "value": "t_array(t_address)dyn_storage"
      },
      "t_mapping(t_uint256,t_mapping(t_address,t_uint256))": {
        "encoding": "mapping",
        "key": "t_uint256",
        "label": "mapping(uint256 => mapping(address => uint256))",
        "numberOfBytes": "32",
        "value": "t_mapping(t_address,t_uint256)"
      },
      "t_mapping(t_uint256,t_string_storage)": {
        "encoding": "mapping",
        "key": "t_uint256",
        "label": "mapping(uint256 => string)",
        "numberOfBytes": "32",
        "value": "t_string_storage"
      },
      "t_mapping(t_uint256,t_struct(Workstream)2640_storage)": {
        "encoding": "mapping",
        "key": "t_uint256",
        "label": "mapping(uint256 => struct FUX.Workstream)",
        "numberOfBytes": "32",
        "value": "t_struct(Workstream)2640_storage"
      },
      "t_mapping(t_uint256,t_uint256)": {
        "encoding": "mapping",
        "key": "t_uint256",
        "label": "mapping(uint256 => uint256)",
        "numberOfBytes": "32",
        "value": "t_uint256"
      },
      "t_string_storage": {
        "encoding": "bytes",
        "label": "string",
        "numberOfBytes": "32"
      },
      "t_struct(RoleData)19_storage": {
        "encoding": "inplace",
        "label": "struct AccessControl.RoleData",
        "members": [
          {
            "astId": 16,
            "contract": "contracts/FUX.sol:FUX",
            "label": "members",
            "offset": 0,
            "slot": "0",
            "type": "t_mapping(t_address,t_bool)"
          },
          {
            "astId": 18,
            "contract": "contracts/FUX.sol:FUX",
            "label": "adminRole",
            "offset": 0,
            "slot": "1",
            "type": "t_bytes32"
          }
        ],
        "numberOfBytes": "64"
      },
      "t_struct(Workstream)2640_storage": {
        "encoding": "inplace",
        "label": "struct FUX.Workstream",
        "members": [
          {
            "astId": 2635,
            "contract": "contracts/FUX.sol:FUX",
            "label": "creator",
            "offset": 0,
            "slot": "0",
            "type": "t_address"
          },
          {
            "astId": 2637,
            "contract": "contracts/FUX.sol:FUX",
            "label": "name",
            "offset": 0,
            "slot": "1",
            "type": "t_string_storage"
          },
          {
            "astId": 2639,
            "contract": "contracts/FUX.sol:FUX",
            "label": "exists",
            "offset": 0,
            "slot": "2",
            "type": "t_bool"
          }
        ],
        "numberOfBytes": "96"
      },
      "t_uint256": {
        "encoding": "inplace",
        "label": "uint256",
        "numberOfBytes": "32"
      }
    }
  }
}