{
  "address": "0x2584385A9135b0B73Fb4c118B3f67724371A4F89",
  "abi": [
    {
      "inputs": [],
      "stateMutability": "nonpayable",
      "type": "constructor"
    },
    {
      "inputs": [],
      "name": "EvaluationAlreadySubmitted",
      "type": "error"
    },
    {
      "inputs": [
        {
          "internalType": "string",
          "name": "inputVar",
          "type": "string"
        }
      ],
      "name": "InvalidInput",
      "type": "error"
    },
    {
      "inputs": [],
      "name": "NonExistentWorkstream",
      "type": "error"
    },
    {
      "inputs": [],
      "name": "NonTransferableFux",
      "type": "error"
    },
    {
      "inputs": [],
      "name": "NotApprovedOrOwner",
      "type": "error"
    },
    {
      "inputs": [],
      "name": "NotContributor",
      "type": "error"
    },
    {
      "inputs": [],
      "name": "NotEnoughFunds",
      "type": "error"
    },
    {
      "inputs": [],
      "name": "NotEnoughFux",
      "type": "error"
    },
    {
      "inputs": [],
      "name": "NotEnoughVFux",
      "type": "error"
    },
    {
      "inputs": [],
      "name": "TokensAlreadyMinted",
      "type": "error"
    },
    {
      "anonymous": false,
      "inputs": [
        {
          "indexed": true,
          "internalType": "address",
          "name": "account",
          "type": "address"
        },
        {
          "indexed": true,
          "internalType": "address",
          "name": "operator",
          "type": "address"
        },
        {
          "indexed": false,
          "internalType": "bool",
          "name": "approved",
          "type": "bool"
        }
      ],
      "name": "ApprovalForAll",
      "type": "event"
    },
    {
      "anonymous": false,
      "inputs": [
        {
          "indexed": false,
          "internalType": "uint256",
          "name": "id",
          "type": "uint256"
        },
        {
          "indexed": false,
          "internalType": "address[]",
          "name": "contributors",
          "type": "address[]"
        }
      ],
      "name": "ContributorsAdded",
      "type": "event"
    },
    {
      "anonymous": false,
      "inputs": [
        {
          "indexed": false,
          "internalType": "uint256",
          "name": "workstreamID",
          "type": "uint256"
        }
      ],
      "name": "EvaluationResolved",
      "type": "event"
    },
    {
      "anonymous": false,
      "inputs": [
        {
          "indexed": false,
          "internalType": "uint256",
          "name": "workstreamID",
          "type": "uint256"
        },
        {
          "indexed": false,
          "internalType": "address",
          "name": "contributor",
          "type": "address"
        }
      ],
      "name": "EvaluationSubmitted",
      "type": "event"
    },
    {
      "anonymous": false,
      "inputs": [
        {
          "indexed": false,
          "internalType": "address",
          "name": "user",
          "type": "address"
        }
      ],
      "name": "FuxClaimed",
      "type": "event"
    },
    {
      "anonymous": false,
      "inputs": [
        {
          "indexed": false,
          "internalType": "address",
          "name": "user",
          "type": "address"
        },
        {
          "indexed": false,
          "internalType": "uint256",
          "name": "workstreamId",
          "type": "uint256"
        },
        {
          "indexed": false,
          "internalType": "uint256",
          "name": "amount",
          "type": "uint256"
        }
      ],
      "name": "FuxGiven",
      "type": "event"
    },
    {
      "anonymous": false,
      "inputs": [
        {
          "indexed": false,
          "internalType": "address",
          "name": "user",
          "type": "address"
        },
        {
          "indexed": false,
          "internalType": "uint256",
          "name": "workstreamId",
          "type": "uint256"
        },
        {
          "indexed": false,
          "internalType": "uint256",
          "name": "amount",
          "type": "uint256"
        }
      ],
      "name": "FuxWithdraw",
      "type": "event"
    },
    {
      "anonymous": false,
      "inputs": [
        {
          "indexed": true,
          "internalType": "bytes32",
          "name": "role",
          "type": "bytes32"
        },
        {
          "indexed": true,
          "internalType": "bytes32",
          "name": "previousAdminRole",
          "type": "bytes32"
        },
        {
          "indexed": true,
          "internalType": "bytes32",
          "name": "newAdminRole",
          "type": "bytes32"
        }
      ],
      "name": "RoleAdminChanged",
      "type": "event"
    },
    {
      "anonymous": false,
      "inputs": [
        {
          "indexed": true,
          "internalType": "bytes32",
          "name": "role",
          "type": "bytes32"
        },
        {
          "indexed": true,
          "internalType": "address",
          "name": "account",
          "type": "address"
        },
        {
          "indexed": true,
          "internalType": "address",
          "name": "sender",
          "type": "address"
        }
      ],
      "name": "RoleGranted",
      "type": "event"
    },
    {
      "anonymous": false,
      "inputs": [
        {
          "indexed": true,
          "internalType": "bytes32",
          "name": "role",
          "type": "bytes32"
        },
        {
          "indexed": true,
          "internalType": "address",
          "name": "account",
          "type": "address"
        },
        {
          "indexed": true,
          "internalType": "address",
          "name": "sender",
          "type": "address"
        }
      ],
      "name": "RoleRevoked",
      "type": "event"
    },
    {
      "anonymous": false,
      "inputs": [
        {
          "indexed": true,
          "internalType": "address",
          "name": "operator",
          "type": "address"
        },
        {
          "indexed": true,
          "internalType": "address",
          "name": "from",
          "type": "address"
        },
        {
          "indexed": true,
          "internalType": "address",
          "name": "to",
          "type": "address"
        },
        {
          "indexed": false,
          "internalType": "uint256[]",
          "name": "ids",
          "type": "uint256[]"
        },
        {
          "indexed": false,
          "internalType": "uint256[]",
          "name": "values",
          "type": "uint256[]"
        }
      ],
      "name": "TransferBatch",
      "type": "event"
    },
    {
      "anonymous": false,
      "inputs": [
        {
          "indexed": true,
          "internalType": "address",
          "name": "operator",
          "type": "address"
        },
        {
          "indexed": true,
          "internalType": "address",
          "name": "from",
          "type": "address"
        },
        {
          "indexed": true,
          "internalType": "address",
          "name": "to",
          "type": "address"
        },
        {
          "indexed": false,
          "internalType": "uint256",
          "name": "id",
          "type": "uint256"
        },
        {
          "indexed": false,
          "internalType": "uint256",
          "name": "value",
          "type": "uint256"
        }
      ],
      "name": "TransferSingle",
      "type": "event"
    },
    {
      "anonymous": false,
      "inputs": [
        {
          "indexed": false,
          "internalType": "string",
          "name": "value",
          "type": "string"
        },
        {
          "indexed": true,
          "internalType": "uint256",
          "name": "id",
          "type": "uint256"
        }
      ],
      "name": "URI",
      "type": "event"
    },
    {
      "anonymous": false,
      "inputs": [
        {
          "indexed": false,
          "internalType": "address",
          "name": "user",
          "type": "address"
        },
        {
          "indexed": false,
          "internalType": "uint256",
          "name": "workstreamID",
          "type": "uint256"
        }
      ],
      "name": "VFuxClaimed",
      "type": "event"
    },
    {
      "anonymous": false,
      "inputs": [
        {
          "indexed": false,
          "internalType": "uint256",
          "name": "id",
          "type": "uint256"
        },
        {
          "indexed": false,
          "internalType": "string",
          "name": "metadataUri",
          "type": "string"
        }
      ],
      "name": "WorkstreamMinted",
      "type": "event"
    },
    {
      "inputs": [],
      "name": "DEFAULT_ADMIN_ROLE",
      "outputs": [
        {
          "internalType": "bytes32",
          "name": "",
          "type": "bytes32"
        }
      ],
      "stateMutability": "view",
      "type": "function"
    },
    {
      "inputs": [],
      "name": "FUX_TOKEN_ID",
      "outputs": [
        {
          "internalType": "uint256",
          "name": "",
          "type": "uint256"
        }
      ],
      "stateMutability": "view",
      "type": "function"
    },
    {
      "inputs": [],
      "name": "MINTER_ROLE",
      "outputs": [
        {
          "internalType": "bytes32",
          "name": "",
          "type": "bytes32"
        }
      ],
      "stateMutability": "view",
      "type": "function"
    },
    {
      "inputs": [],
      "name": "URI_SETTER_ROLE",
      "outputs": [
        {
          "internalType": "bytes32",
          "name": "",
          "type": "bytes32"
        }
      ],
      "stateMutability": "view",
      "type": "function"
    },
    {
      "inputs": [],
      "name": "VFUX_TOKEN_ID",
      "outputs": [
        {
          "internalType": "uint256",
          "name": "",
          "type": "uint256"
        }
      ],
      "stateMutability": "view",
      "type": "function"
    },
    {
      "inputs": [
        {
          "internalType": "uint256",
          "name": "workstreamId",
          "type": "uint256"
        },
        {
          "internalType": "address[]",
          "name": "contributors",
          "type": "address[]"
        }
      ],
      "name": "addContributors",
      "outputs": [],
      "stateMutability": "nonpayable",
      "type": "function"
    },
    {
      "inputs": [
        {
          "internalType": "address",
          "name": "account",
          "type": "address"
        },
        {
          "internalType": "uint256",
          "name": "id",
          "type": "uint256"
        }
      ],
      "name": "balanceOf",
      "outputs": [
        {
          "internalType": "uint256",
          "name": "",
          "type": "uint256"
        }
      ],
      "stateMutability": "view",
      "type": "function"
    },
    {
      "inputs": [
        {
          "internalType": "address[]",
          "name": "accounts",
          "type": "address[]"
        },
        {
          "internalType": "uint256[]",
          "name": "ids",
          "type": "uint256[]"
        }
      ],
      "name": "balanceOfBatch",
      "outputs": [
        {
          "internalType": "uint256[]",
          "name": "",
          "type": "uint256[]"
        }
      ],
      "stateMutability": "view",
      "type": "function"
    },
    {
      "inputs": [],
      "name": "claimRewards",
      "outputs": [],
      "stateMutability": "nonpayable",
      "type": "function"
    },
    {
      "inputs": [
        {
          "internalType": "uint256",
          "name": "workstreamID",
          "type": "uint256"
        },
        {
          "internalType": "uint8",
          "name": "fuxGiven",
          "type": "uint8"
        }
      ],
      "name": "commitToWorkstream",
      "outputs": [],
      "stateMutability": "nonpayable",
      "type": "function"
    },
    {
      "inputs": [
        {
          "internalType": "uint256",
          "name": "id",
          "type": "uint256"
        }
      ],
      "name": "exists",
      "outputs": [
        {
          "internalType": "bool",
          "name": "",
          "type": "bool"
        }
      ],
      "stateMutability": "view",
      "type": "function"
    },
    {
      "inputs": [
        {
          "internalType": "address",
          "name": "account",
          "type": "address"
        }
      ],
      "name": "getAvailableBalance",
      "outputs": [
        {
          "internalType": "uint256",
          "name": "balance",
          "type": "uint256"
        }
      ],
      "stateMutability": "view",
      "type": "function"
    },
    {
      "inputs": [
        {
          "internalType": "bytes32",
          "name": "role",
          "type": "bytes32"
        }
      ],
      "name": "getRoleAdmin",
      "outputs": [
        {
          "internalType": "bytes32",
          "name": "",
          "type": "bytes32"
        }
      ],
      "stateMutability": "view",
      "type": "function"
    },
    {
      "inputs": [
        {
          "internalType": "uint256",
          "name": "workstreamID",
          "type": "uint256"
        }
      ],
      "name": "getVFuxForEvaluation",
      "outputs": [
        {
          "internalType": "uint256",
          "name": "vFux",
          "type": "uint256"
        }
      ],
      "stateMutability": "view",
      "type": "function"
    },
    {
      "inputs": [
        {
          "internalType": "address",
          "name": "user",
          "type": "address"
        },
        {
          "internalType": "uint256",
          "name": "workstreamID",
          "type": "uint256"
        }
      ],
      "name": "getValueEvaluation",
      "outputs": [
        {
          "components": [
            {
              "internalType": "address[]",
              "name": "contributors",
              "type": "address[]"
            },
            {
              "internalType": "uint256[]",
              "name": "ratings",
              "type": "uint256[]"
            },
            {
              "internalType": "bool",
              "name": "exists",
              "type": "bool"
            }
          ],
          "internalType": "struct FUX.Evaluation",
          "name": "evaluation",
          "type": "tuple"
        }
      ],
      "stateMutability": "view",
      "type": "function"
    },
    {
      "inputs": [
        {
          "internalType": "uint256",
          "name": "workstreamID",
          "type": "uint256"
        }
      ],
      "name": "getWorkstreamByID",
      "outputs": [
        {
          "components": [
            {
              "internalType": "string",
              "name": "name",
              "type": "string"
            },
            {
              "internalType": "address",
              "name": "creator",
              "type": "address"
            },
            {
              "internalType": "address[]",
              "name": "contributors",
              "type": "address[]"
            },
            {
              "internalType": "uint256[]",
              "name": "evaluations",
              "type": "uint256[]"
            },
            {
              "internalType": "uint256",
              "name": "deadline",
              "type": "uint256"
            },
            {
              "internalType": "uint256",
              "name": "funds",
              "type": "uint256"
            },
            {
              "internalType": "bool",
              "name": "exists",
              "type": "bool"
            }
          ],
          "internalType": "struct FUX.Workstream",
          "name": "workstream",
          "type": "tuple"
        }
      ],
      "stateMutability": "view",
      "type": "function"
    },
    {
      "inputs": [
        {
          "internalType": "address",
          "name": "user",
          "type": "address"
        },
        {
          "internalType": "uint256",
          "name": "workstreamID",
          "type": "uint256"
        }
      ],
      "name": "getWorkstreamCommitment",
      "outputs": [
        {
          "internalType": "uint256",
          "name": "fuxGiven",
          "type": "uint256"
        }
      ],
      "stateMutability": "view",
      "type": "function"
    },
    {
      "inputs": [
        {
          "internalType": "address",
          "name": "user",
          "type": "address"
        }
      ],
      "name": "getWorkstreamIDs",
      "outputs": [
        {
          "internalType": "uint256[]",
          "name": "ids",
          "type": "uint256[]"
        }
      ],
      "stateMutability": "view",
      "type": "function"
    },
    {
      "inputs": [
        {
          "internalType": "bytes32",
          "name": "role",
          "type": "bytes32"
        },
        {
          "internalType": "address",
          "name": "account",
          "type": "address"
        }
      ],
      "name": "grantRole",
      "outputs": [],
      "stateMutability": "nonpayable",
      "type": "function"
    },
    {
      "inputs": [
        {
          "internalType": "bytes32",
          "name": "role",
          "type": "bytes32"
        },
        {
          "internalType": "address",
          "name": "account",
          "type": "address"
        }
      ],
      "name": "hasRole",
      "outputs": [
        {
          "internalType": "bool",
          "name": "",
          "type": "bool"
        }
      ],
      "stateMutability": "view",
      "type": "function"
    },
    {
      "inputs": [
        {
          "internalType": "address",
          "name": "account",
          "type": "address"
        },
        {
          "internalType": "address",
          "name": "operator",
          "type": "address"
        }
      ],
      "name": "isApprovedForAll",
      "outputs": [
        {
          "internalType": "bool",
          "name": "",
          "type": "bool"
        }
      ],
      "stateMutability": "view",
      "type": "function"
    },
    {
      "inputs": [],
      "name": "mintFux",
      "outputs": [],
      "stateMutability": "nonpayable",
      "type": "function"
    },
    {
      "inputs": [
        {
          "internalType": "uint256",
          "name": "workstreamID",
          "type": "uint256"
        }
      ],
      "name": "mintVFux",
      "outputs": [],
      "stateMutability": "nonpayable",
      "type": "function"
    },
    {
      "inputs": [
        {
          "internalType": "string",
          "name": "name",
          "type": "string"
        },
        {
          "internalType": "address[]",
          "name": "contributors",
          "type": "address[]"
        },
        {
          "internalType": "uint256",
          "name": "deadline",
          "type": "uint256"
        }
      ],
      "name": "mintWorkstream",
      "outputs": [],
      "stateMutability": "payable",
      "type": "function"
    },
    {
      "inputs": [
        {
          "internalType": "address",
          "name": "_operator",
          "type": "address"
        },
        {
          "internalType": "address",
          "name": "_from",
          "type": "address"
        },
        {
          "internalType": "uint256[]",
          "name": "_ids",
          "type": "uint256[]"
        },
        {
          "internalType": "uint256[]",
          "name": "_values",
          "type": "uint256[]"
        },
        {
          "internalType": "bytes",
          "name": "_data",
          "type": "bytes"
        }
      ],
      "name": "onERC1155BatchReceived",
      "outputs": [
        {
          "internalType": "bytes4",
          "name": "",
          "type": "bytes4"
        }
      ],
      "stateMutability": "pure",
      "type": "function"
    },
    {
      "inputs": [
        {
          "internalType": "address",
          "name": "_operator",
          "type": "address"
        },
        {
          "internalType": "address",
          "name": "_from",
          "type": "address"
        },
        {
          "internalType": "uint256",
          "name": "_id",
          "type": "uint256"
        },
        {
          "internalType": "uint256",
          "name": "_value",
          "type": "uint256"
        },
        {
          "internalType": "bytes",
          "name": "_data",
          "type": "bytes"
        }
      ],
      "name": "onERC1155Received",
      "outputs": [
        {
          "internalType": "bytes4",
          "name": "",
          "type": "bytes4"
        }
      ],
      "stateMutability": "pure",
      "type": "function"
    },
    {
      "inputs": [
        {
          "internalType": "bytes32",
          "name": "role",
          "type": "bytes32"
        },
        {
          "internalType": "address",
          "name": "account",
          "type": "address"
        }
      ],
      "name": "renounceRole",
      "outputs": [],
      "stateMutability": "nonpayable",
      "type": "function"
    },
    {
      "inputs": [
        {
          "internalType": "uint256",
          "name": "workstreamID",
          "type": "uint256"
        },
        {
          "internalType": "address[]",
          "name": "contributors",
          "type": "address[]"
        },
        {
          "internalType": "uint256[]",
          "name": "vFuxGiven",
          "type": "uint256[]"
        }
      ],
      "name": "resolveValueEvaluation",
      "outputs": [],
      "stateMutability": "nonpayable",
      "type": "function"
    },
    {
      "inputs": [
        {
          "internalType": "bytes32",
          "name": "role",
          "type": "bytes32"
        },
        {
          "internalType": "address",
          "name": "account",
          "type": "address"
        }
      ],
      "name": "revokeRole",
      "outputs": [],
      "stateMutability": "nonpayable",
      "type": "function"
    },
    {
      "inputs": [
        {
          "internalType": "address",
          "name": "from",
          "type": "address"
        },
        {
          "internalType": "address",
          "name": "to",
          "type": "address"
        },
        {
          "internalType": "uint256[]",
          "name": "ids",
          "type": "uint256[]"
        },
        {
          "internalType": "uint256[]",
          "name": "amounts",
          "type": "uint256[]"
        },
        {
          "internalType": "bytes",
          "name": "data",
          "type": "bytes"
        }
      ],
      "name": "safeBatchTransferFrom",
      "outputs": [],
      "stateMutability": "pure",
      "type": "function"
    },
    {
      "inputs": [
        {
          "internalType": "address",
          "name": "from",
          "type": "address"
        },
        {
          "internalType": "address",
          "name": "to",
          "type": "address"
        },
        {
          "internalType": "uint256",
          "name": "id",
          "type": "uint256"
        },
        {
          "internalType": "uint256",
          "name": "amount",
          "type": "uint256"
        },
        {
          "internalType": "bytes",
          "name": "data",
          "type": "bytes"
        }
      ],
      "name": "safeTransferFrom",
      "outputs": [],
      "stateMutability": "pure",
      "type": "function"
    },
    {
      "inputs": [
        {
          "internalType": "address",
          "name": "operator",
          "type": "address"
        },
        {
          "internalType": "bool",
          "name": "approved",
          "type": "bool"
        }
      ],
      "name": "setApprovalForAll",
      "outputs": [],
      "stateMutability": "nonpayable",
      "type": "function"
    },
    {
      "inputs": [
        {
          "internalType": "string",
          "name": "newuri",
          "type": "string"
        }
      ],
      "name": "setURI",
      "outputs": [],
      "stateMutability": "nonpayable",
      "type": "function"
    },
    {
      "inputs": [
        {
          "internalType": "uint256",
          "name": "workstreamID",
          "type": "uint256"
        },
        {
          "internalType": "address[]",
          "name": "contributors",
          "type": "address[]"
        },
        {
          "internalType": "uint256[]",
          "name": "vFuxGiven",
          "type": "uint256[]"
        }
      ],
      "name": "submitValueEvaluation",
      "outputs": [],
      "stateMutability": "nonpayable",
      "type": "function"
    },
    {
      "inputs": [
        {
          "internalType": "bytes4",
          "name": "interfaceId",
          "type": "bytes4"
        }
      ],
      "name": "supportsInterface",
      "outputs": [
        {
          "internalType": "bool",
          "name": "",
          "type": "bool"
        }
      ],
      "stateMutability": "view",
      "type": "function"
    },
    {
      "inputs": [
        {
          "internalType": "uint256",
          "name": "id",
          "type": "uint256"
        }
      ],
      "name": "totalSupply",
      "outputs": [
        {
          "internalType": "uint256",
          "name": "",
          "type": "uint256"
        }
      ],
      "stateMutability": "view",
      "type": "function"
    },
    {
      "inputs": [
        {
          "internalType": "uint256",
          "name": "tokenId",
          "type": "uint256"
        }
      ],
      "name": "uri",
      "outputs": [
        {
          "internalType": "string",
          "name": "",
          "type": "string"
        }
      ],
      "stateMutability": "view",
      "type": "function"
    },
    {
      "inputs": [
        {
          "internalType": "uint256",
          "name": "workstreamID",
          "type": "uint256"
        }
      ],
      "name": "withdrawFromWorkstream",
      "outputs": [],
      "stateMutability": "nonpayable",
      "type": "function"
    }
  ],
  "transactionHash": "0xc232e9e1c6cf1f9d1d50aabb7b44b3b8dc4ef4be7d41eefa286997eb410cdac2",
  "args": [],
  "numDeployments": 1,
  "solcInputHash": "2c376795b200baf45c817a664194c152",
  "bytecode": "0x60a06040819052600060808190526200001b9160049162000172565b5060006007553480156200002e57600080fd5b506040805160208101909152600081526200004981620000b5565b5062000057600033620000ce565b620000837f7804d923f43a17d325d77e781528e0793b2edd9890ab45fc64efd7b4b427744c33620000ce565b620000af7f9f2df0fed2c77648de5860a4cc508cd0818c85b8b8a1ab4ceeef8d981c8956a633620000ce565b62000254565b8051620000ca90600290602084019062000172565b5050565b60008281526006602090815260408083206001600160a01b038516845290915290205460ff16620000ca5760008281526006602090815260408083206001600160a01b03851684529091529020805460ff191660011790556200012e3390565b6001600160a01b0316816001600160a01b0316837f2f8788117e7eff1d82e926ec794901d17c78024a50270940304540a733656f0d60405160405180910390a45050565b828054620001809062000218565b90600052602060002090601f016020900481019282620001a45760008555620001ef565b82601f10620001bf57805160ff1916838001178555620001ef565b82800160010185558215620001ef579182015b82811115620001ef578251825591602001919060010190620001d2565b50620001fd92915062000201565b5090565b5b80821115620001fd576000815560010162000202565b600181811c908216806200022d57607f821691505b6020821081036200024e57634e487b7160e01b600052602260045260246000fd5b50919050565b613a4f80620002646000396000f3fe6080604052600436106102845760003560e01c80638b5d41ef11610153578063d5391393116100cb578063e3ca59551161007f578063f23a6e6111610064578063f23a6e611461080f578063f242432a1461083c578063f385facc1461085757600080fd5b8063e3ca5955146107a6578063e985e9c5146107c657600080fd5b8063d59a0ed3116100b0578063d59a0ed314610746578063d6b0fd2a14610759578063d7cec1551461078657600080fd5b8063d5391393146106f2578063d547741f1461072657600080fd5b8063a22cb46511610122578063bc197c8111610107578063bc197c811461067d578063bd85b039146106c5578063d422831f1461062857600080fd5b8063a22cb4651461063d578063a8319ed21461065d57600080fd5b80638b5d41ef146105a05780638e8e18ad146105cd57806391d14854146105e2578063a217fddf1461062857600080fd5b80632f2ff15d116102015780634562bbea116101b55780634f558e791161019a5780634f558e79146105075780636c24a76f146105365780637f3457101461056c57600080fd5b80634562bbea146104a55780634e1273f4146104e757600080fd5b8063372500ab116101e6578063372500ab146104505780633d39942e1461046557806342f6a9611461048557600080fd5b80632f2ff15d1461041057806336568abe1461043057600080fd5b80630ab0835811610258578063222cc5691161023d578063222cc56914610388578063248a9ca3146103c05780632eb2c2d6146103f057600080fd5b80630ab083581461032e5780630e89341c1461035b57600080fd5b8062fdd58e1461028957806301ffc9a7146102bc57806302fe5305146102ec578063042bf9f01461030e575b600080fd5b34801561029557600080fd5b506102a96102a4366004612cee565b61086c565b6040519081526020015b60405180910390f35b3480156102c857600080fd5b506102dc6102d7366004612d2e565b610915565b60405190151581526020016102b3565b3480156102f857600080fd5b5061030c610307366004612e02565b610926565b005b34801561031a57600080fd5b5061030c610329366004612f41565b61095d565b34801561033a57600080fd5b5061034e610349366004612fae565b610b7d565b6040516102b39190612fc9565b34801561036757600080fd5b5061037b61037636600461300d565b610be9565b6040516102b3919061307e565b34801561039457600080fd5b506102a96103a336600461300d565b336000908152600c60209081526040808320938352929052205490565b3480156103cc57600080fd5b506102a96103db36600461300d565b60009081526006602052604090206001015490565b3480156103fc57600080fd5b5061030c61040b366004613091565b610bf4565b34801561041c57600080fd5b5061030c61042b36600461313b565b610c0d565b34801561043c57600080fd5b5061030c61044b36600461313b565b610c37565b34801561045c57600080fd5b5061030c610cbf565b34801561047157600080fd5b5061030c610480366004613167565b610d2f565b34801561049157600080fd5b5061030c6104a03660046131e9565b610ebd565b3480156104b157600080fd5b506102a96104c0366004612cee565b6001600160a01b039091166000908152600a60209081526040808320938352929052205490565b3480156104f357600080fd5b5061034e610502366004613235565b611035565b34801561051357600080fd5b506102dc61052236600461300d565b600090815260036020526040902054151590565b34801561054257600080fd5b506102a9610551366004612fae565b6001600160a01b03166000908152600f602052604090205490565b34801561057857600080fd5b506102a97f7804d923f43a17d325d77e781528e0793b2edd9890ab45fc64efd7b4b427744c81565b3480156105ac57600080fd5b506105c06105bb366004612cee565b611173565b6040516102b3919061330d565b3480156105d957600080fd5b506102a9600181565b3480156105ee57600080fd5b506102dc6105fd36600461313b565b60009182526006602090815260408084206001600160a01b0393909316845291905290205460ff1690565b34801561063457600080fd5b506102a9600081565b34801561064957600080fd5b5061030c61065836600461335f565b61127f565b34801561066957600080fd5b5061030c610678366004612f41565b61128a565b34801561068957600080fd5b506106ac6106983660046133d2565b63bc197c8160e01b98975050505050505050565b6040516001600160e01b031990911681526020016102b3565b3480156106d157600080fd5b506102a96106e036600461300d565b60009081526003602052604090205490565b3480156106fe57600080fd5b506102a97f9f2df0fed2c77648de5860a4cc508cd0818c85b8b8a1ab4ceeef8d981c8956a681565b34801561073257600080fd5b5061030c61074136600461313b565b61145b565b61030c61075436600461348d565b611480565b34801561076557600080fd5b5061077961077436600461300d565b61166f565b6040516102b391906134fd565b34801561079257600080fd5b5061030c6107a136600461300d565b611858565b3480156107b257600080fd5b5061030c6107c136600461300d565b61194a565b3480156107d257600080fd5b506102dc6107e1366004613596565b6001600160a01b03918216600090815260016020908152604080832093909416825291909152205460ff1690565b34801561081b57600080fd5b506106ac61082a3660046135c0565b63f23a6e6160e01b9695505050505050565b34801561084857600080fd5b5061030c61040b366004613638565b34801561086357600080fd5b5061030c611a99565b60006001600160a01b0383166108ef5760405162461bcd60e51b815260206004820152602a60248201527f455243313135353a2061646472657373207a65726f206973206e6f742061207660448201527f616c6964206f776e65720000000000000000000000000000000000000000000060648201526084015b60405180910390fd5b506000908152602081815260408083206001600160a01b03949094168352929052205490565b600061092082611b36565b92915050565b7f7804d923f43a17d325d77e781528e0793b2edd9890ab45fc64efd7b4b427744c61095081611b5b565b61095982611b68565b5050565b6000838152600860205260409020600681015460ff16610990576040516355dcb6f160e01b815260040160405180910390fd5b60018101546001600160a01b031633146109bd5760405163390cdd9b60e21b815260040160405180910390fd5b336000908152600a602090815260408083208784529091529020546000036109f85760405163a95eee8160e01b815260040160405180910390fd5b336000908152600c60209081526040808320878452909152902054600003610a335760405163da92a67760e01b815260040160405180910390fd5b82511580610a4357508151835114155b15610a915760405163d647364f60e01b815260206004820152601760248201527f636f6e7472696275746f72732c2076467578476976656e00000000000000000060448201526064016108e6565b604080516060810182528481526020808201859052600182840152336000908152600b82528381208882528252929092208151805192939192610ad79284920190612b9d565b506020828101518051610af09260018501920190612c0f565b50604091909101516002909101805460ff1916911515919091179055610b17838386611b7b565b600581015415610b3057610b3083838360050154611c53565b610b3a8385611d1b565b6040518481527f896590eea589ae0b79f1921fb8acf5b09f4c082060e768de7bae07c4dfeada809060200160405180910390a1600601805460ff19169055505050565b6001600160a01b038116600090815260096020908152604091829020805483518184028101840190945280845260609392830182828015610bdd57602002820191906000526020600020905b815481526020019060010190808311610bc9575b50505050509050919050565b606061092082611d92565b60405163e92ecd6760e01b815260040160405180910390fd5b600082815260066020526040902060010154610c2881611b5b565b610c328383611e72565b505050565b6001600160a01b0381163314610cb55760405162461bcd60e51b815260206004820152602f60248201527f416363657373436f6e74726f6c3a2063616e206f6e6c792072656e6f756e636560448201527f20726f6c657320666f722073656c66000000000000000000000000000000000060648201526084016108e6565b6109598282611f14565b336000908152600f60205260408120549003610cee57604051631036b5ad60e31b815260040160405180910390fd5b336000818152600f6020526040808220805490839055905190929183156108fc02918491818181858888f19350505050158015610959573d6000803e3d6000fd5b8060ff16610d3e33600061086c565b1015610d5d5760405163a95eee8160e01b815260040160405180910390fd5b336000908152600e6020908152604080832085845290915290205460ff16610d985760405163d764187d60e01b815260040160405180910390fd5b336000908152600a6020908152604080832085845290915290205460ff82168103610e055760405162461bcd60e51b815260206004820152601260248201527f53616d6520616d6f756e74206f6620465558000000000000000000000000000060448201526064016108e6565b8160ff16811015610e3957610e3933306000610e248560ff88166136b3565b60405180602001604052806000815250611f97565b8160ff16811115610e5857610e5830336000610e2460ff8716866136b3565b336000818152600a6020908152604080832087845282529182902060ff8616908190558251938452908301869052908201527f3e0d5a590ba8d04db40e773cf88b938280ed4080a2688ba8e8105fb56f58e224906060015b60405180910390a1505050565b60008381526008602052604090206006015460ff16610eef576040516355dcb6f160e01b815260040160405180910390fd5b6000838152600860205260409020600101546001600160a01b03163314610f295760405163390cdd9b60e21b815260040160405180910390fd5b8060005b81811015610ff3576000848483818110610f4957610f496136ca565b9050602002016020810190610f5e9190612fae565b6001600160a01b03166000818152600960209081526040808320805460018181018355918552838520018b90558a8452600883528184206002018054808301825590855283852001805473ffffffffffffffffffffffffffffffffffffffff191686179055938352600e82528083208a84529091529020805460ff191690911790555080610feb816136e0565b915050610f2d565b507f53f304d7ddc99bcc4695bc068800ce525ea67661c7f16ad157fee5a1ed6f6b3c848484604051611027939291906136f9565b60405180910390a150505050565b606081518351146110ae5760405162461bcd60e51b815260206004820152602960248201527f455243313135353a206163636f756e747320616e6420696473206c656e67746860448201527f206d69736d61746368000000000000000000000000000000000000000000000060648201526084016108e6565b6000835167ffffffffffffffff8111156110ca576110ca612d4b565b6040519080825280602002602001820160405280156110f3578160200160208202803683370190505b50905060005b845181101561116b5761113e858281518110611117576111176136ca565b6020026020010151858381518110611131576111316136ca565b602002602001015161086c565b828281518110611150576111506136ca565b6020908102919091010152611164816136e0565b90506110f9565b509392505050565b6040805160608082018352808252602080830182905260008385018190526001600160a01b0387168152600b8252848120868252825284902084518154928302810160809081019096529283018281529394929390928492849184018282801561120657602002820191906000526020600020905b81546001600160a01b031681526001909101906020018083116111e8575b505050505081526020016001820180548060200260200160405190810160405280929190818152602001828054801561125e57602002820191906000526020600020905b81548152602001906001019080831161124a575b50505091835250506002919091015460ff1615156020909101529392505050565b61095933838361217b565b336000908152600e6020908152604080832086845290915290205460ff166112c55760405163d764187d60e01b815260040160405180910390fd5b336000908152600a602090815260408083208684529091529020546000036113005760405163a95eee8160e01b815260040160405180910390fd5b336000908152600c6020908152604080832086845290915290205460000361133b5760405163da92a67760e01b815260040160405180910390fd5b8151158061134b57508051825114155b156113995760405163d647364f60e01b815260206004820152601760248201527f636f6e7472696275746f72732c2076467578476976656e00000000000000000060448201526064016108e6565b6113a28261226f565b6113ac8184612309565b604080516060810182528381526020808201849052600182840152336000908152600b825283812087825282529290922081518051929391926113f29284920190612b9d565b50602082810151805161140b9260018501920190612c0f565b50604091820151600291909101805460ff19169115159190911790558051600081523360208201527f22338ac5fc8425f1454ce063a4190ed79ff039d67fd257e9ca0f36ba54bce9c39101610eb0565b60008281526006602052604090206001015461147681611b5b565b610c328383611f14565b60008290036114d25760405163d647364f60e01b815260206004820152600c60248201527f636f6e7472696275746f7273000000000000000000000000000000000000000060448201526064016108e6565b6007546040805160e081018252606081830181815281830191909152600060a0830181815260c084018281528a855233602080870191909152608086018990528651848152808201885290945260019052349052848152600882529290922081518051929384936115469284920190612c4a565b5060208281015160018301805473ffffffffffffffffffffffffffffffffffffffff19166001600160a01b03909216919091179055604083015180516115929260028501920190612b9d565b50606082015180516115ae916003840191602090910190612c0f565b506080820151600482015560a0820151600582015560c0909101516006909101805460ff19169115159190911790556115e8828686610ebd565b7f03205b47e8ac382aa7ca86d69396c8ee19bfc417452392942760a14a3e9c96318260405161164e9181526040602082018190526012908201527f687474703a2f2f6578616d706c652e636f6d0000000000000000000000000000606082015260800190565b60405180910390a160075461166490600161374f565b600755505050505050565b6116ba6040518060e001604052806060815260200160006001600160a01b03168152602001606081526020016060815260200160008152602001600081526020016000151581525090565b60008281526008602052604090819020815160e081019092528054829082906116e290613767565b80601f016020809104026020016040519081016040528092919081815260200182805461170e90613767565b801561175b5780601f106117305761010080835404028352916020019161175b565b820191906000526020600020905b81548152906001019060200180831161173e57829003601f168201915b505050918352505060018201546001600160a01b031660208083019190915260028301805460408051828502810185018252828152940193928301828280156117cd57602002820191906000526020600020905b81546001600160a01b031681526001909101906020018083116117af575b505050505081526020016003820180548060200260200160405190810160405280929190818152602001828054801561182557602002820191906000526020600020905b815481526020019060010190808311611811575b5050509183525050600482015460208201526005820154604082015260069091015460ff16151560609091015292915050565b336000908152600e6020908152604080832084845290915290205460ff166118935760405163d764187d60e01b815260040160405180910390fd5b336000908152600a60209081526040808320848452909152812054908190036118cf5760405163a95eee8160e01b815260040160405180910390fd5b336000818152600a6020908152604080832086845282528083208390558051918201905281815261190592309290918590611f97565b60408051338152602081018490529081018290527f81c3d6f4c1e03f5c57415284db949754444cf26d552e13742dd88bd8b13a89329060600160405180910390a15050565b336000908152600e6020908152604080832084845290915290205460ff166119855760405163d764187d60e01b815260040160405180910390fd5b336000908152600c60209081526040808320848452909152902054156119be5760405163463fefc760e01b815260040160405180910390fd5b336000908152600a602090815260408083208484529091529020546000036119f95760405163a95eee8160e01b815260040160405180910390fd5b611a033382611173565b6040015115611a255760405163730a224760e11b815260040160405180910390fd5b611a423360016064604051806020016040528060008152506123a9565b336000818152600c6020908152604080832085845282529182902060649055815192835282018390527f7b013762bcc4a01787a4815463c2c29ee415e5348c5b65ee468c3c03a76f60eb910160405180910390a150565b336000908152600d602052604090205460ff1615611aca5760405163463fefc760e01b815260040160405180910390fd5b611ae73360006064604051806020016040528060008152506123a9565b6040513381527f5184a1d5e0b0bcb8ee2c912752a2301033333eba83e58729ac34b470353164539060200160405180910390a1336000908152600d60205260409020805460ff19166001179055565b60006001600160e01b03198216637965db0b60e01b14806109205750610920826124cc565b611b6581336124f1565b50565b8051610959906002906020840190612c4a565b81516000805b82811015611c1157848181518110611b9b57611b9b6136ca565b602002602001015182611bae919061374f565b9150611bff33878381518110611bc657611bc66136ca565b60200260200101516001888581518110611be257611be26136ca565b602002602001015160405180602001604052806000815250611f97565b80611c09816136e0565b915050611b81565b50336000908152600c602090815260408083208684529091529020548114611c4c5760405163a95eee8160e01b815260040160405180910390fd5b5050505050565b81516000805b82811015611cf9576000606485878481518110611c7857611c786136ca565b6020026020010151611c8a91906137a1565b611c9491906137c0565b9050611ca0818461374f565b925080600f6000898581518110611cb957611cb96136ca565b60200260200101516001600160a01b03166001600160a01b0316815260200190815260200160002081905550508080611cf1906136e0565b915050611c59565b5082811115611c4c57604051631036b5ad60e31b815260040160405180910390fd5b815160005b81811015611d8c576000848281518110611d3c57611d3c6136ca565b60200260200101519050611d7930826000610e2485896001600160a01b039091166000908152600a60209081526040808320938352929052205490565b5080611d84816136e0565b915050611d20565b50505050565b600081815260056020526040812080546060929190611db090613767565b80601f0160208091040260200160405190810160405280929190818152602001828054611ddc90613767565b8015611e295780601f10611dfe57610100808354040283529160200191611e29565b820191906000526020600020905b815481529060010190602001808311611e0c57829003601f168201915b505050505090506000815111611e4757611e4283612571565b611e6b565b600481604051602001611e5b9291906137fe565b6040516020818303038152906040525b9392505050565b60008281526006602090815260408083206001600160a01b038516845290915290205460ff166109595760008281526006602090815260408083206001600160a01b03851684529091529020805460ff19166001179055611ed03390565b6001600160a01b0316816001600160a01b0316837f2f8788117e7eff1d82e926ec794901d17c78024a50270940304540a733656f0d60405160405180910390a45050565b60008281526006602090815260408083206001600160a01b038516845290915290205460ff16156109595760008281526006602090815260408083206001600160a01b0385168085529252808320805460ff1916905551339285917ff6391f5c32d9c69d2a47ea670b442974b53935d1edc7fd64eb21e047a839171b9190a45050565b6001600160a01b0384166120135760405162461bcd60e51b815260206004820152602560248201527f455243313135353a207472616e7366657220746f20746865207a65726f20616460448201527f647265737300000000000000000000000000000000000000000000000000000060648201526084016108e6565b33600061201f856125fb565b9050600061202c856125fb565b905061203c838989858589612646565b6000868152602081815260408083206001600160a01b038c168452909152902054858110156120d35760405162461bcd60e51b815260206004820152602a60248201527f455243313135353a20696e73756666696369656e742062616c616e636520666f60448201527f72207472616e736665720000000000000000000000000000000000000000000060648201526084016108e6565b6000878152602081815260408083206001600160a01b038d8116855292528083208985039055908a1682528120805488929061211090849061374f565b909155505060408051888152602081018890526001600160a01b03808b16928c821692918816917fc3d58168c5ae7397731d063d5bbf3d657854427343f4c083240f7aacaa2d0f62910160405180910390a4612170848a8a8a8a8a61265c565b505050505050505050565b816001600160a01b0316836001600160a01b0316036122025760405162461bcd60e51b815260206004820152602960248201527f455243313135353a2073657474696e6720617070726f76616c2073746174757360448201527f20666f722073656c66000000000000000000000000000000000000000000000060648201526084016108e6565b6001600160a01b03838116600081815260016020908152604080832094871680845294825291829020805460ff191686151590811790915591519182527f17307eab39ab6107e8899845ad3d59bd9653f200f220920489ca2b5937696c31910160405180910390a3505050565b805160005b81811015610c3257336001600160a01b0316838281518110612298576122986136ca565b60200260200101516001600160a01b0316036122f75760405163d647364f60e01b815260206004820152601560248201527f73656e64657220697320636f6e7472696275746f72000000000000000000000060448201526064016108e6565b80612301816136e0565b915050612274565b81516000805b8281101561235057848181518110612329576123296136ca565b60200260200101518261233c919061374f565b915080612348816136e0565b91505061230f565b50336000908152600c60209081526040808320868452909152902054811461238b5760405163a95eee8160e01b815260040160405180910390fd5b611d8c33306001606460405180602001604052806000815250611f97565b6001600160a01b0384166124095760405162461bcd60e51b815260206004820152602160248201527f455243313135353a206d696e7420746f20746865207a65726f206164647265736044820152607360f81b60648201526084016108e6565b336000612415856125fb565b90506000612422856125fb565b905061243383600089858589612646565b6000868152602081815260408083206001600160a01b038b1684529091528120805487929061246390849061374f565b909155505060408051878152602081018790526001600160a01b03808a1692600092918716917fc3d58168c5ae7397731d063d5bbf3d657854427343f4c083240f7aacaa2d0f62910160405180910390a46124c38360008989898961265c565b50505050505050565b60006001600160e01b03198216630271189760e51b1480610920575061092082612816565b60008281526006602090815260408083206001600160a01b038516845290915290205460ff166109595761252f816001600160a01b03166014612866565b61253a836020612866565b60405160200161254b9291906138a4565b60408051601f198184030181529082905262461bcd60e51b82526108e69160040161307e565b60606002805461258090613767565b80601f01602080910402602001604051908101604052809291908181526020018280546125ac90613767565b8015610bdd5780601f106125ce57610100808354040283529160200191610bdd565b820191906000526020600020905b8154815290600101906020018083116125dc5750939695505050505050565b60408051600180825281830190925260609160009190602080830190803683370190505090508281600081518110612635576126356136ca565b602090810291909101015292915050565b612654868686868686612a0f565b505050505050565b6001600160a01b0384163b156126545760405163f23a6e6160e01b81526001600160a01b0385169063f23a6e61906126a09089908990889088908890600401613925565b6020604051808303816000875af19250505080156126db575060408051601f3d908101601f191682019092526126d891810190613968565b60015b612790576126e7613985565b806308c379a00361272057506126fb6139a1565b806127065750612722565b8060405162461bcd60e51b81526004016108e6919061307e565b505b60405162461bcd60e51b815260206004820152603460248201527f455243313135353a207472616e7366657220746f206e6f6e204552433131353560448201527f526563656976657220696d706c656d656e74657200000000000000000000000060648201526084016108e6565b6001600160e01b0319811663f23a6e6160e01b146124c35760405162461bcd60e51b815260206004820152602860248201527f455243313135353a204552433131353552656365697665722072656a6563746560448201527f6420746f6b656e7300000000000000000000000000000000000000000000000060648201526084016108e6565b60006001600160e01b03198216636cdb3d1360e11b148061284757506001600160e01b031982166303a24d0760e21b145b8061092057506301ffc9a760e01b6001600160e01b0319831614610920565b606060006128758360026137a1565b61288090600261374f565b67ffffffffffffffff81111561289857612898612d4b565b6040519080825280601f01601f1916602001820160405280156128c2576020820181803683370190505b509050600360fc1b816000815181106128dd576128dd6136ca565b60200101906001600160f81b031916908160001a905350600f60fb1b8160018151811061290c5761290c6136ca565b60200101906001600160f81b031916908160001a90535060006129308460026137a1565b61293b90600161374f565b90505b60018111156129c0577f303132333435363738396162636465660000000000000000000000000000000085600f166010811061297c5761297c6136ca565b1a60f81b828281518110612992576129926136ca565b60200101906001600160f81b031916908160001a90535060049490941c936129b981613a2b565b905061293e565b508315611e6b5760405162461bcd60e51b815260206004820181905260248201527f537472696e67733a20686578206c656e67746820696e73756666696369656e7460448201526064016108e6565b6001600160a01b038516612a965760005b8351811015612a9457828181518110612a3b57612a3b6136ca565b602002602001015160036000868481518110612a5957612a596136ca565b602002602001015181526020019081526020016000206000828254612a7e919061374f565b90915550612a8d9050816136e0565b9050612a20565b505b6001600160a01b0384166126545760005b83518110156124c3576000848281518110612ac457612ac46136ca565b602002602001015190506000848381518110612ae257612ae26136ca565b6020026020010151905060006003600084815260200190815260200160002054905081811015612b7a5760405162461bcd60e51b815260206004820152602860248201527f455243313135353a206275726e20616d6f756e74206578636565647320746f7460448201527f616c537570706c7900000000000000000000000000000000000000000000000060648201526084016108e6565b60009283526003602052604090922091039055612b96816136e0565b9050612aa7565b828054828255906000526020600020908101928215612bff579160200282015b82811115612bff578251825473ffffffffffffffffffffffffffffffffffffffff19166001600160a01b03909116178255602090920191600190910190612bbd565b50612c0b929150612cbd565b5090565b828054828255906000526020600020908101928215612bff579160200282015b82811115612bff578251825591602001919060010190612c2f565b828054612c5690613767565b90600052602060002090601f016020900481019282612c785760008555612bff565b82601f10612c9157805160ff1916838001178555612bff565b82800160010185558215612bff5791820182811115612bff578251825591602001919060010190612c2f565b5b80821115612c0b5760008155600101612cbe565b80356001600160a01b0381168114612ce957600080fd5b919050565b60008060408385031215612d0157600080fd5b612d0a83612cd2565b946020939093013593505050565b6001600160e01b031981168114611b6557600080fd5b600060208284031215612d4057600080fd5b8135611e6b81612d18565b634e487b7160e01b600052604160045260246000fd5b601f8201601f1916810167ffffffffffffffff81118282101715612d8757612d87612d4b565b6040525050565b600082601f830112612d9f57600080fd5b813567ffffffffffffffff811115612db957612db9612d4b565b604051612dd0601f8301601f191660200182612d61565b818152846020838601011115612de557600080fd5b816020850160208301376000918101602001919091529392505050565b600060208284031215612e1457600080fd5b813567ffffffffffffffff811115612e2b57600080fd5b612e3784828501612d8e565b949350505050565b600067ffffffffffffffff821115612e5957612e59612d4b565b5060051b60200190565b600082601f830112612e7457600080fd5b81356020612e8182612e3f565b604051612e8e8282612d61565b83815260059390931b8501820192828101915086841115612eae57600080fd5b8286015b84811015612ed057612ec381612cd2565b8352918301918301612eb2565b509695505050505050565b600082601f830112612eec57600080fd5b81356020612ef982612e3f565b604051612f068282612d61565b83815260059390931b8501820192828101915086841115612f2657600080fd5b8286015b84811015612ed05780358352918301918301612f2a565b600080600060608486031215612f5657600080fd5b83359250602084013567ffffffffffffffff80821115612f7557600080fd5b612f8187838801612e63565b93506040860135915080821115612f9757600080fd5b50612fa486828701612edb565b9150509250925092565b600060208284031215612fc057600080fd5b611e6b82612cd2565b6020808252825182820181905260009190848201906040850190845b8181101561300157835183529284019291840191600101612fe5565b50909695505050505050565b60006020828403121561301f57600080fd5b5035919050565b60005b83811015613041578181015183820152602001613029565b83811115611d8c5750506000910152565b6000815180845261306a816020860160208601613026565b601f01601f19169290920160200192915050565b602081526000611e6b6020830184613052565b600080600080600060a086880312156130a957600080fd5b6130b286612cd2565b94506130c060208701612cd2565b9350604086013567ffffffffffffffff808211156130dd57600080fd5b6130e989838a01612edb565b945060608801359150808211156130ff57600080fd5b61310b89838a01612edb565b9350608088013591508082111561312157600080fd5b5061312e88828901612d8e565b9150509295509295909350565b6000806040838503121561314e57600080fd5b8235915061315e60208401612cd2565b90509250929050565b6000806040838503121561317a57600080fd5b82359150602083013560ff8116811461319257600080fd5b809150509250929050565b60008083601f8401126131af57600080fd5b50813567ffffffffffffffff8111156131c757600080fd5b6020830191508360208260051b85010111156131e257600080fd5b9250929050565b6000806000604084860312156131fe57600080fd5b83359250602084013567ffffffffffffffff81111561321c57600080fd5b6132288682870161319d565b9497909650939450505050565b6000806040838503121561324857600080fd5b823567ffffffffffffffff8082111561326057600080fd5b61326c86838701612e63565b9350602085013591508082111561328257600080fd5b5061328f85828601612edb565b9150509250929050565b600081518084526020808501945080840160005b838110156132d25781516001600160a01b0316875295820195908201906001016132ad565b509495945050505050565b600081518084526020808501945080840160005b838110156132d2578151875295820195908201906001016132f1565b6020815260008251606060208401526133296080840182613299565b90506020840151601f1984830301604085015261334682826132dd565b9150506040840151151560608401528091505092915050565b6000806040838503121561337257600080fd5b61337b83612cd2565b91506020830135801515811461319257600080fd5b60008083601f8401126133a257600080fd5b50813567ffffffffffffffff8111156133ba57600080fd5b6020830191508360208285010111156131e257600080fd5b60008060008060008060008060a0898b0312156133ee57600080fd5b6133f789612cd2565b975061340560208a01612cd2565b9650604089013567ffffffffffffffff8082111561342257600080fd5b61342e8c838d0161319d565b909850965060608b013591508082111561344757600080fd5b6134538c838d0161319d565b909650945060808b013591508082111561346c57600080fd5b506134798b828c01613390565b999c989b5096995094979396929594505050565b600080600080606085870312156134a357600080fd5b843567ffffffffffffffff808211156134bb57600080fd5b6134c788838901612d8e565b955060208701359150808211156134dd57600080fd5b506134ea8782880161319d565b9598909750949560400135949350505050565b602081526000825160e0602084015261351a610100840182613052565b90506001600160a01b0360208501511660408401526040840151601f198085840301606086015261354b8383613299565b925060608601519150808584030160808601525061356982826132dd565b915050608084015160a084015260a084015160c084015260c0840151151560e08401528091505092915050565b600080604083850312156135a957600080fd5b6135b283612cd2565b915061315e60208401612cd2565b60008060008060008060a087890312156135d957600080fd5b6135e287612cd2565b95506135f060208801612cd2565b94506040870135935060608701359250608087013567ffffffffffffffff81111561361a57600080fd5b61362689828a01613390565b979a9699509497509295939492505050565b600080600080600060a0868803121561365057600080fd5b61365986612cd2565b945061366760208701612cd2565b93506040860135925060608601359150608086013567ffffffffffffffff81111561369157600080fd5b61312e88828901612d8e565b634e487b7160e01b600052601160045260246000fd5b6000828210156136c5576136c561369d565b500390565b634e487b7160e01b600052603260045260246000fd5b6000600182016136f2576136f261369d565b5060010190565b83815260406020808301829052908201839052600090849060608401835b86811015613743576001600160a01b0361373085612cd2565b1682529282019290820190600101613717565b50979650505050505050565b600082198211156137625761376261369d565b500190565b600181811c9082168061377b57607f821691505b60208210810361379b57634e487b7160e01b600052602260045260246000fd5b50919050565b60008160001904831182151516156137bb576137bb61369d565b500290565b6000826137dd57634e487b7160e01b600052601260045260246000fd5b500490565b600081516137f4818560208601613026565b9290920192915050565b600080845481600182811c91508083168061381a57607f831692505b6020808410820361383957634e487b7160e01b86526022600452602486fd5b81801561384d576001811461385e5761388b565b60ff1986168952848901965061388b565b60008b81526020902060005b868110156138835781548b82015290850190830161386a565b505084890196505b50505050505061389b81856137e2565b95945050505050565b7f416363657373436f6e74726f6c3a206163636f756e74200000000000000000008152600083516138dc816017850160208801613026565b7f206973206d697373696e6720726f6c65200000000000000000000000000000006017918401918201528351613919816028840160208801613026565b01602801949350505050565b60006001600160a01b03808816835280871660208401525084604083015283606083015260a0608083015261395d60a0830184613052565b979650505050505050565b60006020828403121561397a57600080fd5b8151611e6b81612d18565b600060033d111561399e5760046000803e5060005160e01c5b90565b600060443d10156139af5790565b6040516003193d81016004833e81513d67ffffffffffffffff81602484011181841117156139df57505050505090565b82850191508151818111156139f75750505050505090565b843d8701016020828501011115613a115750505050505090565b613a2060208286010187612d61565b509095945050505050565b600081613a3a57613a3a61369d565b50600019019056fea164736f6c634300080d000a",
  "devdoc": {
    "kind": "dev",
    "methods": {
      "balanceOf(address,uint256)": {
        "details": "See {IERC1155-balanceOf}. Requirements: - `account` cannot be the zero address."
      },
      "balanceOfBatch(address[],uint256[])": {
        "details": "See {IERC1155-balanceOfBatch}. Requirements: - `accounts` and `ids` must have the same length."
      },
      "exists(uint256)": {
        "details": "Indicates whether any token exist with a given id, or not."
      },
      "getRoleAdmin(bytes32)": {
        "details": "Returns the admin role that controls `role`. See {grantRole} and {revokeRole}. To change a role's admin, use {_setRoleAdmin}."
      },
      "grantRole(bytes32,address)": {
        "details": "Grants `role` to `account`. If `account` had not been already granted `role`, emits a {RoleGranted} event. Requirements: - the caller must have ``role``'s admin role. May emit a {RoleGranted} event."
      },
      "hasRole(bytes32,address)": {
        "details": "Returns `true` if `account` has been granted `role`."
      },
      "isApprovedForAll(address,address)": {
        "details": "See {IERC1155-isApprovedForAll}."
      },
      "renounceRole(bytes32,address)": {
        "details": "Revokes `role` from the calling account. Roles are often managed via {grantRole} and {revokeRole}: this function's purpose is to provide a mechanism for accounts to lose their privileges if they are compromised (such as when a trusted device is misplaced). If the calling account had been revoked `role`, emits a {RoleRevoked} event. Requirements: - the caller must be `account`. May emit a {RoleRevoked} event."
      },
      "revokeRole(bytes32,address)": {
        "details": "Revokes `role` from `account`. If `account` had been granted `role`, emits a {RoleRevoked} event. Requirements: - the caller must have ``role``'s admin role. May emit a {RoleRevoked} event."
      },
      "safeBatchTransferFrom(address,address,uint256[],uint256[],bytes)": {
        "details": "See {IERC1155-safeBatchTransferFrom}."
      },
      "safeTransferFrom(address,address,uint256,uint256,bytes)": {
        "details": "See {IERC1155-safeTransferFrom}."
      },
      "setApprovalForAll(address,bool)": {
        "details": "See {IERC1155-setApprovalForAll}."
      },
      "totalSupply(uint256)": {
        "details": "Total amount of tokens in with a given id."
      }
    },
    "version": 1
  },
  "userdoc": {
    "kind": "user",
    "methods": {},
    "version": 1
  },
  "storageLayout": {
    "storage": [
      {
        "astId": 418,
        "contract": "contracts/FUX.sol:FUX",
        "label": "_balances",
        "offset": 0,
        "slot": "0",
        "type": "t_mapping(t_uint256,t_mapping(t_address,t_uint256))"
      },
      {
        "astId": 424,
        "contract": "contracts/FUX.sol:FUX",
        "label": "_operatorApprovals",
        "offset": 0,
        "slot": "1",
        "type": "t_mapping(t_address,t_mapping(t_address,t_bool))"
      },
      {
        "astId": 426,
        "contract": "contracts/FUX.sol:FUX",
        "label": "_uri",
        "offset": 0,
        "slot": "2",
        "type": "t_string_storage"
      },
      {
        "astId": 1788,
        "contract": "contracts/FUX.sol:FUX",
        "label": "_totalSupply",
        "offset": 0,
        "slot": "3",
        "type": "t_mapping(t_uint256,t_uint256)"
      },
      {
        "astId": 1948,
        "contract": "contracts/FUX.sol:FUX",
        "label": "_baseURI",
        "offset": 0,
        "slot": "4",
        "type": "t_string_storage"
      },
      {
        "astId": 1952,
        "contract": "contracts/FUX.sol:FUX",
        "label": "_tokenURIs",
        "offset": 0,
        "slot": "5",
        "type": "t_mapping(t_uint256,t_string_storage)"
      },
      {
        "astId": 24,
        "contract": "contracts/FUX.sol:FUX",
        "label": "_roles",
        "offset": 0,
        "slot": "6",
        "type": "t_mapping(t_bytes32,t_struct(RoleData)19_storage)"
      },
      {
        "astId": 2710,
        "contract": "contracts/FUX.sol:FUX",
        "label": "counter",
        "offset": 0,
        "slot": "7",
        "type": "t_uint256"
      },
      {
        "astId": 2796,
        "contract": "contracts/FUX.sol:FUX",
        "label": "workstreams",
        "offset": 0,
        "slot": "8",
        "type": "t_mapping(t_uint256,t_struct(Workstream)2782_storage)"
      },
      {
        "astId": 2801,
        "contract": "contracts/FUX.sol:FUX",
        "label": "contributorWorkstreams",
        "offset": 0,
        "slot": "9",
        "type": "t_mapping(t_address,t_array(t_uint256)dyn_storage)"
      },
      {
        "astId": 2807,
        "contract": "contracts/FUX.sol:FUX",
        "label": "contributorCommitments",
        "offset": 0,
        "slot": "10",
        "type": "t_mapping(t_address,t_mapping(t_uint256,t_uint256))"
      },
      {
        "astId": 2814,
        "contract": "contracts/FUX.sol:FUX",
        "label": "valueEvaluations",
        "offset": 0,
        "slot": "11",
        "type": "t_mapping(t_address,t_mapping(t_uint256,t_struct(Evaluation)2791_storage))"
      },
      {
        "astId": 2820,
        "contract": "contracts/FUX.sol:FUX",
        "label": "vFuxAvailableForWorkstream",
        "offset": 0,
        "slot": "12",
        "type": "t_mapping(t_address,t_mapping(t_uint256,t_uint256))"
      },
      {
        "astId": 2824,
        "contract": "contracts/FUX.sol:FUX",
        "label": "isFuxer",
        "offset": 0,
        "slot": "13",
        "type": "t_mapping(t_address,t_bool)"
      },
      {
        "astId": 2830,
        "contract": "contracts/FUX.sol:FUX",
        "label": "isContributor",
        "offset": 0,
        "slot": "14",
        "type": "t_mapping(t_address,t_mapping(t_uint256,t_bool))"
      },
      {
        "astId": 2834,
        "contract": "contracts/FUX.sol:FUX",
        "label": "balances",
        "offset": 0,
        "slot": "15",
        "type": "t_mapping(t_address,t_uint256)"
      }
    ],
    "types": {
      "t_address": {
        "encoding": "inplace",
        "label": "address",
        "numberOfBytes": "20"
      },
      "t_array(t_address)dyn_storage": {
        "base": "t_address",
        "encoding": "dynamic_array",
        "label": "address[]",
        "numberOfBytes": "32"
      },
      "t_array(t_uint256)dyn_storage": {
        "base": "t_uint256",
        "encoding": "dynamic_array",
        "label": "uint256[]",
        "numberOfBytes": "32"
      },
      "t_bool": {
        "encoding": "inplace",
        "label": "bool",
        "numberOfBytes": "1"
      },
      "t_bytes32": {
        "encoding": "inplace",
        "label": "bytes32",
        "numberOfBytes": "32"
      },
      "t_mapping(t_address,t_array(t_uint256)dyn_storage)": {
        "encoding": "mapping",
        "key": "t_address",
        "label": "mapping(address => uint256[])",
        "numberOfBytes": "32",
        "value": "t_array(t_uint256)dyn_storage"
      },
      "t_mapping(t_address,t_bool)": {
        "encoding": "mapping",
        "key": "t_address",
        "label": "mapping(address => bool)",
        "numberOfBytes": "32",
        "value": "t_bool"
      },
      "t_mapping(t_address,t_mapping(t_address,t_bool))": {
        "encoding": "mapping",
        "key": "t_address",
        "label": "mapping(address => mapping(address => bool))",
        "numberOfBytes": "32",
        "value": "t_mapping(t_address,t_bool)"
      },
      "t_mapping(t_address,t_mapping(t_uint256,t_bool))": {
        "encoding": "mapping",
        "key": "t_address",
        "label": "mapping(address => mapping(uint256 => bool))",
        "numberOfBytes": "32",
        "value": "t_mapping(t_uint256,t_bool)"
      },
      "t_mapping(t_address,t_mapping(t_uint256,t_struct(Evaluation)2791_storage))": {
        "encoding": "mapping",
        "key": "t_address",
        "label": "mapping(address => mapping(uint256 => struct FUX.Evaluation))",
        "numberOfBytes": "32",
        "value": "t_mapping(t_uint256,t_struct(Evaluation)2791_storage)"
      },
      "t_mapping(t_address,t_mapping(t_uint256,t_uint256))": {
        "encoding": "mapping",
        "key": "t_address",
        "label": "mapping(address => mapping(uint256 => uint256))",
        "numberOfBytes": "32",
        "value": "t_mapping(t_uint256,t_uint256)"
      },
      "t_mapping(t_address,t_uint256)": {
        "encoding": "mapping",
        "key": "t_address",
        "label": "mapping(address => uint256)",
        "numberOfBytes": "32",
        "value": "t_uint256"
      },
      "t_mapping(t_bytes32,t_struct(RoleData)19_storage)": {
        "encoding": "mapping",
        "key": "t_bytes32",
        "label": "mapping(bytes32 => struct AccessControl.RoleData)",
        "numberOfBytes": "32",
        "value": "t_struct(RoleData)19_storage"
      },
      "t_mapping(t_uint256,t_bool)": {
        "encoding": "mapping",
        "key": "t_uint256",
        "label": "mapping(uint256 => bool)",
        "numberOfBytes": "32",
        "value": "t_bool"
      },
      "t_mapping(t_uint256,t_mapping(t_address,t_uint256))": {
        "encoding": "mapping",
        "key": "t_uint256",
        "label": "mapping(uint256 => mapping(address => uint256))",
        "numberOfBytes": "32",
        "value": "t_mapping(t_address,t_uint256)"
      },
      "t_mapping(t_uint256,t_string_storage)": {
        "encoding": "mapping",
        "key": "t_uint256",
        "label": "mapping(uint256 => string)",
        "numberOfBytes": "32",
        "value": "t_string_storage"
      },
      "t_mapping(t_uint256,t_struct(Evaluation)2791_storage)": {
        "encoding": "mapping",
        "key": "t_uint256",
        "label": "mapping(uint256 => struct FUX.Evaluation)",
        "numberOfBytes": "32",
        "value": "t_struct(Evaluation)2791_storage"
      },
      "t_mapping(t_uint256,t_struct(Workstream)2782_storage)": {
        "encoding": "mapping",
        "key": "t_uint256",
        "label": "mapping(uint256 => struct FUX.Workstream)",
        "numberOfBytes": "32",
        "value": "t_struct(Workstream)2782_storage"
      },
      "t_mapping(t_uint256,t_uint256)": {
        "encoding": "mapping",
        "key": "t_uint256",
        "label": "mapping(uint256 => uint256)",
        "numberOfBytes": "32",
        "value": "t_uint256"
      },
      "t_string_storage": {
        "encoding": "bytes",
        "label": "string",
        "numberOfBytes": "32"
      },
      "t_struct(Evaluation)2791_storage": {
        "encoding": "inplace",
        "label": "struct FUX.Evaluation",
        "members": [
          {
            "astId": 2785,
            "contract": "contracts/FUX.sol:FUX",
            "label": "contributors",
            "offset": 0,
            "slot": "0",
            "type": "t_array(t_address)dyn_storage"
          },
          {
            "astId": 2788,
            "contract": "contracts/FUX.sol:FUX",
            "label": "ratings",
            "offset": 0,
            "slot": "1",
            "type": "t_array(t_uint256)dyn_storage"
          },
          {
            "astId": 2790,
            "contract": "contracts/FUX.sol:FUX",
            "label": "exists",
            "offset": 0,
            "slot": "2",
            "type": "t_bool"
          }
        ],
        "numberOfBytes": "96"
      },
      "t_struct(RoleData)19_storage": {
        "encoding": "inplace",
        "label": "struct AccessControl.RoleData",
        "members": [
          {
            "astId": 16,
            "contract": "contracts/FUX.sol:FUX",
            "label": "members",
            "offset": 0,
            "slot": "0",
            "type": "t_mapping(t_address,t_bool)"
          },
          {
            "astId": 18,
            "contract": "contracts/FUX.sol:FUX",
            "label": "adminRole",
            "offset": 0,
            "slot": "1",
            "type": "t_bytes32"
          }
        ],
        "numberOfBytes": "64"
      },
      "t_struct(Workstream)2782_storage": {
        "encoding": "inplace",
        "label": "struct FUX.Workstream",
        "members": [
          {
            "astId": 2767,
            "contract": "contracts/FUX.sol:FUX",
            "label": "name",
            "offset": 0,
            "slot": "0",
            "type": "t_string_storage"
          },
          {
            "astId": 2769,
            "contract": "contracts/FUX.sol:FUX",
            "label": "creator",
            "offset": 0,
            "slot": "1",
            "type": "t_address"
          },
          {
            "astId": 2772,
            "contract": "contracts/FUX.sol:FUX",
            "label": "contributors",
            "offset": 0,
            "slot": "2",
            "type": "t_array(t_address)dyn_storage"
          },
          {
            "astId": 2775,
            "contract": "contracts/FUX.sol:FUX",
            "label": "evaluations",
            "offset": 0,
            "slot": "3",
            "type": "t_array(t_uint256)dyn_storage"
          },
          {
            "astId": 2777,
            "contract": "contracts/FUX.sol:FUX",
            "label": "deadline",
            "offset": 0,
            "slot": "4",
            "type": "t_uint256"
          },
          {
            "astId": 2779,
            "contract": "contracts/FUX.sol:FUX",
            "label": "funds",
            "offset": 0,
            "slot": "5",
            "type": "t_uint256"
          },
          {
            "astId": 2781,
            "contract": "contracts/FUX.sol:FUX",
            "label": "exists",
            "offset": 0,
            "slot": "6",
            "type": "t_bool"
          }
        ],
        "numberOfBytes": "224"
      },
      "t_uint256": {
        "encoding": "inplace",
        "label": "uint256",
        "numberOfBytes": "32"
      }
    }
  }
}