{
  "address": "0x2584385A9135b0B73Fb4c118B3f67724371A4F89",
  "abi": [
    {
      "inputs": [],
      "stateMutability": "nonpayable",
      "type": "constructor"
    },
    {
      "anonymous": false,
      "inputs": [
        {
          "indexed": true,
          "internalType": "address",
          "name": "account",
          "type": "address"
        },
        {
          "indexed": true,
          "internalType": "address",
          "name": "operator",
          "type": "address"
        },
        {
          "indexed": false,
          "internalType": "bool",
          "name": "approved",
          "type": "bool"
        }
      ],
      "name": "ApprovalForAll",
      "type": "event"
    },
    {
      "anonymous": false,
      "inputs": [
        {
          "indexed": false,
          "internalType": "uint256",
          "name": "id",
          "type": "uint256"
        },
        {
          "indexed": false,
          "internalType": "address[]",
          "name": "contributors",
          "type": "address[]"
        }
      ],
      "name": "ContributorsAdded",
      "type": "event"
    },
    {
      "anonymous": false,
      "inputs": [
        {
          "indexed": false,
          "internalType": "address",
          "name": "user",
          "type": "address"
        }
      ],
      "name": "FuxClaimed",
      "type": "event"
    },
    {
      "anonymous": false,
      "inputs": [
        {
          "indexed": false,
          "internalType": "address",
          "name": "user",
          "type": "address"
        },
        {
          "indexed": false,
          "internalType": "uint256",
          "name": "workstreamId",
          "type": "uint256"
        },
        {
          "indexed": false,
          "internalType": "uint256",
          "name": "amount",
          "type": "uint256"
        }
      ],
      "name": "FuxGiven",
      "type": "event"
    },
    {
      "anonymous": false,
      "inputs": [
        {
          "indexed": true,
          "internalType": "bytes32",
          "name": "role",
          "type": "bytes32"
        },
        {
          "indexed": true,
          "internalType": "bytes32",
          "name": "previousAdminRole",
          "type": "bytes32"
        },
        {
          "indexed": true,
          "internalType": "bytes32",
          "name": "newAdminRole",
          "type": "bytes32"
        }
      ],
      "name": "RoleAdminChanged",
      "type": "event"
    },
    {
      "anonymous": false,
      "inputs": [
        {
          "indexed": true,
          "internalType": "bytes32",
          "name": "role",
          "type": "bytes32"
        },
        {
          "indexed": true,
          "internalType": "address",
          "name": "account",
          "type": "address"
        },
        {
          "indexed": true,
          "internalType": "address",
          "name": "sender",
          "type": "address"
        }
      ],
      "name": "RoleGranted",
      "type": "event"
    },
    {
      "anonymous": false,
      "inputs": [
        {
          "indexed": true,
          "internalType": "bytes32",
          "name": "role",
          "type": "bytes32"
        },
        {
          "indexed": true,
          "internalType": "address",
          "name": "account",
          "type": "address"
        },
        {
          "indexed": true,
          "internalType": "address",
          "name": "sender",
          "type": "address"
        }
      ],
      "name": "RoleRevoked",
      "type": "event"
    },
    {
      "anonymous": false,
      "inputs": [
        {
          "indexed": true,
          "internalType": "address",
          "name": "operator",
          "type": "address"
        },
        {
          "indexed": true,
          "internalType": "address",
          "name": "from",
          "type": "address"
        },
        {
          "indexed": true,
          "internalType": "address",
          "name": "to",
          "type": "address"
        },
        {
          "indexed": false,
          "internalType": "uint256[]",
          "name": "ids",
          "type": "uint256[]"
        },
        {
          "indexed": false,
          "internalType": "uint256[]",
          "name": "values",
          "type": "uint256[]"
        }
      ],
      "name": "TransferBatch",
      "type": "event"
    },
    {
      "anonymous": false,
      "inputs": [
        {
          "indexed": true,
          "internalType": "address",
          "name": "operator",
          "type": "address"
        },
        {
          "indexed": true,
          "internalType": "address",
          "name": "from",
          "type": "address"
        },
        {
          "indexed": true,
          "internalType": "address",
          "name": "to",
          "type": "address"
        },
        {
          "indexed": false,
          "internalType": "uint256",
          "name": "id",
          "type": "uint256"
        },
        {
          "indexed": false,
          "internalType": "uint256",
          "name": "value",
          "type": "uint256"
        }
      ],
      "name": "TransferSingle",
      "type": "event"
    },
    {
      "anonymous": false,
      "inputs": [
        {
          "indexed": false,
          "internalType": "string",
          "name": "value",
          "type": "string"
        },
        {
          "indexed": true,
          "internalType": "uint256",
          "name": "id",
          "type": "uint256"
        }
      ],
      "name": "URI",
      "type": "event"
    },
    {
      "anonymous": false,
      "inputs": [
        {
          "indexed": false,
          "internalType": "uint256",
          "name": "id",
          "type": "uint256"
        },
        {
          "indexed": false,
          "internalType": "string",
          "name": "metadataUri",
          "type": "string"
        }
      ],
      "name": "WorkstreamMinted",
      "type": "event"
    },
    {
      "inputs": [],
      "name": "DEFAULT_ADMIN_ROLE",
      "outputs": [
        {
          "internalType": "bytes32",
          "name": "",
          "type": "bytes32"
        }
      ],
      "stateMutability": "view",
      "type": "function"
    },
    {
      "inputs": [],
      "name": "FUX_TOKEN_ID",
      "outputs": [
        {
          "internalType": "uint256",
          "name": "",
          "type": "uint256"
        }
      ],
      "stateMutability": "view",
      "type": "function"
    },
    {
      "inputs": [],
      "name": "MINTER_ROLE",
      "outputs": [
        {
          "internalType": "bytes32",
          "name": "",
          "type": "bytes32"
        }
      ],
      "stateMutability": "view",
      "type": "function"
    },
    {
      "inputs": [],
      "name": "URI_SETTER_ROLE",
      "outputs": [
        {
          "internalType": "bytes32",
          "name": "",
          "type": "bytes32"
        }
      ],
      "stateMutability": "view",
      "type": "function"
    },
    {
      "inputs": [],
      "name": "VFUX_TOKEN_ID",
      "outputs": [
        {
          "internalType": "uint256",
          "name": "",
          "type": "uint256"
        }
      ],
      "stateMutability": "view",
      "type": "function"
    },
    {
      "inputs": [
        {
          "internalType": "uint256",
          "name": "workstreamId",
          "type": "uint256"
        },
        {
          "internalType": "address[]",
          "name": "contributors",
          "type": "address[]"
        }
      ],
      "name": "addContributors",
      "outputs": [],
      "stateMutability": "nonpayable",
      "type": "function"
    },
    {
      "inputs": [
        {
          "internalType": "address",
          "name": "account",
          "type": "address"
        },
        {
          "internalType": "uint256",
          "name": "id",
          "type": "uint256"
        }
      ],
      "name": "balanceOf",
      "outputs": [
        {
          "internalType": "uint256",
          "name": "",
          "type": "uint256"
        }
      ],
      "stateMutability": "view",
      "type": "function"
    },
    {
      "inputs": [
        {
          "internalType": "address[]",
          "name": "accounts",
          "type": "address[]"
        },
        {
          "internalType": "uint256[]",
          "name": "ids",
          "type": "uint256[]"
        }
      ],
      "name": "balanceOfBatch",
      "outputs": [
        {
          "internalType": "uint256[]",
          "name": "",
          "type": "uint256[]"
        }
      ],
      "stateMutability": "view",
      "type": "function"
    },
    {
      "inputs": [
        {
          "internalType": "uint256",
          "name": "workstreamID",
          "type": "uint256"
        },
        {
          "internalType": "uint256",
          "name": "fuxGiven",
          "type": "uint256"
        }
      ],
      "name": "commitToWorkstream",
      "outputs": [],
      "stateMutability": "nonpayable",
      "type": "function"
    },
    {
      "inputs": [
        {
          "internalType": "uint256",
          "name": "id",
          "type": "uint256"
        }
      ],
      "name": "exists",
      "outputs": [
        {
          "internalType": "bool",
          "name": "",
          "type": "bool"
        }
      ],
      "stateMutability": "view",
      "type": "function"
    },
    {
      "inputs": [
        {
          "internalType": "uint256",
          "name": "workstreamID",
          "type": "uint256"
        }
      ],
      "name": "getCommitmentEvaluation",
      "outputs": [
        {
          "components": [
            {
              "internalType": "address[]",
              "name": "contributors",
              "type": "address[]"
            },
            {
              "internalType": "uint256[]",
              "name": "ratings",
              "type": "uint256[]"
            }
          ],
          "internalType": "struct FUX.Evaluation",
          "name": "evaluation",
          "type": "tuple"
        }
      ],
      "stateMutability": "view",
      "type": "function"
    },
    {
      "inputs": [
        {
          "internalType": "bytes32",
          "name": "role",
          "type": "bytes32"
        }
      ],
      "name": "getRoleAdmin",
      "outputs": [
        {
          "internalType": "bytes32",
          "name": "",
          "type": "bytes32"
        }
      ],
      "stateMutability": "view",
      "type": "function"
    },
    {
      "inputs": [
        {
          "internalType": "uint256",
          "name": "workstreamID",
          "type": "uint256"
        }
      ],
      "name": "getValueEvaluation",
      "outputs": [
        {
          "components": [
            {
              "internalType": "address[]",
              "name": "contributors",
              "type": "address[]"
            },
            {
              "internalType": "uint256[]",
              "name": "ratings",
              "type": "uint256[]"
            }
          ],
          "internalType": "struct FUX.Evaluation",
          "name": "evaluation",
          "type": "tuple"
        }
      ],
      "stateMutability": "view",
      "type": "function"
    },
    {
      "inputs": [
        {
          "internalType": "uint256",
          "name": "workstreamID",
          "type": "uint256"
        }
      ],
      "name": "getWorkstreamByID",
      "outputs": [
        {
          "components": [
            {
              "internalType": "string",
              "name": "name",
              "type": "string"
            },
            {
              "internalType": "address",
              "name": "creator",
              "type": "address"
            },
            {
              "internalType": "address[]",
              "name": "contributors",
              "type": "address[]"
            },
            {
              "internalType": "uint256",
              "name": "deadline",
              "type": "uint256"
            },
            {
              "internalType": "bool",
              "name": "exists",
              "type": "bool"
            }
          ],
          "internalType": "struct FUX.Workstream",
          "name": "workstream",
          "type": "tuple"
        }
      ],
      "stateMutability": "view",
      "type": "function"
    },
    {
      "inputs": [
        {
          "internalType": "uint256",
          "name": "workstreamID",
          "type": "uint256"
        },
        {
          "internalType": "address",
          "name": "user",
          "type": "address"
        }
      ],
      "name": "getWorkstreamCommitment",
      "outputs": [
        {
          "internalType": "uint256",
          "name": "fuxGiven",
          "type": "uint256"
        }
      ],
      "stateMutability": "view",
      "type": "function"
    },
    {
      "inputs": [
        {
          "internalType": "address",
          "name": "user",
          "type": "address"
        }
      ],
      "name": "getWorkstreamIDs",
      "outputs": [
        {
          "internalType": "uint256[]",
          "name": "ids",
          "type": "uint256[]"
        }
      ],
      "stateMutability": "view",
      "type": "function"
    },
    {
      "inputs": [
        {
          "internalType": "bytes32",
          "name": "role",
          "type": "bytes32"
        },
        {
          "internalType": "address",
          "name": "account",
          "type": "address"
        }
      ],
      "name": "grantRole",
      "outputs": [],
      "stateMutability": "nonpayable",
      "type": "function"
    },
    {
      "inputs": [
        {
          "internalType": "bytes32",
          "name": "role",
          "type": "bytes32"
        },
        {
          "internalType": "address",
          "name": "account",
          "type": "address"
        }
      ],
      "name": "hasRole",
      "outputs": [
        {
          "internalType": "bool",
          "name": "",
          "type": "bool"
        }
      ],
      "stateMutability": "view",
      "type": "function"
    },
    {
      "inputs": [
        {
          "internalType": "address",
          "name": "account",
          "type": "address"
        },
        {
          "internalType": "address",
          "name": "operator",
          "type": "address"
        }
      ],
      "name": "isApprovedForAll",
      "outputs": [
        {
          "internalType": "bool",
          "name": "",
          "type": "bool"
        }
      ],
      "stateMutability": "view",
      "type": "function"
    },
    {
      "inputs": [],
      "name": "mintFux",
      "outputs": [],
      "stateMutability": "nonpayable",
      "type": "function"
    },
    {
      "inputs": [
        {
          "internalType": "string",
          "name": "name",
          "type": "string"
        },
        {
          "internalType": "address[]",
          "name": "contributors",
          "type": "address[]"
        },
        {
          "internalType": "uint256",
          "name": "deadline",
          "type": "uint256"
        }
      ],
      "name": "mintWorkstream",
      "outputs": [],
      "stateMutability": "nonpayable",
      "type": "function"
    },
    {
      "inputs": [
        {
          "internalType": "bytes32",
          "name": "role",
          "type": "bytes32"
        },
        {
          "internalType": "address",
          "name": "account",
          "type": "address"
        }
      ],
      "name": "renounceRole",
      "outputs": [],
      "stateMutability": "nonpayable",
      "type": "function"
    },
    {
      "inputs": [
        {
          "internalType": "bytes32",
          "name": "role",
          "type": "bytes32"
        },
        {
          "internalType": "address",
          "name": "account",
          "type": "address"
        }
      ],
      "name": "revokeRole",
      "outputs": [],
      "stateMutability": "nonpayable",
      "type": "function"
    },
    {
      "inputs": [
        {
          "internalType": "address",
          "name": "from",
          "type": "address"
        },
        {
          "internalType": "address",
          "name": "to",
          "type": "address"
        },
        {
          "internalType": "uint256[]",
          "name": "ids",
          "type": "uint256[]"
        },
        {
          "internalType": "uint256[]",
          "name": "amounts",
          "type": "uint256[]"
        },
        {
          "internalType": "bytes",
          "name": "data",
          "type": "bytes"
        }
      ],
      "name": "safeBatchTransferFrom",
      "outputs": [],
      "stateMutability": "nonpayable",
      "type": "function"
    },
    {
      "inputs": [
        {
          "internalType": "address",
          "name": "from",
          "type": "address"
        },
        {
          "internalType": "address",
          "name": "to",
          "type": "address"
        },
        {
          "internalType": "uint256",
          "name": "id",
          "type": "uint256"
        },
        {
          "internalType": "uint256",
          "name": "amount",
          "type": "uint256"
        },
        {
          "internalType": "bytes",
          "name": "data",
          "type": "bytes"
        }
      ],
      "name": "safeTransferFrom",
      "outputs": [],
      "stateMutability": "nonpayable",
      "type": "function"
    },
    {
      "inputs": [
        {
          "internalType": "address",
          "name": "operator",
          "type": "address"
        },
        {
          "internalType": "bool",
          "name": "approved",
          "type": "bool"
        }
      ],
      "name": "setApprovalForAll",
      "outputs": [],
      "stateMutability": "nonpayable",
      "type": "function"
    },
    {
      "inputs": [
        {
          "internalType": "string",
          "name": "newuri",
          "type": "string"
        }
      ],
      "name": "setURI",
      "outputs": [],
      "stateMutability": "nonpayable",
      "type": "function"
    },
    {
      "inputs": [
        {
          "internalType": "uint256",
          "name": "workstreamID",
          "type": "uint256"
        },
        {
          "internalType": "address[]",
          "name": "contributors",
          "type": "address[]"
        },
        {
          "internalType": "uint256[]",
          "name": "ratings",
          "type": "uint256[]"
        }
      ],
      "name": "submitCommitmentEvaluation",
      "outputs": [],
      "stateMutability": "nonpayable",
      "type": "function"
    },
    {
      "inputs": [
        {
          "internalType": "uint256",
          "name": "workstreamID",
          "type": "uint256"
        },
        {
          "internalType": "address[]",
          "name": "contributors",
          "type": "address[]"
        },
        {
          "internalType": "uint256[]",
          "name": "ratings",
          "type": "uint256[]"
        }
      ],
      "name": "submitValueEvaluation",
      "outputs": [],
      "stateMutability": "nonpayable",
      "type": "function"
    },
    {
      "inputs": [
        {
          "internalType": "bytes4",
          "name": "interfaceId",
          "type": "bytes4"
        }
      ],
      "name": "supportsInterface",
      "outputs": [
        {
          "internalType": "bool",
          "name": "",
          "type": "bool"
        }
      ],
      "stateMutability": "view",
      "type": "function"
    },
    {
      "inputs": [
        {
          "internalType": "uint256",
          "name": "id",
          "type": "uint256"
        }
      ],
      "name": "totalSupply",
      "outputs": [
        {
          "internalType": "uint256",
          "name": "",
          "type": "uint256"
        }
      ],
      "stateMutability": "view",
      "type": "function"
    },
    {
      "inputs": [
        {
          "internalType": "uint256",
          "name": "tokenId",
          "type": "uint256"
        }
      ],
      "name": "uri",
      "outputs": [
        {
          "internalType": "string",
          "name": "",
          "type": "string"
        }
      ],
      "stateMutability": "view",
      "type": "function"
    },
    {
      "inputs": [
        {
          "internalType": "uint256",
          "name": "workstreamID",
          "type": "uint256"
        }
      ],
      "name": "withdrawFromWorkstream",
      "outputs": [],
      "stateMutability": "nonpayable",
      "type": "function"
    }
  ],
  "transactionHash": "0x381b158ebbe2a0e47b8d6b77b644d015718309332cc7380e677cb085e7d1df2d",
  "args": [],
  "numDeployments": 1,
  "solcInputHash": "9609fa2a722a7cbdd6bb188d0a402211",
  "bytecode": "0x60a06040819052600060808190526200001b9160049162000172565b5060006007553480156200002e57600080fd5b506040805160208101909152600081526200004981620000b5565b5062000057600033620000ce565b620000837f7804d923f43a17d325d77e781528e0793b2edd9890ab45fc64efd7b4b427744c33620000ce565b620000af7f9f2df0fed2c77648de5860a4cc508cd0818c85b8b8a1ab4ceeef8d981c8956a633620000ce565b62000254565b8051620000ca90600290602084019062000172565b5050565b60008281526006602090815260408083206001600160a01b038516845290915290205460ff16620000ca5760008281526006602090815260408083206001600160a01b03851684529091529020805460ff191660011790556200012e3390565b6001600160a01b0316816001600160a01b0316837f2f8788117e7eff1d82e926ec794901d17c78024a50270940304540a733656f0d60405160405180910390a45050565b828054620001809062000218565b90600052602060002090601f016020900481019282620001a45760008555620001ef565b82601f10620001bf57805160ff1916838001178555620001ef565b82800160010185558215620001ef579182015b82811115620001ef578251825591602001919060010190620001d2565b50620001fd92915062000201565b5090565b5b80821115620001fd576000815560010162000202565b600181811c908216806200022d57607f821691505b6020821081036200024e57634e487b7160e01b600052602260045260246000fd5b50919050565b61314080620002646000396000f3fe608060405234801561001057600080fd5b506004361061020a5760003560e01c8063984d53bc1161012a578063d547741f116100bd578063e70545191161008c578063ebbc504b11610071578063ebbc504b1461053c578063f242432a1461054f578063f385facc1461056257600080fd5b8063e7054519146104ed578063e985e9c51461050057600080fd5b8063d547741f14610494578063d59a0ed3146104a7578063d6b0fd2a146104ba578063d7cec155146104da57600080fd5b8063bd85b039116100f9578063bd85b0391461041a578063cb5023a41461043a578063d422831f146103ec578063d53913931461046d57600080fd5b8063984d53bc146103cc578063a217fddf146103ec578063a22cb465146103f4578063a8319ed21461040757600080fd5b80632f2ff15d116101a25780634f558e79116101715780634f558e79146103425780637f345710146103645780638e8e18ad1461038b57806391d148541461039357600080fd5b80632f2ff15d146102f657806336568abe1461030957806342f6a9611461031c5780634e1273f41461032f57600080fd5b80630ab08358116101de5780630ab08358146102805780630e89341c146102a0578063248a9ca3146102c05780632eb2c2d6146102e357600080fd5b8062fdd58e1461020f57806301ffc9a71461023557806302fe530514610258578063085a7a371461026d575b600080fd5b61022261021d36600461255f565b61056a565b6040519081526020015b60405180910390f35b61024861024336600461259f565b610613565b604051901515815260200161022c565b61026b610266366004612673565b610624565b005b61026b61027b3660046127b2565b61065b565b61029361028e36600461281f565b6106bb565b60405161022c9190612875565b6102b36102ae366004612888565b610727565b60405161022c91906128fd565b6102226102ce366004612888565b60009081526006602052604090206001015490565b61026b6102f1366004612910565b610732565b61026b6103043660046129ba565b6107c6565b61026b6103173660046129ba565b6107f0565b61026b61032a366004612a32565b610878565b61029361033d366004612a7e565b610a30565b610248610350366004612888565b600090815260036020526040902054151590565b6102227f7804d923f43a17d325d77e781528e0793b2edd9890ab45fc64efd7b4b427744c81565b610222600181565b6102486103a13660046129ba565b60009182526006602090815260408084206001600160a01b0393909316845291905290205460ff1690565b6103df6103da366004612888565b610b6e565b60405161022c9190612b1b565b610222600081565b61026b610402366004612b78565b610c56565b61026b6104153660046127b2565b610c61565b610222610428366004612888565b60009081526003602052604090205490565b6102226104483660046129ba565b6001600160a01b03166000908152600a60209081526040808320938352929052205490565b6102227f9f2df0fed2c77648de5860a4cc508cd0818c85b8b8a1ab4ceeef8d981c8956a681565b61026b6104a23660046129ba565b610ca0565b61026b6104b5366004612bb4565b610cc5565b6104cd6104c8366004612888565b610eb6565b60405161022c9190612c24565b61026b6104e8366004612888565b61102f565b61026b6104fb366004612c93565b6110cd565b61024861050e366004612cb5565b6001600160a01b03918216600090815260016020908152604080832093909416825291909152205460ff1690565b6103df61054a366004612888565b61115c565b61026b61055d366004612cdf565b611240565b61026b6112cd565b60006001600160a01b0383166105ed5760405162461bcd60e51b815260206004820152602a60248201527f455243313135353a2061646472657373207a65726f206973206e6f742061207660448201527f616c6964206f776e65720000000000000000000000000000000000000000000060648201526084015b60405180910390fd5b506000908152602081815260408083206001600160a01b03949094168352929052205490565b600061061e82611377565b92915050565b7f7804d923f43a17d325d77e781528e0793b2edd9890ab45fc64efd7b4b427744c61064e8161139c565b610657826113a9565b5050565b6040805180820182528381526020808201849052336000908152600b8252838120878252825292909220815180519293919261069a928492019061240e565b5060208281015180516106b39260018501920190612480565b505050505050565b6001600160a01b03811660009081526009602090815260409182902080548351818402810184019094528084526060939283018282801561071b57602002820191906000526020600020905b815481526020019060010190808311610707575b50505050509050919050565b606061061e826113bc565b6001600160a01b03851633148061074e575061074e853361050e565b6107b25760405162461bcd60e51b815260206004820152602f60248201527f455243313135353a2063616c6c6572206973206e6f7420746f6b656e206f776e60448201526e195c881b9bdc88185c1c1c9bdd9959608a1b60648201526084016105e4565b6107bf858585858561149c565b5050505050565b6000828152600660205260409020600101546107e18161139c565b6107eb8383611715565b505050565b6001600160a01b038116331461086e5760405162461bcd60e51b815260206004820152602f60248201527f416363657373436f6e74726f6c3a2063616e206f6e6c792072656e6f756e636560448201527f20726f6c657320666f722073656c66000000000000000000000000000000000060648201526084016105e4565b61065782826117b7565b60008381526008602052604090206004015460ff166108d95760405162461bcd60e51b815260206004820152601a60248201527f576f726b73747265616d20646f6573206e6f742065786973747300000000000060448201526064016105e4565b6000838152600860205260409020600101546001600160a01b031633146109425760405162461bcd60e51b815260206004820152601d60248201527f6d73672e73656e646572206973206e6f74207468652063726561746f7200000060448201526064016105e4565b8060005b818110156109ee57600084848381811061096257610962612d44565b9050602002016020810190610977919061281f565b6001600160a01b03166000818152600960209081526040808320805460018181018355918552838520018b90558a845260088352908320600201805491820181558352912001805473ffffffffffffffffffffffffffffffffffffffff1916909117905550806109e681612d70565b915050610946565b507f53f304d7ddc99bcc4695bc068800ce525ea67661c7f16ad157fee5a1ed6f6b3c848484604051610a2293929190612d89565b60405180910390a150505050565b60608151835114610aa95760405162461bcd60e51b815260206004820152602960248201527f455243313135353a206163636f756e747320616e6420696473206c656e67746860448201527f206d69736d61746368000000000000000000000000000000000000000000000060648201526084016105e4565b6000835167ffffffffffffffff811115610ac557610ac56125bc565b604051908082528060200260200182016040528015610aee578160200160208202803683370190505b50905060005b8451811015610b6657610b39858281518110610b1257610b12612d44565b6020026020010151858381518110610b2c57610b2c612d44565b602002602001015161056a565b828281518110610b4b57610b4b612d44565b6020908102919091010152610b5f81612d70565b9050610af4565b509392505050565b60408051808201825260608082526020808301829052336000908152600b8252848120868252825284902084518154928302810184018652948501828152939493909284928491840182828015610bee57602002820191906000526020600020905b81546001600160a01b03168152600190910190602001808311610bd0575b5050505050815260200160018201805480602002602001604051908101604052809291908181526020018280548015610c4657602002820191906000526020600020905b815481526020019060010190808311610c32575b5050505050815250509050919050565b61065733838361183a565b6040805180820182528381526020808201849052336000908152600c8252838120878252825292909220815180519293919261069a928492019061240e565b600082815260066020526040902060010154610cbb8161139c565b6107eb83836117b7565b610d036040518060400160405280601281526020017f4d494e54494e4720574f524b53545245414d000000000000000000000000000081525061192e565b81610d505760405162461bcd60e51b815260206004820152601560248201527f4e6f20636f6e7472696275746f7273206b6e6f776e000000000000000000000060448201526064016105e4565b6007546040805160a08101825260608183018181526000608084018181528a85523360208087019190915293850188905285518281528085018752909252600190915284815260088252929092208151805192938493610db392849201906124bb565b5060208281015160018301805473ffffffffffffffffffffffffffffffffffffffff19166001600160a01b0390921691909117905560408301518051610dff926002850192019061240e565b50606082015160038201556080909101516004909101805460ff1916911515919091179055610e2f828686610878565b7f03205b47e8ac382aa7ca86d69396c8ee19bfc417452392942760a14a3e9c963182604051610e959181526040602082018190526012908201527f687474703a2f2f6578616d706c652e636f6d0000000000000000000000000000606082015260800190565b60405180910390a1600754610eab906001612ddf565b600755505050505050565b610ef36040518060a001604052806060815260200160006001600160a01b0316815260200160608152602001600081526020016000151581525090565b60008281526008602052604090819020815160a08101909252805482908290610f1b90612df7565b80601f0160208091040260200160405190810160405280929190818152602001828054610f4790612df7565b8015610f945780601f10610f6957610100808354040283529160200191610f94565b820191906000526020600020905b815481529060010190602001808311610f7757829003601f168201915b505050918352505060018201546001600160a01b0316602080830191909152600283018054604080518285028101850182528281529401939283018282801561100657602002820191906000526020600020905b81546001600160a01b03168152600190910190602001808311610fe8575b50505091835250506003820154602082015260049091015460ff16151560409091015292915050565b336000908152600a60209081526040808320848452909152902054806110975760405162461bcd60e51b815260206004820152601160248201527f4e6f20465558207765726520676976656e00000000000000000000000000000060448201526064016105e4565b336000818152600a6020908152604080832086845282528083208390558051918201905281815261065792309290918590611986565b806110d933600061056a565b10156111275760405162461bcd60e51b815260206004820152601660248201527f4e6f7420656e6f7567682046555820746f20676976650000000000000000000060448201526064016105e4565b336000818152600a60209081526040808320868452825280832085905580519182019052818152610657929130918590611986565b60408051808201825260608082526020808301829052336000908152600c8252848120868252825284902084518154928302810184018652948501828152939493909284928491840182828015610bee576020028201919060005260206000209081546001600160a01b03168152600190910190602001808311610bd0575050505050815260200160018201805480602002602001604051908101604052809291908181526020018280548015610c465760200282019190600052602060002090815481526020019060010190808311610c32575050505050815250509050919050565b6001600160a01b03851633148061125c575061125c853361050e565b6112c05760405162461bcd60e51b815260206004820152602f60248201527f455243313135353a2063616c6c6572206973206e6f7420746f6b656e206f776e60448201526e195c881b9bdc88185c1c1c9bdd9959608a1b60648201526084016105e4565b6107bf8585858585611986565b6112d833600061056a565b156113255760405162461bcd60e51b815260206004820152601760248201527f416c726561647920676f7420796f757220465558206f6e00000000000000000060448201526064016105e4565b611342336000606460405180602001604052806000815250611b3f565b6040513381527f5184a1d5e0b0bcb8ee2c912752a2301033333eba83e58729ac34b470353164539060200160405180910390a1565b60006001600160e01b03198216637965db0b60e01b148061061e575061061e82611c62565b6113a68133611cb2565b50565b80516106579060029060208401906124bb565b6000818152600560205260408120805460609291906113da90612df7565b80601f016020809104026020016040519081016040528092919081815260200182805461140690612df7565b80156114535780601f1061142857610100808354040283529160200191611453565b820191906000526020600020905b81548152906001019060200180831161143657829003601f168201915b5050505050905060008151116114715761146c83611d32565b611495565b600481604051602001611485929190612e4d565b6040516020818303038152906040525b9392505050565b81518351146115135760405162461bcd60e51b815260206004820152602860248201527f455243313135353a2069647320616e6420616d6f756e7473206c656e6774682060448201527f6d69736d6174636800000000000000000000000000000000000000000000000060648201526084016105e4565b6001600160a01b0384166115775760405162461bcd60e51b815260206004820152602560248201527f455243313135353a207472616e7366657220746f20746865207a65726f206164604482015264647265737360d81b60648201526084016105e4565b33611586818787878787611dbc565b60005b84518110156116af5760008582815181106115a6576115a6612d44565b6020026020010151905060008583815181106115c4576115c4612d44565b602090810291909101810151600084815280835260408082206001600160a01b038e1683529093529190912054909150818110156116575760405162461bcd60e51b815260206004820152602a60248201527f455243313135353a20696e73756666696369656e742062616c616e636520666f60448201526939103a3930b739b332b960b11b60648201526084016105e4565b6000838152602081815260408083206001600160a01b038e8116855292528083208585039055908b16825281208054849290611694908490612ddf565b92505081905550505050806116a890612d70565b9050611589565b50846001600160a01b0316866001600160a01b0316826001600160a01b03167f4a39dc06d4c0dbc64b70af90fd698a233a518aa5d07e595d983b8c0526c8f7fb87876040516116ff929190612ef3565b60405180910390a46106b3818787878787611dca565b60008281526006602090815260408083206001600160a01b038516845290915290205460ff166106575760008281526006602090815260408083206001600160a01b03851684529091529020805460ff191660011790556117733390565b6001600160a01b0316816001600160a01b0316837f2f8788117e7eff1d82e926ec794901d17c78024a50270940304540a733656f0d60405160405180910390a45050565b60008281526006602090815260408083206001600160a01b038516845290915290205460ff16156106575760008281526006602090815260408083206001600160a01b0385168085529252808320805460ff1916905551339285917ff6391f5c32d9c69d2a47ea670b442974b53935d1edc7fd64eb21e047a839171b9190a45050565b816001600160a01b0316836001600160a01b0316036118c15760405162461bcd60e51b815260206004820152602960248201527f455243313135353a2073657474696e6720617070726f76616c2073746174757360448201527f20666f722073656c66000000000000000000000000000000000000000000000060648201526084016105e4565b6001600160a01b03838116600081815260016020908152604080832094871680845294825291829020805460ff191686151590811790915591519182527f17307eab39ab6107e8899845ad3d59bd9653f200f220920489ca2b5937696c31910160405180910390a3505050565b6113a68160405160240161194291906128fd565b60408051601f198184030181529190526020810180517bffffffffffffffffffffffffffffffffffffffffffffffffffffffff1663104c13eb60e21b179052611f6f565b6001600160a01b0384166119ea5760405162461bcd60e51b815260206004820152602560248201527f455243313135353a207472616e7366657220746f20746865207a65726f206164604482015264647265737360d81b60648201526084016105e4565b3360006119f685611f90565b90506000611a0385611f90565b9050611a13838989858589611dbc565b6000868152602081815260408083206001600160a01b038c16845290915290205485811015611a975760405162461bcd60e51b815260206004820152602a60248201527f455243313135353a20696e73756666696369656e742062616c616e636520666f60448201526939103a3930b739b332b960b11b60648201526084016105e4565b6000878152602081815260408083206001600160a01b038d8116855292528083208985039055908a16825281208054889290611ad4908490612ddf565b909155505060408051888152602081018890526001600160a01b03808b16928c821692918816917fc3d58168c5ae7397731d063d5bbf3d657854427343f4c083240f7aacaa2d0f62910160405180910390a4611b34848a8a8a8a8a611fdb565b505050505050505050565b6001600160a01b038416611b9f5760405162461bcd60e51b815260206004820152602160248201527f455243313135353a206d696e7420746f20746865207a65726f206164647265736044820152607360f81b60648201526084016105e4565b336000611bab85611f90565b90506000611bb885611f90565b9050611bc983600089858589611dbc565b6000868152602081815260408083206001600160a01b038b16845290915281208054879290611bf9908490612ddf565b909155505060408051878152602081018790526001600160a01b03808a1692600092918716917fc3d58168c5ae7397731d063d5bbf3d657854427343f4c083240f7aacaa2d0f62910160405180910390a4611c5983600089898989611fdb565b50505050505050565b60006001600160e01b03198216636cdb3d1360e11b1480611c9357506001600160e01b031982166303a24d0760e21b145b8061061e57506301ffc9a760e01b6001600160e01b031983161461061e565b60008281526006602090815260408083206001600160a01b038516845290915290205460ff1661065757611cf0816001600160a01b031660146120d7565b611cfb8360206120d7565b604051602001611d0c929190612f18565b60408051601f198184030181529082905262461bcd60e51b82526105e4916004016128fd565b606060028054611d4190612df7565b80601f0160208091040260200160405190810160405280929190818152602001828054611d6d90612df7565b801561071b5780601f10611d8f5761010080835404028352916020019161071b565b820191906000526020600020905b815481529060010190602001808311611d9d5750939695505050505050565b6106b3868686868686612280565b6001600160a01b0384163b156106b35760405163bc197c8160e01b81526001600160a01b0385169063bc197c8190611e0e9089908990889088908890600401612f99565b6020604051808303816000875af1925050508015611e49575060408051601f3d908101601f19168201909252611e4691810190612ff7565b60015b611efe57611e55613014565b806308c379a003611e8e5750611e69613030565b80611e745750611e90565b8060405162461bcd60e51b81526004016105e491906128fd565b505b60405162461bcd60e51b815260206004820152603460248201527f455243313135353a207472616e7366657220746f206e6f6e204552433131353560448201527f526563656976657220696d706c656d656e74657200000000000000000000000060648201526084016105e4565b6001600160e01b0319811663bc197c8160e01b14611c595760405162461bcd60e51b815260206004820152602860248201527f455243313135353a204552433131353552656365697665722072656a656374656044820152676420746f6b656e7360c01b60648201526084016105e4565b80516a636f6e736f6c652e6c6f67602083016000808483855afa5050505050565b60408051600180825281830190925260609160009190602080830190803683370190505090508281600081518110611fca57611fca612d44565b602090810291909101015292915050565b6001600160a01b0384163b156106b35760405163f23a6e6160e01b81526001600160a01b0385169063f23a6e619061201f90899089908890889088906004016130ba565b6020604051808303816000875af192505050801561205a575060408051601f3d908101601f1916820190925261205791810190612ff7565b60015b61206657611e55613014565b6001600160e01b0319811663f23a6e6160e01b14611c595760405162461bcd60e51b815260206004820152602860248201527f455243313135353a204552433131353552656365697665722072656a656374656044820152676420746f6b656e7360c01b60648201526084016105e4565b606060006120e68360026130fd565b6120f1906002612ddf565b67ffffffffffffffff811115612109576121096125bc565b6040519080825280601f01601f191660200182016040528015612133576020820181803683370190505b509050600360fc1b8160008151811061214e5761214e612d44565b60200101906001600160f81b031916908160001a905350600f60fb1b8160018151811061217d5761217d612d44565b60200101906001600160f81b031916908160001a90535060006121a18460026130fd565b6121ac906001612ddf565b90505b6001811115612231577f303132333435363738396162636465660000000000000000000000000000000085600f16601081106121ed576121ed612d44565b1a60f81b82828151811061220357612203612d44565b60200101906001600160f81b031916908160001a90535060049490941c9361222a8161311c565b90506121af565b5083156114955760405162461bcd60e51b815260206004820181905260248201527f537472696e67733a20686578206c656e67746820696e73756666696369656e7460448201526064016105e4565b6001600160a01b0385166123075760005b8351811015612305578281815181106122ac576122ac612d44565b6020026020010151600360008684815181106122ca576122ca612d44565b6020026020010151815260200190815260200160002060008282546122ef9190612ddf565b909155506122fe905081612d70565b9050612291565b505b6001600160a01b0384166106b35760005b8351811015611c5957600084828151811061233557612335612d44565b60200260200101519050600084838151811061235357612353612d44565b60200260200101519050600060036000848152602001908152602001600020549050818110156123eb5760405162461bcd60e51b815260206004820152602860248201527f455243313135353a206275726e20616d6f756e74206578636565647320746f7460448201527f616c537570706c7900000000000000000000000000000000000000000000000060648201526084016105e4565b6000928352600360205260409092209103905561240781612d70565b9050612318565b828054828255906000526020600020908101928215612470579160200282015b82811115612470578251825473ffffffffffffffffffffffffffffffffffffffff19166001600160a01b0390911617825560209092019160019091019061242e565b5061247c92915061252e565b5090565b828054828255906000526020600020908101928215612470579160200282015b828111156124705782518255916020019190600101906124a0565b8280546124c790612df7565b90600052602060002090601f0160209004810192826124e95760008555612470565b82601f1061250257805160ff1916838001178555612470565b8280016001018555821561247057918201828111156124705782518255916020019190600101906124a0565b5b8082111561247c576000815560010161252f565b80356001600160a01b038116811461255a57600080fd5b919050565b6000806040838503121561257257600080fd5b61257b83612543565b946020939093013593505050565b6001600160e01b0319811681146113a657600080fd5b6000602082840312156125b157600080fd5b813561149581612589565b634e487b7160e01b600052604160045260246000fd5b601f8201601f1916810167ffffffffffffffff811182821017156125f8576125f86125bc565b6040525050565b600082601f83011261261057600080fd5b813567ffffffffffffffff81111561262a5761262a6125bc565b604051612641601f8301601f1916602001826125d2565b81815284602083860101111561265657600080fd5b816020850160208301376000918101602001919091529392505050565b60006020828403121561268557600080fd5b813567ffffffffffffffff81111561269c57600080fd5b6126a8848285016125ff565b949350505050565b600067ffffffffffffffff8211156126ca576126ca6125bc565b5060051b60200190565b600082601f8301126126e557600080fd5b813560206126f2826126b0565b6040516126ff82826125d2565b83815260059390931b850182019282810191508684111561271f57600080fd5b8286015b848110156127415761273481612543565b8352918301918301612723565b509695505050505050565b600082601f83011261275d57600080fd5b8135602061276a826126b0565b60405161277782826125d2565b83815260059390931b850182019282810191508684111561279757600080fd5b8286015b84811015612741578035835291830191830161279b565b6000806000606084860312156127c757600080fd5b83359250602084013567ffffffffffffffff808211156127e657600080fd5b6127f2878388016126d4565b9350604086013591508082111561280857600080fd5b506128158682870161274c565b9150509250925092565b60006020828403121561283157600080fd5b61149582612543565b600081518084526020808501945080840160005b8381101561286a5781518752958201959082019060010161284e565b509495945050505050565b602081526000611495602083018461283a565b60006020828403121561289a57600080fd5b5035919050565b60005b838110156128bc5781810151838201526020016128a4565b838111156128cb576000848401525b50505050565b600081518084526128e98160208601602086016128a1565b601f01601f19169290920160200192915050565b60208152600061149560208301846128d1565b600080600080600060a0868803121561292857600080fd5b61293186612543565b945061293f60208701612543565b9350604086013567ffffffffffffffff8082111561295c57600080fd5b61296889838a0161274c565b9450606088013591508082111561297e57600080fd5b61298a89838a0161274c565b935060808801359150808211156129a057600080fd5b506129ad888289016125ff565b9150509295509295909350565b600080604083850312156129cd57600080fd5b823591506129dd60208401612543565b90509250929050565b60008083601f8401126129f857600080fd5b50813567ffffffffffffffff811115612a1057600080fd5b6020830191508360208260051b8501011115612a2b57600080fd5b9250929050565b600080600060408486031215612a4757600080fd5b83359250602084013567ffffffffffffffff811115612a6557600080fd5b612a71868287016129e6565b9497909650939450505050565b60008060408385031215612a9157600080fd5b823567ffffffffffffffff80821115612aa957600080fd5b612ab5868387016126d4565b93506020850135915080821115612acb57600080fd5b50612ad88582860161274c565b9150509250929050565b600081518084526020808501945080840160005b8381101561286a5781516001600160a01b031687529582019590820190600101612af6565b600060208083528351604082850152612b376060850182612ae2565b85830151858203601f19016040870152805180835290840192506000918401905b808310156127415783518252928401926001929092019190840190612b58565b60008060408385031215612b8b57600080fd5b612b9483612543565b915060208301358015158114612ba957600080fd5b809150509250929050565b60008060008060608587031215612bca57600080fd5b843567ffffffffffffffff80821115612be257600080fd5b612bee888389016125ff565b95506020870135915080821115612c0457600080fd5b50612c11878288016129e6565b9598909750949560400135949350505050565b602081526000825160a06020840152612c4060c08401826128d1565b90506001600160a01b0360208501511660408401526040840151601f19848303016060850152612c708282612ae2565b915050606084015160808401526080840151151560a08401528091505092915050565b60008060408385031215612ca657600080fd5b50508035926020909101359150565b60008060408385031215612cc857600080fd5b612cd183612543565b91506129dd60208401612543565b600080600080600060a08688031215612cf757600080fd5b612d0086612543565b9450612d0e60208701612543565b93506040860135925060608601359150608086013567ffffffffffffffff811115612d3857600080fd5b6129ad888289016125ff565b634e487b7160e01b600052603260045260246000fd5b634e487b7160e01b600052601160045260246000fd5b600060018201612d8257612d82612d5a565b5060010190565b83815260406020808301829052908201839052600090849060608401835b86811015612dd3576001600160a01b03612dc085612543565b1682529282019290820190600101612da7565b50979650505050505050565b60008219821115612df257612df2612d5a565b500190565b600181811c90821680612e0b57607f821691505b602082108103612e2b57634e487b7160e01b600052602260045260246000fd5b50919050565b60008151612e438185602086016128a1565b9290920192915050565b600080845481600182811c915080831680612e6957607f831692505b60208084108203612e8857634e487b7160e01b86526022600452602486fd5b818015612e9c5760018114612ead57612eda565b60ff19861689528489019650612eda565b60008b81526020902060005b86811015612ed25781548b820152908501908301612eb9565b505084890196505b505050505050612eea8185612e31565b95945050505050565b604081526000612f06604083018561283a565b8281036020840152612eea818561283a565b7f416363657373436f6e74726f6c3a206163636f756e7420000000000000000000815260008351612f508160178501602088016128a1565b7f206973206d697373696e6720726f6c65200000000000000000000000000000006017918401918201528351612f8d8160288401602088016128a1565b01602801949350505050565b60006001600160a01b03808816835280871660208401525060a06040830152612fc560a083018661283a565b8281036060840152612fd7818661283a565b90508281036080840152612feb81856128d1565b98975050505050505050565b60006020828403121561300957600080fd5b815161149581612589565b600060033d111561302d5760046000803e5060005160e01c5b90565b600060443d101561303e5790565b6040516003193d81016004833e81513d67ffffffffffffffff816024840111818411171561306e57505050505090565b82850191508151818111156130865750505050505090565b843d87010160208285010111156130a05750505050505090565b6130af602082860101876125d2565b509095945050505050565b60006001600160a01b03808816835280871660208401525084604083015283606083015260a060808301526130f260a08301846128d1565b979650505050505050565b600081600019048311821515161561311757613117612d5a565b500290565b60008161312b5761312b612d5a565b50600019019056fea164736f6c634300080d000a",
  "devdoc": {
    "kind": "dev",
    "methods": {
      "balanceOf(address,uint256)": {
        "details": "See {IERC1155-balanceOf}. Requirements: - `account` cannot be the zero address."
      },
      "balanceOfBatch(address[],uint256[])": {
        "details": "See {IERC1155-balanceOfBatch}. Requirements: - `accounts` and `ids` must have the same length."
      },
      "exists(uint256)": {
        "details": "Indicates whether any token exist with a given id, or not."
      },
      "getRoleAdmin(bytes32)": {
        "details": "Returns the admin role that controls `role`. See {grantRole} and {revokeRole}. To change a role's admin, use {_setRoleAdmin}."
      },
      "grantRole(bytes32,address)": {
        "details": "Grants `role` to `account`. If `account` had not been already granted `role`, emits a {RoleGranted} event. Requirements: - the caller must have ``role``'s admin role. May emit a {RoleGranted} event."
      },
      "hasRole(bytes32,address)": {
        "details": "Returns `true` if `account` has been granted `role`."
      },
      "isApprovedForAll(address,address)": {
        "details": "See {IERC1155-isApprovedForAll}."
      },
      "renounceRole(bytes32,address)": {
        "details": "Revokes `role` from the calling account. Roles are often managed via {grantRole} and {revokeRole}: this function's purpose is to provide a mechanism for accounts to lose their privileges if they are compromised (such as when a trusted device is misplaced). If the calling account had been revoked `role`, emits a {RoleRevoked} event. Requirements: - the caller must be `account`. May emit a {RoleRevoked} event."
      },
      "revokeRole(bytes32,address)": {
        "details": "Revokes `role` from `account`. If `account` had been granted `role`, emits a {RoleRevoked} event. Requirements: - the caller must have ``role``'s admin role. May emit a {RoleRevoked} event."
      },
      "safeBatchTransferFrom(address,address,uint256[],uint256[],bytes)": {
        "details": "See {IERC1155-safeBatchTransferFrom}."
      },
      "safeTransferFrom(address,address,uint256,uint256,bytes)": {
        "details": "See {IERC1155-safeTransferFrom}."
      },
      "setApprovalForAll(address,bool)": {
        "details": "See {IERC1155-setApprovalForAll}."
      },
      "totalSupply(uint256)": {
        "details": "Total amount of tokens in with a given id."
      }
    },
    "version": 1
  },
  "userdoc": {
    "kind": "user",
    "methods": {},
    "version": 1
  },
  "storageLayout": {
    "storage": [
      {
        "astId": 418,
        "contract": "contracts/FUX.sol:FUX",
        "label": "_balances",
        "offset": 0,
        "slot": "0",
        "type": "t_mapping(t_uint256,t_mapping(t_address,t_uint256))"
      },
      {
        "astId": 424,
        "contract": "contracts/FUX.sol:FUX",
        "label": "_operatorApprovals",
        "offset": 0,
        "slot": "1",
        "type": "t_mapping(t_address,t_mapping(t_address,t_bool))"
      },
      {
        "astId": 426,
        "contract": "contracts/FUX.sol:FUX",
        "label": "_uri",
        "offset": 0,
        "slot": "2",
        "type": "t_string_storage"
      },
      {
        "astId": 1788,
        "contract": "contracts/FUX.sol:FUX",
        "label": "_totalSupply",
        "offset": 0,
        "slot": "3",
        "type": "t_mapping(t_uint256,t_uint256)"
      },
      {
        "astId": 1948,
        "contract": "contracts/FUX.sol:FUX",
        "label": "_baseURI",
        "offset": 0,
        "slot": "4",
        "type": "t_string_storage"
      },
      {
        "astId": 1952,
        "contract": "contracts/FUX.sol:FUX",
        "label": "_tokenURIs",
        "offset": 0,
        "slot": "5",
        "type": "t_mapping(t_uint256,t_string_storage)"
      },
      {
        "astId": 24,
        "contract": "contracts/FUX.sol:FUX",
        "label": "_roles",
        "offset": 0,
        "slot": "6",
        "type": "t_mapping(t_bytes32,t_struct(RoleData)19_storage)"
      },
      {
        "astId": 2651,
        "contract": "contracts/FUX.sol:FUX",
        "label": "counter",
        "offset": 0,
        "slot": "7",
        "type": "t_uint256"
      },
      {
        "astId": 2700,
        "contract": "contracts/FUX.sol:FUX",
        "label": "workstreams",
        "offset": 0,
        "slot": "8",
        "type": "t_mapping(t_uint256,t_struct(Workstream)2688_storage)"
      },
      {
        "astId": 2705,
        "contract": "contracts/FUX.sol:FUX",
        "label": "contributorWorkstreams",
        "offset": 0,
        "slot": "9",
        "type": "t_mapping(t_address,t_array(t_uint256)dyn_storage)"
      },
      {
        "astId": 2711,
        "contract": "contracts/FUX.sol:FUX",
        "label": "contributorCommitments",
        "offset": 0,
        "slot": "10",
        "type": "t_mapping(t_address,t_mapping(t_uint256,t_uint256))"
      },
      {
        "astId": 2718,
        "contract": "contracts/FUX.sol:FUX",
        "label": "commitmentEvaluations",
        "offset": 0,
        "slot": "11",
        "type": "t_mapping(t_address,t_mapping(t_uint256,t_struct(Evaluation)2695_storage))"
      },
      {
        "astId": 2725,
        "contract": "contracts/FUX.sol:FUX",
        "label": "valueEvaluations",
        "offset": 0,
        "slot": "12",
        "type": "t_mapping(t_address,t_mapping(t_uint256,t_struct(Evaluation)2695_storage))"
      }
    ],
    "types": {
      "t_address": {
        "encoding": "inplace",
        "label": "address",
        "numberOfBytes": "20"
      },
      "t_array(t_address)dyn_storage": {
        "base": "t_address",
        "encoding": "dynamic_array",
        "label": "address[]",
        "numberOfBytes": "32"
      },
      "t_array(t_uint256)dyn_storage": {
        "base": "t_uint256",
        "encoding": "dynamic_array",
        "label": "uint256[]",
        "numberOfBytes": "32"
      },
      "t_bool": {
        "encoding": "inplace",
        "label": "bool",
        "numberOfBytes": "1"
      },
      "t_bytes32": {
        "encoding": "inplace",
        "label": "bytes32",
        "numberOfBytes": "32"
      },
      "t_mapping(t_address,t_array(t_uint256)dyn_storage)": {
        "encoding": "mapping",
        "key": "t_address",
        "label": "mapping(address => uint256[])",
        "numberOfBytes": "32",
        "value": "t_array(t_uint256)dyn_storage"
      },
      "t_mapping(t_address,t_bool)": {
        "encoding": "mapping",
        "key": "t_address",
        "label": "mapping(address => bool)",
        "numberOfBytes": "32",
        "value": "t_bool"
      },
      "t_mapping(t_address,t_mapping(t_address,t_bool))": {
        "encoding": "mapping",
        "key": "t_address",
        "label": "mapping(address => mapping(address => bool))",
        "numberOfBytes": "32",
        "value": "t_mapping(t_address,t_bool)"
      },
      "t_mapping(t_address,t_mapping(t_uint256,t_struct(Evaluation)2695_storage))": {
        "encoding": "mapping",
        "key": "t_address",
        "label": "mapping(address => mapping(uint256 => struct FUX.Evaluation))",
        "numberOfBytes": "32",
        "value": "t_mapping(t_uint256,t_struct(Evaluation)2695_storage)"
      },
      "t_mapping(t_address,t_mapping(t_uint256,t_uint256))": {
        "encoding": "mapping",
        "key": "t_address",
        "label": "mapping(address => mapping(uint256 => uint256))",
        "numberOfBytes": "32",
        "value": "t_mapping(t_uint256,t_uint256)"
      },
      "t_mapping(t_address,t_uint256)": {
        "encoding": "mapping",
        "key": "t_address",
        "label": "mapping(address => uint256)",
        "numberOfBytes": "32",
        "value": "t_uint256"
      },
      "t_mapping(t_bytes32,t_struct(RoleData)19_storage)": {
        "encoding": "mapping",
        "key": "t_bytes32",
        "label": "mapping(bytes32 => struct AccessControl.RoleData)",
        "numberOfBytes": "32",
        "value": "t_struct(RoleData)19_storage"
      },
      "t_mapping(t_uint256,t_mapping(t_address,t_uint256))": {
        "encoding": "mapping",
        "key": "t_uint256",
        "label": "mapping(uint256 => mapping(address => uint256))",
        "numberOfBytes": "32",
        "value": "t_mapping(t_address,t_uint256)"
      },
      "t_mapping(t_uint256,t_string_storage)": {
        "encoding": "mapping",
        "key": "t_uint256",
        "label": "mapping(uint256 => string)",
        "numberOfBytes": "32",
        "value": "t_string_storage"
      },
      "t_mapping(t_uint256,t_struct(Evaluation)2695_storage)": {
        "encoding": "mapping",
        "key": "t_uint256",
        "label": "mapping(uint256 => struct FUX.Evaluation)",
        "numberOfBytes": "32",
        "value": "t_struct(Evaluation)2695_storage"
      },
      "t_mapping(t_uint256,t_struct(Workstream)2688_storage)": {
        "encoding": "mapping",
        "key": "t_uint256",
        "label": "mapping(uint256 => struct FUX.Workstream)",
        "numberOfBytes": "32",
        "value": "t_struct(Workstream)2688_storage"
      },
      "t_mapping(t_uint256,t_uint256)": {
        "encoding": "mapping",
        "key": "t_uint256",
        "label": "mapping(uint256 => uint256)",
        "numberOfBytes": "32",
        "value": "t_uint256"
      },
      "t_string_storage": {
        "encoding": "bytes",
        "label": "string",
        "numberOfBytes": "32"
      },
      "t_struct(Evaluation)2695_storage": {
        "encoding": "inplace",
        "label": "struct FUX.Evaluation",
        "members": [
          {
            "astId": 2691,
            "contract": "contracts/FUX.sol:FUX",
            "label": "contributors",
            "offset": 0,
            "slot": "0",
            "type": "t_array(t_address)dyn_storage"
          },
          {
            "astId": 2694,
            "contract": "contracts/FUX.sol:FUX",
            "label": "ratings",
            "offset": 0,
            "slot": "1",
            "type": "t_array(t_uint256)dyn_storage"
          }
        ],
        "numberOfBytes": "64"
      },
      "t_struct(RoleData)19_storage": {
        "encoding": "inplace",
        "label": "struct AccessControl.RoleData",
        "members": [
          {
            "astId": 16,
            "contract": "contracts/FUX.sol:FUX",
            "label": "members",
            "offset": 0,
            "slot": "0",
            "type": "t_mapping(t_address,t_bool)"
          },
          {
            "astId": 18,
            "contract": "contracts/FUX.sol:FUX",
            "label": "adminRole",
            "offset": 0,
            "slot": "1",
            "type": "t_bytes32"
          }
        ],
        "numberOfBytes": "64"
      },
      "t_struct(Workstream)2688_storage": {
        "encoding": "inplace",
        "label": "struct FUX.Workstream",
        "members": [
          {
            "astId": 2678,
            "contract": "contracts/FUX.sol:FUX",
            "label": "name",
            "offset": 0,
            "slot": "0",
            "type": "t_string_storage"
          },
          {
            "astId": 2680,
            "contract": "contracts/FUX.sol:FUX",
            "label": "creator",
            "offset": 0,
            "slot": "1",
            "type": "t_address"
          },
          {
            "astId": 2683,
            "contract": "contracts/FUX.sol:FUX",
            "label": "contributors",
            "offset": 0,
            "slot": "2",
            "type": "t_array(t_address)dyn_storage"
          },
          {
            "astId": 2685,
            "contract": "contracts/FUX.sol:FUX",
            "label": "deadline",
            "offset": 0,
            "slot": "3",
            "type": "t_uint256"
          },
          {
            "astId": 2687,
            "contract": "contracts/FUX.sol:FUX",
            "label": "exists",
            "offset": 0,
            "slot": "4",
            "type": "t_bool"
          }
        ],
        "numberOfBytes": "160"
      },
      "t_uint256": {
        "encoding": "inplace",
        "label": "uint256",
        "numberOfBytes": "32"
      }
    }
  }
}