{
  "address": "0x8F9e2E1F2fd83B491224355CC2515A961d53dcaF",
  "abi": [
    {
      "inputs": [],
      "stateMutability": "nonpayable",
      "type": "constructor"
    },
    {
      "inputs": [],
      "name": "EvaluationAlreadySubmitted",
      "type": "error"
    },
    {
      "inputs": [
        {
          "internalType": "string",
          "name": "inputVar",
          "type": "string"
        }
      ],
      "name": "InvalidInput",
      "type": "error"
    },
    {
      "inputs": [],
      "name": "NonExistentWorkstream",
      "type": "error"
    },
    {
      "inputs": [],
      "name": "NonTransferableFux",
      "type": "error"
    },
    {
      "inputs": [],
      "name": "NotApprovedOrOwner",
      "type": "error"
    },
    {
      "inputs": [],
      "name": "NotContributor",
      "type": "error"
    },
    {
      "inputs": [],
      "name": "NotEnoughFunds",
      "type": "error"
    },
    {
      "inputs": [],
      "name": "NotEnoughFux",
      "type": "error"
    },
    {
      "inputs": [],
      "name": "NotEnoughVFux",
      "type": "error"
    },
    {
      "inputs": [],
      "name": "TokensAlreadyMinted",
      "type": "error"
    },
    {
      "anonymous": false,
      "inputs": [
        {
          "indexed": false,
          "internalType": "address",
          "name": "previousAdmin",
          "type": "address"
        },
        {
          "indexed": false,
          "internalType": "address",
          "name": "newAdmin",
          "type": "address"
        }
      ],
      "name": "AdminChanged",
      "type": "event"
    },
    {
      "anonymous": false,
      "inputs": [
        {
          "indexed": true,
          "internalType": "address",
          "name": "account",
          "type": "address"
        },
        {
          "indexed": true,
          "internalType": "address",
          "name": "operator",
          "type": "address"
        },
        {
          "indexed": false,
          "internalType": "bool",
          "name": "approved",
          "type": "bool"
        }
      ],
      "name": "ApprovalForAll",
      "type": "event"
    },
    {
      "anonymous": false,
      "inputs": [
        {
          "indexed": true,
          "internalType": "address",
          "name": "beacon",
          "type": "address"
        }
      ],
      "name": "BeaconUpgraded",
      "type": "event"
    },
    {
      "anonymous": false,
      "inputs": [
        {
          "indexed": false,
          "internalType": "uint256",
          "name": "id",
          "type": "uint256"
        },
        {
          "indexed": false,
          "internalType": "address[]",
          "name": "contributors",
          "type": "address[]"
        }
      ],
      "name": "ContributorsAdded",
      "type": "event"
    },
    {
      "anonymous": false,
      "inputs": [
        {
          "indexed": false,
          "internalType": "uint256",
          "name": "workstreamID",
          "type": "uint256"
        }
      ],
      "name": "EvaluationResolved",
      "type": "event"
    },
    {
      "anonymous": false,
      "inputs": [
        {
          "indexed": false,
          "internalType": "uint256",
          "name": "workstreamID",
          "type": "uint256"
        },
        {
          "indexed": false,
          "internalType": "address",
          "name": "contributor",
          "type": "address"
        }
      ],
      "name": "EvaluationSubmitted",
      "type": "event"
    },
    {
      "anonymous": false,
      "inputs": [
        {
          "indexed": false,
          "internalType": "address",
          "name": "user",
          "type": "address"
        }
      ],
      "name": "FuxClaimed",
      "type": "event"
    },
    {
      "anonymous": false,
      "inputs": [
        {
          "indexed": false,
          "internalType": "address",
          "name": "user",
          "type": "address"
        },
        {
          "indexed": false,
          "internalType": "uint256",
          "name": "workstreamId",
          "type": "uint256"
        },
        {
          "indexed": false,
          "internalType": "uint256",
          "name": "amount",
          "type": "uint256"
        }
      ],
      "name": "FuxGiven",
      "type": "event"
    },
    {
      "anonymous": false,
      "inputs": [
        {
          "indexed": false,
          "internalType": "address",
          "name": "user",
          "type": "address"
        },
        {
          "indexed": false,
          "internalType": "uint256",
          "name": "workstreamId",
          "type": "uint256"
        },
        {
          "indexed": false,
          "internalType": "uint256",
          "name": "amount",
          "type": "uint256"
        }
      ],
      "name": "FuxWithdraw",
      "type": "event"
    },
    {
      "anonymous": false,
      "inputs": [
        {
          "indexed": false,
          "internalType": "uint8",
          "name": "version",
          "type": "uint8"
        }
      ],
      "name": "Initialized",
      "type": "event"
    },
    {
      "anonymous": false,
      "inputs": [
        {
          "indexed": false,
          "internalType": "address",
          "name": "user",
          "type": "address"
        },
        {
          "indexed": false,
          "internalType": "uint256",
          "name": "amount",
          "type": "uint256"
        }
      ],
      "name": "RewardsClaimed",
      "type": "event"
    },
    {
      "anonymous": false,
      "inputs": [
        {
          "indexed": false,
          "internalType": "address",
          "name": "user",
          "type": "address"
        },
        {
          "indexed": false,
          "internalType": "uint256",
          "name": "amount",
          "type": "uint256"
        }
      ],
      "name": "RewardsReserved",
      "type": "event"
    },
    {
      "anonymous": false,
      "inputs": [
        {
          "indexed": true,
          "internalType": "bytes32",
          "name": "role",
          "type": "bytes32"
        },
        {
          "indexed": true,
          "internalType": "bytes32",
          "name": "previousAdminRole",
          "type": "bytes32"
        },
        {
          "indexed": true,
          "internalType": "bytes32",
          "name": "newAdminRole",
          "type": "bytes32"
        }
      ],
      "name": "RoleAdminChanged",
      "type": "event"
    },
    {
      "anonymous": false,
      "inputs": [
        {
          "indexed": true,
          "internalType": "bytes32",
          "name": "role",
          "type": "bytes32"
        },
        {
          "indexed": true,
          "internalType": "address",
          "name": "account",
          "type": "address"
        },
        {
          "indexed": true,
          "internalType": "address",
          "name": "sender",
          "type": "address"
        }
      ],
      "name": "RoleGranted",
      "type": "event"
    },
    {
      "anonymous": false,
      "inputs": [
        {
          "indexed": true,
          "internalType": "bytes32",
          "name": "role",
          "type": "bytes32"
        },
        {
          "indexed": true,
          "internalType": "address",
          "name": "account",
          "type": "address"
        },
        {
          "indexed": true,
          "internalType": "address",
          "name": "sender",
          "type": "address"
        }
      ],
      "name": "RoleRevoked",
      "type": "event"
    },
    {
      "anonymous": false,
      "inputs": [
        {
          "indexed": true,
          "internalType": "address",
          "name": "operator",
          "type": "address"
        },
        {
          "indexed": true,
          "internalType": "address",
          "name": "from",
          "type": "address"
        },
        {
          "indexed": true,
          "internalType": "address",
          "name": "to",
          "type": "address"
        },
        {
          "indexed": false,
          "internalType": "uint256[]",
          "name": "ids",
          "type": "uint256[]"
        },
        {
          "indexed": false,
          "internalType": "uint256[]",
          "name": "values",
          "type": "uint256[]"
        }
      ],
      "name": "TransferBatch",
      "type": "event"
    },
    {
      "anonymous": false,
      "inputs": [
        {
          "indexed": true,
          "internalType": "address",
          "name": "operator",
          "type": "address"
        },
        {
          "indexed": true,
          "internalType": "address",
          "name": "from",
          "type": "address"
        },
        {
          "indexed": true,
          "internalType": "address",
          "name": "to",
          "type": "address"
        },
        {
          "indexed": false,
          "internalType": "uint256",
          "name": "id",
          "type": "uint256"
        },
        {
          "indexed": false,
          "internalType": "uint256",
          "name": "value",
          "type": "uint256"
        }
      ],
      "name": "TransferSingle",
      "type": "event"
    },
    {
      "anonymous": false,
      "inputs": [
        {
          "indexed": false,
          "internalType": "string",
          "name": "value",
          "type": "string"
        },
        {
          "indexed": true,
          "internalType": "uint256",
          "name": "id",
          "type": "uint256"
        }
      ],
      "name": "URI",
      "type": "event"
    },
    {
      "anonymous": false,
      "inputs": [
        {
          "indexed": true,
          "internalType": "address",
          "name": "implementation",
          "type": "address"
        }
      ],
      "name": "Upgraded",
      "type": "event"
    },
    {
      "anonymous": false,
      "inputs": [
        {
          "indexed": false,
          "internalType": "address",
          "name": "user",
          "type": "address"
        },
        {
          "indexed": false,
          "internalType": "uint256",
          "name": "workstreamID",
          "type": "uint256"
        }
      ],
      "name": "VFuxClaimed",
      "type": "event"
    },
    {
      "anonymous": false,
      "inputs": [
        {
          "indexed": false,
          "internalType": "uint256",
          "name": "id",
          "type": "uint256"
        },
        {
          "indexed": false,
          "internalType": "uint256",
          "name": "funds",
          "type": "uint256"
        },
        {
          "indexed": false,
          "internalType": "uint256",
          "name": "deadline",
          "type": "uint256"
        },
        {
          "indexed": false,
          "internalType": "string",
          "name": "metadataUri",
          "type": "string"
        }
      ],
      "name": "WorkstreamMinted",
      "type": "event"
    },
    {
      "inputs": [],
      "name": "DEFAULT_ADMIN_ROLE",
      "outputs": [
        {
          "internalType": "bytes32",
          "name": "",
          "type": "bytes32"
        }
      ],
      "stateMutability": "view",
      "type": "function"
    },
    {
      "inputs": [],
      "name": "FUX_TOKEN_ID",
      "outputs": [
        {
          "internalType": "uint256",
          "name": "",
          "type": "uint256"
        }
      ],
      "stateMutability": "view",
      "type": "function"
    },
    {
      "inputs": [],
      "name": "UPGRADER_ROLE",
      "outputs": [
        {
          "internalType": "bytes32",
          "name": "",
          "type": "bytes32"
        }
      ],
      "stateMutability": "view",
      "type": "function"
    },
    {
      "inputs": [],
      "name": "URI_SETTER_ROLE",
      "outputs": [
        {
          "internalType": "bytes32",
          "name": "",
          "type": "bytes32"
        }
      ],
      "stateMutability": "view",
      "type": "function"
    },
    {
      "inputs": [],
      "name": "VFUX_TOKEN_ID",
      "outputs": [
        {
          "internalType": "uint256",
          "name": "",
          "type": "uint256"
        }
      ],
      "stateMutability": "view",
      "type": "function"
    },
    {
      "inputs": [
        {
          "internalType": "uint256",
          "name": "workstreamId",
          "type": "uint256"
        },
        {
          "internalType": "address[]",
          "name": "contributors",
          "type": "address[]"
        }
      ],
      "name": "addContributors",
      "outputs": [],
      "stateMutability": "nonpayable",
      "type": "function"
    },
    {
      "inputs": [
        {
          "internalType": "address",
          "name": "account",
          "type": "address"
        },
        {
          "internalType": "uint256",
          "name": "id",
          "type": "uint256"
        }
      ],
      "name": "balanceOf",
      "outputs": [
        {
          "internalType": "uint256",
          "name": "",
          "type": "uint256"
        }
      ],
      "stateMutability": "view",
      "type": "function"
    },
    {
      "inputs": [
        {
          "internalType": "address[]",
          "name": "accounts",
          "type": "address[]"
        },
        {
          "internalType": "uint256[]",
          "name": "ids",
          "type": "uint256[]"
        }
      ],
      "name": "balanceOfBatch",
      "outputs": [
        {
          "internalType": "uint256[]",
          "name": "",
          "type": "uint256[]"
        }
      ],
      "stateMutability": "view",
      "type": "function"
    },
    {
      "inputs": [],
      "name": "claimRewards",
      "outputs": [],
      "stateMutability": "nonpayable",
      "type": "function"
    },
    {
      "inputs": [
        {
          "internalType": "uint256",
          "name": "workstreamID",
          "type": "uint256"
        },
        {
          "internalType": "uint8",
          "name": "fuxGiven",
          "type": "uint8"
        }
      ],
      "name": "commitToWorkstream",
      "outputs": [],
      "stateMutability": "nonpayable",
      "type": "function"
    },
    {
      "inputs": [
        {
          "internalType": "uint256",
          "name": "id",
          "type": "uint256"
        }
      ],
      "name": "exists",
      "outputs": [
        {
          "internalType": "bool",
          "name": "",
          "type": "bool"
        }
      ],
      "stateMutability": "view",
      "type": "function"
    },
    {
      "inputs": [
        {
          "internalType": "address",
          "name": "account",
          "type": "address"
        }
      ],
      "name": "getAvailableBalance",
      "outputs": [
        {
          "internalType": "uint256",
          "name": "balance",
          "type": "uint256"
        }
      ],
      "stateMutability": "view",
      "type": "function"
    },
    {
      "inputs": [
        {
          "internalType": "bytes32",
          "name": "role",
          "type": "bytes32"
        }
      ],
      "name": "getRoleAdmin",
      "outputs": [
        {
          "internalType": "bytes32",
          "name": "",
          "type": "bytes32"
        }
      ],
      "stateMutability": "view",
      "type": "function"
    },
    {
      "inputs": [
        {
          "internalType": "uint256",
          "name": "workstreamID",
          "type": "uint256"
        }
      ],
      "name": "getVFuxForEvaluation",
      "outputs": [
        {
          "internalType": "uint256",
          "name": "vFux",
          "type": "uint256"
        }
      ],
      "stateMutability": "view",
      "type": "function"
    },
    {
      "inputs": [
        {
          "internalType": "address",
          "name": "user",
          "type": "address"
        },
        {
          "internalType": "uint256",
          "name": "workstreamID",
          "type": "uint256"
        }
      ],
      "name": "getValueEvaluation",
      "outputs": [
        {
          "components": [
            {
              "internalType": "address[]",
              "name": "contributors",
              "type": "address[]"
            },
            {
              "internalType": "uint256[]",
              "name": "ratings",
              "type": "uint256[]"
            },
            {
              "internalType": "bool",
              "name": "exists",
              "type": "bool"
            }
          ],
          "internalType": "struct FUX.Evaluation",
          "name": "evaluation",
          "type": "tuple"
        }
      ],
      "stateMutability": "view",
      "type": "function"
    },
    {
      "inputs": [
        {
          "internalType": "uint256",
          "name": "workstreamID",
          "type": "uint256"
        }
      ],
      "name": "getWorkstreamByID",
      "outputs": [
        {
          "components": [
            {
              "internalType": "string",
              "name": "name",
              "type": "string"
            },
            {
              "internalType": "address",
              "name": "creator",
              "type": "address"
            },
            {
              "internalType": "address[]",
              "name": "contributors",
              "type": "address[]"
            },
            {
              "internalType": "uint256[]",
              "name": "evaluations",
              "type": "uint256[]"
            },
            {
              "internalType": "uint256",
              "name": "deadline",
              "type": "uint256"
            },
            {
              "internalType": "uint256",
              "name": "funds",
              "type": "uint256"
            },
            {
              "internalType": "bool",
              "name": "exists",
              "type": "bool"
            }
          ],
          "internalType": "struct FUX.Workstream",
          "name": "workstream",
          "type": "tuple"
        }
      ],
      "stateMutability": "view",
      "type": "function"
    },
    {
      "inputs": [
        {
          "internalType": "address",
          "name": "user",
          "type": "address"
        },
        {
          "internalType": "uint256",
          "name": "workstreamID",
          "type": "uint256"
        }
      ],
      "name": "getWorkstreamCommitment",
      "outputs": [
        {
          "internalType": "uint256",
          "name": "fuxGiven",
          "type": "uint256"
        }
      ],
      "stateMutability": "view",
      "type": "function"
    },
    {
      "inputs": [
        {
          "internalType": "address",
          "name": "user",
          "type": "address"
        }
      ],
      "name": "getWorkstreamIDs",
      "outputs": [
        {
          "internalType": "uint256[]",
          "name": "ids",
          "type": "uint256[]"
        }
      ],
      "stateMutability": "view",
      "type": "function"
    },
    {
      "inputs": [
        {
          "internalType": "bytes32",
          "name": "role",
          "type": "bytes32"
        },
        {
          "internalType": "address",
          "name": "account",
          "type": "address"
        }
      ],
      "name": "grantRole",
      "outputs": [],
      "stateMutability": "nonpayable",
      "type": "function"
    },
    {
      "inputs": [
        {
          "internalType": "bytes32",
          "name": "role",
          "type": "bytes32"
        },
        {
          "internalType": "address",
          "name": "account",
          "type": "address"
        }
      ],
      "name": "hasRole",
      "outputs": [
        {
          "internalType": "bool",
          "name": "",
          "type": "bool"
        }
      ],
      "stateMutability": "view",
      "type": "function"
    },
    {
      "inputs": [],
      "name": "initialize",
      "outputs": [],
      "stateMutability": "nonpayable",
      "type": "function"
    },
    {
      "inputs": [
        {
          "internalType": "address",
          "name": "account",
          "type": "address"
        },
        {
          "internalType": "address",
          "name": "operator",
          "type": "address"
        }
      ],
      "name": "isApprovedForAll",
      "outputs": [
        {
          "internalType": "bool",
          "name": "",
          "type": "bool"
        }
      ],
      "stateMutability": "view",
      "type": "function"
    },
    {
      "inputs": [],
      "name": "mintFux",
      "outputs": [],
      "stateMutability": "nonpayable",
      "type": "function"
    },
    {
      "inputs": [
        {
          "internalType": "uint256",
          "name": "workstreamID",
          "type": "uint256"
        }
      ],
      "name": "mintVFux",
      "outputs": [],
      "stateMutability": "nonpayable",
      "type": "function"
    },
    {
      "inputs": [
        {
          "internalType": "string",
          "name": "name",
          "type": "string"
        },
        {
          "internalType": "address[]",
          "name": "contributors",
          "type": "address[]"
        },
        {
          "internalType": "uint256",
          "name": "deadline",
          "type": "uint256"
        }
      ],
      "name": "mintWorkstream",
      "outputs": [],
      "stateMutability": "payable",
      "type": "function"
    },
    {
      "inputs": [
        {
          "internalType": "address",
          "name": "_operator",
          "type": "address"
        },
        {
          "internalType": "address",
          "name": "_from",
          "type": "address"
        },
        {
          "internalType": "uint256[]",
          "name": "_ids",
          "type": "uint256[]"
        },
        {
          "internalType": "uint256[]",
          "name": "_values",
          "type": "uint256[]"
        },
        {
          "internalType": "bytes",
          "name": "_data",
          "type": "bytes"
        }
      ],
      "name": "onERC1155BatchReceived",
      "outputs": [
        {
          "internalType": "bytes4",
          "name": "",
          "type": "bytes4"
        }
      ],
      "stateMutability": "pure",
      "type": "function"
    },
    {
      "inputs": [
        {
          "internalType": "address",
          "name": "_operator",
          "type": "address"
        },
        {
          "internalType": "address",
          "name": "_from",
          "type": "address"
        },
        {
          "internalType": "uint256",
          "name": "_id",
          "type": "uint256"
        },
        {
          "internalType": "uint256",
          "name": "_value",
          "type": "uint256"
        },
        {
          "internalType": "bytes",
          "name": "_data",
          "type": "bytes"
        }
      ],
      "name": "onERC1155Received",
      "outputs": [
        {
          "internalType": "bytes4",
          "name": "",
          "type": "bytes4"
        }
      ],
      "stateMutability": "pure",
      "type": "function"
    },
    {
      "inputs": [],
      "name": "proxiableUUID",
      "outputs": [
        {
          "internalType": "bytes32",
          "name": "",
          "type": "bytes32"
        }
      ],
      "stateMutability": "view",
      "type": "function"
    },
    {
      "inputs": [
        {
          "internalType": "bytes32",
          "name": "role",
          "type": "bytes32"
        },
        {
          "internalType": "address",
          "name": "account",
          "type": "address"
        }
      ],
      "name": "renounceRole",
      "outputs": [],
      "stateMutability": "nonpayable",
      "type": "function"
    },
    {
      "inputs": [
        {
          "internalType": "uint256",
          "name": "workstreamID",
          "type": "uint256"
        },
        {
          "internalType": "address[]",
          "name": "contributors",
          "type": "address[]"
        },
        {
          "internalType": "uint256[]",
          "name": "vFuxGiven",
          "type": "uint256[]"
        }
      ],
      "name": "resolveValueEvaluation",
      "outputs": [],
      "stateMutability": "nonpayable",
      "type": "function"
    },
    {
      "inputs": [
        {
          "internalType": "bytes32",
          "name": "role",
          "type": "bytes32"
        },
        {
          "internalType": "address",
          "name": "account",
          "type": "address"
        }
      ],
      "name": "revokeRole",
      "outputs": [],
      "stateMutability": "nonpayable",
      "type": "function"
    },
    {
      "inputs": [
        {
          "internalType": "address",
          "name": "from",
          "type": "address"
        },
        {
          "internalType": "address",
          "name": "to",
          "type": "address"
        },
        {
          "internalType": "uint256[]",
          "name": "ids",
          "type": "uint256[]"
        },
        {
          "internalType": "uint256[]",
          "name": "amounts",
          "type": "uint256[]"
        },
        {
          "internalType": "bytes",
          "name": "data",
          "type": "bytes"
        }
      ],
      "name": "safeBatchTransferFrom",
      "outputs": [],
      "stateMutability": "pure",
      "type": "function"
    },
    {
      "inputs": [
        {
          "internalType": "address",
          "name": "from",
          "type": "address"
        },
        {
          "internalType": "address",
          "name": "to",
          "type": "address"
        },
        {
          "internalType": "uint256",
          "name": "id",
          "type": "uint256"
        },
        {
          "internalType": "uint256",
          "name": "amount",
          "type": "uint256"
        },
        {
          "internalType": "bytes",
          "name": "data",
          "type": "bytes"
        }
      ],
      "name": "safeTransferFrom",
      "outputs": [],
      "stateMutability": "pure",
      "type": "function"
    },
    {
      "inputs": [
        {
          "internalType": "address",
          "name": "operator",
          "type": "address"
        },
        {
          "internalType": "bool",
          "name": "approved",
          "type": "bool"
        }
      ],
      "name": "setApprovalForAll",
      "outputs": [],
      "stateMutability": "nonpayable",
      "type": "function"
    },
    {
      "inputs": [
        {
          "internalType": "string",
          "name": "newuri",
          "type": "string"
        }
      ],
      "name": "setURI",
      "outputs": [],
      "stateMutability": "nonpayable",
      "type": "function"
    },
    {
      "inputs": [
        {
          "internalType": "uint256",
          "name": "workstreamID",
          "type": "uint256"
        },
        {
          "internalType": "address[]",
          "name": "contributors",
          "type": "address[]"
        },
        {
          "internalType": "uint256[]",
          "name": "vFuxGiven",
          "type": "uint256[]"
        }
      ],
      "name": "submitValueEvaluation",
      "outputs": [],
      "stateMutability": "nonpayable",
      "type": "function"
    },
    {
      "inputs": [
        {
          "internalType": "bytes4",
          "name": "interfaceId",
          "type": "bytes4"
        }
      ],
      "name": "supportsInterface",
      "outputs": [
        {
          "internalType": "bool",
          "name": "",
          "type": "bool"
        }
      ],
      "stateMutability": "view",
      "type": "function"
    },
    {
      "inputs": [
        {
          "internalType": "uint256",
          "name": "id",
          "type": "uint256"
        }
      ],
      "name": "totalSupply",
      "outputs": [
        {
          "internalType": "uint256",
          "name": "",
          "type": "uint256"
        }
      ],
      "stateMutability": "view",
      "type": "function"
    },
    {
      "inputs": [
        {
          "internalType": "address",
          "name": "newImplementation",
          "type": "address"
        }
      ],
      "name": "upgradeTo",
      "outputs": [],
      "stateMutability": "nonpayable",
      "type": "function"
    },
    {
      "inputs": [
        {
          "internalType": "address",
          "name": "newImplementation",
          "type": "address"
        },
        {
          "internalType": "bytes",
          "name": "data",
          "type": "bytes"
        }
      ],
      "name": "upgradeToAndCall",
      "outputs": [],
      "stateMutability": "payable",
      "type": "function"
    },
    {
      "inputs": [
        {
          "internalType": "uint256",
          "name": "tokenId",
          "type": "uint256"
        }
      ],
      "name": "uri",
      "outputs": [
        {
          "internalType": "string",
          "name": "",
          "type": "string"
        }
      ],
      "stateMutability": "view",
      "type": "function"
    },
    {
      "inputs": [
        {
          "internalType": "uint256",
          "name": "workstreamID",
          "type": "uint256"
        }
      ],
      "name": "withdrawFromWorkstream",
      "outputs": [],
      "stateMutability": "nonpayable",
      "type": "function"
    }
  ],
  "numDeployments": 2,
  "solcInputHash": "ac0363e1d09fa118435cb0b138a56db2",
  "bytecode": "0x60a0604052306080523480156200001557600080fd5b506200002062000026565b620000e8565b600054610100900460ff1615620000935760405162461bcd60e51b815260206004820152602760248201527f496e697469616c697a61626c653a20636f6e747261637420697320696e697469604482015266616c697a696e6760c81b606482015260840160405180910390fd5b60005460ff9081161015620000e6576000805460ff191660ff9081179091556040519081527f7f26b83ff96e1f2b6a682f133852f6798a09c465da95921460cefb38474024989060200160405180910390a15b565b6080516147776200012060003960008181610db701528181610e3c01528181611421015281816114a6015261158c01526147776000f3fe6080604052600436106102d05760003560e01c80637f34571011610179578063d422831f116100d6578063e3ca59551161008a578063f242432a11610064578063f242432a146108b4578063f385facc146108cf578063f72c0d8b146108e457600080fd5b8063e3ca59551461081e578063e985e9c51461083e578063f23a6e611461088757600080fd5b8063d59a0ed3116100bb578063d59a0ed3146107be578063d6b0fd2a146107d1578063d7cec155146107fe57600080fd5b8063d422831f146106d4578063d547741f1461079e57600080fd5b8063a217fddf1161012d578063a8319ed211610112578063a8319ed214610709578063bc197c8114610729578063bd85b0391461077157600080fd5b8063a217fddf146106d4578063a22cb465146106e957600080fd5b80638b5d41ef1161015e5780638b5d41ef1461064c5780638e8e18ad1461067957806391d148541461068e57600080fd5b80637f345710146106035780638129fc1c1461063757600080fd5b806336568abe116102325780634562bbea116101e65780634f558e79116101c05780634f558e791461058857806352d1902d146105b75780636c24a76f146105cc57600080fd5b80634562bbea146105125780634e1273f4146105555780634f1ef2861461057557600080fd5b8063372500ab11610217578063372500ab146104bd5780633d39942e146104d257806342f6a961146104f257600080fd5b806336568abe1461047d5780633659cfe61461049d57600080fd5b80630e89341c11610289578063248a9ca31161026e578063248a9ca31461040d5780632eb2c2d61461043d5780632f2ff15d1461045d57600080fd5b80630e89341c146103a7578063222cc569146103d457600080fd5b806302fe5305116102ba57806302fe530514610338578063042bf9f01461035a5780630ab083581461037a57600080fd5b8062fdd58e146102d557806301ffc9a714610308575b600080fd5b3480156102e157600080fd5b506102f56102f0366004613980565b610918565b6040519081526020015b60405180910390f35b34801561031457600080fd5b506103286103233660046139c0565b6109c3565b60405190151581526020016102ff565b34801561034457600080fd5b50610358610353366004613a94565b6109d4565b005b34801561036657600080fd5b50610358610375366004613bd3565b610a0b565b34801561038657600080fd5b5061039a610395366004613c40565b610c6a565b6040516102ff9190613c5b565b3480156103b357600080fd5b506103c76103c2366004613c9f565b610cd7565b6040516102ff9190613d10565b3480156103e057600080fd5b506102f56103ef366004613c9f565b3360009081526101c860209081526040808320938352929052205490565b34801561041957600080fd5b506102f5610428366004613c9f565b60009081526097602052604090206001015490565b34801561044957600080fd5b50610358610458366004613d23565b610ce2565b34801561046957600080fd5b50610358610478366004613dcd565b610cfb565b34801561048957600080fd5b50610358610498366004613dcd565b610d25565b3480156104a957600080fd5b506103586104b8366004613c40565b610dad565b3480156104c957600080fd5b50610358610f28565b3480156104de57600080fd5b506103586104ed366004613df9565b610fd8565b3480156104fe57600080fd5b5061035861050d366004613e7b565b611169565b34801561051e57600080fd5b506102f561052d366004613980565b6001600160a01b0390911660009081526101c660209081526040808320938352929052205490565b34801561056157600080fd5b5061039a610570366004613ec7565b6112d9565b610358610583366004613f2b565b611417565b34801561059457600080fd5b506103286105a3366004613c9f565b600090815260c96020526040902054151590565b3480156105c357600080fd5b506102f561157f565b3480156105d857600080fd5b506102f56105e7366004613c40565b6001600160a01b031660009081526101cb602052604090205490565b34801561060f57600080fd5b506102f57f7804d923f43a17d325d77e781528e0793b2edd9890ab45fc64efd7b4b427744c81565b34801561064357600080fd5b50610358611645565b34801561065857600080fd5b5061066c610667366004613980565b6117eb565b6040516102ff9190613fe3565b34801561068557600080fd5b506102f5600181565b34801561069a57600080fd5b506103286106a9366004613dcd565b60009182526097602090815260408084206001600160a01b0393909316845291905290205460ff1690565b3480156106e057600080fd5b506102f5600081565b3480156106f557600080fd5b50610358610704366004614035565b6118f8565b34801561071557600080fd5b50610358610724366004613bd3565b611903565b34801561073557600080fd5b506107586107443660046140a8565b63bc197c8160e01b98975050505050505050565b6040516001600160e01b031990911681526020016102ff565b34801561077d57600080fd5b506102f561078c366004613c9f565b600090815260c9602052604090205490565b3480156107aa57600080fd5b506103586107b9366004613dcd565b611ad7565b6103586107cc366004614163565b611afc565b3480156107dd57600080fd5b506107f16107ec366004613c9f565b611ce9565b6040516102ff91906141d3565b34801561080a57600080fd5b50610358610819366004613c9f565b611ed3565b34801561082a57600080fd5b50610358610839366004613c9f565b611fc8565b34801561084a57600080fd5b5061032861085936600461426c565b6001600160a01b03918216600090815260666020908152604080832093909416825291909152205460ff1690565b34801561089357600080fd5b506107586108a2366004614296565b63f23a6e6160e01b9695505050505050565b3480156108c057600080fd5b5061035861045836600461430e565b3480156108db57600080fd5b50610358612115565b3480156108f057600080fd5b506102f57f189ab7a9244df0848122154315af71fe140f3db0fe014031783b0946b8c9d2e381565b60006001600160a01b03831661099b5760405162461bcd60e51b815260206004820152602a60248201527f455243313135353a2061646472657373207a65726f206973206e6f742061207660448201527f616c6964206f776e65720000000000000000000000000000000000000000000060648201526084015b60405180910390fd5b5060009081526065602090815260408083206001600160a01b03949094168352929052205490565b60006109ce826121b4565b92915050565b7f7804d923f43a17d325d77e781528e0793b2edd9890ab45fc64efd7b4b427744c6109fe816121d9565b610a07826121e3565b5050565b60008381526101c460205260409020600681015460ff16610a3f576040516355dcb6f160e01b815260040160405180910390fd5b60018101546001600160a01b03163314610a6c5760405163390cdd9b60e21b815260040160405180910390fd5b3360009081526101c660209081526040808320878452909152902054600003610aa85760405163a95eee8160e01b815260040160405180910390fd5b3360009081526101c860209081526040808320878452909152902054600003610ae45760405163da92a67760e01b815260040160405180910390fd5b82511580610af457508151835114155b15610b425760405163d647364f60e01b815260206004820152601760248201527f636f6e7472696275746f72732c2076467578476976656e0000000000000000006044820152606401610992565b6040805160608101825284815260208082018590526001828401523360009081526101c782528381208882528252929092208151805192939192610b89928492019061383c565b506020828101518051610ba292600185019201906138a1565b50604091909101516002909101805460ff1916911515919091179055610bc98383866121f6565b600581015415610be257610be2838383600501546122cf565b610bec83856123fd565b3360008181526101c6602090815260408083208884528252808320805490849055815192830190915282825292610c2692309285906124ac565b6040518581527f896590eea589ae0b79f1921fb8acf5b09f4c082060e768de7bae07c4dfeada809060200160405180910390a150600601805460ff19169055505050565b6001600160a01b03811660009081526101c56020908152604091829020805483518184028101840190945280845260609392830182828015610ccb57602002820191906000526020600020905b815481526020019060010190808311610cb7575b50505050509050919050565b60606109ce82612694565b60405163e92ecd6760e01b815260040160405180910390fd5b600082815260976020526040902060010154610d16816121d9565b610d208383612774565b505050565b6001600160a01b0381163314610da35760405162461bcd60e51b815260206004820152602f60248201527f416363657373436f6e74726f6c3a2063616e206f6e6c792072656e6f756e636560448201527f20726f6c657320666f722073656c6600000000000000000000000000000000006064820152608401610992565b610a078282612816565b6001600160a01b037f0000000000000000000000000000000000000000000000000000000000000000163003610e3a5760405162461bcd60e51b815260206004820152602c60248201527f46756e6374696f6e206d7573742062652063616c6c6564207468726f7567682060448201526b19195b1959d85d1958d85b1b60a21b6064820152608401610992565b7f00000000000000000000000000000000000000000000000000000000000000006001600160a01b0316610e957f360894a13ba1a3210667c828492db98dca3e2076cc3735a920a3ca505d382bbc546001600160a01b031690565b6001600160a01b031614610f005760405162461bcd60e51b815260206004820152602c60248201527f46756e6374696f6e206d7573742062652063616c6c6564207468726f7567682060448201526b6163746976652070726f787960a01b6064820152608401610992565b610f0981612899565b60408051600080825260208201909252610f25918391906128c3565b50565b3360009081526101cb60205260408120549003610f5857604051631036b5ad60e31b815260040160405180910390fd5b3360008181526101cb6020526040808220805490839055905190929183156108fc02918491818181858888f19350505050158015610f9a573d6000803e3d6000fd5b5060408051338152602081018390527ffc30cddea38e2bf4d6ea7d3f9ed3b6ad7f176419f4963bd81318067a4aee73fe91015b60405180910390a150565b8060ff16610fe7336000610918565b10156110065760405163a95eee8160e01b815260040160405180910390fd5b3360009081526101ca6020908152604080832085845290915290205460ff166110425760405163d764187d60e01b815260040160405180910390fd5b3360009081526101c66020908152604080832085845290915290205460ff821681036110b05760405162461bcd60e51b815260206004820152601260248201527f53616d6520616d6f756e74206f662046555800000000000000000000000000006044820152606401610992565b8160ff168110156110e4576110e4333060006110cf8560ff8816614389565b604051806020016040528060008152506124ac565b8160ff1681111561110357611103303360006110cf60ff871686614389565b3360008181526101c66020908152604080832087845282529182902060ff8616908190558251938452908301869052908201527f3e0d5a590ba8d04db40e773cf88b938280ed4080a2688ba8e8105fb56f58e224906060015b60405180910390a1505050565b60008381526101c4602052604090206006015460ff1661119c576040516355dcb6f160e01b815260040160405180910390fd5b60008381526101c460205260409020600101546001600160a01b031633146111d75760405163390cdd9b60e21b815260040160405180910390fd5b8060005b818110156112975760008484838181106111f7576111f76143a0565b905060200201602081019061120c9190613c40565b6001600160a01b031660008181526101c560209081526040808320805460018181018355918552838520018b90558a84526101c48352818420600201805480830182559085528385200180546001600160a01b031916861790559383526101ca82528083208a84529091529020805460ff19169091179055508061128f816143b6565b9150506111db565b507f53f304d7ddc99bcc4695bc068800ce525ea67661c7f16ad157fee5a1ed6f6b3c8484846040516112cb939291906143cf565b60405180910390a150505050565b606081518351146113525760405162461bcd60e51b815260206004820152602960248201527f455243313135353a206163636f756e747320616e6420696473206c656e67746860448201527f206d69736d6174636800000000000000000000000000000000000000000000006064820152608401610992565b6000835167ffffffffffffffff81111561136e5761136e6139dd565b604051908082528060200260200182016040528015611397578160200160208202803683370190505b50905060005b845181101561140f576113e28582815181106113bb576113bb6143a0565b60200260200101518583815181106113d5576113d56143a0565b6020026020010151610918565b8282815181106113f4576113f46143a0565b6020908102919091010152611408816143b6565b905061139d565b509392505050565b6001600160a01b037f00000000000000000000000000000000000000000000000000000000000000001630036114a45760405162461bcd60e51b815260206004820152602c60248201527f46756e6374696f6e206d7573742062652063616c6c6564207468726f7567682060448201526b19195b1959d85d1958d85b1b60a21b6064820152608401610992565b7f00000000000000000000000000000000000000000000000000000000000000006001600160a01b03166114ff7f360894a13ba1a3210667c828492db98dca3e2076cc3735a920a3ca505d382bbc546001600160a01b031690565b6001600160a01b03161461156a5760405162461bcd60e51b815260206004820152602c60248201527f46756e6374696f6e206d7573742062652063616c6c6564207468726f7567682060448201526b6163746976652070726f787960a01b6064820152608401610992565b61157382612899565b610a07828260016128c3565b6000306001600160a01b037f0000000000000000000000000000000000000000000000000000000000000000161461161f5760405162461bcd60e51b815260206004820152603860248201527f555550535570677261646561626c653a206d757374206e6f742062652063616c60448201527f6c6564207468726f7567682064656c656761746563616c6c00000000000000006064820152608401610992565b507f360894a13ba1a3210667c828492db98dca3e2076cc3735a920a3ca505d382bbc5b90565b600054610100900460ff16158080156116655750600054600160ff909116105b8061167f5750303b15801561167f575060005460ff166001145b6116f15760405162461bcd60e51b815260206004820152602e60248201527f496e697469616c697a61626c653a20636f6e747261637420697320616c72656160448201527f647920696e697469616c697a65640000000000000000000000000000000000006064820152608401610992565b6000805460ff191660011790558015611714576000805461ff0019166101001790555b61172c60405180602001604052806000815250612a63565b611734612ad7565b61173c612ad7565b611744612ad7565b61174f600033612774565b6117797f7804d923f43a17d325d77e781528e0793b2edd9890ab45fc64efd7b4b427744c33612774565b6117a37f189ab7a9244df0848122154315af71fe140f3db0fe014031783b0946b8c9d2e333612774565b60006101c3558015610f25576000805461ff0019169055604051600181527f7f26b83ff96e1f2b6a682f133852f6798a09c465da95921460cefb384740249890602001610fcd565b6040805160608082018352808252602080830182905260008385018190526001600160a01b03871681526101c78252848120868252825284902084518154928302810160809081019096529283018281529394929390928492849184018282801561187f57602002820191906000526020600020905b81546001600160a01b03168152600190910190602001808311611861575b50505050508152602001600182018054806020026020016040519081016040528092919081815260200182805480156118d757602002820191906000526020600020905b8154815260200190600101908083116118c3575b50505091835250506002919091015460ff1615156020909101529392505050565b610a07338383612b44565b3360009081526101ca6020908152604080832086845290915290205460ff1661193f5760405163d764187d60e01b815260040160405180910390fd5b3360009081526101c66020908152604080832086845290915290205460000361197b5760405163a95eee8160e01b815260040160405180910390fd5b3360009081526101c8602090815260408083208684529091529020546000036119b75760405163da92a67760e01b815260040160405180910390fd5b815115806119c757508051825114155b15611a155760405163d647364f60e01b815260206004820152601760248201527f636f6e7472696275746f72732c2076467578476976656e0000000000000000006044820152606401610992565b611a1e82612c38565b611a288184612cd2565b6040805160608101825283815260208082018490526001828401523360009081526101c782528381208782528252929092208151805192939192611a6f928492019061383c565b506020828101518051611a8892600185019201906138a1565b50604091820151600291909101805460ff191691151591909117905580518481523360208201527f22338ac5fc8425f1454ce063a4190ed79ff039d67fd257e9ca0f36ba54bce9c3910161115c565b600082815260976020526040902060010154611af2816121d9565b610d208383612816565b6000829003611b4e5760405163d647364f60e01b815260206004820152600c60248201527f636f6e7472696275746f727300000000000000000000000000000000000000006044820152606401610992565b6101c3546040805160e081018252606081830181815281830191909152600060a0830181815260c084018281528a8552336020808701919091526080860189905286518481528082018852909452600190523490528481526101c48252929092208151805192938493611bc492849201906138dc565b506020828101516001830180546001600160a01b0319166001600160a01b0390921691909117905560408301518051611c03926002850192019061383c565b5060608201518051611c1f9160038401916020909101906138a1565b506080820151600482015560a0820151600582015560c0909101516006909101805460ff1916911515919091179055611c59828686611169565b604080518381523460208201529081018490526080606082018190526012908201527f687474703a2f2f6578616d706c652e636f6d000000000000000000000000000060a08201527f500a40456624e358ffccc959dbc8099d186757aa0a8a913e064aead8baa2e0669060c00160405180910390a16101c354611cdd906001614425565b6101c355505050505050565b611d346040518060e001604052806060815260200160006001600160a01b03168152602001606081526020016060815260200160008152602001600081526020016000151581525090565b60008281526101c4602052604090819020815160e08101909252805482908290611d5d9061443d565b80601f0160208091040260200160405190810160405280929190818152602001828054611d899061443d565b8015611dd65780601f10611dab57610100808354040283529160200191611dd6565b820191906000526020600020905b815481529060010190602001808311611db957829003601f168201915b505050918352505060018201546001600160a01b03166020808301919091526002830180546040805182850281018501825282815294019392830182828015611e4857602002820191906000526020600020905b81546001600160a01b03168152600190910190602001808311611e2a575b5050505050815260200160038201805480602002602001604051908101604052809291908181526020018280548015611ea057602002820191906000526020600020905b815481526020019060010190808311611e8c575b5050509183525050600482015460208201526005820154604082015260069091015460ff16151560609091015292915050565b3360009081526101ca6020908152604080832084845290915290205460ff16611f0f5760405163d764187d60e01b815260040160405180910390fd5b3360009081526101c66020908152604080832084845290915281205490819003611f4c5760405163a95eee8160e01b815260040160405180910390fd5b3360008181526101c660209081526040808320868452825280832083905580519182019052818152611f83923092909185906124ac565b60408051338152602081018490529081018290527f81c3d6f4c1e03f5c57415284db949754444cf26d552e13742dd88bd8b13a89329060600160405180910390a15050565b3360009081526101ca6020908152604080832084845290915290205460ff166120045760405163d764187d60e01b815260040160405180910390fd5b3360009081526101c8602090815260408083208484529091529020541561203e5760405163463fefc760e01b815260040160405180910390fd5b3360009081526101c66020908152604080832084845290915290205460000361207a5760405163a95eee8160e01b815260040160405180910390fd5b61208433826117eb565b60400151156120a65760405163730a224760e11b815260040160405180910390fd5b6120c3336001606460405180602001604052806000815250612d79565b3360008181526101c86020908152604080832085845282529182902060649055815192835282018390527f7b013762bcc4a01787a4815463c2c29ee415e5348c5b65ee468c3c03a76f60eb9101610fcd565b3360009081526101c9602052604090205460ff16156121475760405163463fefc760e01b815260040160405180910390fd5b612164336000606460405180602001604052806000815250612d79565b6040513381527f5184a1d5e0b0bcb8ee2c912752a2301033333eba83e58729ac34b470353164539060200160405180910390a13360009081526101c960205260409020805460ff19166001179055565b60006001600160e01b03198216630271189760e51b14806109ce57506109ce82612e9e565b610f258133612ec3565b8051610a079060679060208401906138dc565b81516000805b8281101561228c57848181518110612216576122166143a0565b6020026020010151826122299190614425565b915061227a33878381518110612241576122416143a0565b6020026020010151600188858151811061225d5761225d6143a0565b6020026020010151604051806020016040528060008152506124ac565b80612284816143b6565b9150506121fc565b503360009081526101c86020908152604080832086845290915290205481146122c85760405163a95eee8160e01b815260040160405180910390fd5b5050505050565b81516000805b828110156123db5760006064858784815181106122f4576122f46143a0565b60200260200101516123069190614477565b6123109190614496565b905061231c8184614425565b9250806101cb6000898581518110612336576123366143a0565b60200260200101516001600160a01b03166001600160a01b03168152602001908152602001600020819055507f47265b27f934438348d392d07a4bc3087b1f08c6ebf1ee5181b476356f18f67d878381518110612395576123956143a0565b6020026020010151826040516123c09291906001600160a01b03929092168252602082015260400190565b60405180910390a150806123d3816143b6565b9150506122d5565b50828111156122c857604051631036b5ad60e31b815260040160405180910390fd5b81516000805b828110156122c857600085828151811061241f5761241f6143a0565b6020026020010151905061245681866001600160a01b0390911660009081526101c660209081526040808320938352929052205490565b6001600160a01b03821660009081526101c660209081526040808320898452825280832083905580519182019052818152919450612499913091849187906124ac565b50806124a4816143b6565b915050612403565b6001600160a01b0384166125285760405162461bcd60e51b815260206004820152602560248201527f455243313135353a207472616e7366657220746f20746865207a65726f20616460448201527f64726573730000000000000000000000000000000000000000000000000000006064820152608401610992565b33600061253485612f38565b9050600061254185612f38565b9050612551838989858589612f83565b60008681526065602090815260408083206001600160a01b038c168452909152902054858110156125ea5760405162461bcd60e51b815260206004820152602a60248201527f455243313135353a20696e73756666696369656e742062616c616e636520666f60448201527f72207472616e73666572000000000000000000000000000000000000000000006064820152608401610992565b60008781526065602090815260408083206001600160a01b038d8116855292528083208985039055908a16825281208054889290612629908490614425565b909155505060408051888152602081018890526001600160a01b03808b16928c821692918816917fc3d58168c5ae7397731d063d5bbf3d657854427343f4c083240f7aacaa2d0f62910160405180910390a4612689848a8a8a8a8a612f99565b505050505050505050565b600081815260fc60205260408120805460609291906126b29061443d565b80601f01602080910402602001604051908101604052809291908181526020018280546126de9061443d565b801561272b5780601f106127005761010080835404028352916020019161272b565b820191906000526020600020905b81548152906001019060200180831161270e57829003601f168201915b5050505050905060008151116127495761274483613153565b61276d565b60fb8160405160200161275d9291906144d4565b6040516020818303038152906040525b9392505050565b60008281526097602090815260408083206001600160a01b038516845290915290205460ff16610a075760008281526097602090815260408083206001600160a01b03851684529091529020805460ff191660011790556127d23390565b6001600160a01b0316816001600160a01b0316837f2f8788117e7eff1d82e926ec794901d17c78024a50270940304540a733656f0d60405160405180910390a45050565b60008281526097602090815260408083206001600160a01b038516845290915290205460ff1615610a075760008281526097602090815260408083206001600160a01b0385168085529252808320805460ff1916905551339285917ff6391f5c32d9c69d2a47ea670b442974b53935d1edc7fd64eb21e047a839171b9190a45050565b7f189ab7a9244df0848122154315af71fe140f3db0fe014031783b0946b8c9d2e3610a07816121d9565b7f4910fdfa16fed3260ed0e7147f7cc6da11a60208b5b9406d12a635614ffd91435460ff16156128f657610d20836131dd565b826001600160a01b03166352d1902d6040518163ffffffff1660e01b8152600401602060405180830381865afa925050508015612950575060408051601f3d908101601f1916820190925261294d91810190614571565b60015b6129c25760405162461bcd60e51b815260206004820152602e60248201527f45524331393637557067726164653a206e657720696d706c656d656e7461746960448201527f6f6e206973206e6f7420555550530000000000000000000000000000000000006064820152608401610992565b7f360894a13ba1a3210667c828492db98dca3e2076cc3735a920a3ca505d382bbc8114612a575760405162461bcd60e51b815260206004820152602960248201527f45524331393637557067726164653a20756e737570706f727465642070726f7860448201527f6961626c655555494400000000000000000000000000000000000000000000006064820152608401610992565b50610d2083838361329b565b600054610100900460ff16612ace5760405162461bcd60e51b815260206004820152602b60248201527f496e697469616c697a61626c653a20636f6e7472616374206973206e6f74206960448201526a6e697469616c697a696e6760a81b6064820152608401610992565b610f25816132c0565b600054610100900460ff16612b425760405162461bcd60e51b815260206004820152602b60248201527f496e697469616c697a61626c653a20636f6e7472616374206973206e6f74206960448201526a6e697469616c697a696e6760a81b6064820152608401610992565b565b816001600160a01b0316836001600160a01b031603612bcb5760405162461bcd60e51b815260206004820152602960248201527f455243313135353a2073657474696e6720617070726f76616c2073746174757360448201527f20666f722073656c6600000000000000000000000000000000000000000000006064820152608401610992565b6001600160a01b03838116600081815260666020908152604080832094871680845294825291829020805460ff191686151590811790915591519182527f17307eab39ab6107e8899845ad3d59bd9653f200f220920489ca2b5937696c31910160405180910390a3505050565b805160005b81811015610d2057336001600160a01b0316838281518110612c6157612c616143a0565b60200260200101516001600160a01b031603612cc05760405163d647364f60e01b815260206004820152601560248201527f73656e64657220697320636f6e7472696275746f7200000000000000000000006044820152606401610992565b80612cca816143b6565b915050612c3d565b81516000805b82811015612d1957848181518110612cf257612cf26143a0565b602002602001015182612d059190614425565b915080612d11816143b6565b915050612cd8565b503360009081526101c8602090815260408083208684529091529020548114612d555760405163a95eee8160e01b815260040160405180910390fd5b612d73333060016064604051806020016040528060008152506124ac565b50505050565b6001600160a01b038416612dd95760405162461bcd60e51b815260206004820152602160248201527f455243313135353a206d696e7420746f20746865207a65726f206164647265736044820152607360f81b6064820152608401610992565b336000612de585612f38565b90506000612df285612f38565b9050612e0383600089858589612f83565b60008681526065602090815260408083206001600160a01b038b16845290915281208054879290612e35908490614425565b909155505060408051878152602081018790526001600160a01b03808a1692600092918716917fc3d58168c5ae7397731d063d5bbf3d657854427343f4c083240f7aacaa2d0f62910160405180910390a4612e9583600089898989612f99565b50505050505050565b60006001600160e01b03198216637965db0b60e01b14806109ce57506109ce82613334565b60008281526097602090815260408083206001600160a01b038516845290915290205460ff16610a0757612ef681613384565b612f01836020613396565b604051602001612f1292919061458a565b60408051601f198184030181529082905262461bcd60e51b825261099291600401613d10565b60408051600180825281830190925260609160009190602080830190803683370190505090508281600081518110612f7257612f726143a0565b602090810291909101015292915050565b612f9186868686868661353f565b505050505050565b6001600160a01b0384163b15612f915760405163f23a6e6160e01b81526001600160a01b0385169063f23a6e6190612fdd908990899088908890889060040161460b565b6020604051808303816000875af1925050508015613018575060408051601f3d908101601f191682019092526130159181019061464e565b60015b6130cd5761302461466b565b806308c379a00361305d5750613038614686565b80613043575061305f565b8060405162461bcd60e51b81526004016109929190613d10565b505b60405162461bcd60e51b815260206004820152603460248201527f455243313135353a207472616e7366657220746f206e6f6e2d4552433131353560448201527f526563656976657220696d706c656d656e7465720000000000000000000000006064820152608401610992565b6001600160e01b0319811663f23a6e6160e01b14612e955760405162461bcd60e51b815260206004820152602860248201527f455243313135353a204552433131353552656365697665722072656a6563746560448201527f6420746f6b656e730000000000000000000000000000000000000000000000006064820152608401610992565b6060606780546131629061443d565b80601f016020809104026020016040519081016040528092919081815260200182805461318e9061443d565b8015610ccb5780601f106131b057610100808354040283529160200191610ccb565b820191906000526020600020905b8154815290600101906020018083116131be5750939695505050505050565b6001600160a01b0381163b61325a5760405162461bcd60e51b815260206004820152602d60248201527f455243313936373a206e657720696d706c656d656e746174696f6e206973206e60448201527f6f74206120636f6e7472616374000000000000000000000000000000000000006064820152608401610992565b7f360894a13ba1a3210667c828492db98dca3e2076cc3735a920a3ca505d382bbc80546001600160a01b0319166001600160a01b0392909216919091179055565b6132a4836136cd565b6000825111806132b15750805b15610d2057612d73838361370d565b600054610100900460ff1661332b5760405162461bcd60e51b815260206004820152602b60248201527f496e697469616c697a61626c653a20636f6e7472616374206973206e6f74206960448201526a6e697469616c697a696e6760a81b6064820152608401610992565b610f25816121e3565b60006001600160e01b03198216636cdb3d1360e11b148061336557506001600160e01b031982166303a24d0760e21b145b806109ce57506301ffc9a760e01b6001600160e01b03198316146109ce565b60606109ce6001600160a01b03831660145b606060006133a5836002614477565b6133b0906002614425565b67ffffffffffffffff8111156133c8576133c86139dd565b6040519080825280601f01601f1916602001820160405280156133f2576020820181803683370190505b509050600360fc1b8160008151811061340d5761340d6143a0565b60200101906001600160f81b031916908160001a905350600f60fb1b8160018151811061343c5761343c6143a0565b60200101906001600160f81b031916908160001a9053506000613460846002614477565b61346b906001614425565b90505b60018111156134f0577f303132333435363738396162636465660000000000000000000000000000000085600f16601081106134ac576134ac6143a0565b1a60f81b8282815181106134c2576134c26143a0565b60200101906001600160f81b031916908160001a90535060049490941c936134e981614710565b905061346e565b50831561276d5760405162461bcd60e51b815260206004820181905260248201527f537472696e67733a20686578206c656e67746820696e73756666696369656e746044820152606401610992565b6001600160a01b0385166135c65760005b83518110156135c45782818151811061356b5761356b6143a0565b602002602001015160c96000868481518110613589576135896143a0565b6020026020010151815260200190815260200160002060008282546135ae9190614425565b909155506135bd9050816143b6565b9050613550565b505b6001600160a01b038416612f915760005b8351811015612e955760008482815181106135f4576135f46143a0565b602002602001015190506000848381518110613612576136126143a0565b60200260200101519050600060c96000848152602001908152602001600020549050818110156136aa5760405162461bcd60e51b815260206004820152602860248201527f455243313135353a206275726e20616d6f756e74206578636565647320746f7460448201527f616c537570706c790000000000000000000000000000000000000000000000006064820152608401610992565b600092835260c96020526040909220910390556136c6816143b6565b90506135d7565b6136d6816131dd565b6040516001600160a01b038216907fbc7cd75a20ee27fd9adebab32041f755214dbc6bffa90cc0225b39da2e5c2d3b90600090a250565b60606001600160a01b0383163b61378c5760405162461bcd60e51b815260206004820152602660248201527f416464726573733a2064656c65676174652063616c6c20746f206e6f6e2d636f60448201527f6e747261637400000000000000000000000000000000000000000000000000006064820152608401610992565b600080846001600160a01b0316846040516137a79190614727565b600060405180830381855af49150503d80600081146137e2576040519150601f19603f3d011682016040523d82523d6000602084013e6137e7565b606091505b509150915061380f828260405180606001604052806027815260200161474460279139613818565b95945050505050565b6060831561382757508161276d565b61276d83838151156130435781518083602001fd5b828054828255906000526020600020908101928215613891579160200282015b8281111561389157825182546001600160a01b0319166001600160a01b0390911617825560209092019160019091019061385c565b5061389d92915061394f565b5090565b828054828255906000526020600020908101928215613891579160200282015b828111156138915782518255916020019190600101906138c1565b8280546138e89061443d565b90600052602060002090601f01602090048101928261390a5760008555613891565b82601f1061392357805160ff1916838001178555613891565b8280016001018555821561389157918201828111156138915782518255916020019190600101906138c1565b5b8082111561389d5760008155600101613950565b80356001600160a01b038116811461397b57600080fd5b919050565b6000806040838503121561399357600080fd5b61399c83613964565b946020939093013593505050565b6001600160e01b031981168114610f2557600080fd5b6000602082840312156139d257600080fd5b813561276d816139aa565b634e487b7160e01b600052604160045260246000fd5b601f8201601f1916810167ffffffffffffffff81118282101715613a1957613a196139dd565b6040525050565b600082601f830112613a3157600080fd5b813567ffffffffffffffff811115613a4b57613a4b6139dd565b604051613a62601f8301601f1916602001826139f3565b818152846020838601011115613a7757600080fd5b816020850160208301376000918101602001919091529392505050565b600060208284031215613aa657600080fd5b813567ffffffffffffffff811115613abd57600080fd5b613ac984828501613a20565b949350505050565b600067ffffffffffffffff821115613aeb57613aeb6139dd565b5060051b60200190565b600082601f830112613b0657600080fd5b81356020613b1382613ad1565b604051613b2082826139f3565b83815260059390931b8501820192828101915086841115613b4057600080fd5b8286015b84811015613b6257613b5581613964565b8352918301918301613b44565b509695505050505050565b600082601f830112613b7e57600080fd5b81356020613b8b82613ad1565b604051613b9882826139f3565b83815260059390931b8501820192828101915086841115613bb857600080fd5b8286015b84811015613b625780358352918301918301613bbc565b600080600060608486031215613be857600080fd5b83359250602084013567ffffffffffffffff80821115613c0757600080fd5b613c1387838801613af5565b93506040860135915080821115613c2957600080fd5b50613c3686828701613b6d565b9150509250925092565b600060208284031215613c5257600080fd5b61276d82613964565b6020808252825182820181905260009190848201906040850190845b81811015613c9357835183529284019291840191600101613c77565b50909695505050505050565b600060208284031215613cb157600080fd5b5035919050565b60005b83811015613cd3578181015183820152602001613cbb565b83811115612d735750506000910152565b60008151808452613cfc816020860160208601613cb8565b601f01601f19169290920160200192915050565b60208152600061276d6020830184613ce4565b600080600080600060a08688031215613d3b57600080fd5b613d4486613964565b9450613d5260208701613964565b9350604086013567ffffffffffffffff80821115613d6f57600080fd5b613d7b89838a01613b6d565b94506060880135915080821115613d9157600080fd5b613d9d89838a01613b6d565b93506080880135915080821115613db357600080fd5b50613dc088828901613a20565b9150509295509295909350565b60008060408385031215613de057600080fd5b82359150613df060208401613964565b90509250929050565b60008060408385031215613e0c57600080fd5b82359150602083013560ff81168114613e2457600080fd5b809150509250929050565b60008083601f840112613e4157600080fd5b50813567ffffffffffffffff811115613e5957600080fd5b6020830191508360208260051b8501011115613e7457600080fd5b9250929050565b600080600060408486031215613e9057600080fd5b83359250602084013567ffffffffffffffff811115613eae57600080fd5b613eba86828701613e2f565b9497909650939450505050565b60008060408385031215613eda57600080fd5b823567ffffffffffffffff80821115613ef257600080fd5b613efe86838701613af5565b93506020850135915080821115613f1457600080fd5b50613f2185828601613b6d565b9150509250929050565b60008060408385031215613f3e57600080fd5b613f4783613964565b9150602083013567ffffffffffffffff811115613f6357600080fd5b613f2185828601613a20565b600081518084526020808501945080840160005b83811015613fa85781516001600160a01b031687529582019590820190600101613f83565b509495945050505050565b600081518084526020808501945080840160005b83811015613fa857815187529582019590820190600101613fc7565b602081526000825160606020840152613fff6080840182613f6f565b90506020840151601f1984830301604085015261401c8282613fb3565b9150506040840151151560608401528091505092915050565b6000806040838503121561404857600080fd5b61405183613964565b915060208301358015158114613e2457600080fd5b60008083601f84011261407857600080fd5b50813567ffffffffffffffff81111561409057600080fd5b602083019150836020828501011115613e7457600080fd5b60008060008060008060008060a0898b0312156140c457600080fd5b6140cd89613964565b97506140db60208a01613964565b9650604089013567ffffffffffffffff808211156140f857600080fd5b6141048c838d01613e2f565b909850965060608b013591508082111561411d57600080fd5b6141298c838d01613e2f565b909650945060808b013591508082111561414257600080fd5b5061414f8b828c01614066565b999c989b5096995094979396929594505050565b6000806000806060858703121561417957600080fd5b843567ffffffffffffffff8082111561419157600080fd5b61419d88838901613a20565b955060208701359150808211156141b357600080fd5b506141c087828801613e2f565b9598909750949560400135949350505050565b602081526000825160e060208401526141f0610100840182613ce4565b90506001600160a01b0360208501511660408401526040840151601f19808584030160608601526142218383613f6f565b925060608601519150808584030160808601525061423f8282613fb3565b915050608084015160a084015260a084015160c084015260c0840151151560e08401528091505092915050565b6000806040838503121561427f57600080fd5b61428883613964565b9150613df060208401613964565b60008060008060008060a087890312156142af57600080fd5b6142b887613964565b95506142c660208801613964565b94506040870135935060608701359250608087013567ffffffffffffffff8111156142f057600080fd5b6142fc89828a01614066565b979a9699509497509295939492505050565b600080600080600060a0868803121561432657600080fd5b61432f86613964565b945061433d60208701613964565b93506040860135925060608601359150608086013567ffffffffffffffff81111561436757600080fd5b613dc088828901613a20565b634e487b7160e01b600052601160045260246000fd5b60008282101561439b5761439b614373565b500390565b634e487b7160e01b600052603260045260246000fd5b6000600182016143c8576143c8614373565b5060010190565b83815260406020808301829052908201839052600090849060608401835b86811015614419576001600160a01b0361440685613964565b16825292820192908201906001016143ed565b50979650505050505050565b6000821982111561443857614438614373565b500190565b600181811c9082168061445157607f821691505b60208210810361447157634e487b7160e01b600052602260045260246000fd5b50919050565b600081600019048311821515161561449157614491614373565b500290565b6000826144b357634e487b7160e01b600052601260045260246000fd5b500490565b600081516144ca818560208601613cb8565b9290920192915050565b600080845481600182811c9150808316806144f057607f831692505b6020808410820361450f57634e487b7160e01b86526022600452602486fd5b818015614523576001811461453457614561565b60ff19861689528489019650614561565b60008b81526020902060005b868110156145595781548b820152908501908301614540565b505084890196505b50505050505061380f81856144b8565b60006020828403121561458357600080fd5b5051919050565b7f416363657373436f6e74726f6c3a206163636f756e74200000000000000000008152600083516145c2816017850160208801613cb8565b7f206973206d697373696e6720726f6c652000000000000000000000000000000060179184019182015283516145ff816028840160208801613cb8565b01602801949350505050565b60006001600160a01b03808816835280871660208401525084604083015283606083015260a0608083015261464360a0830184613ce4565b979650505050505050565b60006020828403121561466057600080fd5b815161276d816139aa565b600060033d11156116425760046000803e5060005160e01c90565b600060443d10156146945790565b6040516003193d81016004833e81513d67ffffffffffffffff81602484011181841117156146c457505050505090565b82850191508151818111156146dc5750505050505090565b843d87010160208285010111156146f65750505050505090565b614705602082860101876139f3565b509095945050505050565b60008161471f5761471f614373565b506000190190565b60008251614739818460208701613cb8565b919091019291505056fe416464726573733a206c6f772d6c6576656c2064656c65676174652063616c6c206661696c6564a164736f6c634300080d000a",
  "devdoc": {
    "kind": "dev",
    "methods": {
      "balanceOf(address,uint256)": {
        "details": "See {IERC1155-balanceOf}. Requirements: - `account` cannot be the zero address."
      },
      "balanceOfBatch(address[],uint256[])": {
        "details": "See {IERC1155-balanceOfBatch}. Requirements: - `accounts` and `ids` must have the same length."
      },
      "constructor": {
        "custom:oz-upgrades-unsafe-allow": "constructor"
      },
      "exists(uint256)": {
        "details": "Indicates whether any token exist with a given id, or not."
      },
      "getRoleAdmin(bytes32)": {
        "details": "Returns the admin role that controls `role`. See {grantRole} and {revokeRole}. To change a role's admin, use {_setRoleAdmin}."
      },
      "grantRole(bytes32,address)": {
        "details": "Grants `role` to `account`. If `account` had not been already granted `role`, emits a {RoleGranted} event. Requirements: - the caller must have ``role``'s admin role. May emit a {RoleGranted} event."
      },
      "hasRole(bytes32,address)": {
        "details": "Returns `true` if `account` has been granted `role`."
      },
      "isApprovedForAll(address,address)": {
        "details": "See {IERC1155-isApprovedForAll}."
      },
      "proxiableUUID()": {
        "details": "Implementation of the ERC1822 {proxiableUUID} function. This returns the storage slot used by the implementation. It is used to validate the implementation's compatibility when performing an upgrade. IMPORTANT: A proxy pointing at a proxiable contract should not be considered proxiable itself, because this risks bricking a proxy that upgrades to it, by delegating to itself until out of gas. Thus it is critical that this function revert if invoked through a proxy. This is guaranteed by the `notDelegated` modifier."
      },
      "renounceRole(bytes32,address)": {
        "details": "Revokes `role` from the calling account. Roles are often managed via {grantRole} and {revokeRole}: this function's purpose is to provide a mechanism for accounts to lose their privileges if they are compromised (such as when a trusted device is misplaced). If the calling account had been revoked `role`, emits a {RoleRevoked} event. Requirements: - the caller must be `account`. May emit a {RoleRevoked} event."
      },
      "revokeRole(bytes32,address)": {
        "details": "Revokes `role` from `account`. If `account` had been granted `role`, emits a {RoleRevoked} event. Requirements: - the caller must have ``role``'s admin role. May emit a {RoleRevoked} event."
      },
      "safeBatchTransferFrom(address,address,uint256[],uint256[],bytes)": {
        "details": "See {IERC1155-safeBatchTransferFrom}."
      },
      "safeTransferFrom(address,address,uint256,uint256,bytes)": {
        "details": "See {IERC1155-safeTransferFrom}."
      },
      "setApprovalForAll(address,bool)": {
        "details": "See {IERC1155-setApprovalForAll}."
      },
      "totalSupply(uint256)": {
        "details": "Total amount of tokens in with a given id."
      },
      "upgradeTo(address)": {
        "details": "Upgrade the implementation of the proxy to `newImplementation`. Calls {_authorizeUpgrade}. Emits an {Upgraded} event."
      },
      "upgradeToAndCall(address,bytes)": {
        "details": "Upgrade the implementation of the proxy to `newImplementation`, and subsequently execute the function call encoded in `data`. Calls {_authorizeUpgrade}. Emits an {Upgraded} event."
      }
    },
    "version": 1
  },
  "userdoc": {
    "kind": "user",
    "methods": {},
    "version": 1
  },
  "storageLayout": {
    "storage": [
      {
        "astId": 804,
        "contract": "contracts/FUX.sol:FUX",
        "label": "_initialized",
        "offset": 0,
        "slot": "0",
        "type": "t_uint8"
      },
      {
        "astId": 807,
        "contract": "contracts/FUX.sol:FUX",
        "label": "_initializing",
        "offset": 1,
        "slot": "0",
        "type": "t_bool"
      },
      {
        "astId": 3195,
        "contract": "contracts/FUX.sol:FUX",
        "label": "__gap",
        "offset": 0,
        "slot": "1",
        "type": "t_array(t_uint256)50_storage"
      },
      {
        "astId": 3474,
        "contract": "contracts/FUX.sol:FUX",
        "label": "__gap",
        "offset": 0,
        "slot": "51",
        "type": "t_array(t_uint256)50_storage"
      },
      {
        "astId": 1131,
        "contract": "contracts/FUX.sol:FUX",
        "label": "_balances",
        "offset": 0,
        "slot": "101",
        "type": "t_mapping(t_uint256,t_mapping(t_address,t_uint256))"
      },
      {
        "astId": 1137,
        "contract": "contracts/FUX.sol:FUX",
        "label": "_operatorApprovals",
        "offset": 0,
        "slot": "102",
        "type": "t_mapping(t_address,t_mapping(t_address,t_bool))"
      },
      {
        "astId": 1139,
        "contract": "contracts/FUX.sol:FUX",
        "label": "_uri",
        "offset": 0,
        "slot": "103",
        "type": "t_string_storage"
      },
      {
        "astId": 2346,
        "contract": "contracts/FUX.sol:FUX",
        "label": "__gap",
        "offset": 0,
        "slot": "104",
        "type": "t_array(t_uint256)47_storage"
      },
      {
        "astId": 39,
        "contract": "contracts/FUX.sol:FUX",
        "label": "_roles",
        "offset": 0,
        "slot": "151",
        "type": "t_mapping(t_bytes32,t_struct(RoleData)34_storage)"
      },
      {
        "astId": 334,
        "contract": "contracts/FUX.sol:FUX",
        "label": "__gap",
        "offset": 0,
        "slot": "152",
        "type": "t_array(t_uint256)49_storage"
      },
      {
        "astId": 2535,
        "contract": "contracts/FUX.sol:FUX",
        "label": "_totalSupply",
        "offset": 0,
        "slot": "201",
        "type": "t_mapping(t_uint256,t_uint256)"
      },
      {
        "astId": 2686,
        "contract": "contracts/FUX.sol:FUX",
        "label": "__gap",
        "offset": 0,
        "slot": "202",
        "type": "t_array(t_uint256)49_storage"
      },
      {
        "astId": 2721,
        "contract": "contracts/FUX.sol:FUX",
        "label": "_baseURI",
        "offset": 0,
        "slot": "251",
        "type": "t_string_storage"
      },
      {
        "astId": 2725,
        "contract": "contracts/FUX.sol:FUX",
        "label": "_tokenURIs",
        "offset": 0,
        "slot": "252",
        "type": "t_mapping(t_uint256,t_string_storage)"
      },
      {
        "astId": 2800,
        "contract": "contracts/FUX.sol:FUX",
        "label": "__gap",
        "offset": 0,
        "slot": "253",
        "type": "t_array(t_uint256)48_storage"
      },
      {
        "astId": 2869,
        "contract": "contracts/FUX.sol:FUX",
        "label": "__gap",
        "offset": 0,
        "slot": "301",
        "type": "t_array(t_uint256)50_storage"
      },
      {
        "astId": 786,
        "contract": "contracts/FUX.sol:FUX",
        "label": "__gap",
        "offset": 0,
        "slot": "351",
        "type": "t_array(t_uint256)50_storage"
      },
      {
        "astId": 1101,
        "contract": "contracts/FUX.sol:FUX",
        "label": "__gap",
        "offset": 0,
        "slot": "401",
        "type": "t_array(t_uint256)50_storage"
      },
      {
        "astId": 4416,
        "contract": "contracts/FUX.sol:FUX",
        "label": "counter",
        "offset": 0,
        "slot": "451",
        "type": "t_uint256"
      },
      {
        "astId": 4518,
        "contract": "contracts/FUX.sol:FUX",
        "label": "workstreams",
        "offset": 0,
        "slot": "452",
        "type": "t_mapping(t_uint256,t_struct(Workstream)4504_storage)"
      },
      {
        "astId": 4523,
        "contract": "contracts/FUX.sol:FUX",
        "label": "contributorWorkstreams",
        "offset": 0,
        "slot": "453",
        "type": "t_mapping(t_address,t_array(t_uint256)dyn_storage)"
      },
      {
        "astId": 4529,
        "contract": "contracts/FUX.sol:FUX",
        "label": "contributorCommitments",
        "offset": 0,
        "slot": "454",
        "type": "t_mapping(t_address,t_mapping(t_uint256,t_uint256))"
      },
      {
        "astId": 4536,
        "contract": "contracts/FUX.sol:FUX",
        "label": "valueEvaluations",
        "offset": 0,
        "slot": "455",
        "type": "t_mapping(t_address,t_mapping(t_uint256,t_struct(Evaluation)4513_storage))"
      },
      {
        "astId": 4542,
        "contract": "contracts/FUX.sol:FUX",
        "label": "vFuxAvailableForWorkstream",
        "offset": 0,
        "slot": "456",
        "type": "t_mapping(t_address,t_mapping(t_uint256,t_uint256))"
      },
      {
        "astId": 4546,
        "contract": "contracts/FUX.sol:FUX",
        "label": "isFuxer",
        "offset": 0,
        "slot": "457",
        "type": "t_mapping(t_address,t_bool)"
      },
      {
        "astId": 4552,
        "contract": "contracts/FUX.sol:FUX",
        "label": "isContributor",
        "offset": 0,
        "slot": "458",
        "type": "t_mapping(t_address,t_mapping(t_uint256,t_bool))"
      },
      {
        "astId": 4556,
        "contract": "contracts/FUX.sol:FUX",
        "label": "balances",
        "offset": 0,
        "slot": "459",
        "type": "t_mapping(t_address,t_uint256)"
      }
    ],
    "types": {
      "t_address": {
        "encoding": "inplace",
        "label": "address",
        "numberOfBytes": "20"
      },
      "t_array(t_address)dyn_storage": {
        "base": "t_address",
        "encoding": "dynamic_array",
        "label": "address[]",
        "numberOfBytes": "32"
      },
      "t_array(t_uint256)47_storage": {
        "base": "t_uint256",
        "encoding": "inplace",
        "label": "uint256[47]",
        "numberOfBytes": "1504"
      },
      "t_array(t_uint256)48_storage": {
        "base": "t_uint256",
        "encoding": "inplace",
        "label": "uint256[48]",
        "numberOfBytes": "1536"
      },
      "t_array(t_uint256)49_storage": {
        "base": "t_uint256",
        "encoding": "inplace",
        "label": "uint256[49]",
        "numberOfBytes": "1568"
      },
      "t_array(t_uint256)50_storage": {
        "base": "t_uint256",
        "encoding": "inplace",
        "label": "uint256[50]",
        "numberOfBytes": "1600"
      },
      "t_array(t_uint256)dyn_storage": {
        "base": "t_uint256",
        "encoding": "dynamic_array",
        "label": "uint256[]",
        "numberOfBytes": "32"
      },
      "t_bool": {
        "encoding": "inplace",
        "label": "bool",
        "numberOfBytes": "1"
      },
      "t_bytes32": {
        "encoding": "inplace",
        "label": "bytes32",
        "numberOfBytes": "32"
      },
      "t_mapping(t_address,t_array(t_uint256)dyn_storage)": {
        "encoding": "mapping",
        "key": "t_address",
        "label": "mapping(address => uint256[])",
        "numberOfBytes": "32",
        "value": "t_array(t_uint256)dyn_storage"
      },
      "t_mapping(t_address,t_bool)": {
        "encoding": "mapping",
        "key": "t_address",
        "label": "mapping(address => bool)",
        "numberOfBytes": "32",
        "value": "t_bool"
      },
      "t_mapping(t_address,t_mapping(t_address,t_bool))": {
        "encoding": "mapping",
        "key": "t_address",
        "label": "mapping(address => mapping(address => bool))",
        "numberOfBytes": "32",
        "value": "t_mapping(t_address,t_bool)"
      },
      "t_mapping(t_address,t_mapping(t_uint256,t_bool))": {
        "encoding": "mapping",
        "key": "t_address",
        "label": "mapping(address => mapping(uint256 => bool))",
        "numberOfBytes": "32",
        "value": "t_mapping(t_uint256,t_bool)"
      },
      "t_mapping(t_address,t_mapping(t_uint256,t_struct(Evaluation)4513_storage))": {
        "encoding": "mapping",
        "key": "t_address",
        "label": "mapping(address => mapping(uint256 => struct FUX.Evaluation))",
        "numberOfBytes": "32",
        "value": "t_mapping(t_uint256,t_struct(Evaluation)4513_storage)"
      },
      "t_mapping(t_address,t_mapping(t_uint256,t_uint256))": {
        "encoding": "mapping",
        "key": "t_address",
        "label": "mapping(address => mapping(uint256 => uint256))",
        "numberOfBytes": "32",
        "value": "t_mapping(t_uint256,t_uint256)"
      },
      "t_mapping(t_address,t_uint256)": {
        "encoding": "mapping",
        "key": "t_address",
        "label": "mapping(address => uint256)",
        "numberOfBytes": "32",
        "value": "t_uint256"
      },
      "t_mapping(t_bytes32,t_struct(RoleData)34_storage)": {
        "encoding": "mapping",
        "key": "t_bytes32",
        "label": "mapping(bytes32 => struct AccessControlUpgradeable.RoleData)",
        "numberOfBytes": "32",
        "value": "t_struct(RoleData)34_storage"
      },
      "t_mapping(t_uint256,t_bool)": {
        "encoding": "mapping",
        "key": "t_uint256",
        "label": "mapping(uint256 => bool)",
        "numberOfBytes": "32",
        "value": "t_bool"
      },
      "t_mapping(t_uint256,t_mapping(t_address,t_uint256))": {
        "encoding": "mapping",
        "key": "t_uint256",
        "label": "mapping(uint256 => mapping(address => uint256))",
        "numberOfBytes": "32",
        "value": "t_mapping(t_address,t_uint256)"
      },
      "t_mapping(t_uint256,t_string_storage)": {
        "encoding": "mapping",
        "key": "t_uint256",
        "label": "mapping(uint256 => string)",
        "numberOfBytes": "32",
        "value": "t_string_storage"
      },
      "t_mapping(t_uint256,t_struct(Evaluation)4513_storage)": {
        "encoding": "mapping",
        "key": "t_uint256",
        "label": "mapping(uint256 => struct FUX.Evaluation)",
        "numberOfBytes": "32",
        "value": "t_struct(Evaluation)4513_storage"
      },
      "t_mapping(t_uint256,t_struct(Workstream)4504_storage)": {
        "encoding": "mapping",
        "key": "t_uint256",
        "label": "mapping(uint256 => struct FUX.Workstream)",
        "numberOfBytes": "32",
        "value": "t_struct(Workstream)4504_storage"
      },
      "t_mapping(t_uint256,t_uint256)": {
        "encoding": "mapping",
        "key": "t_uint256",
        "label": "mapping(uint256 => uint256)",
        "numberOfBytes": "32",
        "value": "t_uint256"
      },
      "t_string_storage": {
        "encoding": "bytes",
        "label": "string",
        "numberOfBytes": "32"
      },
      "t_struct(Evaluation)4513_storage": {
        "encoding": "inplace",
        "label": "struct FUX.Evaluation",
        "members": [
          {
            "astId": 4507,
            "contract": "contracts/FUX.sol:FUX",
            "label": "contributors",
            "offset": 0,
            "slot": "0",
            "type": "t_array(t_address)dyn_storage"
          },
          {
            "astId": 4510,
            "contract": "contracts/FUX.sol:FUX",
            "label": "ratings",
            "offset": 0,
            "slot": "1",
            "type": "t_array(t_uint256)dyn_storage"
          },
          {
            "astId": 4512,
            "contract": "contracts/FUX.sol:FUX",
            "label": "exists",
            "offset": 0,
            "slot": "2",
            "type": "t_bool"
          }
        ],
        "numberOfBytes": "96"
      },
      "t_struct(RoleData)34_storage": {
        "encoding": "inplace",
        "label": "struct AccessControlUpgradeable.RoleData",
        "members": [
          {
            "astId": 31,
            "contract": "contracts/FUX.sol:FUX",
            "label": "members",
            "offset": 0,
            "slot": "0",
            "type": "t_mapping(t_address,t_bool)"
          },
          {
            "astId": 33,
            "contract": "contracts/FUX.sol:FUX",
            "label": "adminRole",
            "offset": 0,
            "slot": "1",
            "type": "t_bytes32"
          }
        ],
        "numberOfBytes": "64"
      },
      "t_struct(Workstream)4504_storage": {
        "encoding": "inplace",
        "label": "struct FUX.Workstream",
        "members": [
          {
            "astId": 4489,
            "contract": "contracts/FUX.sol:FUX",
            "label": "name",
            "offset": 0,
            "slot": "0",
            "type": "t_string_storage"
          },
          {
            "astId": 4491,
            "contract": "contracts/FUX.sol:FUX",
            "label": "creator",
            "offset": 0,
            "slot": "1",
            "type": "t_address"
          },
          {
            "astId": 4494,
            "contract": "contracts/FUX.sol:FUX",
            "label": "contributors",
            "offset": 0,
            "slot": "2",
            "type": "t_array(t_address)dyn_storage"
          },
          {
            "astId": 4497,
            "contract": "contracts/FUX.sol:FUX",
            "label": "evaluations",
            "offset": 0,
            "slot": "3",
            "type": "t_array(t_uint256)dyn_storage"
          },
          {
            "astId": 4499,
            "contract": "contracts/FUX.sol:FUX",
            "label": "deadline",
            "offset": 0,
            "slot": "4",
            "type": "t_uint256"
          },
          {
            "astId": 4501,
            "contract": "contracts/FUX.sol:FUX",
            "label": "funds",
            "offset": 0,
            "slot": "5",
            "type": "t_uint256"
          },
          {
            "astId": 4503,
            "contract": "contracts/FUX.sol:FUX",
            "label": "exists",
            "offset": 0,
            "slot": "6",
            "type": "t_bool"
          }
        ],
        "numberOfBytes": "224"
      },
      "t_uint256": {
        "encoding": "inplace",
        "label": "uint256",
        "numberOfBytes": "32"
      },
      "t_uint8": {
        "encoding": "inplace",
        "label": "uint8",
        "numberOfBytes": "1"
      }
    }
  }
}