{
  "address": "0x8F9e2E1F2fd83B491224355CC2515A961d53dcaF",
  "abi": [
    {
      "inputs": [],
      "stateMutability": "nonpayable",
      "type": "constructor"
    },
    {
      "inputs": [
        {
          "internalType": "string",
          "name": "message",
          "type": "string"
        }
      ],
      "name": "InvalidInput",
      "type": "error"
    },
    {
      "inputs": [],
      "name": "NonExistentWorkstream",
      "type": "error"
    },
    {
      "inputs": [],
      "name": "NonTransferableFux",
      "type": "error"
    },
    {
      "inputs": [],
      "name": "NotApprovedOrOwner",
      "type": "error"
    },
    {
      "inputs": [],
      "name": "NotContributor",
      "type": "error"
    },
    {
      "inputs": [],
      "name": "NotCoordinator",
      "type": "error"
    },
    {
      "inputs": [],
      "name": "NotEnoughFunds",
      "type": "error"
    },
    {
      "inputs": [],
      "name": "NotEnoughFux",
      "type": "error"
    },
    {
      "inputs": [],
      "name": "NotEnoughVFux",
      "type": "error"
    },
    {
      "inputs": [],
      "name": "TokensAlreadyMinted",
      "type": "error"
    },
    {
      "anonymous": false,
      "inputs": [
        {
          "indexed": false,
          "internalType": "address",
          "name": "previousAdmin",
          "type": "address"
        },
        {
          "indexed": false,
          "internalType": "address",
          "name": "newAdmin",
          "type": "address"
        }
      ],
      "name": "AdminChanged",
      "type": "event"
    },
    {
      "anonymous": false,
      "inputs": [
        {
          "indexed": true,
          "internalType": "address",
          "name": "account",
          "type": "address"
        },
        {
          "indexed": true,
          "internalType": "address",
          "name": "operator",
          "type": "address"
        },
        {
          "indexed": false,
          "internalType": "bool",
          "name": "approved",
          "type": "bool"
        }
      ],
      "name": "ApprovalForAll",
      "type": "event"
    },
    {
      "anonymous": false,
      "inputs": [
        {
          "indexed": true,
          "internalType": "address",
          "name": "beacon",
          "type": "address"
        }
      ],
      "name": "BeaconUpgraded",
      "type": "event"
    },
    {
      "anonymous": false,
      "inputs": [
        {
          "indexed": false,
          "internalType": "uint256",
          "name": "id",
          "type": "uint256"
        },
        {
          "indexed": false,
          "internalType": "address[]",
          "name": "contributors",
          "type": "address[]"
        }
      ],
      "name": "ContributorsAdded",
      "type": "event"
    },
    {
      "anonymous": false,
      "inputs": [
        {
          "indexed": false,
          "internalType": "uint256",
          "name": "workstreamID",
          "type": "uint256"
        },
        {
          "indexed": false,
          "internalType": "address",
          "name": "creator",
          "type": "address"
        },
        {
          "indexed": false,
          "internalType": "address[]",
          "name": "contributors",
          "type": "address[]"
        },
        {
          "indexed": false,
          "internalType": "uint256[]",
          "name": "ratings",
          "type": "uint256[]"
        }
      ],
      "name": "EvaluationSubmitted",
      "type": "event"
    },
    {
      "anonymous": false,
      "inputs": [
        {
          "indexed": false,
          "internalType": "address",
          "name": "user",
          "type": "address"
        }
      ],
      "name": "FuxClaimed",
      "type": "event"
    },
    {
      "anonymous": false,
      "inputs": [
        {
          "indexed": false,
          "internalType": "address",
          "name": "user",
          "type": "address"
        },
        {
          "indexed": false,
          "internalType": "uint256",
          "name": "workstreamId",
          "type": "uint256"
        },
        {
          "indexed": false,
          "internalType": "uint256",
          "name": "amount",
          "type": "uint256"
        }
      ],
      "name": "FuxGiven",
      "type": "event"
    },
    {
      "anonymous": false,
      "inputs": [
        {
          "indexed": false,
          "internalType": "address",
          "name": "user",
          "type": "address"
        },
        {
          "indexed": false,
          "internalType": "uint256",
          "name": "workstreamId",
          "type": "uint256"
        },
        {
          "indexed": false,
          "internalType": "uint256",
          "name": "amount",
          "type": "uint256"
        }
      ],
      "name": "FuxWithdraw",
      "type": "event"
    },
    {
      "anonymous": false,
      "inputs": [
        {
          "indexed": false,
          "internalType": "uint8",
          "name": "version",
          "type": "uint8"
        }
      ],
      "name": "Initialized",
      "type": "event"
    },
    {
      "anonymous": false,
      "inputs": [
        {
          "indexed": false,
          "internalType": "address",
          "name": "user",
          "type": "address"
        },
        {
          "indexed": false,
          "internalType": "uint256",
          "name": "amount",
          "type": "uint256"
        }
      ],
      "name": "RewardsClaimed",
      "type": "event"
    },
    {
      "anonymous": false,
      "inputs": [
        {
          "indexed": false,
          "internalType": "address",
          "name": "user",
          "type": "address"
        },
        {
          "indexed": false,
          "internalType": "uint256",
          "name": "amount",
          "type": "uint256"
        }
      ],
      "name": "RewardsReserved",
      "type": "event"
    },
    {
      "anonymous": false,
      "inputs": [
        {
          "indexed": true,
          "internalType": "bytes32",
          "name": "role",
          "type": "bytes32"
        },
        {
          "indexed": true,
          "internalType": "bytes32",
          "name": "previousAdminRole",
          "type": "bytes32"
        },
        {
          "indexed": true,
          "internalType": "bytes32",
          "name": "newAdminRole",
          "type": "bytes32"
        }
      ],
      "name": "RoleAdminChanged",
      "type": "event"
    },
    {
      "anonymous": false,
      "inputs": [
        {
          "indexed": true,
          "internalType": "bytes32",
          "name": "role",
          "type": "bytes32"
        },
        {
          "indexed": true,
          "internalType": "address",
          "name": "account",
          "type": "address"
        },
        {
          "indexed": true,
          "internalType": "address",
          "name": "sender",
          "type": "address"
        }
      ],
      "name": "RoleGranted",
      "type": "event"
    },
    {
      "anonymous": false,
      "inputs": [
        {
          "indexed": true,
          "internalType": "bytes32",
          "name": "role",
          "type": "bytes32"
        },
        {
          "indexed": true,
          "internalType": "address",
          "name": "account",
          "type": "address"
        },
        {
          "indexed": true,
          "internalType": "address",
          "name": "sender",
          "type": "address"
        }
      ],
      "name": "RoleRevoked",
      "type": "event"
    },
    {
      "anonymous": false,
      "inputs": [
        {
          "indexed": true,
          "internalType": "address",
          "name": "operator",
          "type": "address"
        },
        {
          "indexed": true,
          "internalType": "address",
          "name": "from",
          "type": "address"
        },
        {
          "indexed": true,
          "internalType": "address",
          "name": "to",
          "type": "address"
        },
        {
          "indexed": false,
          "internalType": "uint256[]",
          "name": "ids",
          "type": "uint256[]"
        },
        {
          "indexed": false,
          "internalType": "uint256[]",
          "name": "values",
          "type": "uint256[]"
        }
      ],
      "name": "TransferBatch",
      "type": "event"
    },
    {
      "anonymous": false,
      "inputs": [
        {
          "indexed": true,
          "internalType": "address",
          "name": "operator",
          "type": "address"
        },
        {
          "indexed": true,
          "internalType": "address",
          "name": "from",
          "type": "address"
        },
        {
          "indexed": true,
          "internalType": "address",
          "name": "to",
          "type": "address"
        },
        {
          "indexed": false,
          "internalType": "uint256",
          "name": "id",
          "type": "uint256"
        },
        {
          "indexed": false,
          "internalType": "uint256",
          "name": "value",
          "type": "uint256"
        }
      ],
      "name": "TransferSingle",
      "type": "event"
    },
    {
      "anonymous": false,
      "inputs": [
        {
          "indexed": false,
          "internalType": "string",
          "name": "value",
          "type": "string"
        },
        {
          "indexed": true,
          "internalType": "uint256",
          "name": "id",
          "type": "uint256"
        }
      ],
      "name": "URI",
      "type": "event"
    },
    {
      "anonymous": false,
      "inputs": [
        {
          "indexed": true,
          "internalType": "address",
          "name": "implementation",
          "type": "address"
        }
      ],
      "name": "Upgraded",
      "type": "event"
    },
    {
      "anonymous": false,
      "inputs": [
        {
          "indexed": false,
          "internalType": "address",
          "name": "user",
          "type": "address"
        },
        {
          "indexed": false,
          "internalType": "uint256",
          "name": "workstreamID",
          "type": "uint256"
        }
      ],
      "name": "VFuxClaimed",
      "type": "event"
    },
    {
      "anonymous": false,
      "inputs": [
        {
          "indexed": false,
          "internalType": "uint256",
          "name": "workstreamID",
          "type": "uint256"
        }
      ],
      "name": "WorkstreamClosed",
      "type": "event"
    },
    {
      "anonymous": false,
      "inputs": [
        {
          "indexed": false,
          "internalType": "uint256",
          "name": "id",
          "type": "uint256"
        },
        {
          "indexed": false,
          "internalType": "uint256",
          "name": "funds",
          "type": "uint256"
        },
        {
          "indexed": false,
          "internalType": "uint256",
          "name": "deadline",
          "type": "uint256"
        },
        {
          "indexed": false,
          "internalType": "string",
          "name": "metadataUri",
          "type": "string"
        }
      ],
      "name": "WorkstreamMinted",
      "type": "event"
    },
    {
      "inputs": [],
      "name": "DEFAULT_ADMIN_ROLE",
      "outputs": [
        {
          "internalType": "bytes32",
          "name": "",
          "type": "bytes32"
        }
      ],
      "stateMutability": "view",
      "type": "function"
    },
    {
      "inputs": [],
      "name": "FUX_TOKEN_ID",
      "outputs": [
        {
          "internalType": "uint256",
          "name": "",
          "type": "uint256"
        }
      ],
      "stateMutability": "view",
      "type": "function"
    },
    {
      "inputs": [],
      "name": "UPGRADER_ROLE",
      "outputs": [
        {
          "internalType": "bytes32",
          "name": "",
          "type": "bytes32"
        }
      ],
      "stateMutability": "view",
      "type": "function"
    },
    {
      "inputs": [],
      "name": "URI_SETTER_ROLE",
      "outputs": [
        {
          "internalType": "bytes32",
          "name": "",
          "type": "bytes32"
        }
      ],
      "stateMutability": "view",
      "type": "function"
    },
    {
      "inputs": [],
      "name": "VFUX_TOKEN_ID",
      "outputs": [
        {
          "internalType": "uint256",
          "name": "",
          "type": "uint256"
        }
      ],
      "stateMutability": "view",
      "type": "function"
    },
    {
      "inputs": [
        {
          "internalType": "uint256",
          "name": "workstreamId",
          "type": "uint256"
        },
        {
          "internalType": "address[]",
          "name": "contributors",
          "type": "address[]"
        }
      ],
      "name": "addContributors",
      "outputs": [],
      "stateMutability": "nonpayable",
      "type": "function"
    },
    {
      "inputs": [
        {
          "internalType": "address",
          "name": "account",
          "type": "address"
        },
        {
          "internalType": "uint256",
          "name": "id",
          "type": "uint256"
        }
      ],
      "name": "balanceOf",
      "outputs": [
        {
          "internalType": "uint256",
          "name": "",
          "type": "uint256"
        }
      ],
      "stateMutability": "view",
      "type": "function"
    },
    {
      "inputs": [
        {
          "internalType": "address[]",
          "name": "accounts",
          "type": "address[]"
        },
        {
          "internalType": "uint256[]",
          "name": "ids",
          "type": "uint256[]"
        }
      ],
      "name": "balanceOfBatch",
      "outputs": [
        {
          "internalType": "uint256[]",
          "name": "",
          "type": "uint256[]"
        }
      ],
      "stateMutability": "view",
      "type": "function"
    },
    {
      "inputs": [],
      "name": "claimRewards",
      "outputs": [],
      "stateMutability": "nonpayable",
      "type": "function"
    },
    {
      "inputs": [
        {
          "internalType": "uint256",
          "name": "workstreamID",
          "type": "uint256"
        },
        {
          "internalType": "uint8",
          "name": "fuxGiven",
          "type": "uint8"
        }
      ],
      "name": "commitToWorkstream",
      "outputs": [],
      "stateMutability": "nonpayable",
      "type": "function"
    },
    {
      "inputs": [
        {
          "internalType": "uint256",
          "name": "id",
          "type": "uint256"
        }
      ],
      "name": "exists",
      "outputs": [
        {
          "internalType": "bool",
          "name": "",
          "type": "bool"
        }
      ],
      "stateMutability": "view",
      "type": "function"
    },
    {
      "inputs": [
        {
          "internalType": "address",
          "name": "account",
          "type": "address"
        }
      ],
      "name": "getAvailableBalance",
      "outputs": [
        {
          "internalType": "uint256",
          "name": "balance",
          "type": "uint256"
        }
      ],
      "stateMutability": "view",
      "type": "function"
    },
    {
      "inputs": [
        {
          "internalType": "bytes32",
          "name": "role",
          "type": "bytes32"
        }
      ],
      "name": "getRoleAdmin",
      "outputs": [
        {
          "internalType": "bytes32",
          "name": "",
          "type": "bytes32"
        }
      ],
      "stateMutability": "view",
      "type": "function"
    },
    {
      "inputs": [
        {
          "internalType": "uint256",
          "name": "workstreamID",
          "type": "uint256"
        }
      ],
      "name": "getVFuxForEvaluation",
      "outputs": [
        {
          "internalType": "uint256",
          "name": "vFux",
          "type": "uint256"
        }
      ],
      "stateMutability": "view",
      "type": "function"
    },
    {
      "inputs": [
        {
          "internalType": "address",
          "name": "user",
          "type": "address"
        },
        {
          "internalType": "uint256",
          "name": "workstreamID",
          "type": "uint256"
        }
      ],
      "name": "getValueEvaluation",
      "outputs": [
        {
          "components": [
            {
              "internalType": "address[]",
              "name": "contributors",
              "type": "address[]"
            },
            {
              "internalType": "uint256[]",
              "name": "ratings",
              "type": "uint256[]"
            },
            {
              "internalType": "bool",
              "name": "exists",
              "type": "bool"
            }
          ],
          "internalType": "struct FUX.Evaluation",
          "name": "evaluation",
          "type": "tuple"
        }
      ],
      "stateMutability": "view",
      "type": "function"
    },
    {
      "inputs": [
        {
          "internalType": "uint256",
          "name": "workstreamID",
          "type": "uint256"
        }
      ],
      "name": "getWorkstreamByID",
      "outputs": [
        {
          "components": [
            {
              "internalType": "string",
              "name": "name",
              "type": "string"
            },
            {
              "internalType": "address",
              "name": "creator",
              "type": "address"
            },
            {
              "internalType": "address[]",
              "name": "contributors",
              "type": "address[]"
            },
            {
              "internalType": "uint256[]",
              "name": "evaluations",
              "type": "uint256[]"
            },
            {
              "internalType": "uint256",
              "name": "deadline",
              "type": "uint256"
            },
            {
              "internalType": "uint256",
              "name": "funds",
              "type": "uint256"
            },
            {
              "internalType": "bool",
              "name": "exists",
              "type": "bool"
            }
          ],
          "internalType": "struct FUX.Workstream",
          "name": "workstream",
          "type": "tuple"
        }
      ],
      "stateMutability": "view",
      "type": "function"
    },
    {
      "inputs": [
        {
          "internalType": "address",
          "name": "user",
          "type": "address"
        },
        {
          "internalType": "uint256",
          "name": "workstreamID",
          "type": "uint256"
        }
      ],
      "name": "getWorkstreamCommitment",
      "outputs": [
        {
          "internalType": "uint256",
          "name": "fuxGiven",
          "type": "uint256"
        }
      ],
      "stateMutability": "view",
      "type": "function"
    },
    {
      "inputs": [
        {
          "internalType": "address",
          "name": "user",
          "type": "address"
        }
      ],
      "name": "getWorkstreamIDs",
      "outputs": [
        {
          "internalType": "uint256[]",
          "name": "ids",
          "type": "uint256[]"
        }
      ],
      "stateMutability": "view",
      "type": "function"
    },
    {
      "inputs": [
        {
          "internalType": "bytes32",
          "name": "role",
          "type": "bytes32"
        },
        {
          "internalType": "address",
          "name": "account",
          "type": "address"
        }
      ],
      "name": "grantRole",
      "outputs": [],
      "stateMutability": "nonpayable",
      "type": "function"
    },
    {
      "inputs": [
        {
          "internalType": "bytes32",
          "name": "role",
          "type": "bytes32"
        },
        {
          "internalType": "address",
          "name": "account",
          "type": "address"
        }
      ],
      "name": "hasRole",
      "outputs": [
        {
          "internalType": "bool",
          "name": "",
          "type": "bool"
        }
      ],
      "stateMutability": "view",
      "type": "function"
    },
    {
      "inputs": [],
      "name": "initialize",
      "outputs": [],
      "stateMutability": "nonpayable",
      "type": "function"
    },
    {
      "inputs": [
        {
          "internalType": "address",
          "name": "account",
          "type": "address"
        },
        {
          "internalType": "address",
          "name": "operator",
          "type": "address"
        }
      ],
      "name": "isApprovedForAll",
      "outputs": [
        {
          "internalType": "bool",
          "name": "",
          "type": "bool"
        }
      ],
      "stateMutability": "view",
      "type": "function"
    },
    {
      "inputs": [],
      "name": "mintFux",
      "outputs": [],
      "stateMutability": "nonpayable",
      "type": "function"
    },
    {
      "inputs": [
        {
          "internalType": "uint256",
          "name": "workstreamID",
          "type": "uint256"
        }
      ],
      "name": "mintVFux",
      "outputs": [],
      "stateMutability": "nonpayable",
      "type": "function"
    },
    {
      "inputs": [
        {
          "internalType": "string",
          "name": "name",
          "type": "string"
        },
        {
          "internalType": "address[]",
          "name": "contributors",
          "type": "address[]"
        },
        {
          "internalType": "uint256",
          "name": "deadline",
          "type": "uint256"
        }
      ],
      "name": "mintWorkstream",
      "outputs": [],
      "stateMutability": "payable",
      "type": "function"
    },
    {
      "inputs": [
        {
          "internalType": "address",
          "name": "_operator",
          "type": "address"
        },
        {
          "internalType": "address",
          "name": "_from",
          "type": "address"
        },
        {
          "internalType": "uint256[]",
          "name": "_ids",
          "type": "uint256[]"
        },
        {
          "internalType": "uint256[]",
          "name": "_values",
          "type": "uint256[]"
        },
        {
          "internalType": "bytes",
          "name": "_data",
          "type": "bytes"
        }
      ],
      "name": "onERC1155BatchReceived",
      "outputs": [
        {
          "internalType": "bytes4",
          "name": "",
          "type": "bytes4"
        }
      ],
      "stateMutability": "pure",
      "type": "function"
    },
    {
      "inputs": [
        {
          "internalType": "address",
          "name": "_operator",
          "type": "address"
        },
        {
          "internalType": "address",
          "name": "_from",
          "type": "address"
        },
        {
          "internalType": "uint256",
          "name": "_id",
          "type": "uint256"
        },
        {
          "internalType": "uint256",
          "name": "_value",
          "type": "uint256"
        },
        {
          "internalType": "bytes",
          "name": "_data",
          "type": "bytes"
        }
      ],
      "name": "onERC1155Received",
      "outputs": [
        {
          "internalType": "bytes4",
          "name": "",
          "type": "bytes4"
        }
      ],
      "stateMutability": "pure",
      "type": "function"
    },
    {
      "inputs": [],
      "name": "proxiableUUID",
      "outputs": [
        {
          "internalType": "bytes32",
          "name": "",
          "type": "bytes32"
        }
      ],
      "stateMutability": "view",
      "type": "function"
    },
    {
      "inputs": [
        {
          "internalType": "bytes32",
          "name": "role",
          "type": "bytes32"
        },
        {
          "internalType": "address",
          "name": "account",
          "type": "address"
        }
      ],
      "name": "renounceRole",
      "outputs": [],
      "stateMutability": "nonpayable",
      "type": "function"
    },
    {
      "inputs": [
        {
          "internalType": "uint256",
          "name": "workstreamID",
          "type": "uint256"
        }
      ],
      "name": "resolveSoloWorkstream",
      "outputs": [],
      "stateMutability": "nonpayable",
      "type": "function"
    },
    {
      "inputs": [
        {
          "internalType": "uint256",
          "name": "workstreamID",
          "type": "uint256"
        },
        {
          "internalType": "address[]",
          "name": "contributors",
          "type": "address[]"
        },
        {
          "internalType": "uint256[]",
          "name": "vFuxGiven",
          "type": "uint256[]"
        }
      ],
      "name": "resolveValueEvaluation",
      "outputs": [],
      "stateMutability": "nonpayable",
      "type": "function"
    },
    {
      "inputs": [
        {
          "internalType": "bytes32",
          "name": "role",
          "type": "bytes32"
        },
        {
          "internalType": "address",
          "name": "account",
          "type": "address"
        }
      ],
      "name": "revokeRole",
      "outputs": [],
      "stateMutability": "nonpayable",
      "type": "function"
    },
    {
      "inputs": [
        {
          "internalType": "address",
          "name": "from",
          "type": "address"
        },
        {
          "internalType": "address",
          "name": "to",
          "type": "address"
        },
        {
          "internalType": "uint256[]",
          "name": "ids",
          "type": "uint256[]"
        },
        {
          "internalType": "uint256[]",
          "name": "amounts",
          "type": "uint256[]"
        },
        {
          "internalType": "bytes",
          "name": "data",
          "type": "bytes"
        }
      ],
      "name": "safeBatchTransferFrom",
      "outputs": [],
      "stateMutability": "pure",
      "type": "function"
    },
    {
      "inputs": [
        {
          "internalType": "address",
          "name": "from",
          "type": "address"
        },
        {
          "internalType": "address",
          "name": "to",
          "type": "address"
        },
        {
          "internalType": "uint256",
          "name": "id",
          "type": "uint256"
        },
        {
          "internalType": "uint256",
          "name": "amount",
          "type": "uint256"
        },
        {
          "internalType": "bytes",
          "name": "data",
          "type": "bytes"
        }
      ],
      "name": "safeTransferFrom",
      "outputs": [],
      "stateMutability": "pure",
      "type": "function"
    },
    {
      "inputs": [
        {
          "internalType": "address",
          "name": "operator",
          "type": "address"
        },
        {
          "internalType": "bool",
          "name": "approved",
          "type": "bool"
        }
      ],
      "name": "setApprovalForAll",
      "outputs": [],
      "stateMutability": "nonpayable",
      "type": "function"
    },
    {
      "inputs": [
        {
          "internalType": "string",
          "name": "newuri",
          "type": "string"
        }
      ],
      "name": "setURI",
      "outputs": [],
      "stateMutability": "nonpayable",
      "type": "function"
    },
    {
      "inputs": [
        {
          "internalType": "uint256",
          "name": "workstreamID",
          "type": "uint256"
        },
        {
          "internalType": "address[]",
          "name": "contributors",
          "type": "address[]"
        },
        {
          "internalType": "uint256[]",
          "name": "ratings",
          "type": "uint256[]"
        }
      ],
      "name": "submitValueEvaluation",
      "outputs": [],
      "stateMutability": "nonpayable",
      "type": "function"
    },
    {
      "inputs": [
        {
          "internalType": "bytes4",
          "name": "interfaceId",
          "type": "bytes4"
        }
      ],
      "name": "supportsInterface",
      "outputs": [
        {
          "internalType": "bool",
          "name": "",
          "type": "bool"
        }
      ],
      "stateMutability": "view",
      "type": "function"
    },
    {
      "inputs": [
        {
          "internalType": "uint256",
          "name": "id",
          "type": "uint256"
        }
      ],
      "name": "totalSupply",
      "outputs": [
        {
          "internalType": "uint256",
          "name": "",
          "type": "uint256"
        }
      ],
      "stateMutability": "view",
      "type": "function"
    },
    {
      "inputs": [
        {
          "internalType": "address",
          "name": "newImplementation",
          "type": "address"
        }
      ],
      "name": "upgradeTo",
      "outputs": [],
      "stateMutability": "nonpayable",
      "type": "function"
    },
    {
      "inputs": [
        {
          "internalType": "address",
          "name": "newImplementation",
          "type": "address"
        },
        {
          "internalType": "bytes",
          "name": "data",
          "type": "bytes"
        }
      ],
      "name": "upgradeToAndCall",
      "outputs": [],
      "stateMutability": "payable",
      "type": "function"
    },
    {
      "inputs": [
        {
          "internalType": "uint256",
          "name": "tokenId",
          "type": "uint256"
        }
      ],
      "name": "uri",
      "outputs": [
        {
          "internalType": "string",
          "name": "",
          "type": "string"
        }
      ],
      "stateMutability": "view",
      "type": "function"
    },
    {
      "inputs": [
        {
          "internalType": "uint256",
          "name": "workstreamID",
          "type": "uint256"
        }
      ],
      "name": "withdrawFromWorkstream",
      "outputs": [],
      "stateMutability": "nonpayable",
      "type": "function"
    }
  ],
  "numDeployments": 4,
  "solcInputHash": "ef2a1ffae5f3637fe8effdc3ff7bf873",
  "bytecode": "0x60a0604052306080523480156200001557600080fd5b506200002062000026565b620000e8565b600054610100900460ff1615620000935760405162461bcd60e51b815260206004820152602760248201527f496e697469616c697a61626c653a20636f6e747261637420697320696e697469604482015266616c697a696e6760c81b606482015260840160405180910390fd5b60005460ff9081161015620000e6576000805460ff191660ff9081179091556040519081527f7f26b83ff96e1f2b6a682f133852f6798a09c465da95921460cefb38474024989060200160405180910390a15b565b6080516148c66200012060003960008181610ce101528181610d660152818161134b015281816113d001526114b601526148c66000f3fe6080604052600436106102db5760003560e01c80637f34571011610184578063d422831f116100d6578063e3ca59551161008a578063f242432a11610064578063f242432a146108df578063f385facc146108fa578063f72c0d8b1461090f57600080fd5b8063e3ca595514610849578063e985e9c514610869578063f23a6e61146108b257600080fd5b8063d59a0ed3116100bb578063d59a0ed3146107e9578063d6b0fd2a146107fc578063d7cec1551461082957600080fd5b8063d422831f146106df578063d547741f146107c957600080fd5b8063a217fddf11610138578063b14ab80311610112578063b14ab80314610734578063bc197c8114610754578063bd85b0391461079c57600080fd5b8063a217fddf146106df578063a22cb465146106f4578063a8319ed21461071457600080fd5b80638b5d41ef116101695780638b5d41ef146106575780638e8e18ad1461068457806391d148541461069957600080fd5b80637f3457101461060e5780638129fc1c1461064257600080fd5b806336568abe1161023d5780634562bbea116101f15780634f558e79116101cb5780634f558e791461059357806352d1902d146105c25780636c24a76f146105d757600080fd5b80634562bbea1461051d5780634e1273f4146105605780634f1ef2861461058057600080fd5b8063372500ab11610222578063372500ab146104c85780633d39942e146104dd57806342f6a961146104fd57600080fd5b806336568abe146104885780633659cfe6146104a857600080fd5b80630e89341c11610294578063248a9ca311610279578063248a9ca3146104185780632eb2c2d6146104485780632f2ff15d1461046857600080fd5b80630e89341c146103b2578063222cc569146103df57600080fd5b806302fe5305116102c557806302fe530514610343578063042bf9f0146103655780630ab083581461038557600080fd5b8062fdd58e146102e057806301ffc9a714610313575b600080fd5b3480156102ec57600080fd5b506103006102fb366004613ac6565b610943565b6040519081526020015b60405180910390f35b34801561031f57600080fd5b5061033361032e366004613b06565b6109ee565b604051901515815260200161030a565b34801561034f57600080fd5b5061036361035e366004613bda565b6109ff565b005b34801561037157600080fd5b50610363610380366004613d19565b610a36565b34801561039157600080fd5b506103a56103a0366004613d86565b610b94565b60405161030a9190613ddc565b3480156103be57600080fd5b506103d26103cd366004613def565b610c01565b60405161030a9190613e60565b3480156103eb57600080fd5b506103006103fa366004613def565b3360009081526101c860209081526040808320938352929052205490565b34801561042457600080fd5b50610300610433366004613def565b60009081526097602052604090206001015490565b34801561045457600080fd5b50610363610463366004613e73565b610c0c565b34801561047457600080fd5b50610363610483366004613f1d565b610c25565b34801561049457600080fd5b506103636104a3366004613f1d565b610c4f565b3480156104b457600080fd5b506103636104c3366004613d86565b610cd7565b3480156104d457600080fd5b50610363610e52565b3480156104e957600080fd5b506103636104f8366004613f49565b610f02565b34801561050957600080fd5b50610363610518366004613fcb565b611093565b34801561052957600080fd5b50610300610538366004613ac6565b6001600160a01b0390911660009081526101c660209081526040808320938352929052205490565b34801561056c57600080fd5b506103a561057b366004614017565b611203565b61036361058e36600461407b565b611341565b34801561059f57600080fd5b506103336105ae366004613def565b600090815260c96020526040902054151590565b3480156105ce57600080fd5b506103006114a9565b3480156105e357600080fd5b506103006105f2366004613d86565b6001600160a01b031660009081526101cb602052604090205490565b34801561061a57600080fd5b506103007f7804d923f43a17d325d77e781528e0793b2edd9890ab45fc64efd7b4b427744c81565b34801561064e57600080fd5b5061036361156f565b34801561066357600080fd5b50610677610672366004613ac6565b611715565b60405161030a91906140f8565b34801561069057600080fd5b50610300600181565b3480156106a557600080fd5b506103336106b4366004613f1d565b60009182526097602090815260408084206001600160a01b0393909316845291905290205460ff1690565b3480156106eb57600080fd5b50610300600081565b34801561070057600080fd5b5061036361070f36600461414a565b611822565b34801561072057600080fd5b5061036361072f366004613d19565b61182d565b34801561074057600080fd5b5061036361074f366004613def565b61190e565b34801561076057600080fd5b5061078361076f3660046141bd565b63bc197c8160e01b98975050505050505050565b6040516001600160e01b0319909116815260200161030a565b3480156107a857600080fd5b506103006107b7366004613def565b600090815260c9602052604090205490565b3480156107d557600080fd5b506103636107e4366004613f1d565b611adb565b6103636107f7366004614278565b611b00565b34801561080857600080fd5b5061081c610817366004613def565b611ced565b60405161030a91906142e8565b34801561083557600080fd5b50610363610844366004613def565b611ed7565b34801561085557600080fd5b50610363610864366004613def565b611f1c565b34801561087557600080fd5b50610333610884366004614381565b6001600160a01b03918216600090815260666020908152604080832093909416825291909152205460ff1690565b3480156108be57600080fd5b506107836108cd3660046143ab565b63f23a6e6160e01b9695505050505050565b3480156108eb57600080fd5b50610363610463366004614423565b34801561090657600080fd5b50610363612076565b34801561091b57600080fd5b506103007f189ab7a9244df0848122154315af71fe140f3db0fe014031783b0946b8c9d2e381565b60006001600160a01b0383166109c65760405162461bcd60e51b815260206004820152602a60248201527f455243313135353a2061646472657373207a65726f206973206e6f742061207660448201527f616c6964206f776e65720000000000000000000000000000000000000000000060648201526084015b60405180910390fd5b5060009081526065602090815260408083206001600160a01b03949094168352929052205490565b60006109f982612115565b92915050565b7f7804d923f43a17d325d77e781528e0793b2edd9890ab45fc64efd7b4b427744c610a298161213a565b610a3282612144565b5050565b60008381526101c460205260409020600681015460ff16610a6a576040516355dcb6f160e01b815260040160405180910390fd5b60018101546001600160a01b03163314610a975760405163390cdd9b60e21b815260040160405180910390fd5b3360009081526101c660209081526040808320878452909152902054600003610ad35760405163a95eee8160e01b815260040160405180910390fd5b3360009081526101c860209081526040808320878452909152902054600003610b0f5760405163da92a67760e01b815260040160405180910390fd5b610b1a848484612157565b610b25838386612296565b600581015415610b3e57610b3e83838360050154612397565b610b4883856124d7565b610b5184612586565b6040518481527f537df8eb1adad6c5857328cc572568971f50e40fabde274f091190a3f4878e6a9060200160405180910390a1600601805460ff19169055505050565b6001600160a01b03811660009081526101c56020908152604091829020805483518184028101840190945280845260609392830182828015610bf557602002820191906000526020600020905b815481526020019060010190808311610be1575b50505050509050919050565b60606109f98261263f565b60405163e92ecd6760e01b815260040160405180910390fd5b600082815260976020526040902060010154610c408161213a565b610c4a838361271f565b505050565b6001600160a01b0381163314610ccd5760405162461bcd60e51b815260206004820152602f60248201527f416363657373436f6e74726f6c3a2063616e206f6e6c792072656e6f756e636560448201527f20726f6c657320666f722073656c66000000000000000000000000000000000060648201526084016109bd565b610a3282826127c1565b6001600160a01b037f0000000000000000000000000000000000000000000000000000000000000000163003610d645760405162461bcd60e51b815260206004820152602c60248201527f46756e6374696f6e206d7573742062652063616c6c6564207468726f7567682060448201526b19195b1959d85d1958d85b1b60a21b60648201526084016109bd565b7f00000000000000000000000000000000000000000000000000000000000000006001600160a01b0316610dbf7f360894a13ba1a3210667c828492db98dca3e2076cc3735a920a3ca505d382bbc546001600160a01b031690565b6001600160a01b031614610e2a5760405162461bcd60e51b815260206004820152602c60248201527f46756e6374696f6e206d7573742062652063616c6c6564207468726f7567682060448201526b6163746976652070726f787960a01b60648201526084016109bd565b610e3381612844565b60408051600080825260208201909252610e4f9183919061286e565b50565b3360009081526101cb60205260408120549003610e8257604051631036b5ad60e31b815260040160405180910390fd5b3360008181526101cb6020526040808220805490839055905190929183156108fc02918491818181858888f19350505050158015610ec4573d6000803e3d6000fd5b5060408051338152602081018390527ffc30cddea38e2bf4d6ea7d3f9ed3b6ad7f176419f4963bd81318067a4aee73fe91015b60405180910390a150565b8060ff16610f11336000610943565b1015610f305760405163a95eee8160e01b815260040160405180910390fd5b3360009081526101ca6020908152604080832085845290915290205460ff16610f6c5760405163d764187d60e01b815260040160405180910390fd5b3360009081526101c66020908152604080832085845290915290205460ff82168103610fda5760405162461bcd60e51b815260206004820152601260248201527f53616d6520616d6f756e74206f6620465558000000000000000000000000000060448201526064016109bd565b8160ff1681101561100e5761100e33306000610ff98560ff881661449e565b60405180602001604052806000815250612a0e565b8160ff1681111561102d5761102d30336000610ff960ff87168661449e565b3360008181526101c66020908152604080832087845282529182902060ff8616908190558251938452908301869052908201527f3e0d5a590ba8d04db40e773cf88b938280ed4080a2688ba8e8105fb56f58e224906060015b60405180910390a1505050565b60008381526101c4602052604090206006015460ff166110c6576040516355dcb6f160e01b815260040160405180910390fd5b60008381526101c460205260409020600101546001600160a01b031633146111015760405163390cdd9b60e21b815260040160405180910390fd5b8060005b818110156111c1576000848483818110611121576111216144b5565b90506020020160208101906111369190613d86565b6001600160a01b031660008181526101c560209081526040808320805460018181018355918552838520018b90558a84526101c48352818420600201805480830182559085528385200180546001600160a01b031916861790559383526101ca82528083208a84529091529020805460ff1916909117905550806111b9816144cb565b915050611105565b507f53f304d7ddc99bcc4695bc068800ce525ea67661c7f16ad157fee5a1ed6f6b3c8484846040516111f5939291906144e4565b60405180910390a150505050565b6060815183511461127c5760405162461bcd60e51b815260206004820152602960248201527f455243313135353a206163636f756e747320616e6420696473206c656e67746860448201527f206d69736d61746368000000000000000000000000000000000000000000000060648201526084016109bd565b6000835167ffffffffffffffff81111561129857611298613b23565b6040519080825280602002602001820160405280156112c1578160200160208202803683370190505b50905060005b84518110156113395761130c8582815181106112e5576112e56144b5565b60200260200101518583815181106112ff576112ff6144b5565b6020026020010151610943565b82828151811061131e5761131e6144b5565b6020908102919091010152611332816144cb565b90506112c7565b509392505050565b6001600160a01b037f00000000000000000000000000000000000000000000000000000000000000001630036113ce5760405162461bcd60e51b815260206004820152602c60248201527f46756e6374696f6e206d7573742062652063616c6c6564207468726f7567682060448201526b19195b1959d85d1958d85b1b60a21b60648201526084016109bd565b7f00000000000000000000000000000000000000000000000000000000000000006001600160a01b03166114297f360894a13ba1a3210667c828492db98dca3e2076cc3735a920a3ca505d382bbc546001600160a01b031690565b6001600160a01b0316146114945760405162461bcd60e51b815260206004820152602c60248201527f46756e6374696f6e206d7573742062652063616c6c6564207468726f7567682060448201526b6163746976652070726f787960a01b60648201526084016109bd565b61149d82612844565b610a328282600161286e565b6000306001600160a01b037f000000000000000000000000000000000000000000000000000000000000000016146115495760405162461bcd60e51b815260206004820152603860248201527f555550535570677261646561626c653a206d757374206e6f742062652063616c60448201527f6c6564207468726f7567682064656c656761746563616c6c000000000000000060648201526084016109bd565b507f360894a13ba1a3210667c828492db98dca3e2076cc3735a920a3ca505d382bbc5b90565b600054610100900460ff161580801561158f5750600054600160ff909116105b806115a95750303b1580156115a9575060005460ff166001145b61161b5760405162461bcd60e51b815260206004820152602e60248201527f496e697469616c697a61626c653a20636f6e747261637420697320616c72656160448201527f647920696e697469616c697a656400000000000000000000000000000000000060648201526084016109bd565b6000805460ff19166001179055801561163e576000805461ff0019166101001790555b61165660405180602001604052806000815250612bf6565b61165e612c6a565b611666612c6a565b61166e612c6a565b61167960003361271f565b6116a37f7804d923f43a17d325d77e781528e0793b2edd9890ab45fc64efd7b4b427744c3361271f565b6116cd7f189ab7a9244df0848122154315af71fe140f3db0fe014031783b0946b8c9d2e33361271f565b60006101c3558015610e4f576000805461ff0019169055604051600181527f7f26b83ff96e1f2b6a682f133852f6798a09c465da95921460cefb384740249890602001610ef7565b6040805160608082018352808252602080830182905260008385018190526001600160a01b03871681526101c7825284812086825282528490208451815492830281016080908101909652928301828152939492939092849284918401828280156117a957602002820191906000526020600020905b81546001600160a01b0316815260019091019060200180831161178b575b505050505081526020016001820180548060200260200160405190810160405280929190818152602001828054801561180157602002820191906000526020600020905b8154815260200190600101908083116117ed575b50505091835250506002919091015460ff1615156020909101529392505050565b610a32338383612cd7565b3360009081526101ca6020908152604080832086845290915290205460ff166118695760405163d764187d60e01b815260040160405180910390fd5b3360009081526101c6602090815260408083208684529091529020546000036118a55760405163a95eee8160e01b815260040160405180910390fd5b815115806118b557508051825114155b156119035760405163d647364f60e01b815260206004820152601760248201527f636f6e7472696275746f72732c2076467578476976656e00000000000000000060448201526064016109bd565b610c4a838383612157565b60008181526101c460205260409020600681015460ff16611942576040516355dcb6f160e01b815260040160405180910390fd5b60018101546001600160a01b0316331461196f5760405163390cdd9b60e21b815260040160405180910390fd5b3360009081526101c6602090815260408083208584529091529020546000036119ab5760405163a95eee8160e01b815260040160405180910390fd5b60008281526101c46020526040902060020154600114611a0e5760405163d647364f60e01b815260206004820152600860248201527f4e6f7420736f6c6f00000000000000000000000000000000000000000000000060448201526064016109bd565b600581015415611a915760058101543360009081526101cb602052604081208054909190611a3d90849061453a565b909155505060018101546005820154604080516001600160a01b03909316835260208301919091527f47265b27f934438348d392d07a4bc3087b1f08c6ebf1ee5181b476356f18f67d910160405180910390a15b611a9a82612586565b6040518281527f537df8eb1adad6c5857328cc572568971f50e40fabde274f091190a3f4878e6a9060200160405180910390a1600601805460ff1916905550565b600082815260976020526040902060010154611af68161213a565b610c4a83836127c1565b6000829003611b525760405163d647364f60e01b815260206004820152600c60248201527f636f6e7472696275746f7273000000000000000000000000000000000000000060448201526064016109bd565b6101c3546040805160e081018252606081830181815281830191909152600060a0830181815260c084018281528a8552336020808701919091526080860189905286518481528082018852909452600190523490528481526101c48252929092208151805192938493611bc89284920190613982565b506020828101516001830180546001600160a01b0319166001600160a01b0390921691909117905560408301518051611c079260028501920190613a06565b5060608201518051611c23916003840191602090910190613a5b565b506080820151600482015560a0820151600582015560c0909101516006909101805460ff1916911515919091179055611c5d828686611093565b604080518381523460208201529081018490526080606082018190526012908201527f687474703a2f2f6578616d706c652e636f6d000000000000000000000000000060a08201527f500a40456624e358ffccc959dbc8099d186757aa0a8a913e064aead8baa2e0669060c00160405180910390a16101c354611ce190600161453a565b6101c355505050505050565b611d386040518060e001604052806060815260200160006001600160a01b03168152602001606081526020016060815260200160008152602001600081526020016000151581525090565b60008281526101c4602052604090819020815160e08101909252805482908290611d6190614552565b80601f0160208091040260200160405190810160405280929190818152602001828054611d8d90614552565b8015611dda5780601f10611daf57610100808354040283529160200191611dda565b820191906000526020600020905b815481529060010190602001808311611dbd57829003601f168201915b505050918352505060018201546001600160a01b03166020808301919091526002830180546040805182850281018501825282815294019392830182828015611e4c57602002820191906000526020600020905b81546001600160a01b03168152600190910190602001808311611e2e575b5050505050815260200160038201805480602002602001604051908101604052809291908181526020018280548015611ea457602002820191906000526020600020905b815481526020019060010190808311611e90575b5050509183525050600482015460208201526005820154604082015260069091015460ff16151560609091015292915050565b3360009081526101ca6020908152604080832084845290915290205460ff16611f135760405163d764187d60e01b815260040160405180910390fd5b610e4f81612586565b611f418160009081526101c460205260409020600101546001600160a01b0316331490565b611f5e57604051634f6429f360e11b815260040160405180910390fd5b3360009081526101c86020908152604080832084845290915290205415611f985760405163463fefc760e01b815260040160405180910390fd5b3360009081526101c660209081526040808320848452909152902054600003611fd45760405163a95eee8160e01b815260040160405180910390fd5b60008181526101c4602052604090206006015460ff16612007576040516355dcb6f160e01b815260040160405180910390fd5b612024336001606460405180602001604052806000815250612dcb565b3360008181526101c86020908152604080832085845282529182902060649055815192835282018390527f7b013762bcc4a01787a4815463c2c29ee415e5348c5b65ee468c3c03a76f60eb9101610ef7565b3360009081526101c9602052604090205460ff16156120a85760405163463fefc760e01b815260040160405180910390fd5b6120c5336000606460405180602001604052806000815250612dcb565b6040513381527f5184a1d5e0b0bcb8ee2c912752a2301033333eba83e58729ac34b470353164539060200160405180910390a13360009081526101c960205260409020805460ff19166001179055565b60006001600160e01b03198216630271189760e51b14806109f957506109f982612ef0565b610e4f8133612f15565b8051610a32906067906020840190613982565b612162816064612f8a565b61217f5760405163a95eee8160e01b815260040160405180910390fd5b61218882612fde565b8151158061219857508051825114155b156121e65760405163d647364f60e01b815260206004820152601560248201527f636f6e7472696275746f72732c20726174696e6773000000000000000000000060448201526064016109bd565b6040805160608101825283815260208082018490526001828401523360009081526101c78252838120878252825292909220815180519293919261222d9284920190613a06565b5060208281015180516122469260018501920190613a5b565b50604091820151600291909101805460ff1916911515919091179055517fc122d799d7d6cf0e12589532937ae647267a673c8921450ca41c6d405ee6abf89061108690859033908690869061458c565b6122a1826064612f8a565b6122be5760405163da92a67760e01b815260040160405180910390fd5b81516000805b82811015612354578481815181106122de576122de6144b5565b6020026020010151826122f1919061453a565b915061234233878381518110612309576123096144b5565b60200260200101516001888581518110612325576123256144b5565b602002602001015160405180602001604052806000815250612a0e565b8061234c816144cb565b9150506122c4565b503360009081526101c86020908152604080832086845290915290205481146123905760405163a95eee8160e01b815260040160405180910390fd5b5050505050565b81516000805b828110156124b55760006064858784815181106123bc576123bc6144b5565b60200260200101516123ce91906145d1565b6123d891906145f0565b90506123e4818461453a565b9250806101cb60008985815181106123fe576123fe6144b5565b60200260200101516001600160a01b03166001600160a01b031681526020019081526020016000206000828254612435919061453a565b925050819055507f47265b27f934438348d392d07a4bc3087b1f08c6ebf1ee5181b476356f18f67d87838151811061246f5761246f6144b5565b60200260200101518260405161249a9291906001600160a01b03929092168252602082015260400190565b60405180910390a150806124ad816144cb565b91505061239d565b508281111561239057604051631036b5ad60e31b815260040160405180910390fd5b81516000805b828110156123905760008582815181106124f9576124f96144b5565b6020026020010151905061253081866001600160a01b0390911660009081526101c660209081526040808320938352929052205490565b6001600160a01b03821660009081526101c66020908152604080832089845282528083208390558051918201905281815291945061257391309184918790612a0e565b508061257e816144cb565b9150506124dd565b3360009081526101c660209081526040808320848452909152812054908190036125c35760405163a95eee8160e01b815260040160405180910390fd5b3360008181526101c6602090815260408083208684528252808320839055805191820190528181526125fa92309290918590612a0e565b60408051338152602081018490529081018290527f81c3d6f4c1e03f5c57415284db949754444cf26d552e13742dd88bd8b13a89329060600160405180910390a15050565b600081815260fc602052604081208054606092919061265d90614552565b80601f016020809104026020016040519081016040528092919081815260200182805461268990614552565b80156126d65780601f106126ab576101008083540402835291602001916126d6565b820191906000526020600020905b8154815290600101906020018083116126b957829003601f168201915b5050505050905060008151116126f4576126ef83613078565b612718565b60fb8160405160200161270892919061462e565b6040516020818303038152906040525b9392505050565b60008281526097602090815260408083206001600160a01b038516845290915290205460ff16610a325760008281526097602090815260408083206001600160a01b03851684529091529020805460ff1916600117905561277d3390565b6001600160a01b0316816001600160a01b0316837f2f8788117e7eff1d82e926ec794901d17c78024a50270940304540a733656f0d60405160405180910390a45050565b60008281526097602090815260408083206001600160a01b038516845290915290205460ff1615610a325760008281526097602090815260408083206001600160a01b0385168085529252808320805460ff1916905551339285917ff6391f5c32d9c69d2a47ea670b442974b53935d1edc7fd64eb21e047a839171b9190a45050565b7f189ab7a9244df0848122154315af71fe140f3db0fe014031783b0946b8c9d2e3610a328161213a565b7f4910fdfa16fed3260ed0e7147f7cc6da11a60208b5b9406d12a635614ffd91435460ff16156128a157610c4a83613102565b826001600160a01b03166352d1902d6040518163ffffffff1660e01b8152600401602060405180830381865afa9250505080156128fb575060408051601f3d908101601f191682019092526128f8918101906146cb565b60015b61296d5760405162461bcd60e51b815260206004820152602e60248201527f45524331393637557067726164653a206e657720696d706c656d656e7461746960448201527f6f6e206973206e6f74205555505300000000000000000000000000000000000060648201526084016109bd565b7f360894a13ba1a3210667c828492db98dca3e2076cc3735a920a3ca505d382bbc8114612a025760405162461bcd60e51b815260206004820152602960248201527f45524331393637557067726164653a20756e737570706f727465642070726f7860448201527f6961626c6555554944000000000000000000000000000000000000000000000060648201526084016109bd565b50610c4a8383836131c0565b6001600160a01b038416612a8a5760405162461bcd60e51b815260206004820152602560248201527f455243313135353a207472616e7366657220746f20746865207a65726f20616460448201527f647265737300000000000000000000000000000000000000000000000000000060648201526084016109bd565b336000612a96856131eb565b90506000612aa3856131eb565b9050612ab3838989858589613236565b60008681526065602090815260408083206001600160a01b038c16845290915290205485811015612b4c5760405162461bcd60e51b815260206004820152602a60248201527f455243313135353a20696e73756666696369656e742062616c616e636520666f60448201527f72207472616e736665720000000000000000000000000000000000000000000060648201526084016109bd565b60008781526065602090815260408083206001600160a01b038d8116855292528083208985039055908a16825281208054889290612b8b90849061453a565b909155505060408051888152602081018890526001600160a01b03808b16928c821692918816917fc3d58168c5ae7397731d063d5bbf3d657854427343f4c083240f7aacaa2d0f62910160405180910390a4612beb848a8a8a8a8a61324c565b505050505050505050565b600054610100900460ff16612c615760405162461bcd60e51b815260206004820152602b60248201527f496e697469616c697a61626c653a20636f6e7472616374206973206e6f74206960448201526a6e697469616c697a696e6760a81b60648201526084016109bd565b610e4f81613406565b600054610100900460ff16612cd55760405162461bcd60e51b815260206004820152602b60248201527f496e697469616c697a61626c653a20636f6e7472616374206973206e6f74206960448201526a6e697469616c697a696e6760a81b60648201526084016109bd565b565b816001600160a01b0316836001600160a01b031603612d5e5760405162461bcd60e51b815260206004820152602960248201527f455243313135353a2073657474696e6720617070726f76616c2073746174757360448201527f20666f722073656c66000000000000000000000000000000000000000000000060648201526084016109bd565b6001600160a01b03838116600081815260666020908152604080832094871680845294825291829020805460ff191686151590811790915591519182527f17307eab39ab6107e8899845ad3d59bd9653f200f220920489ca2b5937696c31910160405180910390a3505050565b6001600160a01b038416612e2b5760405162461bcd60e51b815260206004820152602160248201527f455243313135353a206d696e7420746f20746865207a65726f206164647265736044820152607360f81b60648201526084016109bd565b336000612e37856131eb565b90506000612e44856131eb565b9050612e5583600089858589613236565b60008681526065602090815260408083206001600160a01b038b16845290915281208054879290612e8790849061453a565b909155505060408051878152602081018790526001600160a01b03808a1692600092918716917fc3d58168c5ae7397731d063d5bbf3d657854427343f4c083240f7aacaa2d0f62910160405180910390a4612ee78360008989898961324c565b50505050505050565b60006001600160e01b03198216637965db0b60e01b14806109f957506109f98261347a565b60008281526097602090815260408083206001600160a01b038516845290915290205460ff16610a3257612f48816134ca565b612f538360206134dc565b604051602001612f649291906146e4565b60408051601f198184030181529082905262461bcd60e51b82526109bd91600401613e60565b815160009081805b82811015612fd357858181518110612fac57612fac6144b5565b602002602001015182612fbf919061453a565b915080612fcb816144cb565b915050612f92565b509092149392505050565b805160005b81811015610c4a57336001600160a01b0316838281518110613007576130076144b5565b60200260200101516001600160a01b0316036130665760405163d647364f60e01b815260206004820152601560248201527f73656e64657220697320636f6e7472696275746f72000000000000000000000060448201526064016109bd565b80613070816144cb565b915050612fe3565b60606067805461308790614552565b80601f01602080910402602001604051908101604052809291908181526020018280546130b390614552565b8015610bf55780601f106130d557610100808354040283529160200191610bf5565b820191906000526020600020905b8154815290600101906020018083116130e35750939695505050505050565b6001600160a01b0381163b61317f5760405162461bcd60e51b815260206004820152602d60248201527f455243313936373a206e657720696d706c656d656e746174696f6e206973206e60448201527f6f74206120636f6e74726163740000000000000000000000000000000000000060648201526084016109bd565b7f360894a13ba1a3210667c828492db98dca3e2076cc3735a920a3ca505d382bbc80546001600160a01b0319166001600160a01b0392909216919091179055565b6131c983613685565b6000825111806131d65750805b15610c4a576131e583836136c5565b50505050565b60408051600180825281830190925260609160009190602080830190803683370190505090508281600081518110613225576132256144b5565b602090810291909101015292915050565b6132448686868686866137d0565b505050505050565b6001600160a01b0384163b156132445760405163f23a6e6160e01b81526001600160a01b0385169063f23a6e61906132909089908990889088908890600401614765565b6020604051808303816000875af19250505080156132cb575060408051601f3d908101601f191682019092526132c89181019061479d565b60015b613380576132d76147ba565b806308c379a00361331057506132eb6147d5565b806132f65750613312565b8060405162461bcd60e51b81526004016109bd9190613e60565b505b60405162461bcd60e51b815260206004820152603460248201527f455243313135353a207472616e7366657220746f206e6f6e2d4552433131353560448201527f526563656976657220696d706c656d656e74657200000000000000000000000060648201526084016109bd565b6001600160e01b0319811663f23a6e6160e01b14612ee75760405162461bcd60e51b815260206004820152602860248201527f455243313135353a204552433131353552656365697665722072656a6563746560448201527f6420746f6b656e7300000000000000000000000000000000000000000000000060648201526084016109bd565b600054610100900460ff166134715760405162461bcd60e51b815260206004820152602b60248201527f496e697469616c697a61626c653a20636f6e7472616374206973206e6f74206960448201526a6e697469616c697a696e6760a81b60648201526084016109bd565b610e4f81612144565b60006001600160e01b03198216636cdb3d1360e11b14806134ab57506001600160e01b031982166303a24d0760e21b145b806109f957506301ffc9a760e01b6001600160e01b03198316146109f9565b60606109f96001600160a01b03831660145b606060006134eb8360026145d1565b6134f690600261453a565b67ffffffffffffffff81111561350e5761350e613b23565b6040519080825280601f01601f191660200182016040528015613538576020820181803683370190505b509050600360fc1b81600081518110613553576135536144b5565b60200101906001600160f81b031916908160001a905350600f60fb1b81600181518110613582576135826144b5565b60200101906001600160f81b031916908160001a90535060006135a68460026145d1565b6135b190600161453a565b90505b6001811115613636577f303132333435363738396162636465660000000000000000000000000000000085600f16601081106135f2576135f26144b5565b1a60f81b828281518110613608576136086144b5565b60200101906001600160f81b031916908160001a90535060049490941c9361362f8161485f565b90506135b4565b5083156127185760405162461bcd60e51b815260206004820181905260248201527f537472696e67733a20686578206c656e67746820696e73756666696369656e7460448201526064016109bd565b61368e81613102565b6040516001600160a01b038216907fbc7cd75a20ee27fd9adebab32041f755214dbc6bffa90cc0225b39da2e5c2d3b90600090a250565b60606001600160a01b0383163b6137445760405162461bcd60e51b815260206004820152602660248201527f416464726573733a2064656c65676174652063616c6c20746f206e6f6e2d636f60448201527f6e7472616374000000000000000000000000000000000000000000000000000060648201526084016109bd565b600080846001600160a01b03168460405161375f9190614876565b600060405180830381855af49150503d806000811461379a576040519150601f19603f3d011682016040523d82523d6000602084013e61379f565b606091505b50915091506137c782826040518060600160405280602781526020016148936027913961395e565b95945050505050565b6001600160a01b0385166138575760005b8351811015613855578281815181106137fc576137fc6144b5565b602002602001015160c9600086848151811061381a5761381a6144b5565b60200260200101518152602001908152602001600020600082825461383f919061453a565b9091555061384e9050816144cb565b90506137e1565b505b6001600160a01b0384166132445760005b8351811015612ee7576000848281518110613885576138856144b5565b6020026020010151905060008483815181106138a3576138a36144b5565b60200260200101519050600060c960008481526020019081526020016000205490508181101561393b5760405162461bcd60e51b815260206004820152602860248201527f455243313135353a206275726e20616d6f756e74206578636565647320746f7460448201527f616c537570706c7900000000000000000000000000000000000000000000000060648201526084016109bd565b600092835260c9602052604090922091039055613957816144cb565b9050613868565b6060831561396d575081612718565b61271883838151156132f65781518083602001fd5b82805461398e90614552565b90600052602060002090601f0160209004810192826139b057600085556139f6565b82601f106139c957805160ff19168380011785556139f6565b828001600101855582156139f6579182015b828111156139f65782518255916020019190600101906139db565b50613a02929150613a95565b5090565b8280548282559060005260206000209081019282156139f6579160200282015b828111156139f657825182546001600160a01b0319166001600160a01b03909116178255602090920191600190910190613a26565b8280548282559060005260206000209081019282156139f657916020028201828111156139f65782518255916020019190600101906139db565b5b80821115613a025760008155600101613a96565b80356001600160a01b0381168114613ac157600080fd5b919050565b60008060408385031215613ad957600080fd5b613ae283613aaa565b946020939093013593505050565b6001600160e01b031981168114610e4f57600080fd5b600060208284031215613b1857600080fd5b813561271881613af0565b634e487b7160e01b600052604160045260246000fd5b601f8201601f1916810167ffffffffffffffff81118282101715613b5f57613b5f613b23565b6040525050565b600082601f830112613b7757600080fd5b813567ffffffffffffffff811115613b9157613b91613b23565b604051613ba8601f8301601f191660200182613b39565b818152846020838601011115613bbd57600080fd5b816020850160208301376000918101602001919091529392505050565b600060208284031215613bec57600080fd5b813567ffffffffffffffff811115613c0357600080fd5b613c0f84828501613b66565b949350505050565b600067ffffffffffffffff821115613c3157613c31613b23565b5060051b60200190565b600082601f830112613c4c57600080fd5b81356020613c5982613c17565b604051613c668282613b39565b83815260059390931b8501820192828101915086841115613c8657600080fd5b8286015b84811015613ca857613c9b81613aaa565b8352918301918301613c8a565b509695505050505050565b600082601f830112613cc457600080fd5b81356020613cd182613c17565b604051613cde8282613b39565b83815260059390931b8501820192828101915086841115613cfe57600080fd5b8286015b84811015613ca85780358352918301918301613d02565b600080600060608486031215613d2e57600080fd5b83359250602084013567ffffffffffffffff80821115613d4d57600080fd5b613d5987838801613c3b565b93506040860135915080821115613d6f57600080fd5b50613d7c86828701613cb3565b9150509250925092565b600060208284031215613d9857600080fd5b61271882613aaa565b600081518084526020808501945080840160005b83811015613dd157815187529582019590820190600101613db5565b509495945050505050565b6020815260006127186020830184613da1565b600060208284031215613e0157600080fd5b5035919050565b60005b83811015613e23578181015183820152602001613e0b565b838111156131e55750506000910152565b60008151808452613e4c816020860160208601613e08565b601f01601f19169290920160200192915050565b6020815260006127186020830184613e34565b600080600080600060a08688031215613e8b57600080fd5b613e9486613aaa565b9450613ea260208701613aaa565b9350604086013567ffffffffffffffff80821115613ebf57600080fd5b613ecb89838a01613cb3565b94506060880135915080821115613ee157600080fd5b613eed89838a01613cb3565b93506080880135915080821115613f0357600080fd5b50613f1088828901613b66565b9150509295509295909350565b60008060408385031215613f3057600080fd5b82359150613f4060208401613aaa565b90509250929050565b60008060408385031215613f5c57600080fd5b82359150602083013560ff81168114613f7457600080fd5b809150509250929050565b60008083601f840112613f9157600080fd5b50813567ffffffffffffffff811115613fa957600080fd5b6020830191508360208260051b8501011115613fc457600080fd5b9250929050565b600080600060408486031215613fe057600080fd5b83359250602084013567ffffffffffffffff811115613ffe57600080fd5b61400a86828701613f7f565b9497909650939450505050565b6000806040838503121561402a57600080fd5b823567ffffffffffffffff8082111561404257600080fd5b61404e86838701613c3b565b9350602085013591508082111561406457600080fd5b5061407185828601613cb3565b9150509250929050565b6000806040838503121561408e57600080fd5b61409783613aaa565b9150602083013567ffffffffffffffff8111156140b357600080fd5b61407185828601613b66565b600081518084526020808501945080840160005b83811015613dd15781516001600160a01b0316875295820195908201906001016140d3565b60208152600082516060602084015261411460808401826140bf565b90506020840151601f198483030160408501526141318282613da1565b9150506040840151151560608401528091505092915050565b6000806040838503121561415d57600080fd5b61416683613aaa565b915060208301358015158114613f7457600080fd5b60008083601f84011261418d57600080fd5b50813567ffffffffffffffff8111156141a557600080fd5b602083019150836020828501011115613fc457600080fd5b60008060008060008060008060a0898b0312156141d957600080fd5b6141e289613aaa565b97506141f060208a01613aaa565b9650604089013567ffffffffffffffff8082111561420d57600080fd5b6142198c838d01613f7f565b909850965060608b013591508082111561423257600080fd5b61423e8c838d01613f7f565b909650945060808b013591508082111561425757600080fd5b506142648b828c0161417b565b999c989b5096995094979396929594505050565b6000806000806060858703121561428e57600080fd5b843567ffffffffffffffff808211156142a657600080fd5b6142b288838901613b66565b955060208701359150808211156142c857600080fd5b506142d587828801613f7f565b9598909750949560400135949350505050565b602081526000825160e06020840152614305610100840182613e34565b90506001600160a01b0360208501511660408401526040840151601f198085840301606086015261433683836140bf565b92506060860151915080858403016080860152506143548282613da1565b915050608084015160a084015260a084015160c084015260c0840151151560e08401528091505092915050565b6000806040838503121561439457600080fd5b61439d83613aaa565b9150613f4060208401613aaa565b60008060008060008060a087890312156143c457600080fd5b6143cd87613aaa565b95506143db60208801613aaa565b94506040870135935060608701359250608087013567ffffffffffffffff81111561440557600080fd5b61441189828a0161417b565b979a9699509497509295939492505050565b600080600080600060a0868803121561443b57600080fd5b61444486613aaa565b945061445260208701613aaa565b93506040860135925060608601359150608086013567ffffffffffffffff81111561447c57600080fd5b613f1088828901613b66565b634e487b7160e01b600052601160045260246000fd5b6000828210156144b0576144b0614488565b500390565b634e487b7160e01b600052603260045260246000fd5b6000600182016144dd576144dd614488565b5060010190565b83815260406020808301829052908201839052600090849060608401835b8681101561452e576001600160a01b0361451b85613aaa565b1682529282019290820190600101614502565b50979650505050505050565b6000821982111561454d5761454d614488565b500190565b600181811c9082168061456657607f821691505b60208210810361458657634e487b7160e01b600052602260045260246000fd5b50919050565b8481526001600160a01b03841660208201526080604082015260006145b460808301856140bf565b82810360608401526145c68185613da1565b979650505050505050565b60008160001904831182151516156145eb576145eb614488565b500290565b60008261460d57634e487b7160e01b600052601260045260246000fd5b500490565b60008151614624818560208601613e08565b9290920192915050565b600080845481600182811c91508083168061464a57607f831692505b6020808410820361466957634e487b7160e01b86526022600452602486fd5b81801561467d576001811461468e576146bb565b60ff198616895284890196506146bb565b60008b81526020902060005b868110156146b35781548b82015290850190830161469a565b505084890196505b5050505050506137c78185614612565b6000602082840312156146dd57600080fd5b5051919050565b7f416363657373436f6e74726f6c3a206163636f756e742000000000000000000081526000835161471c816017850160208801613e08565b7f206973206d697373696e6720726f6c65200000000000000000000000000000006017918401918201528351614759816028840160208801613e08565b01602801949350505050565b60006001600160a01b03808816835280871660208401525084604083015283606083015260a060808301526145c660a0830184613e34565b6000602082840312156147af57600080fd5b815161271881613af0565b600060033d111561156c5760046000803e5060005160e01c90565b600060443d10156147e35790565b6040516003193d81016004833e81513d67ffffffffffffffff816024840111818411171561481357505050505090565b828501915081518181111561482b5750505050505090565b843d87010160208285010111156148455750505050505090565b61485460208286010187613b39565b509095945050505050565b60008161486e5761486e614488565b506000190190565b60008251614888818460208701613e08565b919091019291505056fe416464726573733a206c6f772d6c6576656c2064656c65676174652063616c6c206661696c6564a164736f6c634300080d000a",
  "devdoc": {
    "kind": "dev",
    "methods": {
      "balanceOf(address,uint256)": {
        "details": "See {IERC1155-balanceOf}. Requirements: - `account` cannot be the zero address."
      },
      "balanceOfBatch(address[],uint256[])": {
        "details": "See {IERC1155-balanceOfBatch}. Requirements: - `accounts` and `ids` must have the same length."
      },
      "constructor": {
        "custom:oz-upgrades-unsafe-allow": "constructor"
      },
      "exists(uint256)": {
        "details": "Indicates whether any token exist with a given id, or not."
      },
      "getRoleAdmin(bytes32)": {
        "details": "Returns the admin role that controls `role`. See {grantRole} and {revokeRole}. To change a role's admin, use {_setRoleAdmin}."
      },
      "grantRole(bytes32,address)": {
        "details": "Grants `role` to `account`. If `account` had not been already granted `role`, emits a {RoleGranted} event. Requirements: - the caller must have ``role``'s admin role. May emit a {RoleGranted} event."
      },
      "hasRole(bytes32,address)": {
        "details": "Returns `true` if `account` has been granted `role`."
      },
      "isApprovedForAll(address,address)": {
        "details": "See {IERC1155-isApprovedForAll}."
      },
      "proxiableUUID()": {
        "details": "Implementation of the ERC1822 {proxiableUUID} function. This returns the storage slot used by the implementation. It is used to validate the implementation's compatibility when performing an upgrade. IMPORTANT: A proxy pointing at a proxiable contract should not be considered proxiable itself, because this risks bricking a proxy that upgrades to it, by delegating to itself until out of gas. Thus it is critical that this function revert if invoked through a proxy. This is guaranteed by the `notDelegated` modifier."
      },
      "renounceRole(bytes32,address)": {
        "details": "Revokes `role` from the calling account. Roles are often managed via {grantRole} and {revokeRole}: this function's purpose is to provide a mechanism for accounts to lose their privileges if they are compromised (such as when a trusted device is misplaced). If the calling account had been revoked `role`, emits a {RoleRevoked} event. Requirements: - the caller must be `account`. May emit a {RoleRevoked} event."
      },
      "revokeRole(bytes32,address)": {
        "details": "Revokes `role` from `account`. If `account` had been granted `role`, emits a {RoleRevoked} event. Requirements: - the caller must have ``role``'s admin role. May emit a {RoleRevoked} event."
      },
      "safeBatchTransferFrom(address,address,uint256[],uint256[],bytes)": {
        "details": "See {IERC1155-safeBatchTransferFrom}."
      },
      "safeTransferFrom(address,address,uint256,uint256,bytes)": {
        "details": "See {IERC1155-safeTransferFrom}."
      },
      "setApprovalForAll(address,bool)": {
        "details": "See {IERC1155-setApprovalForAll}."
      },
      "totalSupply(uint256)": {
        "details": "Total amount of tokens in with a given id."
      },
      "upgradeTo(address)": {
        "details": "Upgrade the implementation of the proxy to `newImplementation`. Calls {_authorizeUpgrade}. Emits an {Upgraded} event."
      },
      "upgradeToAndCall(address,bytes)": {
        "details": "Upgrade the implementation of the proxy to `newImplementation`, and subsequently execute the function call encoded in `data`. Calls {_authorizeUpgrade}. Emits an {Upgraded} event."
      }
    },
    "version": 1
  },
  "userdoc": {
    "kind": "user",
    "methods": {},
    "version": 1
  },
  "storageLayout": {
    "storage": [
      {
        "astId": 804,
        "contract": "contracts/FUX.sol:FUX",
        "label": "_initialized",
        "offset": 0,
        "slot": "0",
        "type": "t_uint8"
      },
      {
        "astId": 807,
        "contract": "contracts/FUX.sol:FUX",
        "label": "_initializing",
        "offset": 1,
        "slot": "0",
        "type": "t_bool"
      },
      {
        "astId": 3195,
        "contract": "contracts/FUX.sol:FUX",
        "label": "__gap",
        "offset": 0,
        "slot": "1",
        "type": "t_array(t_uint256)50_storage"
      },
      {
        "astId": 3474,
        "contract": "contracts/FUX.sol:FUX",
        "label": "__gap",
        "offset": 0,
        "slot": "51",
        "type": "t_array(t_uint256)50_storage"
      },
      {
        "astId": 1131,
        "contract": "contracts/FUX.sol:FUX",
        "label": "_balances",
        "offset": 0,
        "slot": "101",
        "type": "t_mapping(t_uint256,t_mapping(t_address,t_uint256))"
      },
      {
        "astId": 1137,
        "contract": "contracts/FUX.sol:FUX",
        "label": "_operatorApprovals",
        "offset": 0,
        "slot": "102",
        "type": "t_mapping(t_address,t_mapping(t_address,t_bool))"
      },
      {
        "astId": 1139,
        "contract": "contracts/FUX.sol:FUX",
        "label": "_uri",
        "offset": 0,
        "slot": "103",
        "type": "t_string_storage"
      },
      {
        "astId": 2346,
        "contract": "contracts/FUX.sol:FUX",
        "label": "__gap",
        "offset": 0,
        "slot": "104",
        "type": "t_array(t_uint256)47_storage"
      },
      {
        "astId": 39,
        "contract": "contracts/FUX.sol:FUX",
        "label": "_roles",
        "offset": 0,
        "slot": "151",
        "type": "t_mapping(t_bytes32,t_struct(RoleData)34_storage)"
      },
      {
        "astId": 334,
        "contract": "contracts/FUX.sol:FUX",
        "label": "__gap",
        "offset": 0,
        "slot": "152",
        "type": "t_array(t_uint256)49_storage"
      },
      {
        "astId": 2535,
        "contract": "contracts/FUX.sol:FUX",
        "label": "_totalSupply",
        "offset": 0,
        "slot": "201",
        "type": "t_mapping(t_uint256,t_uint256)"
      },
      {
        "astId": 2686,
        "contract": "contracts/FUX.sol:FUX",
        "label": "__gap",
        "offset": 0,
        "slot": "202",
        "type": "t_array(t_uint256)49_storage"
      },
      {
        "astId": 2721,
        "contract": "contracts/FUX.sol:FUX",
        "label": "_baseURI",
        "offset": 0,
        "slot": "251",
        "type": "t_string_storage"
      },
      {
        "astId": 2725,
        "contract": "contracts/FUX.sol:FUX",
        "label": "_tokenURIs",
        "offset": 0,
        "slot": "252",
        "type": "t_mapping(t_uint256,t_string_storage)"
      },
      {
        "astId": 2800,
        "contract": "contracts/FUX.sol:FUX",
        "label": "__gap",
        "offset": 0,
        "slot": "253",
        "type": "t_array(t_uint256)48_storage"
      },
      {
        "astId": 2869,
        "contract": "contracts/FUX.sol:FUX",
        "label": "__gap",
        "offset": 0,
        "slot": "301",
        "type": "t_array(t_uint256)50_storage"
      },
      {
        "astId": 786,
        "contract": "contracts/FUX.sol:FUX",
        "label": "__gap",
        "offset": 0,
        "slot": "351",
        "type": "t_array(t_uint256)50_storage"
      },
      {
        "astId": 1101,
        "contract": "contracts/FUX.sol:FUX",
        "label": "__gap",
        "offset": 0,
        "slot": "401",
        "type": "t_array(t_uint256)50_storage"
      },
      {
        "astId": 4418,
        "contract": "contracts/FUX.sol:FUX",
        "label": "counter",
        "offset": 0,
        "slot": "451",
        "type": "t_uint256"
      },
      {
        "astId": 4526,
        "contract": "contracts/FUX.sol:FUX",
        "label": "workstreams",
        "offset": 0,
        "slot": "452",
        "type": "t_mapping(t_uint256,t_struct(Workstream)4512_storage)"
      },
      {
        "astId": 4531,
        "contract": "contracts/FUX.sol:FUX",
        "label": "contributorWorkstreams",
        "offset": 0,
        "slot": "453",
        "type": "t_mapping(t_address,t_array(t_uint256)dyn_storage)"
      },
      {
        "astId": 4537,
        "contract": "contracts/FUX.sol:FUX",
        "label": "contributorCommitments",
        "offset": 0,
        "slot": "454",
        "type": "t_mapping(t_address,t_mapping(t_uint256,t_uint256))"
      },
      {
        "astId": 4544,
        "contract": "contracts/FUX.sol:FUX",
        "label": "valueEvaluations",
        "offset": 0,
        "slot": "455",
        "type": "t_mapping(t_address,t_mapping(t_uint256,t_struct(Evaluation)4521_storage))"
      },
      {
        "astId": 4550,
        "contract": "contracts/FUX.sol:FUX",
        "label": "vFuxAvailableForWorkstream",
        "offset": 0,
        "slot": "456",
        "type": "t_mapping(t_address,t_mapping(t_uint256,t_uint256))"
      },
      {
        "astId": 4554,
        "contract": "contracts/FUX.sol:FUX",
        "label": "isFuxer",
        "offset": 0,
        "slot": "457",
        "type": "t_mapping(t_address,t_bool)"
      },
      {
        "astId": 4560,
        "contract": "contracts/FUX.sol:FUX",
        "label": "isContributor",
        "offset": 0,
        "slot": "458",
        "type": "t_mapping(t_address,t_mapping(t_uint256,t_bool))"
      },
      {
        "astId": 4564,
        "contract": "contracts/FUX.sol:FUX",
        "label": "balances",
        "offset": 0,
        "slot": "459",
        "type": "t_mapping(t_address,t_uint256)"
      }
    ],
    "types": {
      "t_address": {
        "encoding": "inplace",
        "label": "address",
        "numberOfBytes": "20"
      },
      "t_array(t_address)dyn_storage": {
        "base": "t_address",
        "encoding": "dynamic_array",
        "label": "address[]",
        "numberOfBytes": "32"
      },
      "t_array(t_uint256)47_storage": {
        "base": "t_uint256",
        "encoding": "inplace",
        "label": "uint256[47]",
        "numberOfBytes": "1504"
      },
      "t_array(t_uint256)48_storage": {
        "base": "t_uint256",
        "encoding": "inplace",
        "label": "uint256[48]",
        "numberOfBytes": "1536"
      },
      "t_array(t_uint256)49_storage": {
        "base": "t_uint256",
        "encoding": "inplace",
        "label": "uint256[49]",
        "numberOfBytes": "1568"
      },
      "t_array(t_uint256)50_storage": {
        "base": "t_uint256",
        "encoding": "inplace",
        "label": "uint256[50]",
        "numberOfBytes": "1600"
      },
      "t_array(t_uint256)dyn_storage": {
        "base": "t_uint256",
        "encoding": "dynamic_array",
        "label": "uint256[]",
        "numberOfBytes": "32"
      },
      "t_bool": {
        "encoding": "inplace",
        "label": "bool",
        "numberOfBytes": "1"
      },
      "t_bytes32": {
        "encoding": "inplace",
        "label": "bytes32",
        "numberOfBytes": "32"
      },
      "t_mapping(t_address,t_array(t_uint256)dyn_storage)": {
        "encoding": "mapping",
        "key": "t_address",
        "label": "mapping(address => uint256[])",
        "numberOfBytes": "32",
        "value": "t_array(t_uint256)dyn_storage"
      },
      "t_mapping(t_address,t_bool)": {
        "encoding": "mapping",
        "key": "t_address",
        "label": "mapping(address => bool)",
        "numberOfBytes": "32",
        "value": "t_bool"
      },
      "t_mapping(t_address,t_mapping(t_address,t_bool))": {
        "encoding": "mapping",
        "key": "t_address",
        "label": "mapping(address => mapping(address => bool))",
        "numberOfBytes": "32",
        "value": "t_mapping(t_address,t_bool)"
      },
      "t_mapping(t_address,t_mapping(t_uint256,t_bool))": {
        "encoding": "mapping",
        "key": "t_address",
        "label": "mapping(address => mapping(uint256 => bool))",
        "numberOfBytes": "32",
        "value": "t_mapping(t_uint256,t_bool)"
      },
      "t_mapping(t_address,t_mapping(t_uint256,t_struct(Evaluation)4521_storage))": {
        "encoding": "mapping",
        "key": "t_address",
        "label": "mapping(address => mapping(uint256 => struct FUX.Evaluation))",
        "numberOfBytes": "32",
        "value": "t_mapping(t_uint256,t_struct(Evaluation)4521_storage)"
      },
      "t_mapping(t_address,t_mapping(t_uint256,t_uint256))": {
        "encoding": "mapping",
        "key": "t_address",
        "label": "mapping(address => mapping(uint256 => uint256))",
        "numberOfBytes": "32",
        "value": "t_mapping(t_uint256,t_uint256)"
      },
      "t_mapping(t_address,t_uint256)": {
        "encoding": "mapping",
        "key": "t_address",
        "label": "mapping(address => uint256)",
        "numberOfBytes": "32",
        "value": "t_uint256"
      },
      "t_mapping(t_bytes32,t_struct(RoleData)34_storage)": {
        "encoding": "mapping",
        "key": "t_bytes32",
        "label": "mapping(bytes32 => struct AccessControlUpgradeable.RoleData)",
        "numberOfBytes": "32",
        "value": "t_struct(RoleData)34_storage"
      },
      "t_mapping(t_uint256,t_bool)": {
        "encoding": "mapping",
        "key": "t_uint256",
        "label": "mapping(uint256 => bool)",
        "numberOfBytes": "32",
        "value": "t_bool"
      },
      "t_mapping(t_uint256,t_mapping(t_address,t_uint256))": {
        "encoding": "mapping",
        "key": "t_uint256",
        "label": "mapping(uint256 => mapping(address => uint256))",
        "numberOfBytes": "32",
        "value": "t_mapping(t_address,t_uint256)"
      },
      "t_mapping(t_uint256,t_string_storage)": {
        "encoding": "mapping",
        "key": "t_uint256",
        "label": "mapping(uint256 => string)",
        "numberOfBytes": "32",
        "value": "t_string_storage"
      },
      "t_mapping(t_uint256,t_struct(Evaluation)4521_storage)": {
        "encoding": "mapping",
        "key": "t_uint256",
        "label": "mapping(uint256 => struct FUX.Evaluation)",
        "numberOfBytes": "32",
        "value": "t_struct(Evaluation)4521_storage"
      },
      "t_mapping(t_uint256,t_struct(Workstream)4512_storage)": {
        "encoding": "mapping",
        "key": "t_uint256",
        "label": "mapping(uint256 => struct FUX.Workstream)",
        "numberOfBytes": "32",
        "value": "t_struct(Workstream)4512_storage"
      },
      "t_mapping(t_uint256,t_uint256)": {
        "encoding": "mapping",
        "key": "t_uint256",
        "label": "mapping(uint256 => uint256)",
        "numberOfBytes": "32",
        "value": "t_uint256"
      },
      "t_string_storage": {
        "encoding": "bytes",
        "label": "string",
        "numberOfBytes": "32"
      },
      "t_struct(Evaluation)4521_storage": {
        "encoding": "inplace",
        "label": "struct FUX.Evaluation",
        "members": [
          {
            "astId": 4515,
            "contract": "contracts/FUX.sol:FUX",
            "label": "contributors",
            "offset": 0,
            "slot": "0",
            "type": "t_array(t_address)dyn_storage"
          },
          {
            "astId": 4518,
            "contract": "contracts/FUX.sol:FUX",
            "label": "ratings",
            "offset": 0,
            "slot": "1",
            "type": "t_array(t_uint256)dyn_storage"
          },
          {
            "astId": 4520,
            "contract": "contracts/FUX.sol:FUX",
            "label": "exists",
            "offset": 0,
            "slot": "2",
            "type": "t_bool"
          }
        ],
        "numberOfBytes": "96"
      },
      "t_struct(RoleData)34_storage": {
        "encoding": "inplace",
        "label": "struct AccessControlUpgradeable.RoleData",
        "members": [
          {
            "astId": 31,
            "contract": "contracts/FUX.sol:FUX",
            "label": "members",
            "offset": 0,
            "slot": "0",
            "type": "t_mapping(t_address,t_bool)"
          },
          {
            "astId": 33,
            "contract": "contracts/FUX.sol:FUX",
            "label": "adminRole",
            "offset": 0,
            "slot": "1",
            "type": "t_bytes32"
          }
        ],
        "numberOfBytes": "64"
      },
      "t_struct(Workstream)4512_storage": {
        "encoding": "inplace",
        "label": "struct FUX.Workstream",
        "members": [
          {
            "astId": 4497,
            "contract": "contracts/FUX.sol:FUX",
            "label": "name",
            "offset": 0,
            "slot": "0",
            "type": "t_string_storage"
          },
          {
            "astId": 4499,
            "contract": "contracts/FUX.sol:FUX",
            "label": "creator",
            "offset": 0,
            "slot": "1",
            "type": "t_address"
          },
          {
            "astId": 4502,
            "contract": "contracts/FUX.sol:FUX",
            "label": "contributors",
            "offset": 0,
            "slot": "2",
            "type": "t_array(t_address)dyn_storage"
          },
          {
            "astId": 4505,
            "contract": "contracts/FUX.sol:FUX",
            "label": "evaluations",
            "offset": 0,
            "slot": "3",
            "type": "t_array(t_uint256)dyn_storage"
          },
          {
            "astId": 4507,
            "contract": "contracts/FUX.sol:FUX",
            "label": "deadline",
            "offset": 0,
            "slot": "4",
            "type": "t_uint256"
          },
          {
            "astId": 4509,
            "contract": "contracts/FUX.sol:FUX",
            "label": "funds",
            "offset": 0,
            "slot": "5",
            "type": "t_uint256"
          },
          {
            "astId": 4511,
            "contract": "contracts/FUX.sol:FUX",
            "label": "exists",
            "offset": 0,
            "slot": "6",
            "type": "t_bool"
          }
        ],
        "numberOfBytes": "224"
      },
      "t_uint256": {
        "encoding": "inplace",
        "label": "uint256",
        "numberOfBytes": "32"
      },
      "t_uint8": {
        "encoding": "inplace",
        "label": "uint8",
        "numberOfBytes": "1"
      }
    }
  }
}