{
  "address": "0x5a6F6800B8FD9d713d7B573190bb3c9a5488D79A",
  "abi": [
    {
      "inputs": [],
      "stateMutability": "nonpayable",
      "type": "constructor"
    },
    {
      "inputs": [],
      "name": "EvaluationAlreadySubmitted",
      "type": "error"
    },
    {
      "inputs": [
        {
          "internalType": "string",
          "name": "inputVar",
          "type": "string"
        }
      ],
      "name": "InvalidInput",
      "type": "error"
    },
    {
      "inputs": [],
      "name": "NonExistentWorkstream",
      "type": "error"
    },
    {
      "inputs": [],
      "name": "NonTransferableFux",
      "type": "error"
    },
    {
      "inputs": [],
      "name": "NotApprovedOrOwner",
      "type": "error"
    },
    {
      "inputs": [],
      "name": "NotContributor",
      "type": "error"
    },
    {
      "inputs": [],
      "name": "NotEnoughFux",
      "type": "error"
    },
    {
      "inputs": [],
      "name": "NotEnoughVFux",
      "type": "error"
    },
    {
      "inputs": [],
      "name": "TokensAlreadyMinted",
      "type": "error"
    },
    {
      "anonymous": false,
      "inputs": [
        {
          "indexed": true,
          "internalType": "address",
          "name": "account",
          "type": "address"
        },
        {
          "indexed": true,
          "internalType": "address",
          "name": "operator",
          "type": "address"
        },
        {
          "indexed": false,
          "internalType": "bool",
          "name": "approved",
          "type": "bool"
        }
      ],
      "name": "ApprovalForAll",
      "type": "event"
    },
    {
      "anonymous": false,
      "inputs": [
        {
          "indexed": false,
          "internalType": "uint256",
          "name": "id",
          "type": "uint256"
        },
        {
          "indexed": false,
          "internalType": "address[]",
          "name": "contributors",
          "type": "address[]"
        }
      ],
      "name": "ContributorsAdded",
      "type": "event"
    },
    {
      "anonymous": false,
      "inputs": [
        {
          "indexed": false,
          "internalType": "uint256",
          "name": "workstreamID",
          "type": "uint256"
        }
      ],
      "name": "EvaluationResolved",
      "type": "event"
    },
    {
      "anonymous": false,
      "inputs": [
        {
          "indexed": false,
          "internalType": "uint256",
          "name": "workstreamID",
          "type": "uint256"
        },
        {
          "indexed": false,
          "internalType": "address",
          "name": "contributor",
          "type": "address"
        }
      ],
      "name": "EvaluationSubmitted",
      "type": "event"
    },
    {
      "anonymous": false,
      "inputs": [
        {
          "indexed": false,
          "internalType": "address",
          "name": "user",
          "type": "address"
        }
      ],
      "name": "FuxClaimed",
      "type": "event"
    },
    {
      "anonymous": false,
      "inputs": [
        {
          "indexed": false,
          "internalType": "address",
          "name": "user",
          "type": "address"
        },
        {
          "indexed": false,
          "internalType": "uint256",
          "name": "workstreamId",
          "type": "uint256"
        },
        {
          "indexed": false,
          "internalType": "uint256",
          "name": "amount",
          "type": "uint256"
        }
      ],
      "name": "FuxGiven",
      "type": "event"
    },
    {
      "anonymous": false,
      "inputs": [
        {
          "indexed": false,
          "internalType": "address",
          "name": "user",
          "type": "address"
        },
        {
          "indexed": false,
          "internalType": "uint256",
          "name": "workstreamId",
          "type": "uint256"
        },
        {
          "indexed": false,
          "internalType": "uint256",
          "name": "amount",
          "type": "uint256"
        }
      ],
      "name": "FuxWithdraw",
      "type": "event"
    },
    {
      "anonymous": false,
      "inputs": [
        {
          "indexed": true,
          "internalType": "bytes32",
          "name": "role",
          "type": "bytes32"
        },
        {
          "indexed": true,
          "internalType": "bytes32",
          "name": "previousAdminRole",
          "type": "bytes32"
        },
        {
          "indexed": true,
          "internalType": "bytes32",
          "name": "newAdminRole",
          "type": "bytes32"
        }
      ],
      "name": "RoleAdminChanged",
      "type": "event"
    },
    {
      "anonymous": false,
      "inputs": [
        {
          "indexed": true,
          "internalType": "bytes32",
          "name": "role",
          "type": "bytes32"
        },
        {
          "indexed": true,
          "internalType": "address",
          "name": "account",
          "type": "address"
        },
        {
          "indexed": true,
          "internalType": "address",
          "name": "sender",
          "type": "address"
        }
      ],
      "name": "RoleGranted",
      "type": "event"
    },
    {
      "anonymous": false,
      "inputs": [
        {
          "indexed": true,
          "internalType": "bytes32",
          "name": "role",
          "type": "bytes32"
        },
        {
          "indexed": true,
          "internalType": "address",
          "name": "account",
          "type": "address"
        },
        {
          "indexed": true,
          "internalType": "address",
          "name": "sender",
          "type": "address"
        }
      ],
      "name": "RoleRevoked",
      "type": "event"
    },
    {
      "anonymous": false,
      "inputs": [
        {
          "indexed": true,
          "internalType": "address",
          "name": "operator",
          "type": "address"
        },
        {
          "indexed": true,
          "internalType": "address",
          "name": "from",
          "type": "address"
        },
        {
          "indexed": true,
          "internalType": "address",
          "name": "to",
          "type": "address"
        },
        {
          "indexed": false,
          "internalType": "uint256[]",
          "name": "ids",
          "type": "uint256[]"
        },
        {
          "indexed": false,
          "internalType": "uint256[]",
          "name": "values",
          "type": "uint256[]"
        }
      ],
      "name": "TransferBatch",
      "type": "event"
    },
    {
      "anonymous": false,
      "inputs": [
        {
          "indexed": true,
          "internalType": "address",
          "name": "operator",
          "type": "address"
        },
        {
          "indexed": true,
          "internalType": "address",
          "name": "from",
          "type": "address"
        },
        {
          "indexed": true,
          "internalType": "address",
          "name": "to",
          "type": "address"
        },
        {
          "indexed": false,
          "internalType": "uint256",
          "name": "id",
          "type": "uint256"
        },
        {
          "indexed": false,
          "internalType": "uint256",
          "name": "value",
          "type": "uint256"
        }
      ],
      "name": "TransferSingle",
      "type": "event"
    },
    {
      "anonymous": false,
      "inputs": [
        {
          "indexed": false,
          "internalType": "string",
          "name": "value",
          "type": "string"
        },
        {
          "indexed": true,
          "internalType": "uint256",
          "name": "id",
          "type": "uint256"
        }
      ],
      "name": "URI",
      "type": "event"
    },
    {
      "anonymous": false,
      "inputs": [
        {
          "indexed": false,
          "internalType": "address",
          "name": "user",
          "type": "address"
        },
        {
          "indexed": false,
          "internalType": "uint256",
          "name": "workstreamID",
          "type": "uint256"
        }
      ],
      "name": "VFuxClaimed",
      "type": "event"
    },
    {
      "anonymous": false,
      "inputs": [
        {
          "indexed": false,
          "internalType": "uint256",
          "name": "id",
          "type": "uint256"
        },
        {
          "indexed": false,
          "internalType": "string",
          "name": "metadataUri",
          "type": "string"
        }
      ],
      "name": "WorkstreamMinted",
      "type": "event"
    },
    {
      "inputs": [],
      "name": "DEFAULT_ADMIN_ROLE",
      "outputs": [
        {
          "internalType": "bytes32",
          "name": "",
          "type": "bytes32"
        }
      ],
      "stateMutability": "view",
      "type": "function"
    },
    {
      "inputs": [],
      "name": "FUX_TOKEN_ID",
      "outputs": [
        {
          "internalType": "uint256",
          "name": "",
          "type": "uint256"
        }
      ],
      "stateMutability": "view",
      "type": "function"
    },
    {
      "inputs": [],
      "name": "MINTER_ROLE",
      "outputs": [
        {
          "internalType": "bytes32",
          "name": "",
          "type": "bytes32"
        }
      ],
      "stateMutability": "view",
      "type": "function"
    },
    {
      "inputs": [],
      "name": "URI_SETTER_ROLE",
      "outputs": [
        {
          "internalType": "bytes32",
          "name": "",
          "type": "bytes32"
        }
      ],
      "stateMutability": "view",
      "type": "function"
    },
    {
      "inputs": [],
      "name": "VFUX_TOKEN_ID",
      "outputs": [
        {
          "internalType": "uint256",
          "name": "",
          "type": "uint256"
        }
      ],
      "stateMutability": "view",
      "type": "function"
    },
    {
      "inputs": [
        {
          "internalType": "uint256",
          "name": "workstreamId",
          "type": "uint256"
        },
        {
          "internalType": "address[]",
          "name": "contributors",
          "type": "address[]"
        }
      ],
      "name": "addContributors",
      "outputs": [],
      "stateMutability": "nonpayable",
      "type": "function"
    },
    {
      "inputs": [
        {
          "internalType": "address",
          "name": "account",
          "type": "address"
        },
        {
          "internalType": "uint256",
          "name": "id",
          "type": "uint256"
        }
      ],
      "name": "balanceOf",
      "outputs": [
        {
          "internalType": "uint256",
          "name": "",
          "type": "uint256"
        }
      ],
      "stateMutability": "view",
      "type": "function"
    },
    {
      "inputs": [
        {
          "internalType": "address[]",
          "name": "accounts",
          "type": "address[]"
        },
        {
          "internalType": "uint256[]",
          "name": "ids",
          "type": "uint256[]"
        }
      ],
      "name": "balanceOfBatch",
      "outputs": [
        {
          "internalType": "uint256[]",
          "name": "",
          "type": "uint256[]"
        }
      ],
      "stateMutability": "view",
      "type": "function"
    },
    {
      "inputs": [
        {
          "internalType": "uint256",
          "name": "workstreamID",
          "type": "uint256"
        },
        {
          "internalType": "uint8",
          "name": "fuxGiven",
          "type": "uint8"
        }
      ],
      "name": "commitToWorkstream",
      "outputs": [],
      "stateMutability": "nonpayable",
      "type": "function"
    },
    {
      "inputs": [
        {
          "internalType": "uint256",
          "name": "id",
          "type": "uint256"
        }
      ],
      "name": "exists",
      "outputs": [
        {
          "internalType": "bool",
          "name": "",
          "type": "bool"
        }
      ],
      "stateMutability": "view",
      "type": "function"
    },
    {
      "inputs": [
        {
          "internalType": "bytes32",
          "name": "role",
          "type": "bytes32"
        }
      ],
      "name": "getRoleAdmin",
      "outputs": [
        {
          "internalType": "bytes32",
          "name": "",
          "type": "bytes32"
        }
      ],
      "stateMutability": "view",
      "type": "function"
    },
    {
      "inputs": [
        {
          "internalType": "uint256",
          "name": "workstreamID",
          "type": "uint256"
        }
      ],
      "name": "getVFuxForEvaluation",
      "outputs": [
        {
          "internalType": "uint8",
          "name": "vFux",
          "type": "uint8"
        }
      ],
      "stateMutability": "view",
      "type": "function"
    },
    {
      "inputs": [
        {
          "internalType": "address",
          "name": "user",
          "type": "address"
        },
        {
          "internalType": "uint256",
          "name": "workstreamID",
          "type": "uint256"
        }
      ],
      "name": "getValueEvaluation",
      "outputs": [
        {
          "components": [
            {
              "internalType": "address[]",
              "name": "contributors",
              "type": "address[]"
            },
            {
              "internalType": "uint8[]",
              "name": "ratings",
              "type": "uint8[]"
            },
            {
              "internalType": "bool",
              "name": "exists",
              "type": "bool"
            }
          ],
          "internalType": "struct FUX.Evaluation",
          "name": "evaluation",
          "type": "tuple"
        }
      ],
      "stateMutability": "view",
      "type": "function"
    },
    {
      "inputs": [
        {
          "internalType": "uint256",
          "name": "workstreamID",
          "type": "uint256"
        }
      ],
      "name": "getWorkstreamByID",
      "outputs": [
        {
          "components": [
            {
              "internalType": "string",
              "name": "name",
              "type": "string"
            },
            {
              "internalType": "address",
              "name": "creator",
              "type": "address"
            },
            {
              "internalType": "address[]",
              "name": "contributors",
              "type": "address[]"
            },
            {
              "internalType": "uint256[]",
              "name": "evaluations",
              "type": "uint256[]"
            },
            {
              "internalType": "uint256",
              "name": "deadline",
              "type": "uint256"
            },
            {
              "internalType": "bool",
              "name": "exists",
              "type": "bool"
            }
          ],
          "internalType": "struct FUX.Workstream",
          "name": "workstream",
          "type": "tuple"
        }
      ],
      "stateMutability": "view",
      "type": "function"
    },
    {
      "inputs": [
        {
          "internalType": "address",
          "name": "user",
          "type": "address"
        },
        {
          "internalType": "uint256",
          "name": "workstreamID",
          "type": "uint256"
        }
      ],
      "name": "getWorkstreamCommitment",
      "outputs": [
        {
          "internalType": "uint256",
          "name": "fuxGiven",
          "type": "uint256"
        }
      ],
      "stateMutability": "view",
      "type": "function"
    },
    {
      "inputs": [
        {
          "internalType": "address",
          "name": "user",
          "type": "address"
        }
      ],
      "name": "getWorkstreamIDs",
      "outputs": [
        {
          "internalType": "uint256[]",
          "name": "ids",
          "type": "uint256[]"
        }
      ],
      "stateMutability": "view",
      "type": "function"
    },
    {
      "inputs": [
        {
          "internalType": "bytes32",
          "name": "role",
          "type": "bytes32"
        },
        {
          "internalType": "address",
          "name": "account",
          "type": "address"
        }
      ],
      "name": "grantRole",
      "outputs": [],
      "stateMutability": "nonpayable",
      "type": "function"
    },
    {
      "inputs": [
        {
          "internalType": "bytes32",
          "name": "role",
          "type": "bytes32"
        },
        {
          "internalType": "address",
          "name": "account",
          "type": "address"
        }
      ],
      "name": "hasRole",
      "outputs": [
        {
          "internalType": "bool",
          "name": "",
          "type": "bool"
        }
      ],
      "stateMutability": "view",
      "type": "function"
    },
    {
      "inputs": [
        {
          "internalType": "address",
          "name": "account",
          "type": "address"
        },
        {
          "internalType": "address",
          "name": "operator",
          "type": "address"
        }
      ],
      "name": "isApprovedForAll",
      "outputs": [
        {
          "internalType": "bool",
          "name": "",
          "type": "bool"
        }
      ],
      "stateMutability": "view",
      "type": "function"
    },
    {
      "inputs": [],
      "name": "mintFux",
      "outputs": [],
      "stateMutability": "nonpayable",
      "type": "function"
    },
    {
      "inputs": [
        {
          "internalType": "uint256",
          "name": "workstreamID",
          "type": "uint256"
        }
      ],
      "name": "mintVFux",
      "outputs": [],
      "stateMutability": "nonpayable",
      "type": "function"
    },
    {
      "inputs": [
        {
          "internalType": "string",
          "name": "name",
          "type": "string"
        },
        {
          "internalType": "address[]",
          "name": "contributors",
          "type": "address[]"
        },
        {
          "internalType": "uint256",
          "name": "deadline",
          "type": "uint256"
        }
      ],
      "name": "mintWorkstream",
      "outputs": [],
      "stateMutability": "nonpayable",
      "type": "function"
    },
    {
      "inputs": [
        {
          "internalType": "address",
          "name": "_operator",
          "type": "address"
        },
        {
          "internalType": "address",
          "name": "_from",
          "type": "address"
        },
        {
          "internalType": "uint256[]",
          "name": "_ids",
          "type": "uint256[]"
        },
        {
          "internalType": "uint256[]",
          "name": "_values",
          "type": "uint256[]"
        },
        {
          "internalType": "bytes",
          "name": "_data",
          "type": "bytes"
        }
      ],
      "name": "onERC1155BatchReceived",
      "outputs": [
        {
          "internalType": "bytes4",
          "name": "",
          "type": "bytes4"
        }
      ],
      "stateMutability": "pure",
      "type": "function"
    },
    {
      "inputs": [
        {
          "internalType": "address",
          "name": "_operator",
          "type": "address"
        },
        {
          "internalType": "address",
          "name": "_from",
          "type": "address"
        },
        {
          "internalType": "uint256",
          "name": "_id",
          "type": "uint256"
        },
        {
          "internalType": "uint256",
          "name": "_value",
          "type": "uint256"
        },
        {
          "internalType": "bytes",
          "name": "_data",
          "type": "bytes"
        }
      ],
      "name": "onERC1155Received",
      "outputs": [
        {
          "internalType": "bytes4",
          "name": "",
          "type": "bytes4"
        }
      ],
      "stateMutability": "pure",
      "type": "function"
    },
    {
      "inputs": [
        {
          "internalType": "bytes32",
          "name": "role",
          "type": "bytes32"
        },
        {
          "internalType": "address",
          "name": "account",
          "type": "address"
        }
      ],
      "name": "renounceRole",
      "outputs": [],
      "stateMutability": "nonpayable",
      "type": "function"
    },
    {
      "inputs": [
        {
          "internalType": "uint256",
          "name": "workstreamID",
          "type": "uint256"
        },
        {
          "internalType": "address[]",
          "name": "contributors",
          "type": "address[]"
        },
        {
          "internalType": "uint8[]",
          "name": "vFuxGiven",
          "type": "uint8[]"
        }
      ],
      "name": "resolveValueEvaluation",
      "outputs": [],
      "stateMutability": "nonpayable",
      "type": "function"
    },
    {
      "inputs": [
        {
          "internalType": "bytes32",
          "name": "role",
          "type": "bytes32"
        },
        {
          "internalType": "address",
          "name": "account",
          "type": "address"
        }
      ],
      "name": "revokeRole",
      "outputs": [],
      "stateMutability": "nonpayable",
      "type": "function"
    },
    {
      "inputs": [
        {
          "internalType": "address",
          "name": "from",
          "type": "address"
        },
        {
          "internalType": "address",
          "name": "to",
          "type": "address"
        },
        {
          "internalType": "uint256[]",
          "name": "ids",
          "type": "uint256[]"
        },
        {
          "internalType": "uint256[]",
          "name": "amounts",
          "type": "uint256[]"
        },
        {
          "internalType": "bytes",
          "name": "data",
          "type": "bytes"
        }
      ],
      "name": "safeBatchTransferFrom",
      "outputs": [],
      "stateMutability": "pure",
      "type": "function"
    },
    {
      "inputs": [
        {
          "internalType": "address",
          "name": "from",
          "type": "address"
        },
        {
          "internalType": "address",
          "name": "to",
          "type": "address"
        },
        {
          "internalType": "uint256",
          "name": "id",
          "type": "uint256"
        },
        {
          "internalType": "uint256",
          "name": "amount",
          "type": "uint256"
        },
        {
          "internalType": "bytes",
          "name": "data",
          "type": "bytes"
        }
      ],
      "name": "safeTransferFrom",
      "outputs": [],
      "stateMutability": "pure",
      "type": "function"
    },
    {
      "inputs": [
        {
          "internalType": "address",
          "name": "operator",
          "type": "address"
        },
        {
          "internalType": "bool",
          "name": "approved",
          "type": "bool"
        }
      ],
      "name": "setApprovalForAll",
      "outputs": [],
      "stateMutability": "nonpayable",
      "type": "function"
    },
    {
      "inputs": [
        {
          "internalType": "string",
          "name": "newuri",
          "type": "string"
        }
      ],
      "name": "setURI",
      "outputs": [],
      "stateMutability": "nonpayable",
      "type": "function"
    },
    {
      "inputs": [
        {
          "internalType": "uint256",
          "name": "workstreamID",
          "type": "uint256"
        },
        {
          "internalType": "address[]",
          "name": "contributors",
          "type": "address[]"
        },
        {
          "internalType": "uint8[]",
          "name": "vFuxGiven",
          "type": "uint8[]"
        }
      ],
      "name": "submitValueEvaluation",
      "outputs": [],
      "stateMutability": "nonpayable",
      "type": "function"
    },
    {
      "inputs": [
        {
          "internalType": "bytes4",
          "name": "interfaceId",
          "type": "bytes4"
        }
      ],
      "name": "supportsInterface",
      "outputs": [
        {
          "internalType": "bool",
          "name": "",
          "type": "bool"
        }
      ],
      "stateMutability": "view",
      "type": "function"
    },
    {
      "inputs": [
        {
          "internalType": "uint256",
          "name": "id",
          "type": "uint256"
        }
      ],
      "name": "totalSupply",
      "outputs": [
        {
          "internalType": "uint256",
          "name": "",
          "type": "uint256"
        }
      ],
      "stateMutability": "view",
      "type": "function"
    },
    {
      "inputs": [
        {
          "internalType": "uint256",
          "name": "tokenId",
          "type": "uint256"
        }
      ],
      "name": "uri",
      "outputs": [
        {
          "internalType": "string",
          "name": "",
          "type": "string"
        }
      ],
      "stateMutability": "view",
      "type": "function"
    },
    {
      "inputs": [
        {
          "internalType": "uint256",
          "name": "workstreamID",
          "type": "uint256"
        }
      ],
      "name": "withdrawFromWorkstream",
      "outputs": [],
      "stateMutability": "nonpayable",
      "type": "function"
    }
  ],
  "transactionHash": "0x6a751d660938d007ff0986623df0f1d64dbbcaa50e306150d4db255b15b0d76d",
  "args": [],
  "numDeployments": 2,
  "solcInputHash": "fb8923c801c6dcf6f40beeff546e49f1",
  "bytecode": "0x60a06040819052600060808190526200001b9160049162000172565b5060006007553480156200002e57600080fd5b506040805160208101909152600081526200004981620000b5565b5062000057600033620000ce565b620000837f7804d923f43a17d325d77e781528e0793b2edd9890ab45fc64efd7b4b427744c33620000ce565b620000af7f9f2df0fed2c77648de5860a4cc508cd0818c85b8b8a1ab4ceeef8d981c8956a633620000ce565b62000254565b8051620000ca90600290602084019062000172565b5050565b60008281526006602090815260408083206001600160a01b038516845290915290205460ff16620000ca5760008281526006602090815260408083206001600160a01b03851684529091529020805460ff191660011790556200012e3390565b6001600160a01b0316816001600160a01b0316837f2f8788117e7eff1d82e926ec794901d17c78024a50270940304540a733656f0d60405160405180910390a45050565b828054620001809062000218565b90600052602060002090601f016020900481019282620001a45760008555620001ef565b82601f10620001bf57805160ff1916838001178555620001ef565b82800160010185558215620001ef579182015b82811115620001ef578251825591602001919060010190620001d2565b50620001fd92915062000201565b5090565b5b80821115620001fd576000815560010162000202565b600181811c908216806200022d57607f821691505b6020821081036200024e57634e487b7160e01b600052602260045260246000fd5b50919050565b6137dc80620002646000396000f3fe608060405234801561001057600080fd5b506004361061025b5760003560e01c80638edd9c5e11610145578063d59a0ed3116100bd578063e3ca59551161008c578063f23a6e6111610071578063f23a6e6114610620578063f242432a14610640578063f385facc1461064e57600080fd5b8063e3ca5955146105d1578063e985e9c5146105e457600080fd5b8063d59a0ed314610578578063d6b0fd2a1461058b578063d7cec155146105ab578063e1a80776146105be57600080fd5b8063bc197c8111610114578063d422831f116100f9578063d422831f146104c8578063d53913931461053e578063d547741f1461056557600080fd5b8063bc197c81146104e3578063bd85b0391461051e57600080fd5b80638edd9c5e1461047c57806391d148541461048f578063a217fddf146104c8578063a22cb465146104d057600080fd5b806336568abe116101d85780634e1273f4116101a75780637f3457101161018c5780637f3457101461042d5780638b5d41ef146104545780638e8e18ad1461047457600080fd5b80634e1273f4146103f85780634f558e791461040b57600080fd5b806336568abe146103875780633d39942e1461039a57806342f6a961146103ad5780634562bbea146103c057600080fd5b80630e89341c1161022f578063248a9ca311610214578063248a9ca31461033e5780632eb2c2d6146103615780632f2ff15d1461037457600080fd5b80630e89341c146102de578063222cc569146102fe57600080fd5b8062fdd58e1461026057806301ffc9a71461028657806302fe5305146102a95780630ab08358146102be575b600080fd5b61027361026e3660046129e4565b610656565b6040519081526020015b60405180910390f35b610299610294366004612a24565b6106ff565b604051901515815260200161027d565b6102bc6102b7366004612af8565b610710565b005b6102d16102cc366004612b35565b610747565b60405161027d9190612b50565b6102f16102ec366004612b94565b6107b3565b60405161027d9190612c05565b61032c61030c366004612b94565b336000908152600c60209081526040808320938352929052205460ff1690565b60405160ff909116815260200161027d565b61027361034c366004612b94565b60009081526006602052604090206001015490565b6102bc61036f366004612cad565b6107be565b6102bc610382366004612d57565b6107d7565b6102bc610395366004612d57565b610801565b6102bc6103a8366004612d94565b610889565b6102bc6103bb366004612e03565b610a26565b6102736103ce3660046129e4565b6001600160a01b039091166000908152600a60209081526040808320938352929052205460ff1690565b6102d1610406366004612ebc565b610b9e565b610299610419366004612b94565b600090815260036020526040902054151590565b6102737f7804d923f43a17d325d77e781528e0793b2edd9890ab45fc64efd7b4b427744c81565b6104676104623660046129e4565b610cdc565b60405161027d9190612f64565b610273600181565b6102bc61048a366004612fde565b610e06565b61029961049d366004612d57565b60009182526006602090815260408084206001600160a01b0393909316845291905290205460ff1690565b610273600081565b6102bc6104de3660046130b3565b611009565b6105056104f1366004613131565b63bc197c8160e01b98975050505050505050565b6040516001600160e01b0319909116815260200161027d565b61027361052c366004612b94565b60009081526003602052604090205490565b6102737f9f2df0fed2c77648de5860a4cc508cd0818c85b8b8a1ab4ceeef8d981c8956a681565b6102bc610573366004612d57565b611014565b6102bc6105863660046131ec565b611039565b61059e610599366004612b94565b611214565b60405161027d919061325c565b6102bc6105b9366004612b94565b6113ec565b6102bc6105cc366004612fde565b6114e6565b6102bc6105df366004612b94565b6116bc565b6102996105f2366004613314565b6001600160a01b03918216600090815260016020908152604080832093909416825291909152205460ff1690565b61050561062e36600461333e565b63f23a6e6160e01b9695505050505050565b6102bc61036f3660046133b6565b6102bc611818565b60006001600160a01b0383166106d95760405162461bcd60e51b815260206004820152602a60248201527f455243313135353a2061646472657373207a65726f206973206e6f742061207660448201527f616c6964206f776e65720000000000000000000000000000000000000000000060648201526084015b60405180910390fd5b506000908152602081815260408083206001600160a01b03949094168352929052205490565b600061070a826118b5565b92915050565b7f7804d923f43a17d325d77e781528e0793b2edd9890ab45fc64efd7b4b427744c61073a816118da565b610743826118e7565b5050565b6001600160a01b0381166000908152600960209081526040918290208054835181840281018401909452808452606093928301828280156107a757602002820191906000526020600020905b815481526020019060010190808311610793575b50505050509050919050565b606061070a826118fa565b60405163e92ecd6760e01b815260040160405180910390fd5b6000828152600660205260409020600101546107f2816118da565b6107fc83836119da565b505050565b6001600160a01b038116331461087f5760405162461bcd60e51b815260206004820152602f60248201527f416363657373436f6e74726f6c3a2063616e206f6e6c792072656e6f756e636560448201527f20726f6c657320666f722073656c66000000000000000000000000000000000060648201526084016106d0565b6107438282611a7c565b8060ff16610898336000610656565b10156108b75760405163a95eee8160e01b815260040160405180910390fd5b336000908152600e6020908152604080832085845290915290205460ff166108f25760405163d764187d60e01b815260040160405180910390fd5b336000908152600a6020908152604080832085845290915290205460ff90811690821681036109635760405162461bcd60e51b815260206004820152601260248201527f53616d6520616d6f756e74206f6620465558000000000000000000000000000060448201526064016106d0565b8160ff168160ff16101561099a5761099a333060006109828587613431565b60ff1660405180602001604052806000815250611aff565b8160ff168160ff1611156109b9576109b9303360006109828686613431565b336000818152600a60209081526040808320878452825291829020805460ff191660ff87169081179091558251938452908301869052908201527f3e0d5a590ba8d04db40e773cf88b938280ed4080a2688ba8e8105fb56f58e224906060015b60405180910390a1505050565b60008381526008602052604090206005015460ff16610a58576040516355dcb6f160e01b815260040160405180910390fd5b6000838152600860205260409020600101546001600160a01b03163314610a925760405163390cdd9b60e21b815260040160405180910390fd5b8060005b81811015610b5c576000848483818110610ab257610ab2613454565b9050602002016020810190610ac79190612b35565b6001600160a01b03166000818152600960209081526040808320805460018181018355918552838520018b90558a8452600883528184206002018054808301825590855283852001805473ffffffffffffffffffffffffffffffffffffffff191686179055938352600e82528083208a84529091529020805460ff191690911790555080610b548161346a565b915050610a96565b507f53f304d7ddc99bcc4695bc068800ce525ea67661c7f16ad157fee5a1ed6f6b3c848484604051610b9093929190613483565b60405180910390a150505050565b60608151835114610c175760405162461bcd60e51b815260206004820152602960248201527f455243313135353a206163636f756e747320616e6420696473206c656e67746860448201527f206d69736d61746368000000000000000000000000000000000000000000000060648201526084016106d0565b6000835167ffffffffffffffff811115610c3357610c33612a41565b604051908082528060200260200182016040528015610c5c578160200160208202803683370190505b50905060005b8451811015610cd457610ca7858281518110610c8057610c80613454565b6020026020010151858381518110610c9a57610c9a613454565b6020026020010151610656565b828281518110610cb957610cb9613454565b6020908102919091010152610ccd8161346a565b9050610c62565b509392505050565b6040805160608082018352808252602080830182905260008385018190526001600160a01b0387168152600b82528481208682528252849020845181549283028101608090810190965292830182815293949293909284928491840182828015610d6f57602002820191906000526020600020905b81546001600160a01b03168152600190910190602001808311610d51575b5050505050815260200160018201805480602002602001604051908101604052809291908181526020018280548015610de557602002820191906000526020600020906000905b825461010083900a900460ff16815260206001928301818104948501949093039092029101808411610db65790505b50505091835250506002919091015460ff1615156020909101529392505050565b6000838152600860205260409020600581015460ff16610e39576040516355dcb6f160e01b815260040160405180910390fd5b60018101546001600160a01b03163314610e665760405163390cdd9b60e21b815260040160405180910390fd5b336000908152600a6020908152604080832087845290915290205460ff16600003610ea45760405163a95eee8160e01b815260040160405180910390fd5b336000908152600c6020908152604080832087845290915281205460ff169003610ee15760405163da92a67760e01b815260040160405180910390fd5b82511580610ef157508151835114155b15610f3f5760405163d647364f60e01b815260206004820152601760248201527f636f6e7472696275746f72732c2076467578476976656e00000000000000000060448201526064016106d0565b604080516060810182528481526020808201859052600182840152336000908152600b82528381208882528252929092208151805192939192610f8592849201906127f2565b506020828101518051610f9e9260018501920190612864565b50604091909101516002909101805460ff1916911515919091179055610fc5838386611ce3565b604051600081527f896590eea589ae0b79f1921fb8acf5b09f4c082060e768de7bae07c4dfeada809060200160405180910390a1600501805460ff19169055505050565b610743338383611dc4565b60008281526006602052604090206001015461102f816118da565b6107fc8383611a7c565b600082900361108b5760405163d647364f60e01b815260206004820152600c60248201527f636f6e7472696275746f7273000000000000000000000000000000000000000060448201526064016106d0565b6007546040805160c081018252606081830181815281830191909152600060a0830181815289845233602080860191909152608085018890528551838152808201875290935260019052848152600882529290922081518051929384936110f59284920190612905565b5060208281015160018301805473ffffffffffffffffffffffffffffffffffffffff19166001600160a01b039092169190911790556040830151805161114192600285019201906127f2565b506060820151805161115d916003840191602090910190612979565b506080820151600482015560a0909101516005909101805460ff191691151591909117905561118d828686610a26565b7f03205b47e8ac382aa7ca86d69396c8ee19bfc417452392942760a14a3e9c9631826040516111f39181526040602082018190526012908201527f687474703a2f2f6578616d706c652e636f6d0000000000000000000000000000606082015260800190565b60405180910390a16007546112099060016134d9565b600755505050505050565b6112586040518060c001604052806060815260200160006001600160a01b031681526020016060815260200160608152602001600081526020016000151581525090565b60008281526008602052604090819020815160c08101909252805482908290611280906134f1565b80601f01602080910402602001604051908101604052809291908181526020018280546112ac906134f1565b80156112f95780601f106112ce576101008083540402835291602001916112f9565b820191906000526020600020905b8154815290600101906020018083116112dc57829003601f168201915b505050918352505060018201546001600160a01b0316602080830191909152600283018054604080518285028101850182528281529401939283018282801561136b57602002820191906000526020600020905b81546001600160a01b0316815260019091019060200180831161134d575b50505050508152602001600382018054806020026020016040519081016040528092919081815260200182805480156113c357602002820191906000526020600020905b8154815260200190600101908083116113af575b50505091835250506004820154602082015260059091015460ff16151560409091015292915050565b336000908152600e6020908152604080832084845290915290205460ff166114275760405163d764187d60e01b815260040160405180910390fd5b336000908152600a6020908152604080832084845290915281205460ff16908190036114665760405163a95eee8160e01b815260040160405180910390fd5b336000818152600a602090815260408083208684528252808320805460ff19169055805191820190528181526114a192309290918590611aff565b60408051338152602081018490529081018290527f81c3d6f4c1e03f5c57415284db949754444cf26d552e13742dd88bd8b13a89329060600160405180910390a15050565b336000908152600e6020908152604080832086845290915290205460ff166115215760405163d764187d60e01b815260040160405180910390fd5b336000908152600a6020908152604080832086845290915290205460ff1660000361155f5760405163a95eee8160e01b815260040160405180910390fd5b336000908152600c6020908152604080832086845290915281205460ff16900361159c5760405163da92a67760e01b815260040160405180910390fd5b815115806115ac57508051825114155b156115fa5760405163d647364f60e01b815260206004820152601760248201527f636f6e7472696275746f72732c2076467578476976656e00000000000000000060448201526064016106d0565b61160382611eb8565b61160d8184611f52565b604080516060810182528381526020808201849052600182840152336000908152600b8252838120878252825292909220815180519293919261165392849201906127f2565b50602082810151805161166c9260018501920190612864565b50604091820151600291909101805460ff19169115159190911790558051600081523360208201527f22338ac5fc8425f1454ce063a4190ed79ff039d67fd257e9ca0f36ba54bce9c39101610a19565b336000908152600e6020908152604080832084845290915290205460ff166116f75760405163d764187d60e01b815260040160405180910390fd5b336000908152600c6020908152604080832084845290915290205460ff16156117335760405163463fefc760e01b815260040160405180910390fd5b336000908152600a6020908152604080832084845290915290205460ff166000036117715760405163a95eee8160e01b815260040160405180910390fd5b61177b3382610cdc565b604001511561179d5760405163730a224760e11b815260040160405180910390fd5b6117ba336001606460405180602001604052806000815250611ffe565b336000818152600c60209081526040808320858452825291829020805460ff19166064179055815192835282018390527f7b013762bcc4a01787a4815463c2c29ee415e5348c5b65ee468c3c03a76f60eb910160405180910390a150565b336000908152600d602052604090205460ff16156118495760405163463fefc760e01b815260040160405180910390fd5b611866336000606460405180602001604052806000815250611ffe565b6040513381527f5184a1d5e0b0bcb8ee2c912752a2301033333eba83e58729ac34b470353164539060200160405180910390a1336000908152600d60205260409020805460ff19166001179055565b60006001600160e01b03198216637965db0b60e01b148061070a575061070a82612121565b6118e48133612146565b50565b8051610743906002906020840190612905565b600081815260056020526040812080546060929190611918906134f1565b80601f0160208091040260200160405190810160405280929190818152602001828054611944906134f1565b80156119915780601f1061196657610100808354040283529160200191611991565b820191906000526020600020905b81548152906001019060200180831161197457829003601f168201915b5050505050905060008151116119af576119aa836121c6565b6119d3565b6004816040516020016119c3929190613547565b6040516020818303038152906040525b9392505050565b60008281526006602090815260408083206001600160a01b038516845290915290205460ff166107435760008281526006602090815260408083206001600160a01b03851684529091529020805460ff19166001179055611a383390565b6001600160a01b0316816001600160a01b0316837f2f8788117e7eff1d82e926ec794901d17c78024a50270940304540a733656f0d60405160405180910390a45050565b60008281526006602090815260408083206001600160a01b038516845290915290205460ff16156107435760008281526006602090815260408083206001600160a01b0385168085529252808320805460ff1916905551339285917ff6391f5c32d9c69d2a47ea670b442974b53935d1edc7fd64eb21e047a839171b9190a45050565b6001600160a01b038416611b7b5760405162461bcd60e51b815260206004820152602560248201527f455243313135353a207472616e7366657220746f20746865207a65726f20616460448201527f647265737300000000000000000000000000000000000000000000000000000060648201526084016106d0565b336000611b8785612250565b90506000611b9485612250565b9050611ba483898985858961229b565b6000868152602081815260408083206001600160a01b038c16845290915290205485811015611c3b5760405162461bcd60e51b815260206004820152602a60248201527f455243313135353a20696e73756666696369656e742062616c616e636520666f60448201527f72207472616e736665720000000000000000000000000000000000000000000060648201526084016106d0565b6000878152602081815260408083206001600160a01b038d8116855292528083208985039055908a16825281208054889290611c789084906134d9565b909155505060408051888152602081018890526001600160a01b03808b16928c821692918816917fc3d58168c5ae7397731d063d5bbf3d657854427343f4c083240f7aacaa2d0f62910160405180910390a4611cd8848a8a8a8a8a6122b1565b505050505050505050565b81516000805b82811015611d7c57848181518110611d0357611d03613454565b602002602001015182611d1691906135ed565b9150611d6a33878381518110611d2e57611d2e613454565b60200260200101516001888581518110611d4a57611d4a613454565b602002602001015160ff1660405180602001604052806000815250611aff565b80611d748161346a565b915050611ce9565b50336000908152600c6020908152604080832086845290915290205460ff828116911614611dbd5760405163a95eee8160e01b815260040160405180910390fd5b5050505050565b816001600160a01b0316836001600160a01b031603611e4b5760405162461bcd60e51b815260206004820152602960248201527f455243313135353a2073657474696e6720617070726f76616c2073746174757360448201527f20666f722073656c66000000000000000000000000000000000000000000000060648201526084016106d0565b6001600160a01b03838116600081815260016020908152604080832094871680845294825291829020805460ff191686151590811790915591519182527f17307eab39ab6107e8899845ad3d59bd9653f200f220920489ca2b5937696c31910160405180910390a3505050565b805160005b818110156107fc57336001600160a01b0316838281518110611ee157611ee1613454565b60200260200101516001600160a01b031603611f405760405163d647364f60e01b815260206004820152601560248201527f73656e64657220697320636f6e7472696275746f72000000000000000000000060448201526064016106d0565b80611f4a8161346a565b915050611ebd565b81516000805b82811015611f9957848181518110611f7257611f72613454565b602002602001015182611f8591906135ed565b915080611f918161346a565b915050611f58565b50336000908152600c6020908152604080832086845290915290205460ff828116911614611fda5760405163a95eee8160e01b815260040160405180910390fd5b611ff833306001606460405180602001604052806000815250611aff565b50505050565b6001600160a01b03841661205e5760405162461bcd60e51b815260206004820152602160248201527f455243313135353a206d696e7420746f20746865207a65726f206164647265736044820152607360f81b60648201526084016106d0565b33600061206a85612250565b9050600061207785612250565b90506120888360008985858961229b565b6000868152602081815260408083206001600160a01b038b168452909152812080548792906120b89084906134d9565b909155505060408051878152602081018790526001600160a01b03808a1692600092918716917fc3d58168c5ae7397731d063d5bbf3d657854427343f4c083240f7aacaa2d0f62910160405180910390a4612118836000898989896122b1565b50505050505050565b60006001600160e01b03198216630271189760e51b148061070a575061070a8261246b565b60008281526006602090815260408083206001600160a01b038516845290915290205460ff1661074357612184816001600160a01b031660146124bb565b61218f8360206124bb565b6040516020016121a0929190613612565b60408051601f198184030181529082905262461bcd60e51b82526106d091600401612c05565b6060600280546121d5906134f1565b80601f0160208091040260200160405190810160405280929190818152602001828054612201906134f1565b80156107a75780601f10612223576101008083540402835291602001916107a7565b820191906000526020600020905b8154815290600101906020018083116122315750939695505050505050565b6040805160018082528183019092526060916000919060208083019080368337019050509050828160008151811061228a5761228a613454565b602090810291909101015292915050565b6122a9868686868686612664565b505050505050565b6001600160a01b0384163b156122a95760405163f23a6e6160e01b81526001600160a01b0385169063f23a6e61906122f59089908990889088908890600401613693565b6020604051808303816000875af1925050508015612330575060408051601f3d908101601f1916820190925261232d918101906136d6565b60015b6123e55761233c6136f3565b806308c379a003612375575061235061370f565b8061235b5750612377565b8060405162461bcd60e51b81526004016106d09190612c05565b505b60405162461bcd60e51b815260206004820152603460248201527f455243313135353a207472616e7366657220746f206e6f6e204552433131353560448201527f526563656976657220696d706c656d656e74657200000000000000000000000060648201526084016106d0565b6001600160e01b0319811663f23a6e6160e01b146121185760405162461bcd60e51b815260206004820152602860248201527f455243313135353a204552433131353552656365697665722072656a6563746560448201527f6420746f6b656e7300000000000000000000000000000000000000000000000060648201526084016106d0565b60006001600160e01b03198216636cdb3d1360e11b148061249c57506001600160e01b031982166303a24d0760e21b145b8061070a57506301ffc9a760e01b6001600160e01b031983161461070a565b606060006124ca836002613799565b6124d59060026134d9565b67ffffffffffffffff8111156124ed576124ed612a41565b6040519080825280601f01601f191660200182016040528015612517576020820181803683370190505b509050600360fc1b8160008151811061253257612532613454565b60200101906001600160f81b031916908160001a905350600f60fb1b8160018151811061256157612561613454565b60200101906001600160f81b031916908160001a9053506000612585846002613799565b6125909060016134d9565b90505b6001811115612615577f303132333435363738396162636465660000000000000000000000000000000085600f16601081106125d1576125d1613454565b1a60f81b8282815181106125e7576125e7613454565b60200101906001600160f81b031916908160001a90535060049490941c9361260e816137b8565b9050612593565b5083156119d35760405162461bcd60e51b815260206004820181905260248201527f537472696e67733a20686578206c656e67746820696e73756666696369656e7460448201526064016106d0565b6001600160a01b0385166126eb5760005b83518110156126e95782818151811061269057612690613454565b6020026020010151600360008684815181106126ae576126ae613454565b6020026020010151815260200190815260200160002060008282546126d391906134d9565b909155506126e290508161346a565b9050612675565b505b6001600160a01b0384166122a95760005b835181101561211857600084828151811061271957612719613454565b60200260200101519050600084838151811061273757612737613454565b60200260200101519050600060036000848152602001908152602001600020549050818110156127cf5760405162461bcd60e51b815260206004820152602860248201527f455243313135353a206275726e20616d6f756e74206578636565647320746f7460448201527f616c537570706c7900000000000000000000000000000000000000000000000060648201526084016106d0565b600092835260036020526040909220910390556127eb8161346a565b90506126fc565b828054828255906000526020600020908101928215612854579160200282015b82811115612854578251825473ffffffffffffffffffffffffffffffffffffffff19166001600160a01b03909116178255602090920191600190910190612812565b506128609291506129b3565b5090565b82805482825590600052602060002090601f016020900481019282156128545791602002820160005b838211156128cb57835183826101000a81548160ff021916908360ff160217905550926020019260010160208160000104928301926001030261288d565b80156128f85782816101000a81549060ff02191690556001016020816000010492830192600103026128cb565b50506128609291506129b3565b828054612911906134f1565b90600052602060002090601f0160209004810192826129335760008555612854565b82601f1061294c57805160ff1916838001178555612854565b82800160010185558215612854579182015b8281111561285457825182559160200191906001019061295e565b828054828255906000526020600020908101928215612854579160200282018281111561285457825182559160200191906001019061295e565b5b8082111561286057600081556001016129b4565b80356001600160a01b03811681146129df57600080fd5b919050565b600080604083850312156129f757600080fd5b612a00836129c8565b946020939093013593505050565b6001600160e01b0319811681146118e457600080fd5b600060208284031215612a3657600080fd5b81356119d381612a0e565b634e487b7160e01b600052604160045260246000fd5b601f8201601f1916810167ffffffffffffffff81118282101715612a7d57612a7d612a41565b6040525050565b600082601f830112612a9557600080fd5b813567ffffffffffffffff811115612aaf57612aaf612a41565b604051612ac6601f8301601f191660200182612a57565b818152846020838601011115612adb57600080fd5b816020850160208301376000918101602001919091529392505050565b600060208284031215612b0a57600080fd5b813567ffffffffffffffff811115612b2157600080fd5b612b2d84828501612a84565b949350505050565b600060208284031215612b4757600080fd5b6119d3826129c8565b6020808252825182820181905260009190848201906040850190845b81811015612b8857835183529284019291840191600101612b6c565b50909695505050505050565b600060208284031215612ba657600080fd5b5035919050565b60005b83811015612bc8578181015183820152602001612bb0565b83811115611ff85750506000910152565b60008151808452612bf1816020860160208601612bad565b601f01601f19169290920160200192915050565b6020815260006119d36020830184612bd9565b600067ffffffffffffffff821115612c3257612c32612a41565b5060051b60200190565b600082601f830112612c4d57600080fd5b81356020612c5a82612c18565b604051612c678282612a57565b83815260059390931b8501820192828101915086841115612c8757600080fd5b8286015b84811015612ca25780358352918301918301612c8b565b509695505050505050565b600080600080600060a08688031215612cc557600080fd5b612cce866129c8565b9450612cdc602087016129c8565b9350604086013567ffffffffffffffff80821115612cf957600080fd5b612d0589838a01612c3c565b94506060880135915080821115612d1b57600080fd5b612d2789838a01612c3c565b93506080880135915080821115612d3d57600080fd5b50612d4a88828901612a84565b9150509295509295909350565b60008060408385031215612d6a57600080fd5b82359150612d7a602084016129c8565b90509250929050565b803560ff811681146129df57600080fd5b60008060408385031215612da757600080fd5b82359150612d7a60208401612d83565b60008083601f840112612dc957600080fd5b50813567ffffffffffffffff811115612de157600080fd5b6020830191508360208260051b8501011115612dfc57600080fd5b9250929050565b600080600060408486031215612e1857600080fd5b83359250602084013567ffffffffffffffff811115612e3657600080fd5b612e4286828701612db7565b9497909650939450505050565b600082601f830112612e6057600080fd5b81356020612e6d82612c18565b604051612e7a8282612a57565b83815260059390931b8501820192828101915086841115612e9a57600080fd5b8286015b84811015612ca257612eaf816129c8565b8352918301918301612e9e565b60008060408385031215612ecf57600080fd5b823567ffffffffffffffff80821115612ee757600080fd5b612ef386838701612e4f565b93506020850135915080821115612f0957600080fd5b50612f1685828601612c3c565b9150509250929050565b600081518084526020808501945080840160005b83811015612f595781516001600160a01b031687529582019590820190600101612f34565b509495945050505050565b600060208083528351606082850152612f806080850182612f20565b85830151858203601f19016040870152805180835290840192506000918401905b80831015612fc457835160ff168252928401926001929092019190840190612fa1565b506040870151151560608701528094505050505092915050565b600080600060608486031215612ff357600080fd5b8335925060208085013567ffffffffffffffff8082111561301357600080fd5b61301f88838901612e4f565b9450604087013591508082111561303557600080fd5b508501601f8101871361304757600080fd5b803561305281612c18565b60405161305f8282612a57565b82815260059290921b830184019184810191508983111561307f57600080fd5b928401925b828410156130a45761309584612d83565b82529284019290840190613084565b80955050505050509250925092565b600080604083850312156130c657600080fd5b6130cf836129c8565b9150602083013580151581146130e457600080fd5b809150509250929050565b60008083601f84011261310157600080fd5b50813567ffffffffffffffff81111561311957600080fd5b602083019150836020828501011115612dfc57600080fd5b60008060008060008060008060a0898b03121561314d57600080fd5b613156896129c8565b975061316460208a016129c8565b9650604089013567ffffffffffffffff8082111561318157600080fd5b61318d8c838d01612db7565b909850965060608b01359150808211156131a657600080fd5b6131b28c838d01612db7565b909650945060808b01359150808211156131cb57600080fd5b506131d88b828c016130ef565b999c989b5096995094979396929594505050565b6000806000806060858703121561320257600080fd5b843567ffffffffffffffff8082111561321a57600080fd5b61322688838901612a84565b9550602087013591508082111561323c57600080fd5b5061324987828801612db7565b9598909750949560400135949350505050565b60006020808352835160c08285015261327860e0850182612bd9565b90506001600160a01b03828601511660408501526040850151601f19808684030160608701526132a88383612f20565b6060880151878203909201608088015281518082529185019350600092508401905b808310156132ea57835182529284019260019290920191908401906132ca565b50608087015160a087015260a0870151935061330a60c087018515159052565b9695505050505050565b6000806040838503121561332757600080fd5b613330836129c8565b9150612d7a602084016129c8565b60008060008060008060a0878903121561335757600080fd5b613360876129c8565b955061336e602088016129c8565b94506040870135935060608701359250608087013567ffffffffffffffff81111561339857600080fd5b6133a489828a016130ef565b979a9699509497509295939492505050565b600080600080600060a086880312156133ce57600080fd5b6133d7866129c8565b94506133e5602087016129c8565b93506040860135925060608601359150608086013567ffffffffffffffff81111561340f57600080fd5b612d4a88828901612a84565b634e487b7160e01b600052601160045260246000fd5b600060ff821660ff84168082101561344b5761344b61341b565b90039392505050565b634e487b7160e01b600052603260045260246000fd5b60006001820161347c5761347c61341b565b5060010190565b83815260406020808301829052908201839052600090849060608401835b868110156134cd576001600160a01b036134ba856129c8565b16825292820192908201906001016134a1565b50979650505050505050565b600082198211156134ec576134ec61341b565b500190565b600181811c9082168061350557607f821691505b60208210810361352557634e487b7160e01b600052602260045260246000fd5b50919050565b6000815161353d818560208601612bad565b9290920192915050565b600080845481600182811c91508083168061356357607f831692505b6020808410820361358257634e487b7160e01b86526022600452602486fd5b81801561359657600181146135a7576135d4565b60ff198616895284890196506135d4565b60008b81526020902060005b868110156135cc5781548b8201529085019083016135b3565b505084890196505b5050505050506135e4818561352b565b95945050505050565b600060ff821660ff84168060ff0382111561360a5761360a61341b565b019392505050565b7f416363657373436f6e74726f6c3a206163636f756e742000000000000000000081526000835161364a816017850160208801612bad565b7f206973206d697373696e6720726f6c65200000000000000000000000000000006017918401918201528351613687816028840160208801612bad565b01602801949350505050565b60006001600160a01b03808816835280871660208401525084604083015283606083015260a060808301526136cb60a0830184612bd9565b979650505050505050565b6000602082840312156136e857600080fd5b81516119d381612a0e565b600060033d111561370c5760046000803e5060005160e01c5b90565b600060443d101561371d5790565b6040516003193d81016004833e81513d67ffffffffffffffff816024840111818411171561374d57505050505090565b82850191508151818111156137655750505050505090565b843d870101602082850101111561377f5750505050505090565b61378e60208286010187612a57565b509095945050505050565b60008160001904831182151516156137b3576137b361341b565b500290565b6000816137c7576137c761341b565b50600019019056fea164736f6c634300080d000a",
  "devdoc": {
    "kind": "dev",
    "methods": {
      "balanceOf(address,uint256)": {
        "details": "See {IERC1155-balanceOf}. Requirements: - `account` cannot be the zero address."
      },
      "balanceOfBatch(address[],uint256[])": {
        "details": "See {IERC1155-balanceOfBatch}. Requirements: - `accounts` and `ids` must have the same length."
      },
      "exists(uint256)": {
        "details": "Indicates whether any token exist with a given id, or not."
      },
      "getRoleAdmin(bytes32)": {
        "details": "Returns the admin role that controls `role`. See {grantRole} and {revokeRole}. To change a role's admin, use {_setRoleAdmin}."
      },
      "grantRole(bytes32,address)": {
        "details": "Grants `role` to `account`. If `account` had not been already granted `role`, emits a {RoleGranted} event. Requirements: - the caller must have ``role``'s admin role. May emit a {RoleGranted} event."
      },
      "hasRole(bytes32,address)": {
        "details": "Returns `true` if `account` has been granted `role`."
      },
      "isApprovedForAll(address,address)": {
        "details": "See {IERC1155-isApprovedForAll}."
      },
      "renounceRole(bytes32,address)": {
        "details": "Revokes `role` from the calling account. Roles are often managed via {grantRole} and {revokeRole}: this function's purpose is to provide a mechanism for accounts to lose their privileges if they are compromised (such as when a trusted device is misplaced). If the calling account had been revoked `role`, emits a {RoleRevoked} event. Requirements: - the caller must be `account`. May emit a {RoleRevoked} event."
      },
      "revokeRole(bytes32,address)": {
        "details": "Revokes `role` from `account`. If `account` had been granted `role`, emits a {RoleRevoked} event. Requirements: - the caller must have ``role``'s admin role. May emit a {RoleRevoked} event."
      },
      "safeBatchTransferFrom(address,address,uint256[],uint256[],bytes)": {
        "details": "See {IERC1155-safeBatchTransferFrom}."
      },
      "safeTransferFrom(address,address,uint256,uint256,bytes)": {
        "details": "See {IERC1155-safeTransferFrom}."
      },
      "setApprovalForAll(address,bool)": {
        "details": "See {IERC1155-setApprovalForAll}."
      },
      "totalSupply(uint256)": {
        "details": "Total amount of tokens in with a given id."
      }
    },
    "version": 1
  },
  "userdoc": {
    "kind": "user",
    "methods": {},
    "version": 1
  },
  "storageLayout": {
    "storage": [
      {
        "astId": 418,
        "contract": "contracts/FUX.sol:FUX",
        "label": "_balances",
        "offset": 0,
        "slot": "0",
        "type": "t_mapping(t_uint256,t_mapping(t_address,t_uint256))"
      },
      {
        "astId": 424,
        "contract": "contracts/FUX.sol:FUX",
        "label": "_operatorApprovals",
        "offset": 0,
        "slot": "1",
        "type": "t_mapping(t_address,t_mapping(t_address,t_bool))"
      },
      {
        "astId": 426,
        "contract": "contracts/FUX.sol:FUX",
        "label": "_uri",
        "offset": 0,
        "slot": "2",
        "type": "t_string_storage"
      },
      {
        "astId": 1788,
        "contract": "contracts/FUX.sol:FUX",
        "label": "_totalSupply",
        "offset": 0,
        "slot": "3",
        "type": "t_mapping(t_uint256,t_uint256)"
      },
      {
        "astId": 1948,
        "contract": "contracts/FUX.sol:FUX",
        "label": "_baseURI",
        "offset": 0,
        "slot": "4",
        "type": "t_string_storage"
      },
      {
        "astId": 1952,
        "contract": "contracts/FUX.sol:FUX",
        "label": "_tokenURIs",
        "offset": 0,
        "slot": "5",
        "type": "t_mapping(t_uint256,t_string_storage)"
      },
      {
        "astId": 24,
        "contract": "contracts/FUX.sol:FUX",
        "label": "_roles",
        "offset": 0,
        "slot": "6",
        "type": "t_mapping(t_bytes32,t_struct(RoleData)19_storage)"
      },
      {
        "astId": 2708,
        "contract": "contracts/FUX.sol:FUX",
        "label": "counter",
        "offset": 0,
        "slot": "7",
        "type": "t_uint256"
      },
      {
        "astId": 2792,
        "contract": "contracts/FUX.sol:FUX",
        "label": "workstreams",
        "offset": 0,
        "slot": "8",
        "type": "t_mapping(t_uint256,t_struct(Workstream)2778_storage)"
      },
      {
        "astId": 2797,
        "contract": "contracts/FUX.sol:FUX",
        "label": "contributorWorkstreams",
        "offset": 0,
        "slot": "9",
        "type": "t_mapping(t_address,t_array(t_uint256)dyn_storage)"
      },
      {
        "astId": 2803,
        "contract": "contracts/FUX.sol:FUX",
        "label": "contributorCommitments",
        "offset": 0,
        "slot": "10",
        "type": "t_mapping(t_address,t_mapping(t_uint256,t_uint8))"
      },
      {
        "astId": 2810,
        "contract": "contracts/FUX.sol:FUX",
        "label": "valueEvaluations",
        "offset": 0,
        "slot": "11",
        "type": "t_mapping(t_address,t_mapping(t_uint256,t_struct(Evaluation)2787_storage))"
      },
      {
        "astId": 2816,
        "contract": "contracts/FUX.sol:FUX",
        "label": "vFuxAvailable",
        "offset": 0,
        "slot": "12",
        "type": "t_mapping(t_address,t_mapping(t_uint256,t_uint8))"
      },
      {
        "astId": 2820,
        "contract": "contracts/FUX.sol:FUX",
        "label": "isFuxer",
        "offset": 0,
        "slot": "13",
        "type": "t_mapping(t_address,t_bool)"
      },
      {
        "astId": 2826,
        "contract": "contracts/FUX.sol:FUX",
        "label": "isContributor",
        "offset": 0,
        "slot": "14",
        "type": "t_mapping(t_address,t_mapping(t_uint256,t_bool))"
      }
    ],
    "types": {
      "t_address": {
        "encoding": "inplace",
        "label": "address",
        "numberOfBytes": "20"
      },
      "t_array(t_address)dyn_storage": {
        "base": "t_address",
        "encoding": "dynamic_array",
        "label": "address[]",
        "numberOfBytes": "32"
      },
      "t_array(t_uint256)dyn_storage": {
        "base": "t_uint256",
        "encoding": "dynamic_array",
        "label": "uint256[]",
        "numberOfBytes": "32"
      },
      "t_array(t_uint8)dyn_storage": {
        "base": "t_uint8",
        "encoding": "dynamic_array",
        "label": "uint8[]",
        "numberOfBytes": "32"
      },
      "t_bool": {
        "encoding": "inplace",
        "label": "bool",
        "numberOfBytes": "1"
      },
      "t_bytes32": {
        "encoding": "inplace",
        "label": "bytes32",
        "numberOfBytes": "32"
      },
      "t_mapping(t_address,t_array(t_uint256)dyn_storage)": {
        "encoding": "mapping",
        "key": "t_address",
        "label": "mapping(address => uint256[])",
        "numberOfBytes": "32",
        "value": "t_array(t_uint256)dyn_storage"
      },
      "t_mapping(t_address,t_bool)": {
        "encoding": "mapping",
        "key": "t_address",
        "label": "mapping(address => bool)",
        "numberOfBytes": "32",
        "value": "t_bool"
      },
      "t_mapping(t_address,t_mapping(t_address,t_bool))": {
        "encoding": "mapping",
        "key": "t_address",
        "label": "mapping(address => mapping(address => bool))",
        "numberOfBytes": "32",
        "value": "t_mapping(t_address,t_bool)"
      },
      "t_mapping(t_address,t_mapping(t_uint256,t_bool))": {
        "encoding": "mapping",
        "key": "t_address",
        "label": "mapping(address => mapping(uint256 => bool))",
        "numberOfBytes": "32",
        "value": "t_mapping(t_uint256,t_bool)"
      },
      "t_mapping(t_address,t_mapping(t_uint256,t_struct(Evaluation)2787_storage))": {
        "encoding": "mapping",
        "key": "t_address",
        "label": "mapping(address => mapping(uint256 => struct FUX.Evaluation))",
        "numberOfBytes": "32",
        "value": "t_mapping(t_uint256,t_struct(Evaluation)2787_storage)"
      },
      "t_mapping(t_address,t_mapping(t_uint256,t_uint8))": {
        "encoding": "mapping",
        "key": "t_address",
        "label": "mapping(address => mapping(uint256 => uint8))",
        "numberOfBytes": "32",
        "value": "t_mapping(t_uint256,t_uint8)"
      },
      "t_mapping(t_address,t_uint256)": {
        "encoding": "mapping",
        "key": "t_address",
        "label": "mapping(address => uint256)",
        "numberOfBytes": "32",
        "value": "t_uint256"
      },
      "t_mapping(t_bytes32,t_struct(RoleData)19_storage)": {
        "encoding": "mapping",
        "key": "t_bytes32",
        "label": "mapping(bytes32 => struct AccessControl.RoleData)",
        "numberOfBytes": "32",
        "value": "t_struct(RoleData)19_storage"
      },
      "t_mapping(t_uint256,t_bool)": {
        "encoding": "mapping",
        "key": "t_uint256",
        "label": "mapping(uint256 => bool)",
        "numberOfBytes": "32",
        "value": "t_bool"
      },
      "t_mapping(t_uint256,t_mapping(t_address,t_uint256))": {
        "encoding": "mapping",
        "key": "t_uint256",
        "label": "mapping(uint256 => mapping(address => uint256))",
        "numberOfBytes": "32",
        "value": "t_mapping(t_address,t_uint256)"
      },
      "t_mapping(t_uint256,t_string_storage)": {
        "encoding": "mapping",
        "key": "t_uint256",
        "label": "mapping(uint256 => string)",
        "numberOfBytes": "32",
        "value": "t_string_storage"
      },
      "t_mapping(t_uint256,t_struct(Evaluation)2787_storage)": {
        "encoding": "mapping",
        "key": "t_uint256",
        "label": "mapping(uint256 => struct FUX.Evaluation)",
        "numberOfBytes": "32",
        "value": "t_struct(Evaluation)2787_storage"
      },
      "t_mapping(t_uint256,t_struct(Workstream)2778_storage)": {
        "encoding": "mapping",
        "key": "t_uint256",
        "label": "mapping(uint256 => struct FUX.Workstream)",
        "numberOfBytes": "32",
        "value": "t_struct(Workstream)2778_storage"
      },
      "t_mapping(t_uint256,t_uint256)": {
        "encoding": "mapping",
        "key": "t_uint256",
        "label": "mapping(uint256 => uint256)",
        "numberOfBytes": "32",
        "value": "t_uint256"
      },
      "t_mapping(t_uint256,t_uint8)": {
        "encoding": "mapping",
        "key": "t_uint256",
        "label": "mapping(uint256 => uint8)",
        "numberOfBytes": "32",
        "value": "t_uint8"
      },
      "t_string_storage": {
        "encoding": "bytes",
        "label": "string",
        "numberOfBytes": "32"
      },
      "t_struct(Evaluation)2787_storage": {
        "encoding": "inplace",
        "label": "struct FUX.Evaluation",
        "members": [
          {
            "astId": 2781,
            "contract": "contracts/FUX.sol:FUX",
            "label": "contributors",
            "offset": 0,
            "slot": "0",
            "type": "t_array(t_address)dyn_storage"
          },
          {
            "astId": 2784,
            "contract": "contracts/FUX.sol:FUX",
            "label": "ratings",
            "offset": 0,
            "slot": "1",
            "type": "t_array(t_uint8)dyn_storage"
          },
          {
            "astId": 2786,
            "contract": "contracts/FUX.sol:FUX",
            "label": "exists",
            "offset": 0,
            "slot": "2",
            "type": "t_bool"
          }
        ],
        "numberOfBytes": "96"
      },
      "t_struct(RoleData)19_storage": {
        "encoding": "inplace",
        "label": "struct AccessControl.RoleData",
        "members": [
          {
            "astId": 16,
            "contract": "contracts/FUX.sol:FUX",
            "label": "members",
            "offset": 0,
            "slot": "0",
            "type": "t_mapping(t_address,t_bool)"
          },
          {
            "astId": 18,
            "contract": "contracts/FUX.sol:FUX",
            "label": "adminRole",
            "offset": 0,
            "slot": "1",
            "type": "t_bytes32"
          }
        ],
        "numberOfBytes": "64"
      },
      "t_struct(Workstream)2778_storage": {
        "encoding": "inplace",
        "label": "struct FUX.Workstream",
        "members": [
          {
            "astId": 2765,
            "contract": "contracts/FUX.sol:FUX",
            "label": "name",
            "offset": 0,
            "slot": "0",
            "type": "t_string_storage"
          },
          {
            "astId": 2767,
            "contract": "contracts/FUX.sol:FUX",
            "label": "creator",
            "offset": 0,
            "slot": "1",
            "type": "t_address"
          },
          {
            "astId": 2770,
            "contract": "contracts/FUX.sol:FUX",
            "label": "contributors",
            "offset": 0,
            "slot": "2",
            "type": "t_array(t_address)dyn_storage"
          },
          {
            "astId": 2773,
            "contract": "contracts/FUX.sol:FUX",
            "label": "evaluations",
            "offset": 0,
            "slot": "3",
            "type": "t_array(t_uint256)dyn_storage"
          },
          {
            "astId": 2775,
            "contract": "contracts/FUX.sol:FUX",
            "label": "deadline",
            "offset": 0,
            "slot": "4",
            "type": "t_uint256"
          },
          {
            "astId": 2777,
            "contract": "contracts/FUX.sol:FUX",
            "label": "exists",
            "offset": 0,
            "slot": "5",
            "type": "t_bool"
          }
        ],
        "numberOfBytes": "192"
      },
      "t_uint256": {
        "encoding": "inplace",
        "label": "uint256",
        "numberOfBytes": "32"
      },
      "t_uint8": {
        "encoding": "inplace",
        "label": "uint8",
        "numberOfBytes": "1"
      }
    }
  }
}