{
  "address": "0xBAe9eFeE8D4D95149a1618a8604371982573F5c6",
  "abi": [
    {
      "inputs": [],
      "stateMutability": "nonpayable",
      "type": "constructor"
    },
    {
      "anonymous": false,
      "inputs": [
        {
          "indexed": true,
          "internalType": "address",
          "name": "account",
          "type": "address"
        },
        {
          "indexed": true,
          "internalType": "address",
          "name": "operator",
          "type": "address"
        },
        {
          "indexed": false,
          "internalType": "bool",
          "name": "approved",
          "type": "bool"
        }
      ],
      "name": "ApprovalForAll",
      "type": "event"
    },
    {
      "anonymous": false,
      "inputs": [
        {
          "indexed": false,
          "internalType": "uint256",
          "name": "id",
          "type": "uint256"
        },
        {
          "indexed": false,
          "internalType": "address[]",
          "name": "contributors",
          "type": "address[]"
        }
      ],
      "name": "ContributorsAdded",
      "type": "event"
    },
    {
      "anonymous": false,
      "inputs": [
        {
          "indexed": false,
          "internalType": "address",
          "name": "user",
          "type": "address"
        }
      ],
      "name": "FuxClaimed",
      "type": "event"
    },
    {
      "anonymous": false,
      "inputs": [
        {
          "indexed": false,
          "internalType": "address",
          "name": "user",
          "type": "address"
        },
        {
          "indexed": false,
          "internalType": "uint256",
          "name": "workstreamId",
          "type": "uint256"
        },
        {
          "indexed": false,
          "internalType": "uint256",
          "name": "amount",
          "type": "uint256"
        }
      ],
      "name": "FuxGiven",
      "type": "event"
    },
    {
      "anonymous": false,
      "inputs": [
        {
          "indexed": true,
          "internalType": "bytes32",
          "name": "role",
          "type": "bytes32"
        },
        {
          "indexed": true,
          "internalType": "bytes32",
          "name": "previousAdminRole",
          "type": "bytes32"
        },
        {
          "indexed": true,
          "internalType": "bytes32",
          "name": "newAdminRole",
          "type": "bytes32"
        }
      ],
      "name": "RoleAdminChanged",
      "type": "event"
    },
    {
      "anonymous": false,
      "inputs": [
        {
          "indexed": true,
          "internalType": "bytes32",
          "name": "role",
          "type": "bytes32"
        },
        {
          "indexed": true,
          "internalType": "address",
          "name": "account",
          "type": "address"
        },
        {
          "indexed": true,
          "internalType": "address",
          "name": "sender",
          "type": "address"
        }
      ],
      "name": "RoleGranted",
      "type": "event"
    },
    {
      "anonymous": false,
      "inputs": [
        {
          "indexed": true,
          "internalType": "bytes32",
          "name": "role",
          "type": "bytes32"
        },
        {
          "indexed": true,
          "internalType": "address",
          "name": "account",
          "type": "address"
        },
        {
          "indexed": true,
          "internalType": "address",
          "name": "sender",
          "type": "address"
        }
      ],
      "name": "RoleRevoked",
      "type": "event"
    },
    {
      "anonymous": false,
      "inputs": [
        {
          "indexed": true,
          "internalType": "address",
          "name": "operator",
          "type": "address"
        },
        {
          "indexed": true,
          "internalType": "address",
          "name": "from",
          "type": "address"
        },
        {
          "indexed": true,
          "internalType": "address",
          "name": "to",
          "type": "address"
        },
        {
          "indexed": false,
          "internalType": "uint256[]",
          "name": "ids",
          "type": "uint256[]"
        },
        {
          "indexed": false,
          "internalType": "uint256[]",
          "name": "values",
          "type": "uint256[]"
        }
      ],
      "name": "TransferBatch",
      "type": "event"
    },
    {
      "anonymous": false,
      "inputs": [
        {
          "indexed": true,
          "internalType": "address",
          "name": "operator",
          "type": "address"
        },
        {
          "indexed": true,
          "internalType": "address",
          "name": "from",
          "type": "address"
        },
        {
          "indexed": true,
          "internalType": "address",
          "name": "to",
          "type": "address"
        },
        {
          "indexed": false,
          "internalType": "uint256",
          "name": "id",
          "type": "uint256"
        },
        {
          "indexed": false,
          "internalType": "uint256",
          "name": "value",
          "type": "uint256"
        }
      ],
      "name": "TransferSingle",
      "type": "event"
    },
    {
      "anonymous": false,
      "inputs": [
        {
          "indexed": false,
          "internalType": "string",
          "name": "value",
          "type": "string"
        },
        {
          "indexed": true,
          "internalType": "uint256",
          "name": "id",
          "type": "uint256"
        }
      ],
      "name": "URI",
      "type": "event"
    },
    {
      "anonymous": false,
      "inputs": [
        {
          "indexed": false,
          "internalType": "address",
          "name": "user",
          "type": "address"
        },
        {
          "indexed": false,
          "internalType": "uint256",
          "name": "workstreamID",
          "type": "uint256"
        }
      ],
      "name": "VFuxClaimed",
      "type": "event"
    },
    {
      "anonymous": false,
      "inputs": [
        {
          "indexed": false,
          "internalType": "uint256",
          "name": "id",
          "type": "uint256"
        },
        {
          "indexed": false,
          "internalType": "string",
          "name": "metadataUri",
          "type": "string"
        }
      ],
      "name": "WorkstreamMinted",
      "type": "event"
    },
    {
      "inputs": [],
      "name": "DEFAULT_ADMIN_ROLE",
      "outputs": [
        {
          "internalType": "bytes32",
          "name": "",
          "type": "bytes32"
        }
      ],
      "stateMutability": "view",
      "type": "function"
    },
    {
      "inputs": [],
      "name": "FUX_TOKEN_ID",
      "outputs": [
        {
          "internalType": "uint256",
          "name": "",
          "type": "uint256"
        }
      ],
      "stateMutability": "view",
      "type": "function"
    },
    {
      "inputs": [],
      "name": "MINTER_ROLE",
      "outputs": [
        {
          "internalType": "bytes32",
          "name": "",
          "type": "bytes32"
        }
      ],
      "stateMutability": "view",
      "type": "function"
    },
    {
      "inputs": [],
      "name": "URI_SETTER_ROLE",
      "outputs": [
        {
          "internalType": "bytes32",
          "name": "",
          "type": "bytes32"
        }
      ],
      "stateMutability": "view",
      "type": "function"
    },
    {
      "inputs": [],
      "name": "VFUX_TOKEN_ID",
      "outputs": [
        {
          "internalType": "uint256",
          "name": "",
          "type": "uint256"
        }
      ],
      "stateMutability": "view",
      "type": "function"
    },
    {
      "inputs": [
        {
          "internalType": "uint256",
          "name": "workstreamId",
          "type": "uint256"
        },
        {
          "internalType": "address[]",
          "name": "contributors",
          "type": "address[]"
        }
      ],
      "name": "addContributors",
      "outputs": [],
      "stateMutability": "nonpayable",
      "type": "function"
    },
    {
      "inputs": [
        {
          "internalType": "address",
          "name": "account",
          "type": "address"
        },
        {
          "internalType": "uint256",
          "name": "id",
          "type": "uint256"
        }
      ],
      "name": "balanceOf",
      "outputs": [
        {
          "internalType": "uint256",
          "name": "",
          "type": "uint256"
        }
      ],
      "stateMutability": "view",
      "type": "function"
    },
    {
      "inputs": [
        {
          "internalType": "address[]",
          "name": "accounts",
          "type": "address[]"
        },
        {
          "internalType": "uint256[]",
          "name": "ids",
          "type": "uint256[]"
        }
      ],
      "name": "balanceOfBatch",
      "outputs": [
        {
          "internalType": "uint256[]",
          "name": "",
          "type": "uint256[]"
        }
      ],
      "stateMutability": "view",
      "type": "function"
    },
    {
      "inputs": [
        {
          "internalType": "uint256",
          "name": "workstreamID",
          "type": "uint256"
        },
        {
          "internalType": "uint256",
          "name": "fuxGiven",
          "type": "uint256"
        }
      ],
      "name": "commitToWorkstream",
      "outputs": [],
      "stateMutability": "nonpayable",
      "type": "function"
    },
    {
      "inputs": [
        {
          "internalType": "uint256",
          "name": "id",
          "type": "uint256"
        }
      ],
      "name": "exists",
      "outputs": [
        {
          "internalType": "bool",
          "name": "",
          "type": "bool"
        }
      ],
      "stateMutability": "view",
      "type": "function"
    },
    {
      "inputs": [
        {
          "internalType": "bytes32",
          "name": "role",
          "type": "bytes32"
        }
      ],
      "name": "getRoleAdmin",
      "outputs": [
        {
          "internalType": "bytes32",
          "name": "",
          "type": "bytes32"
        }
      ],
      "stateMutability": "view",
      "type": "function"
    },
    {
      "inputs": [
        {
          "internalType": "uint256",
          "name": "workstreamID",
          "type": "uint256"
        }
      ],
      "name": "getValueEvaluation",
      "outputs": [
        {
          "components": [
            {
              "internalType": "address[]",
              "name": "contributors",
              "type": "address[]"
            },
            {
              "internalType": "uint8[]",
              "name": "ratings",
              "type": "uint8[]"
            }
          ],
          "internalType": "struct FUX.Evaluation",
          "name": "evaluation",
          "type": "tuple"
        }
      ],
      "stateMutability": "view",
      "type": "function"
    },
    {
      "inputs": [
        {
          "internalType": "uint256",
          "name": "workstreamID",
          "type": "uint256"
        }
      ],
      "name": "getWorkstreamByID",
      "outputs": [
        {
          "components": [
            {
              "internalType": "string",
              "name": "name",
              "type": "string"
            },
            {
              "internalType": "address",
              "name": "creator",
              "type": "address"
            },
            {
              "internalType": "address[]",
              "name": "contributors",
              "type": "address[]"
            },
            {
              "internalType": "uint256",
              "name": "deadline",
              "type": "uint256"
            },
            {
              "internalType": "bool",
              "name": "exists",
              "type": "bool"
            }
          ],
          "internalType": "struct FUX.Workstream",
          "name": "workstream",
          "type": "tuple"
        }
      ],
      "stateMutability": "view",
      "type": "function"
    },
    {
      "inputs": [
        {
          "internalType": "uint256",
          "name": "workstreamID",
          "type": "uint256"
        },
        {
          "internalType": "address",
          "name": "user",
          "type": "address"
        }
      ],
      "name": "getWorkstreamCommitment",
      "outputs": [
        {
          "internalType": "uint256",
          "name": "fuxGiven",
          "type": "uint256"
        }
      ],
      "stateMutability": "view",
      "type": "function"
    },
    {
      "inputs": [
        {
          "internalType": "address",
          "name": "user",
          "type": "address"
        }
      ],
      "name": "getWorkstreamIDs",
      "outputs": [
        {
          "internalType": "uint256[]",
          "name": "ids",
          "type": "uint256[]"
        }
      ],
      "stateMutability": "view",
      "type": "function"
    },
    {
      "inputs": [
        {
          "internalType": "bytes32",
          "name": "role",
          "type": "bytes32"
        },
        {
          "internalType": "address",
          "name": "account",
          "type": "address"
        }
      ],
      "name": "grantRole",
      "outputs": [],
      "stateMutability": "nonpayable",
      "type": "function"
    },
    {
      "inputs": [
        {
          "internalType": "bytes32",
          "name": "role",
          "type": "bytes32"
        },
        {
          "internalType": "address",
          "name": "account",
          "type": "address"
        }
      ],
      "name": "hasRole",
      "outputs": [
        {
          "internalType": "bool",
          "name": "",
          "type": "bool"
        }
      ],
      "stateMutability": "view",
      "type": "function"
    },
    {
      "inputs": [
        {
          "internalType": "address",
          "name": "account",
          "type": "address"
        },
        {
          "internalType": "address",
          "name": "operator",
          "type": "address"
        }
      ],
      "name": "isApprovedForAll",
      "outputs": [
        {
          "internalType": "bool",
          "name": "",
          "type": "bool"
        }
      ],
      "stateMutability": "view",
      "type": "function"
    },
    {
      "inputs": [],
      "name": "mintFux",
      "outputs": [],
      "stateMutability": "nonpayable",
      "type": "function"
    },
    {
      "inputs": [
        {
          "internalType": "uint256",
          "name": "workstreamID",
          "type": "uint256"
        }
      ],
      "name": "mintVFux",
      "outputs": [],
      "stateMutability": "nonpayable",
      "type": "function"
    },
    {
      "inputs": [
        {
          "internalType": "string",
          "name": "name",
          "type": "string"
        },
        {
          "internalType": "address[]",
          "name": "contributors",
          "type": "address[]"
        },
        {
          "internalType": "uint256",
          "name": "deadline",
          "type": "uint256"
        }
      ],
      "name": "mintWorkstream",
      "outputs": [],
      "stateMutability": "nonpayable",
      "type": "function"
    },
    {
      "inputs": [
        {
          "internalType": "address",
          "name": "_operator",
          "type": "address"
        },
        {
          "internalType": "address",
          "name": "_from",
          "type": "address"
        },
        {
          "internalType": "uint256[]",
          "name": "_ids",
          "type": "uint256[]"
        },
        {
          "internalType": "uint256[]",
          "name": "_values",
          "type": "uint256[]"
        },
        {
          "internalType": "bytes",
          "name": "_data",
          "type": "bytes"
        }
      ],
      "name": "onERC1155BatchReceived",
      "outputs": [
        {
          "internalType": "bytes4",
          "name": "",
          "type": "bytes4"
        }
      ],
      "stateMutability": "pure",
      "type": "function"
    },
    {
      "inputs": [
        {
          "internalType": "address",
          "name": "_operator",
          "type": "address"
        },
        {
          "internalType": "address",
          "name": "_from",
          "type": "address"
        },
        {
          "internalType": "uint256",
          "name": "_id",
          "type": "uint256"
        },
        {
          "internalType": "uint256",
          "name": "_value",
          "type": "uint256"
        },
        {
          "internalType": "bytes",
          "name": "_data",
          "type": "bytes"
        }
      ],
      "name": "onERC1155Received",
      "outputs": [
        {
          "internalType": "bytes4",
          "name": "",
          "type": "bytes4"
        }
      ],
      "stateMutability": "pure",
      "type": "function"
    },
    {
      "inputs": [
        {
          "internalType": "bytes32",
          "name": "role",
          "type": "bytes32"
        },
        {
          "internalType": "address",
          "name": "account",
          "type": "address"
        }
      ],
      "name": "renounceRole",
      "outputs": [],
      "stateMutability": "nonpayable",
      "type": "function"
    },
    {
      "inputs": [
        {
          "internalType": "bytes32",
          "name": "role",
          "type": "bytes32"
        },
        {
          "internalType": "address",
          "name": "account",
          "type": "address"
        }
      ],
      "name": "revokeRole",
      "outputs": [],
      "stateMutability": "nonpayable",
      "type": "function"
    },
    {
      "inputs": [
        {
          "internalType": "address",
          "name": "from",
          "type": "address"
        },
        {
          "internalType": "address",
          "name": "to",
          "type": "address"
        },
        {
          "internalType": "uint256[]",
          "name": "ids",
          "type": "uint256[]"
        },
        {
          "internalType": "uint256[]",
          "name": "amounts",
          "type": "uint256[]"
        },
        {
          "internalType": "bytes",
          "name": "data",
          "type": "bytes"
        }
      ],
      "name": "safeBatchTransferFrom",
      "outputs": [],
      "stateMutability": "nonpayable",
      "type": "function"
    },
    {
      "inputs": [
        {
          "internalType": "address",
          "name": "from",
          "type": "address"
        },
        {
          "internalType": "address",
          "name": "to",
          "type": "address"
        },
        {
          "internalType": "uint256",
          "name": "id",
          "type": "uint256"
        },
        {
          "internalType": "uint256",
          "name": "amount",
          "type": "uint256"
        },
        {
          "internalType": "bytes",
          "name": "data",
          "type": "bytes"
        }
      ],
      "name": "safeTransferFrom",
      "outputs": [],
      "stateMutability": "nonpayable",
      "type": "function"
    },
    {
      "inputs": [
        {
          "internalType": "address",
          "name": "operator",
          "type": "address"
        },
        {
          "internalType": "bool",
          "name": "approved",
          "type": "bool"
        }
      ],
      "name": "setApprovalForAll",
      "outputs": [],
      "stateMutability": "nonpayable",
      "type": "function"
    },
    {
      "inputs": [
        {
          "internalType": "string",
          "name": "newuri",
          "type": "string"
        }
      ],
      "name": "setURI",
      "outputs": [],
      "stateMutability": "nonpayable",
      "type": "function"
    },
    {
      "inputs": [
        {
          "internalType": "uint256",
          "name": "workstreamID",
          "type": "uint256"
        },
        {
          "internalType": "address[]",
          "name": "contributors",
          "type": "address[]"
        },
        {
          "internalType": "uint8[]",
          "name": "vFuxGiven",
          "type": "uint8[]"
        }
      ],
      "name": "submitValueEvaluation",
      "outputs": [],
      "stateMutability": "nonpayable",
      "type": "function"
    },
    {
      "inputs": [
        {
          "internalType": "bytes4",
          "name": "interfaceId",
          "type": "bytes4"
        }
      ],
      "name": "supportsInterface",
      "outputs": [
        {
          "internalType": "bool",
          "name": "",
          "type": "bool"
        }
      ],
      "stateMutability": "view",
      "type": "function"
    },
    {
      "inputs": [
        {
          "internalType": "uint256",
          "name": "id",
          "type": "uint256"
        }
      ],
      "name": "totalSupply",
      "outputs": [
        {
          "internalType": "uint256",
          "name": "",
          "type": "uint256"
        }
      ],
      "stateMutability": "view",
      "type": "function"
    },
    {
      "inputs": [
        {
          "internalType": "uint256",
          "name": "tokenId",
          "type": "uint256"
        }
      ],
      "name": "uri",
      "outputs": [
        {
          "internalType": "string",
          "name": "",
          "type": "string"
        }
      ],
      "stateMutability": "view",
      "type": "function"
    },
    {
      "inputs": [
        {
          "internalType": "uint256",
          "name": "workstreamID",
          "type": "uint256"
        }
      ],
      "name": "withdrawFromWorkstream",
      "outputs": [],
      "stateMutability": "nonpayable",
      "type": "function"
    }
  ],
  "transactionHash": "0xcb64b10a7009e78193a1750c59c0e73439ab1d303ea53f17d588fb77eb49371c",
  "args": [],
  "numDeployments": 1,
  "solcInputHash": "3ae2bd7386e007bd0c961e957cf3eef8",
  "bytecode": "0x60a06040819052600060808190526200001b9160049162000172565b5060006007553480156200002e57600080fd5b506040805160208101909152600081526200004981620000b5565b5062000057600033620000ce565b620000837f7804d923f43a17d325d77e781528e0793b2edd9890ab45fc64efd7b4b427744c33620000ce565b620000af7f9f2df0fed2c77648de5860a4cc508cd0818c85b8b8a1ab4ceeef8d981c8956a633620000ce565b62000254565b8051620000ca90600290602084019062000172565b5050565b60008281526006602090815260408083206001600160a01b038516845290915290205460ff16620000ca5760008281526006602090815260408083206001600160a01b03851684529091529020805460ff191660011790556200012e3390565b6001600160a01b0316816001600160a01b0316837f2f8788117e7eff1d82e926ec794901d17c78024a50270940304540a733656f0d60405160405180910390a45050565b828054620001809062000218565b90600052602060002090601f016020900481019282620001a45760008555620001ef565b82601f10620001bf57805160ff1916838001178555620001ef565b82800160010185558215620001ef579182015b82811115620001ef578251825591602001919060010190620001d2565b50620001fd92915062000201565b5090565b5b80821115620001fd576000815560010162000202565b600181811c908216806200022d57607f821691505b6020821081036200024e57634e487b7160e01b600052602260045260246000fd5b50919050565b61358880620002646000396000f3fe608060405234801561001057600080fd5b50600436106102255760003560e01c8063bc197c811161012a578063d7cec155116100bd578063e985e9c51161008c578063f23a6e6111610071578063f23a6e6114610592578063f242432a146105b2578063f385facc146105c557600080fd5b8063e985e9c514610536578063ebbc504b1461057257600080fd5b8063d7cec155146104ea578063e1a80776146104fd578063e3ca595514610510578063e70545191461052357600080fd5b8063d5391393116100f9578063d53913931461047d578063d547741f146104a4578063d59a0ed3146104b7578063d6b0fd2a146104ca57600080fd5b8063bc197c81146103ef578063bd85b0391461042a578063cb5023a41461044a578063d422831f146103d457600080fd5b806336568abe116101bd5780637f3457101161018c57806391d148541161017157806391d148541461039b578063a217fddf146103d4578063a22cb465146103dc57600080fd5b80637f3457101461036c5780638e8e18ad1461039357600080fd5b806336568abe1461031157806342f6a961146103245780634e1273f4146103375780634f558e791461034a57600080fd5b80630e89341c116101f95780630e89341c146102a8578063248a9ca3146102c85780632eb2c2d6146102eb5780632f2ff15d146102fe57600080fd5b8062fdd58e1461022a57806301ffc9a71461025057806302fe5305146102735780630ab0835814610288575b600080fd5b61023d61023836600461279d565b6105cd565b6040519081526020015b60405180910390f35b61026361025e3660046127dd565b610676565b6040519015158152602001610247565b6102866102813660046128b1565b610687565b005b61029b6102963660046128ee565b6106be565b6040516102479190612944565b6102bb6102b6366004612957565b61072a565b60405161024791906129c8565b61023d6102d6366004612957565b60009081526006602052604090206001015490565b6102866102f9366004612a70565b610735565b61028661030c366004612b1a565b6107c9565b61028661031f366004612b1a565b6107f3565b610286610332366004612b92565b61087b565b61029b610345366004612c4b565b610a33565b610263610358366004612957565b600090815260036020526040902054151590565b61023d7f7804d923f43a17d325d77e781528e0793b2edd9890ab45fc64efd7b4b427744c81565b61023d600181565b6102636103a9366004612b1a565b60009182526006602090815260408084206001600160a01b0393909316845291905290205460ff1690565b61023d600081565b6102866103ea366004612caf565b610b71565b6104116103fd366004612d2d565b63bc197c8160e01b98975050505050505050565b6040516001600160e01b03199091168152602001610247565b61023d610438366004612957565b60009081526003602052604090205490565b61023d610458366004612b1a565b6001600160a01b03166000908152600a60209081526040808320938352929052205490565b61023d7f9f2df0fed2c77648de5860a4cc508cd0818c85b8b8a1ab4ceeef8d981c8956a681565b6102866104b2366004612b1a565b610b7c565b6102866104c5366004612de8565b610ba1565b6104dd6104d8366004612957565b610d92565b6040516102479190612e91565b6102866104f8366004612957565b610f0b565b61028661050b366004612f00565b610fa9565b61028661051e366004612957565b6110be565b610286610531366004612fde565b611194565b610263610544366004613000565b6001600160a01b03918216600090815260016020908152604080832093909416825291909152205460ff1690565b610585610580366004612957565b611223565b604051610247919061302a565b6104116105a036600461308a565b63f23a6e6160e01b9695505050505050565b6102866105c0366004613102565b611329565b6102866113b6565b60006001600160a01b0383166106505760405162461bcd60e51b815260206004820152602a60248201527f455243313135353a2061646472657373207a65726f206973206e6f742061207660448201527f616c6964206f776e65720000000000000000000000000000000000000000000060648201526084015b60405180910390fd5b506000908152602081815260408083206001600160a01b03949094168352929052205490565b600061068182611460565b92915050565b7f7804d923f43a17d325d77e781528e0793b2edd9890ab45fc64efd7b4b427744c6106b181611485565b6106ba82611492565b5050565b6001600160a01b03811660009081526009602090815260409182902080548351818402810184019094528084526060939283018282801561071e57602002820191906000526020600020905b81548152602001906001019080831161070a575b50505050509050919050565b6060610681826114a5565b6001600160a01b03851633148061075157506107518533610544565b6107b55760405162461bcd60e51b815260206004820152602f60248201527f455243313135353a2063616c6c6572206973206e6f7420746f6b656e206f776e60448201526e195c881b9bdc88185c1c1c9bdd9959608a1b6064820152608401610647565b6107c28585858585611585565b5050505050565b6000828152600660205260409020600101546107e481611485565b6107ee83836117fe565b505050565b6001600160a01b03811633146108715760405162461bcd60e51b815260206004820152602f60248201527f416363657373436f6e74726f6c3a2063616e206f6e6c792072656e6f756e636560448201527f20726f6c657320666f722073656c6600000000000000000000000000000000006064820152608401610647565b6106ba82826118a0565b60008381526008602052604090206004015460ff166108dc5760405162461bcd60e51b815260206004820152601a60248201527f576f726b73747265616d20646f6573206e6f74206578697374730000000000006044820152606401610647565b6000838152600860205260409020600101546001600160a01b031633146109455760405162461bcd60e51b815260206004820152601d60248201527f6d73672e73656e646572206973206e6f74207468652063726561746f720000006044820152606401610647565b8060005b818110156109f157600084848381811061096557610965613167565b905060200201602081019061097a91906128ee565b6001600160a01b03166000818152600960209081526040808320805460018181018355918552838520018b90558a845260088352908320600201805491820181558352912001805473ffffffffffffffffffffffffffffffffffffffff1916909117905550806109e981613193565b915050610949565b507f53f304d7ddc99bcc4695bc068800ce525ea67661c7f16ad157fee5a1ed6f6b3c848484604051610a25939291906131ac565b60405180910390a150505050565b60608151835114610aac5760405162461bcd60e51b815260206004820152602960248201527f455243313135353a206163636f756e747320616e6420696473206c656e67746860448201527f206d69736d6174636800000000000000000000000000000000000000000000006064820152608401610647565b6000835167ffffffffffffffff811115610ac857610ac86127fa565b604051908082528060200260200182016040528015610af1578160200160208202803683370190505b50905060005b8451811015610b6957610b3c858281518110610b1557610b15613167565b6020026020010151858381518110610b2f57610b2f613167565b60200260200101516105cd565b828281518110610b4e57610b4e613167565b6020908102919091010152610b6281613193565b9050610af7565b509392505050565b6106ba338383611923565b600082815260066020526040902060010154610b9781611485565b6107ee83836118a0565b610bdf6040518060400160405280601281526020017f4d494e54494e4720574f524b53545245414d0000000000000000000000000000815250611a17565b81610c2c5760405162461bcd60e51b815260206004820152601560248201527f4e6f20636f6e7472696275746f7273206b6e6f776e00000000000000000000006044820152606401610647565b6007546040805160a08101825260608183018181526000608084018181528a85523360208087019190915293850188905285518281528085018752909252600190915284815260088252929092208151805192938493610c8f92849201906125e9565b5060208281015160018301805473ffffffffffffffffffffffffffffffffffffffff19166001600160a01b0390921691909117905560408301518051610cdb926002850192019061266d565b50606082015160038201556080909101516004909101805460ff1916911515919091179055610d0b82868661087b565b7f03205b47e8ac382aa7ca86d69396c8ee19bfc417452392942760a14a3e9c963182604051610d719181526040602082018190526012908201527f687474703a2f2f6578616d706c652e636f6d0000000000000000000000000000606082015260800190565b60405180910390a1600754610d87906001613202565b600755505050505050565b610dcf6040518060a001604052806060815260200160006001600160a01b0316815260200160608152602001600081526020016000151581525090565b60008281526008602052604090819020815160a08101909252805482908290610df79061321a565b80601f0160208091040260200160405190810160405280929190818152602001828054610e239061321a565b8015610e705780601f10610e4557610100808354040283529160200191610e70565b820191906000526020600020905b815481529060010190602001808311610e5357829003601f168201915b505050918352505060018201546001600160a01b03166020808301919091526002830180546040805182850281018501825282815294019392830182828015610ee257602002820191906000526020600020905b81546001600160a01b03168152600190910190602001808311610ec4575b50505091835250506003820154602082015260049091015460ff16151560409091015292915050565b336000908152600a6020908152604080832084845290915290205480610f735760405162461bcd60e51b815260206004820152601160248201527f4e6f20465558207765726520676976656e0000000000000000000000000000006044820152606401610647565b336000818152600a602090815260408083208684528252808320839055805191820190528181526106ba92309290918590611a6f565b6000825111610ffa5760405162461bcd60e51b815260206004820152601460248201527f4e6f2d6f6e6520776173206576616c75617465640000000000000000000000006044820152606401610647565b805182511461104b5760405162461bcd60e51b815260206004820152601a60248201527f4e6f742065766572796f6e6520776173206576616c75617465640000000000006044820152606401610647565b61105482611c28565b61105e8184611c7e565b6040805180820182528381526020808201849052336000908152600b8252838120878252825292909220815180519293919261109d928492019061266d565b5060208281015180516110b692600185019201906126cf565b505050505050565b336000908152600c60209081526040808320848452909152902054156111265760405162461bcd60e51b815260206004820152601860248201527f416c726561647920676f7420796f75722076465558206f6e00000000000000006044820152606401610647565b611143336001606460405180602001604052806000815250611cf5565b336000818152600c6020908152604080832092859052918152815192835282018390527f7b013762bcc4a01787a4815463c2c29ee415e5348c5b65ee468c3c03a76f60eb910160405180910390a150565b806111a03360006105cd565b10156111ee5760405162461bcd60e51b815260206004820152601660248201527f4e6f7420656e6f7567682046555820746f2067697665000000000000000000006044820152606401610647565b336000818152600a602090815260408083208684528252808320859055805191820190528181526106ba929130918590611a6f565b60408051808201825260608082526020808301829052336000908152600b82528481208682528252849020845181549283028101840186529485018281529394939092849284918401828280156112a357602002820191906000526020600020905b81546001600160a01b03168152600190910190602001808311611285575b505050505081526020016001820180548060200260200160405190810160405280929190818152602001828054801561131957602002820191906000526020600020906000905b825461010083900a900460ff168152602060019283018181049485019490930390920291018084116112ea5790505b5050505050815250509050919050565b6001600160a01b03851633148061134557506113458533610544565b6113a95760405162461bcd60e51b815260206004820152602f60248201527f455243313135353a2063616c6c6572206973206e6f7420746f6b656e206f776e60448201526e195c881b9bdc88185c1c1c9bdd9959608a1b6064820152608401610647565b6107c28585858585611a6f565b6113c13360006105cd565b1561140e5760405162461bcd60e51b815260206004820152601760248201527f416c726561647920676f7420796f757220465558206f6e0000000000000000006044820152606401610647565b61142b336000606460405180602001604052806000815250611cf5565b6040513381527f5184a1d5e0b0bcb8ee2c912752a2301033333eba83e58729ac34b470353164539060200160405180910390a1565b60006001600160e01b03198216637965db0b60e01b1480610681575061068182611e18565b61148f8133611e3d565b50565b80516106ba9060029060208401906125e9565b6000818152600560205260408120805460609291906114c39061321a565b80601f01602080910402602001604051908101604052809291908181526020018280546114ef9061321a565b801561153c5780601f106115115761010080835404028352916020019161153c565b820191906000526020600020905b81548152906001019060200180831161151f57829003601f168201915b50505050509050600081511161155a5761155583611ebd565b61157e565b60048160405160200161156e929190613270565b6040516020818303038152906040525b9392505050565b81518351146115fc5760405162461bcd60e51b815260206004820152602860248201527f455243313135353a2069647320616e6420616d6f756e7473206c656e6774682060448201527f6d69736d617463680000000000000000000000000000000000000000000000006064820152608401610647565b6001600160a01b0384166116605760405162461bcd60e51b815260206004820152602560248201527f455243313135353a207472616e7366657220746f20746865207a65726f206164604482015264647265737360d81b6064820152608401610647565b3361166f818787878787611f47565b60005b845181101561179857600085828151811061168f5761168f613167565b6020026020010151905060008583815181106116ad576116ad613167565b602090810291909101810151600084815280835260408082206001600160a01b038e1683529093529190912054909150818110156117405760405162461bcd60e51b815260206004820152602a60248201527f455243313135353a20696e73756666696369656e742062616c616e636520666f60448201526939103a3930b739b332b960b11b6064820152608401610647565b6000838152602081815260408083206001600160a01b038e8116855292528083208585039055908b1682528120805484929061177d908490613202565b925050819055505050508061179190613193565b9050611672565b50846001600160a01b0316866001600160a01b0316826001600160a01b03167f4a39dc06d4c0dbc64b70af90fd698a233a518aa5d07e595d983b8c0526c8f7fb87876040516117e8929190613316565b60405180910390a46110b6818787878787611f55565b60008281526006602090815260408083206001600160a01b038516845290915290205460ff166106ba5760008281526006602090815260408083206001600160a01b03851684529091529020805460ff1916600117905561185c3390565b6001600160a01b0316816001600160a01b0316837f2f8788117e7eff1d82e926ec794901d17c78024a50270940304540a733656f0d60405160405180910390a45050565b60008281526006602090815260408083206001600160a01b038516845290915290205460ff16156106ba5760008281526006602090815260408083206001600160a01b0385168085529252808320805460ff1916905551339285917ff6391f5c32d9c69d2a47ea670b442974b53935d1edc7fd64eb21e047a839171b9190a45050565b816001600160a01b0316836001600160a01b0316036119aa5760405162461bcd60e51b815260206004820152602960248201527f455243313135353a2073657474696e6720617070726f76616c2073746174757360448201527f20666f722073656c6600000000000000000000000000000000000000000000006064820152608401610647565b6001600160a01b03838116600081815260016020908152604080832094871680845294825291829020805460ff191686151590811790915591519182527f17307eab39ab6107e8899845ad3d59bd9653f200f220920489ca2b5937696c31910160405180910390a3505050565b61148f81604051602401611a2b91906129c8565b60408051601f198184030181529190526020810180517bffffffffffffffffffffffffffffffffffffffffffffffffffffffff1663104c13eb60e21b1790526120fa565b6001600160a01b038416611ad35760405162461bcd60e51b815260206004820152602560248201527f455243313135353a207472616e7366657220746f20746865207a65726f206164604482015264647265737360d81b6064820152608401610647565b336000611adf8561211b565b90506000611aec8561211b565b9050611afc838989858589611f47565b6000868152602081815260408083206001600160a01b038c16845290915290205485811015611b805760405162461bcd60e51b815260206004820152602a60248201527f455243313135353a20696e73756666696369656e742062616c616e636520666f60448201526939103a3930b739b332b960b11b6064820152608401610647565b6000878152602081815260408083206001600160a01b038d8116855292528083208985039055908a16825281208054889290611bbd908490613202565b909155505060408051888152602081018890526001600160a01b03808b16928c821692918816917fc3d58168c5ae7397731d063d5bbf3d657854427343f4c083240f7aacaa2d0f62910160405180910390a4611c1d848a8a8a8a8a612166565b505050505050505050565b805160005b818110156107ee57336001600160a01b0316838281518110611c5157611c51613167565b60200260200101516001600160a01b031603611c6c57600080fd5b80611c7681613193565b915050611c2d565b81516000805b82811015611cc557848181518110611c9e57611c9e613167565b602002602001015182611cb1919061333b565b915080611cbd81613193565b915050611c84565b50336000908152600c6020908152604080832086845290915290205460ff821614611cef57600080fd5b50505050565b6001600160a01b038416611d555760405162461bcd60e51b815260206004820152602160248201527f455243313135353a206d696e7420746f20746865207a65726f206164647265736044820152607360f81b6064820152608401610647565b336000611d618561211b565b90506000611d6e8561211b565b9050611d7f83600089858589611f47565b6000868152602081815260408083206001600160a01b038b16845290915281208054879290611daf908490613202565b909155505060408051878152602081018790526001600160a01b03808a1692600092918716917fc3d58168c5ae7397731d063d5bbf3d657854427343f4c083240f7aacaa2d0f62910160405180910390a4611e0f83600089898989612166565b50505050505050565b60006001600160e01b03198216630271189760e51b1480610681575061068182612262565b60008281526006602090815260408083206001600160a01b038516845290915290205460ff166106ba57611e7b816001600160a01b031660146122b2565b611e868360206122b2565b604051602001611e97929190613360565b60408051601f198184030181529082905262461bcd60e51b8252610647916004016129c8565b606060028054611ecc9061321a565b80601f0160208091040260200160405190810160405280929190818152602001828054611ef89061321a565b801561071e5780601f10611f1a5761010080835404028352916020019161071e565b820191906000526020600020905b815481529060010190602001808311611f285750939695505050505050565b6110b686868686868661245b565b6001600160a01b0384163b156110b65760405163bc197c8160e01b81526001600160a01b0385169063bc197c8190611f9990899089908890889088906004016133e1565b6020604051808303816000875af1925050508015611fd4575060408051601f3d908101601f19168201909252611fd19181019061343f565b60015b61208957611fe061345c565b806308c379a0036120195750611ff4613478565b80611fff575061201b565b8060405162461bcd60e51b815260040161064791906129c8565b505b60405162461bcd60e51b815260206004820152603460248201527f455243313135353a207472616e7366657220746f206e6f6e204552433131353560448201527f526563656976657220696d706c656d656e7465720000000000000000000000006064820152608401610647565b6001600160e01b0319811663bc197c8160e01b14611e0f5760405162461bcd60e51b815260206004820152602860248201527f455243313135353a204552433131353552656365697665722072656a656374656044820152676420746f6b656e7360c01b6064820152608401610647565b80516a636f6e736f6c652e6c6f67602083016000808483855afa5050505050565b6040805160018082528183019092526060916000919060208083019080368337019050509050828160008151811061215557612155613167565b602090810291909101015292915050565b6001600160a01b0384163b156110b65760405163f23a6e6160e01b81526001600160a01b0385169063f23a6e61906121aa9089908990889088908890600401613502565b6020604051808303816000875af19250505080156121e5575060408051601f3d908101601f191682019092526121e29181019061343f565b60015b6121f157611fe061345c565b6001600160e01b0319811663f23a6e6160e01b14611e0f5760405162461bcd60e51b815260206004820152602860248201527f455243313135353a204552433131353552656365697665722072656a656374656044820152676420746f6b656e7360c01b6064820152608401610647565b60006001600160e01b03198216636cdb3d1360e11b148061229357506001600160e01b031982166303a24d0760e21b145b8061068157506301ffc9a760e01b6001600160e01b0319831614610681565b606060006122c1836002613545565b6122cc906002613202565b67ffffffffffffffff8111156122e4576122e46127fa565b6040519080825280601f01601f19166020018201604052801561230e576020820181803683370190505b509050600360fc1b8160008151811061232957612329613167565b60200101906001600160f81b031916908160001a905350600f60fb1b8160018151811061235857612358613167565b60200101906001600160f81b031916908160001a905350600061237c846002613545565b612387906001613202565b90505b600181111561240c577f303132333435363738396162636465660000000000000000000000000000000085600f16601081106123c8576123c8613167565b1a60f81b8282815181106123de576123de613167565b60200101906001600160f81b031916908160001a90535060049490941c9361240581613564565b905061238a565b50831561157e5760405162461bcd60e51b815260206004820181905260248201527f537472696e67733a20686578206c656e67746820696e73756666696369656e746044820152606401610647565b6001600160a01b0385166124e25760005b83518110156124e05782818151811061248757612487613167565b6020026020010151600360008684815181106124a5576124a5613167565b6020026020010151815260200190815260200160002060008282546124ca9190613202565b909155506124d9905081613193565b905061246c565b505b6001600160a01b0384166110b65760005b8351811015611e0f57600084828151811061251057612510613167565b60200260200101519050600084838151811061252e5761252e613167565b60200260200101519050600060036000848152602001908152602001600020549050818110156125c65760405162461bcd60e51b815260206004820152602860248201527f455243313135353a206275726e20616d6f756e74206578636565647320746f7460448201527f616c537570706c790000000000000000000000000000000000000000000000006064820152608401610647565b600092835260036020526040909220910390556125e281613193565b90506124f3565b8280546125f59061321a565b90600052602060002090601f016020900481019282612617576000855561265d565b82601f1061263057805160ff191683800117855561265d565b8280016001018555821561265d579182015b8281111561265d578251825591602001919060010190612642565b5061266992915061276c565b5090565b82805482825590600052602060002090810192821561265d579160200282015b8281111561265d578251825473ffffffffffffffffffffffffffffffffffffffff19166001600160a01b0390911617825560209092019160019091019061268d565b82805482825590600052602060002090601f0160209004810192821561265d5791602002820160005b8382111561273657835183826101000a81548160ff021916908360ff16021790555092602001926001016020816000010492830192600103026126f8565b80156127635782816101000a81549060ff0219169055600101602081600001049283019260010302612736565b50506126699291505b5b80821115612669576000815560010161276d565b80356001600160a01b038116811461279857600080fd5b919050565b600080604083850312156127b057600080fd5b6127b983612781565b946020939093013593505050565b6001600160e01b03198116811461148f57600080fd5b6000602082840312156127ef57600080fd5b813561157e816127c7565b634e487b7160e01b600052604160045260246000fd5b601f8201601f1916810167ffffffffffffffff81118282101715612836576128366127fa565b6040525050565b600082601f83011261284e57600080fd5b813567ffffffffffffffff811115612868576128686127fa565b60405161287f601f8301601f191660200182612810565b81815284602083860101111561289457600080fd5b816020850160208301376000918101602001919091529392505050565b6000602082840312156128c357600080fd5b813567ffffffffffffffff8111156128da57600080fd5b6128e68482850161283d565b949350505050565b60006020828403121561290057600080fd5b61157e82612781565b600081518084526020808501945080840160005b838110156129395781518752958201959082019060010161291d565b509495945050505050565b60208152600061157e6020830184612909565b60006020828403121561296957600080fd5b5035919050565b60005b8381101561298b578181015183820152602001612973565b83811115611cef5750506000910152565b600081518084526129b4816020860160208601612970565b601f01601f19169290920160200192915050565b60208152600061157e602083018461299c565b600067ffffffffffffffff8211156129f5576129f56127fa565b5060051b60200190565b600082601f830112612a1057600080fd5b81356020612a1d826129db565b604051612a2a8282612810565b83815260059390931b8501820192828101915086841115612a4a57600080fd5b8286015b84811015612a655780358352918301918301612a4e565b509695505050505050565b600080600080600060a08688031215612a8857600080fd5b612a9186612781565b9450612a9f60208701612781565b9350604086013567ffffffffffffffff80821115612abc57600080fd5b612ac889838a016129ff565b94506060880135915080821115612ade57600080fd5b612aea89838a016129ff565b93506080880135915080821115612b0057600080fd5b50612b0d8882890161283d565b9150509295509295909350565b60008060408385031215612b2d57600080fd5b82359150612b3d60208401612781565b90509250929050565b60008083601f840112612b5857600080fd5b50813567ffffffffffffffff811115612b7057600080fd5b6020830191508360208260051b8501011115612b8b57600080fd5b9250929050565b600080600060408486031215612ba757600080fd5b83359250602084013567ffffffffffffffff811115612bc557600080fd5b612bd186828701612b46565b9497909650939450505050565b600082601f830112612bef57600080fd5b81356020612bfc826129db565b604051612c098282612810565b83815260059390931b8501820192828101915086841115612c2957600080fd5b8286015b84811015612a6557612c3e81612781565b8352918301918301612c2d565b60008060408385031215612c5e57600080fd5b823567ffffffffffffffff80821115612c7657600080fd5b612c8286838701612bde565b93506020850135915080821115612c9857600080fd5b50612ca5858286016129ff565b9150509250929050565b60008060408385031215612cc257600080fd5b612ccb83612781565b915060208301358015158114612ce057600080fd5b809150509250929050565b60008083601f840112612cfd57600080fd5b50813567ffffffffffffffff811115612d1557600080fd5b602083019150836020828501011115612b8b57600080fd5b60008060008060008060008060a0898b031215612d4957600080fd5b612d5289612781565b9750612d6060208a01612781565b9650604089013567ffffffffffffffff80821115612d7d57600080fd5b612d898c838d01612b46565b909850965060608b0135915080821115612da257600080fd5b612dae8c838d01612b46565b909650945060808b0135915080821115612dc757600080fd5b50612dd48b828c01612ceb565b999c989b5096995094979396929594505050565b60008060008060608587031215612dfe57600080fd5b843567ffffffffffffffff80821115612e1657600080fd5b612e228883890161283d565b95506020870135915080821115612e3857600080fd5b50612e4587828801612b46565b9598909750949560400135949350505050565b600081518084526020808501945080840160005b838110156129395781516001600160a01b031687529582019590820190600101612e6c565b602081526000825160a06020840152612ead60c084018261299c565b90506001600160a01b0360208501511660408401526040840151601f19848303016060850152612edd8282612e58565b915050606084015160808401526080840151151560a08401528091505092915050565b600080600060608486031215612f1557600080fd5b8335925060208085013567ffffffffffffffff80821115612f3557600080fd5b612f4188838901612bde565b94506040870135915080821115612f5757600080fd5b508501601f81018713612f6957600080fd5b8035612f74816129db565b604051612f818282612810565b82815260059290921b8301840191848101915089831115612fa157600080fd5b928401925b82841015612fcf57833560ff81168114612fc05760008081fd5b82529284019290840190612fa6565b80955050505050509250925092565b60008060408385031215612ff157600080fd5b50508035926020909101359150565b6000806040838503121561301357600080fd5b61301c83612781565b9150612b3d60208401612781565b6000602080835283516040828501526130466060850182612e58565b85830151858203601f19016040870152805180835290840192506000918401905b80831015612a6557835160ff168252928401926001929092019190840190613067565b60008060008060008060a087890312156130a357600080fd5b6130ac87612781565b95506130ba60208801612781565b94506040870135935060608701359250608087013567ffffffffffffffff8111156130e457600080fd5b6130f089828a01612ceb565b979a9699509497509295939492505050565b600080600080600060a0868803121561311a57600080fd5b61312386612781565b945061313160208701612781565b93506040860135925060608601359150608086013567ffffffffffffffff81111561315b57600080fd5b612b0d8882890161283d565b634e487b7160e01b600052603260045260246000fd5b634e487b7160e01b600052601160045260246000fd5b6000600182016131a5576131a561317d565b5060010190565b83815260406020808301829052908201839052600090849060608401835b868110156131f6576001600160a01b036131e385612781565b16825292820192908201906001016131ca565b50979650505050505050565b600082198211156132155761321561317d565b500190565b600181811c9082168061322e57607f821691505b60208210810361324e57634e487b7160e01b600052602260045260246000fd5b50919050565b60008151613266818560208601612970565b9290920192915050565b600080845481600182811c91508083168061328c57607f831692505b602080841082036132ab57634e487b7160e01b86526022600452602486fd5b8180156132bf57600181146132d0576132fd565b60ff198616895284890196506132fd565b60008b81526020902060005b868110156132f55781548b8201529085019083016132dc565b505084890196505b50505050505061330d8185613254565b95945050505050565b6040815260006133296040830185612909565b828103602084015261330d8185612909565b600060ff821660ff84168060ff038211156133585761335861317d565b019392505050565b7f416363657373436f6e74726f6c3a206163636f756e7420000000000000000000815260008351613398816017850160208801612970565b7f206973206d697373696e6720726f6c652000000000000000000000000000000060179184019182015283516133d5816028840160208801612970565b01602801949350505050565b60006001600160a01b03808816835280871660208401525060a0604083015261340d60a0830186612909565b828103606084015261341f8186612909565b90508281036080840152613433818561299c565b98975050505050505050565b60006020828403121561345157600080fd5b815161157e816127c7565b600060033d11156134755760046000803e5060005160e01c5b90565b600060443d10156134865790565b6040516003193d81016004833e81513d67ffffffffffffffff81602484011181841117156134b657505050505090565b82850191508151818111156134ce5750505050505090565b843d87010160208285010111156134e85750505050505090565b6134f760208286010187612810565b509095945050505050565b60006001600160a01b03808816835280871660208401525084604083015283606083015260a0608083015261353a60a083018461299c565b979650505050505050565b600081600019048311821515161561355f5761355f61317d565b500290565b6000816135735761357361317d565b50600019019056fea164736f6c634300080d000a",
  "devdoc": {
    "kind": "dev",
    "methods": {
      "balanceOf(address,uint256)": {
        "details": "See {IERC1155-balanceOf}. Requirements: - `account` cannot be the zero address."
      },
      "balanceOfBatch(address[],uint256[])": {
        "details": "See {IERC1155-balanceOfBatch}. Requirements: - `accounts` and `ids` must have the same length."
      },
      "exists(uint256)": {
        "details": "Indicates whether any token exist with a given id, or not."
      },
      "getRoleAdmin(bytes32)": {
        "details": "Returns the admin role that controls `role`. See {grantRole} and {revokeRole}. To change a role's admin, use {_setRoleAdmin}."
      },
      "grantRole(bytes32,address)": {
        "details": "Grants `role` to `account`. If `account` had not been already granted `role`, emits a {RoleGranted} event. Requirements: - the caller must have ``role``'s admin role. May emit a {RoleGranted} event."
      },
      "hasRole(bytes32,address)": {
        "details": "Returns `true` if `account` has been granted `role`."
      },
      "isApprovedForAll(address,address)": {
        "details": "See {IERC1155-isApprovedForAll}."
      },
      "renounceRole(bytes32,address)": {
        "details": "Revokes `role` from the calling account. Roles are often managed via {grantRole} and {revokeRole}: this function's purpose is to provide a mechanism for accounts to lose their privileges if they are compromised (such as when a trusted device is misplaced). If the calling account had been revoked `role`, emits a {RoleRevoked} event. Requirements: - the caller must be `account`. May emit a {RoleRevoked} event."
      },
      "revokeRole(bytes32,address)": {
        "details": "Revokes `role` from `account`. If `account` had been granted `role`, emits a {RoleRevoked} event. Requirements: - the caller must have ``role``'s admin role. May emit a {RoleRevoked} event."
      },
      "safeBatchTransferFrom(address,address,uint256[],uint256[],bytes)": {
        "details": "See {IERC1155-safeBatchTransferFrom}."
      },
      "safeTransferFrom(address,address,uint256,uint256,bytes)": {
        "details": "See {IERC1155-safeTransferFrom}."
      },
      "setApprovalForAll(address,bool)": {
        "details": "See {IERC1155-setApprovalForAll}."
      },
      "totalSupply(uint256)": {
        "details": "Total amount of tokens in with a given id."
      }
    },
    "version": 1
  },
  "userdoc": {
    "kind": "user",
    "methods": {},
    "version": 1
  },
  "storageLayout": {
    "storage": [
      {
        "astId": 418,
        "contract": "contracts/FUX.sol:FUX",
        "label": "_balances",
        "offset": 0,
        "slot": "0",
        "type": "t_mapping(t_uint256,t_mapping(t_address,t_uint256))"
      },
      {
        "astId": 424,
        "contract": "contracts/FUX.sol:FUX",
        "label": "_operatorApprovals",
        "offset": 0,
        "slot": "1",
        "type": "t_mapping(t_address,t_mapping(t_address,t_bool))"
      },
      {
        "astId": 426,
        "contract": "contracts/FUX.sol:FUX",
        "label": "_uri",
        "offset": 0,
        "slot": "2",
        "type": "t_string_storage"
      },
      {
        "astId": 1788,
        "contract": "contracts/FUX.sol:FUX",
        "label": "_totalSupply",
        "offset": 0,
        "slot": "3",
        "type": "t_mapping(t_uint256,t_uint256)"
      },
      {
        "astId": 1948,
        "contract": "contracts/FUX.sol:FUX",
        "label": "_baseURI",
        "offset": 0,
        "slot": "4",
        "type": "t_string_storage"
      },
      {
        "astId": 1952,
        "contract": "contracts/FUX.sol:FUX",
        "label": "_tokenURIs",
        "offset": 0,
        "slot": "5",
        "type": "t_mapping(t_uint256,t_string_storage)"
      },
      {
        "astId": 24,
        "contract": "contracts/FUX.sol:FUX",
        "label": "_roles",
        "offset": 0,
        "slot": "6",
        "type": "t_mapping(t_bytes32,t_struct(RoleData)19_storage)"
      },
      {
        "astId": 2688,
        "contract": "contracts/FUX.sol:FUX",
        "label": "counter",
        "offset": 0,
        "slot": "7",
        "type": "t_uint256"
      },
      {
        "astId": 2749,
        "contract": "contracts/FUX.sol:FUX",
        "label": "workstreams",
        "offset": 0,
        "slot": "8",
        "type": "t_mapping(t_uint256,t_struct(Workstream)2737_storage)"
      },
      {
        "astId": 2754,
        "contract": "contracts/FUX.sol:FUX",
        "label": "contributorWorkstreams",
        "offset": 0,
        "slot": "9",
        "type": "t_mapping(t_address,t_array(t_uint256)dyn_storage)"
      },
      {
        "astId": 2760,
        "contract": "contracts/FUX.sol:FUX",
        "label": "contributorCommitments",
        "offset": 0,
        "slot": "10",
        "type": "t_mapping(t_address,t_mapping(t_uint256,t_uint256))"
      },
      {
        "astId": 2767,
        "contract": "contracts/FUX.sol:FUX",
        "label": "valueEvaluations",
        "offset": 0,
        "slot": "11",
        "type": "t_mapping(t_address,t_mapping(t_uint256,t_struct(Evaluation)2744_storage))"
      },
      {
        "astId": 2773,
        "contract": "contracts/FUX.sol:FUX",
        "label": "vFuxAvailable",
        "offset": 0,
        "slot": "12",
        "type": "t_mapping(t_address,t_mapping(t_uint256,t_uint256))"
      }
    ],
    "types": {
      "t_address": {
        "encoding": "inplace",
        "label": "address",
        "numberOfBytes": "20"
      },
      "t_array(t_address)dyn_storage": {
        "base": "t_address",
        "encoding": "dynamic_array",
        "label": "address[]",
        "numberOfBytes": "32"
      },
      "t_array(t_uint256)dyn_storage": {
        "base": "t_uint256",
        "encoding": "dynamic_array",
        "label": "uint256[]",
        "numberOfBytes": "32"
      },
      "t_array(t_uint8)dyn_storage": {
        "base": "t_uint8",
        "encoding": "dynamic_array",
        "label": "uint8[]",
        "numberOfBytes": "32"
      },
      "t_bool": {
        "encoding": "inplace",
        "label": "bool",
        "numberOfBytes": "1"
      },
      "t_bytes32": {
        "encoding": "inplace",
        "label": "bytes32",
        "numberOfBytes": "32"
      },
      "t_mapping(t_address,t_array(t_uint256)dyn_storage)": {
        "encoding": "mapping",
        "key": "t_address",
        "label": "mapping(address => uint256[])",
        "numberOfBytes": "32",
        "value": "t_array(t_uint256)dyn_storage"
      },
      "t_mapping(t_address,t_bool)": {
        "encoding": "mapping",
        "key": "t_address",
        "label": "mapping(address => bool)",
        "numberOfBytes": "32",
        "value": "t_bool"
      },
      "t_mapping(t_address,t_mapping(t_address,t_bool))": {
        "encoding": "mapping",
        "key": "t_address",
        "label": "mapping(address => mapping(address => bool))",
        "numberOfBytes": "32",
        "value": "t_mapping(t_address,t_bool)"
      },
      "t_mapping(t_address,t_mapping(t_uint256,t_struct(Evaluation)2744_storage))": {
        "encoding": "mapping",
        "key": "t_address",
        "label": "mapping(address => mapping(uint256 => struct FUX.Evaluation))",
        "numberOfBytes": "32",
        "value": "t_mapping(t_uint256,t_struct(Evaluation)2744_storage)"
      },
      "t_mapping(t_address,t_mapping(t_uint256,t_uint256))": {
        "encoding": "mapping",
        "key": "t_address",
        "label": "mapping(address => mapping(uint256 => uint256))",
        "numberOfBytes": "32",
        "value": "t_mapping(t_uint256,t_uint256)"
      },
      "t_mapping(t_address,t_uint256)": {
        "encoding": "mapping",
        "key": "t_address",
        "label": "mapping(address => uint256)",
        "numberOfBytes": "32",
        "value": "t_uint256"
      },
      "t_mapping(t_bytes32,t_struct(RoleData)19_storage)": {
        "encoding": "mapping",
        "key": "t_bytes32",
        "label": "mapping(bytes32 => struct AccessControl.RoleData)",
        "numberOfBytes": "32",
        "value": "t_struct(RoleData)19_storage"
      },
      "t_mapping(t_uint256,t_mapping(t_address,t_uint256))": {
        "encoding": "mapping",
        "key": "t_uint256",
        "label": "mapping(uint256 => mapping(address => uint256))",
        "numberOfBytes": "32",
        "value": "t_mapping(t_address,t_uint256)"
      },
      "t_mapping(t_uint256,t_string_storage)": {
        "encoding": "mapping",
        "key": "t_uint256",
        "label": "mapping(uint256 => string)",
        "numberOfBytes": "32",
        "value": "t_string_storage"
      },
      "t_mapping(t_uint256,t_struct(Evaluation)2744_storage)": {
        "encoding": "mapping",
        "key": "t_uint256",
        "label": "mapping(uint256 => struct FUX.Evaluation)",
        "numberOfBytes": "32",
        "value": "t_struct(Evaluation)2744_storage"
      },
      "t_mapping(t_uint256,t_struct(Workstream)2737_storage)": {
        "encoding": "mapping",
        "key": "t_uint256",
        "label": "mapping(uint256 => struct FUX.Workstream)",
        "numberOfBytes": "32",
        "value": "t_struct(Workstream)2737_storage"
      },
      "t_mapping(t_uint256,t_uint256)": {
        "encoding": "mapping",
        "key": "t_uint256",
        "label": "mapping(uint256 => uint256)",
        "numberOfBytes": "32",
        "value": "t_uint256"
      },
      "t_string_storage": {
        "encoding": "bytes",
        "label": "string",
        "numberOfBytes": "32"
      },
      "t_struct(Evaluation)2744_storage": {
        "encoding": "inplace",
        "label": "struct FUX.Evaluation",
        "members": [
          {
            "astId": 2740,
            "contract": "contracts/FUX.sol:FUX",
            "label": "contributors",
            "offset": 0,
            "slot": "0",
            "type": "t_array(t_address)dyn_storage"
          },
          {
            "astId": 2743,
            "contract": "contracts/FUX.sol:FUX",
            "label": "ratings",
            "offset": 0,
            "slot": "1",
            "type": "t_array(t_uint8)dyn_storage"
          }
        ],
        "numberOfBytes": "64"
      },
      "t_struct(RoleData)19_storage": {
        "encoding": "inplace",
        "label": "struct AccessControl.RoleData",
        "members": [
          {
            "astId": 16,
            "contract": "contracts/FUX.sol:FUX",
            "label": "members",
            "offset": 0,
            "slot": "0",
            "type": "t_mapping(t_address,t_bool)"
          },
          {
            "astId": 18,
            "contract": "contracts/FUX.sol:FUX",
            "label": "adminRole",
            "offset": 0,
            "slot": "1",
            "type": "t_bytes32"
          }
        ],
        "numberOfBytes": "64"
      },
      "t_struct(Workstream)2737_storage": {
        "encoding": "inplace",
        "label": "struct FUX.Workstream",
        "members": [
          {
            "astId": 2727,
            "contract": "contracts/FUX.sol:FUX",
            "label": "name",
            "offset": 0,
            "slot": "0",
            "type": "t_string_storage"
          },
          {
            "astId": 2729,
            "contract": "contracts/FUX.sol:FUX",
            "label": "creator",
            "offset": 0,
            "slot": "1",
            "type": "t_address"
          },
          {
            "astId": 2732,
            "contract": "contracts/FUX.sol:FUX",
            "label": "contributors",
            "offset": 0,
            "slot": "2",
            "type": "t_array(t_address)dyn_storage"
          },
          {
            "astId": 2734,
            "contract": "contracts/FUX.sol:FUX",
            "label": "deadline",
            "offset": 0,
            "slot": "3",
            "type": "t_uint256"
          },
          {
            "astId": 2736,
            "contract": "contracts/FUX.sol:FUX",
            "label": "exists",
            "offset": 0,
            "slot": "4",
            "type": "t_bool"
          }
        ],
        "numberOfBytes": "160"
      },
      "t_uint256": {
        "encoding": "inplace",
        "label": "uint256",
        "numberOfBytes": "32"
      },
      "t_uint8": {
        "encoding": "inplace",
        "label": "uint8",
        "numberOfBytes": "1"
      }
    }
  }
}