{
  "address": "0x8F9e2E1F2fd83B491224355CC2515A961d53dcaF",
  "abi": [
    {
      "inputs": [],
      "stateMutability": "nonpayable",
      "type": "constructor"
    },
    {
      "inputs": [
        {
          "internalType": "string",
          "name": "inputVar",
          "type": "string"
        }
      ],
      "name": "InvalidInput",
      "type": "error"
    },
    {
      "inputs": [],
      "name": "NonExistentWorkstream",
      "type": "error"
    },
    {
      "inputs": [],
      "name": "NonTransferableFux",
      "type": "error"
    },
    {
      "inputs": [],
      "name": "NotApprovedOrOwner",
      "type": "error"
    },
    {
      "inputs": [],
      "name": "NotContributor",
      "type": "error"
    },
    {
      "inputs": [],
      "name": "NotCoordinator",
      "type": "error"
    },
    {
      "inputs": [],
      "name": "NotEnoughFunds",
      "type": "error"
    },
    {
      "inputs": [],
      "name": "NotEnoughFux",
      "type": "error"
    },
    {
      "inputs": [],
      "name": "NotEnoughVFux",
      "type": "error"
    },
    {
      "inputs": [],
      "name": "TokensAlreadyMinted",
      "type": "error"
    },
    {
      "anonymous": false,
      "inputs": [
        {
          "indexed": false,
          "internalType": "address",
          "name": "previousAdmin",
          "type": "address"
        },
        {
          "indexed": false,
          "internalType": "address",
          "name": "newAdmin",
          "type": "address"
        }
      ],
      "name": "AdminChanged",
      "type": "event"
    },
    {
      "anonymous": false,
      "inputs": [
        {
          "indexed": true,
          "internalType": "address",
          "name": "account",
          "type": "address"
        },
        {
          "indexed": true,
          "internalType": "address",
          "name": "operator",
          "type": "address"
        },
        {
          "indexed": false,
          "internalType": "bool",
          "name": "approved",
          "type": "bool"
        }
      ],
      "name": "ApprovalForAll",
      "type": "event"
    },
    {
      "anonymous": false,
      "inputs": [
        {
          "indexed": true,
          "internalType": "address",
          "name": "beacon",
          "type": "address"
        }
      ],
      "name": "BeaconUpgraded",
      "type": "event"
    },
    {
      "anonymous": false,
      "inputs": [
        {
          "indexed": false,
          "internalType": "uint256",
          "name": "id",
          "type": "uint256"
        },
        {
          "indexed": false,
          "internalType": "address[]",
          "name": "contributors",
          "type": "address[]"
        }
      ],
      "name": "ContributorsAdded",
      "type": "event"
    },
    {
      "anonymous": false,
      "inputs": [
        {
          "indexed": false,
          "internalType": "uint256",
          "name": "workstreamID",
          "type": "uint256"
        },
        {
          "indexed": false,
          "internalType": "address",
          "name": "creator",
          "type": "address"
        },
        {
          "indexed": false,
          "internalType": "address[]",
          "name": "contributors",
          "type": "address[]"
        },
        {
          "indexed": false,
          "internalType": "uint256[]",
          "name": "ratings",
          "type": "uint256[]"
        }
      ],
      "name": "EvaluationSubmitted",
      "type": "event"
    },
    {
      "anonymous": false,
      "inputs": [
        {
          "indexed": false,
          "internalType": "address",
          "name": "user",
          "type": "address"
        }
      ],
      "name": "FuxClaimed",
      "type": "event"
    },
    {
      "anonymous": false,
      "inputs": [
        {
          "indexed": false,
          "internalType": "address",
          "name": "user",
          "type": "address"
        },
        {
          "indexed": false,
          "internalType": "uint256",
          "name": "workstreamId",
          "type": "uint256"
        },
        {
          "indexed": false,
          "internalType": "uint256",
          "name": "amount",
          "type": "uint256"
        }
      ],
      "name": "FuxGiven",
      "type": "event"
    },
    {
      "anonymous": false,
      "inputs": [
        {
          "indexed": false,
          "internalType": "address",
          "name": "user",
          "type": "address"
        },
        {
          "indexed": false,
          "internalType": "uint256",
          "name": "workstreamId",
          "type": "uint256"
        },
        {
          "indexed": false,
          "internalType": "uint256",
          "name": "amount",
          "type": "uint256"
        }
      ],
      "name": "FuxWithdraw",
      "type": "event"
    },
    {
      "anonymous": false,
      "inputs": [
        {
          "indexed": false,
          "internalType": "uint8",
          "name": "version",
          "type": "uint8"
        }
      ],
      "name": "Initialized",
      "type": "event"
    },
    {
      "anonymous": false,
      "inputs": [
        {
          "indexed": false,
          "internalType": "address",
          "name": "user",
          "type": "address"
        },
        {
          "indexed": false,
          "internalType": "uint256",
          "name": "amount",
          "type": "uint256"
        }
      ],
      "name": "RewardsClaimed",
      "type": "event"
    },
    {
      "anonymous": false,
      "inputs": [
        {
          "indexed": false,
          "internalType": "address",
          "name": "user",
          "type": "address"
        },
        {
          "indexed": false,
          "internalType": "uint256",
          "name": "amount",
          "type": "uint256"
        }
      ],
      "name": "RewardsReserved",
      "type": "event"
    },
    {
      "anonymous": false,
      "inputs": [
        {
          "indexed": true,
          "internalType": "bytes32",
          "name": "role",
          "type": "bytes32"
        },
        {
          "indexed": true,
          "internalType": "bytes32",
          "name": "previousAdminRole",
          "type": "bytes32"
        },
        {
          "indexed": true,
          "internalType": "bytes32",
          "name": "newAdminRole",
          "type": "bytes32"
        }
      ],
      "name": "RoleAdminChanged",
      "type": "event"
    },
    {
      "anonymous": false,
      "inputs": [
        {
          "indexed": true,
          "internalType": "bytes32",
          "name": "role",
          "type": "bytes32"
        },
        {
          "indexed": true,
          "internalType": "address",
          "name": "account",
          "type": "address"
        },
        {
          "indexed": true,
          "internalType": "address",
          "name": "sender",
          "type": "address"
        }
      ],
      "name": "RoleGranted",
      "type": "event"
    },
    {
      "anonymous": false,
      "inputs": [
        {
          "indexed": true,
          "internalType": "bytes32",
          "name": "role",
          "type": "bytes32"
        },
        {
          "indexed": true,
          "internalType": "address",
          "name": "account",
          "type": "address"
        },
        {
          "indexed": true,
          "internalType": "address",
          "name": "sender",
          "type": "address"
        }
      ],
      "name": "RoleRevoked",
      "type": "event"
    },
    {
      "anonymous": false,
      "inputs": [
        {
          "indexed": true,
          "internalType": "address",
          "name": "operator",
          "type": "address"
        },
        {
          "indexed": true,
          "internalType": "address",
          "name": "from",
          "type": "address"
        },
        {
          "indexed": true,
          "internalType": "address",
          "name": "to",
          "type": "address"
        },
        {
          "indexed": false,
          "internalType": "uint256[]",
          "name": "ids",
          "type": "uint256[]"
        },
        {
          "indexed": false,
          "internalType": "uint256[]",
          "name": "values",
          "type": "uint256[]"
        }
      ],
      "name": "TransferBatch",
      "type": "event"
    },
    {
      "anonymous": false,
      "inputs": [
        {
          "indexed": true,
          "internalType": "address",
          "name": "operator",
          "type": "address"
        },
        {
          "indexed": true,
          "internalType": "address",
          "name": "from",
          "type": "address"
        },
        {
          "indexed": true,
          "internalType": "address",
          "name": "to",
          "type": "address"
        },
        {
          "indexed": false,
          "internalType": "uint256",
          "name": "id",
          "type": "uint256"
        },
        {
          "indexed": false,
          "internalType": "uint256",
          "name": "value",
          "type": "uint256"
        }
      ],
      "name": "TransferSingle",
      "type": "event"
    },
    {
      "anonymous": false,
      "inputs": [
        {
          "indexed": false,
          "internalType": "string",
          "name": "value",
          "type": "string"
        },
        {
          "indexed": true,
          "internalType": "uint256",
          "name": "id",
          "type": "uint256"
        }
      ],
      "name": "URI",
      "type": "event"
    },
    {
      "anonymous": false,
      "inputs": [
        {
          "indexed": true,
          "internalType": "address",
          "name": "implementation",
          "type": "address"
        }
      ],
      "name": "Upgraded",
      "type": "event"
    },
    {
      "anonymous": false,
      "inputs": [
        {
          "indexed": false,
          "internalType": "address",
          "name": "user",
          "type": "address"
        },
        {
          "indexed": false,
          "internalType": "uint256",
          "name": "workstreamID",
          "type": "uint256"
        }
      ],
      "name": "VFuxClaimed",
      "type": "event"
    },
    {
      "anonymous": false,
      "inputs": [
        {
          "indexed": false,
          "internalType": "uint256",
          "name": "workstreamID",
          "type": "uint256"
        }
      ],
      "name": "WorkstreamClosed",
      "type": "event"
    },
    {
      "anonymous": false,
      "inputs": [
        {
          "indexed": false,
          "internalType": "uint256",
          "name": "id",
          "type": "uint256"
        },
        {
          "indexed": false,
          "internalType": "uint256",
          "name": "funds",
          "type": "uint256"
        },
        {
          "indexed": false,
          "internalType": "uint256",
          "name": "deadline",
          "type": "uint256"
        },
        {
          "indexed": false,
          "internalType": "string",
          "name": "metadataUri",
          "type": "string"
        }
      ],
      "name": "WorkstreamMinted",
      "type": "event"
    },
    {
      "inputs": [],
      "name": "DEFAULT_ADMIN_ROLE",
      "outputs": [
        {
          "internalType": "bytes32",
          "name": "",
          "type": "bytes32"
        }
      ],
      "stateMutability": "view",
      "type": "function"
    },
    {
      "inputs": [],
      "name": "FUX_TOKEN_ID",
      "outputs": [
        {
          "internalType": "uint256",
          "name": "",
          "type": "uint256"
        }
      ],
      "stateMutability": "view",
      "type": "function"
    },
    {
      "inputs": [],
      "name": "UPGRADER_ROLE",
      "outputs": [
        {
          "internalType": "bytes32",
          "name": "",
          "type": "bytes32"
        }
      ],
      "stateMutability": "view",
      "type": "function"
    },
    {
      "inputs": [],
      "name": "URI_SETTER_ROLE",
      "outputs": [
        {
          "internalType": "bytes32",
          "name": "",
          "type": "bytes32"
        }
      ],
      "stateMutability": "view",
      "type": "function"
    },
    {
      "inputs": [],
      "name": "VFUX_TOKEN_ID",
      "outputs": [
        {
          "internalType": "uint256",
          "name": "",
          "type": "uint256"
        }
      ],
      "stateMutability": "view",
      "type": "function"
    },
    {
      "inputs": [
        {
          "internalType": "uint256",
          "name": "workstreamId",
          "type": "uint256"
        },
        {
          "internalType": "address[]",
          "name": "contributors",
          "type": "address[]"
        }
      ],
      "name": "addContributors",
      "outputs": [],
      "stateMutability": "nonpayable",
      "type": "function"
    },
    {
      "inputs": [
        {
          "internalType": "address",
          "name": "account",
          "type": "address"
        },
        {
          "internalType": "uint256",
          "name": "id",
          "type": "uint256"
        }
      ],
      "name": "balanceOf",
      "outputs": [
        {
          "internalType": "uint256",
          "name": "",
          "type": "uint256"
        }
      ],
      "stateMutability": "view",
      "type": "function"
    },
    {
      "inputs": [
        {
          "internalType": "address[]",
          "name": "accounts",
          "type": "address[]"
        },
        {
          "internalType": "uint256[]",
          "name": "ids",
          "type": "uint256[]"
        }
      ],
      "name": "balanceOfBatch",
      "outputs": [
        {
          "internalType": "uint256[]",
          "name": "",
          "type": "uint256[]"
        }
      ],
      "stateMutability": "view",
      "type": "function"
    },
    {
      "inputs": [],
      "name": "claimRewards",
      "outputs": [],
      "stateMutability": "nonpayable",
      "type": "function"
    },
    {
      "inputs": [
        {
          "internalType": "uint256",
          "name": "workstreamID",
          "type": "uint256"
        },
        {
          "internalType": "uint8",
          "name": "fuxGiven",
          "type": "uint8"
        }
      ],
      "name": "commitToWorkstream",
      "outputs": [],
      "stateMutability": "nonpayable",
      "type": "function"
    },
    {
      "inputs": [
        {
          "internalType": "uint256",
          "name": "id",
          "type": "uint256"
        }
      ],
      "name": "exists",
      "outputs": [
        {
          "internalType": "bool",
          "name": "",
          "type": "bool"
        }
      ],
      "stateMutability": "view",
      "type": "function"
    },
    {
      "inputs": [
        {
          "internalType": "address",
          "name": "account",
          "type": "address"
        }
      ],
      "name": "getAvailableBalance",
      "outputs": [
        {
          "internalType": "uint256",
          "name": "balance",
          "type": "uint256"
        }
      ],
      "stateMutability": "view",
      "type": "function"
    },
    {
      "inputs": [
        {
          "internalType": "bytes32",
          "name": "role",
          "type": "bytes32"
        }
      ],
      "name": "getRoleAdmin",
      "outputs": [
        {
          "internalType": "bytes32",
          "name": "",
          "type": "bytes32"
        }
      ],
      "stateMutability": "view",
      "type": "function"
    },
    {
      "inputs": [
        {
          "internalType": "uint256",
          "name": "workstreamID",
          "type": "uint256"
        }
      ],
      "name": "getVFuxForEvaluation",
      "outputs": [
        {
          "internalType": "uint256",
          "name": "vFux",
          "type": "uint256"
        }
      ],
      "stateMutability": "view",
      "type": "function"
    },
    {
      "inputs": [
        {
          "internalType": "address",
          "name": "user",
          "type": "address"
        },
        {
          "internalType": "uint256",
          "name": "workstreamID",
          "type": "uint256"
        }
      ],
      "name": "getValueEvaluation",
      "outputs": [
        {
          "components": [
            {
              "internalType": "address[]",
              "name": "contributors",
              "type": "address[]"
            },
            {
              "internalType": "uint256[]",
              "name": "ratings",
              "type": "uint256[]"
            },
            {
              "internalType": "bool",
              "name": "exists",
              "type": "bool"
            }
          ],
          "internalType": "struct FUX.Evaluation",
          "name": "evaluation",
          "type": "tuple"
        }
      ],
      "stateMutability": "view",
      "type": "function"
    },
    {
      "inputs": [
        {
          "internalType": "uint256",
          "name": "workstreamID",
          "type": "uint256"
        }
      ],
      "name": "getWorkstreamByID",
      "outputs": [
        {
          "components": [
            {
              "internalType": "string",
              "name": "name",
              "type": "string"
            },
            {
              "internalType": "address",
              "name": "creator",
              "type": "address"
            },
            {
              "internalType": "address[]",
              "name": "contributors",
              "type": "address[]"
            },
            {
              "internalType": "uint256[]",
              "name": "evaluations",
              "type": "uint256[]"
            },
            {
              "internalType": "uint256",
              "name": "deadline",
              "type": "uint256"
            },
            {
              "internalType": "uint256",
              "name": "funds",
              "type": "uint256"
            },
            {
              "internalType": "bool",
              "name": "exists",
              "type": "bool"
            }
          ],
          "internalType": "struct FUX.Workstream",
          "name": "workstream",
          "type": "tuple"
        }
      ],
      "stateMutability": "view",
      "type": "function"
    },
    {
      "inputs": [
        {
          "internalType": "address",
          "name": "user",
          "type": "address"
        },
        {
          "internalType": "uint256",
          "name": "workstreamID",
          "type": "uint256"
        }
      ],
      "name": "getWorkstreamCommitment",
      "outputs": [
        {
          "internalType": "uint256",
          "name": "fuxGiven",
          "type": "uint256"
        }
      ],
      "stateMutability": "view",
      "type": "function"
    },
    {
      "inputs": [
        {
          "internalType": "address",
          "name": "user",
          "type": "address"
        }
      ],
      "name": "getWorkstreamIDs",
      "outputs": [
        {
          "internalType": "uint256[]",
          "name": "ids",
          "type": "uint256[]"
        }
      ],
      "stateMutability": "view",
      "type": "function"
    },
    {
      "inputs": [
        {
          "internalType": "bytes32",
          "name": "role",
          "type": "bytes32"
        },
        {
          "internalType": "address",
          "name": "account",
          "type": "address"
        }
      ],
      "name": "grantRole",
      "outputs": [],
      "stateMutability": "nonpayable",
      "type": "function"
    },
    {
      "inputs": [
        {
          "internalType": "bytes32",
          "name": "role",
          "type": "bytes32"
        },
        {
          "internalType": "address",
          "name": "account",
          "type": "address"
        }
      ],
      "name": "hasRole",
      "outputs": [
        {
          "internalType": "bool",
          "name": "",
          "type": "bool"
        }
      ],
      "stateMutability": "view",
      "type": "function"
    },
    {
      "inputs": [],
      "name": "initialize",
      "outputs": [],
      "stateMutability": "nonpayable",
      "type": "function"
    },
    {
      "inputs": [
        {
          "internalType": "address",
          "name": "account",
          "type": "address"
        },
        {
          "internalType": "address",
          "name": "operator",
          "type": "address"
        }
      ],
      "name": "isApprovedForAll",
      "outputs": [
        {
          "internalType": "bool",
          "name": "",
          "type": "bool"
        }
      ],
      "stateMutability": "view",
      "type": "function"
    },
    {
      "inputs": [],
      "name": "mintFux",
      "outputs": [],
      "stateMutability": "nonpayable",
      "type": "function"
    },
    {
      "inputs": [
        {
          "internalType": "uint256",
          "name": "workstreamID",
          "type": "uint256"
        }
      ],
      "name": "mintVFux",
      "outputs": [],
      "stateMutability": "nonpayable",
      "type": "function"
    },
    {
      "inputs": [
        {
          "internalType": "string",
          "name": "name",
          "type": "string"
        },
        {
          "internalType": "address[]",
          "name": "contributors",
          "type": "address[]"
        },
        {
          "internalType": "uint256",
          "name": "deadline",
          "type": "uint256"
        }
      ],
      "name": "mintWorkstream",
      "outputs": [],
      "stateMutability": "payable",
      "type": "function"
    },
    {
      "inputs": [
        {
          "internalType": "address",
          "name": "_operator",
          "type": "address"
        },
        {
          "internalType": "address",
          "name": "_from",
          "type": "address"
        },
        {
          "internalType": "uint256[]",
          "name": "_ids",
          "type": "uint256[]"
        },
        {
          "internalType": "uint256[]",
          "name": "_values",
          "type": "uint256[]"
        },
        {
          "internalType": "bytes",
          "name": "_data",
          "type": "bytes"
        }
      ],
      "name": "onERC1155BatchReceived",
      "outputs": [
        {
          "internalType": "bytes4",
          "name": "",
          "type": "bytes4"
        }
      ],
      "stateMutability": "pure",
      "type": "function"
    },
    {
      "inputs": [
        {
          "internalType": "address",
          "name": "_operator",
          "type": "address"
        },
        {
          "internalType": "address",
          "name": "_from",
          "type": "address"
        },
        {
          "internalType": "uint256",
          "name": "_id",
          "type": "uint256"
        },
        {
          "internalType": "uint256",
          "name": "_value",
          "type": "uint256"
        },
        {
          "internalType": "bytes",
          "name": "_data",
          "type": "bytes"
        }
      ],
      "name": "onERC1155Received",
      "outputs": [
        {
          "internalType": "bytes4",
          "name": "",
          "type": "bytes4"
        }
      ],
      "stateMutability": "pure",
      "type": "function"
    },
    {
      "inputs": [],
      "name": "proxiableUUID",
      "outputs": [
        {
          "internalType": "bytes32",
          "name": "",
          "type": "bytes32"
        }
      ],
      "stateMutability": "view",
      "type": "function"
    },
    {
      "inputs": [
        {
          "internalType": "bytes32",
          "name": "role",
          "type": "bytes32"
        },
        {
          "internalType": "address",
          "name": "account",
          "type": "address"
        }
      ],
      "name": "renounceRole",
      "outputs": [],
      "stateMutability": "nonpayable",
      "type": "function"
    },
    {
      "inputs": [
        {
          "internalType": "uint256",
          "name": "workstreamID",
          "type": "uint256"
        },
        {
          "internalType": "address[]",
          "name": "contributors",
          "type": "address[]"
        },
        {
          "internalType": "uint256[]",
          "name": "vFuxGiven",
          "type": "uint256[]"
        }
      ],
      "name": "resolveValueEvaluation",
      "outputs": [],
      "stateMutability": "nonpayable",
      "type": "function"
    },
    {
      "inputs": [
        {
          "internalType": "bytes32",
          "name": "role",
          "type": "bytes32"
        },
        {
          "internalType": "address",
          "name": "account",
          "type": "address"
        }
      ],
      "name": "revokeRole",
      "outputs": [],
      "stateMutability": "nonpayable",
      "type": "function"
    },
    {
      "inputs": [
        {
          "internalType": "address",
          "name": "from",
          "type": "address"
        },
        {
          "internalType": "address",
          "name": "to",
          "type": "address"
        },
        {
          "internalType": "uint256[]",
          "name": "ids",
          "type": "uint256[]"
        },
        {
          "internalType": "uint256[]",
          "name": "amounts",
          "type": "uint256[]"
        },
        {
          "internalType": "bytes",
          "name": "data",
          "type": "bytes"
        }
      ],
      "name": "safeBatchTransferFrom",
      "outputs": [],
      "stateMutability": "pure",
      "type": "function"
    },
    {
      "inputs": [
        {
          "internalType": "address",
          "name": "from",
          "type": "address"
        },
        {
          "internalType": "address",
          "name": "to",
          "type": "address"
        },
        {
          "internalType": "uint256",
          "name": "id",
          "type": "uint256"
        },
        {
          "internalType": "uint256",
          "name": "amount",
          "type": "uint256"
        },
        {
          "internalType": "bytes",
          "name": "data",
          "type": "bytes"
        }
      ],
      "name": "safeTransferFrom",
      "outputs": [],
      "stateMutability": "pure",
      "type": "function"
    },
    {
      "inputs": [
        {
          "internalType": "address",
          "name": "operator",
          "type": "address"
        },
        {
          "internalType": "bool",
          "name": "approved",
          "type": "bool"
        }
      ],
      "name": "setApprovalForAll",
      "outputs": [],
      "stateMutability": "nonpayable",
      "type": "function"
    },
    {
      "inputs": [
        {
          "internalType": "string",
          "name": "newuri",
          "type": "string"
        }
      ],
      "name": "setURI",
      "outputs": [],
      "stateMutability": "nonpayable",
      "type": "function"
    },
    {
      "inputs": [
        {
          "internalType": "uint256",
          "name": "workstreamID",
          "type": "uint256"
        },
        {
          "internalType": "address[]",
          "name": "contributors",
          "type": "address[]"
        },
        {
          "internalType": "uint256[]",
          "name": "ratings",
          "type": "uint256[]"
        }
      ],
      "name": "submitValueEvaluation",
      "outputs": [],
      "stateMutability": "nonpayable",
      "type": "function"
    },
    {
      "inputs": [
        {
          "internalType": "bytes4",
          "name": "interfaceId",
          "type": "bytes4"
        }
      ],
      "name": "supportsInterface",
      "outputs": [
        {
          "internalType": "bool",
          "name": "",
          "type": "bool"
        }
      ],
      "stateMutability": "view",
      "type": "function"
    },
    {
      "inputs": [
        {
          "internalType": "uint256",
          "name": "id",
          "type": "uint256"
        }
      ],
      "name": "totalSupply",
      "outputs": [
        {
          "internalType": "uint256",
          "name": "",
          "type": "uint256"
        }
      ],
      "stateMutability": "view",
      "type": "function"
    },
    {
      "inputs": [
        {
          "internalType": "address",
          "name": "newImplementation",
          "type": "address"
        }
      ],
      "name": "upgradeTo",
      "outputs": [],
      "stateMutability": "nonpayable",
      "type": "function"
    },
    {
      "inputs": [
        {
          "internalType": "address",
          "name": "newImplementation",
          "type": "address"
        },
        {
          "internalType": "bytes",
          "name": "data",
          "type": "bytes"
        }
      ],
      "name": "upgradeToAndCall",
      "outputs": [],
      "stateMutability": "payable",
      "type": "function"
    },
    {
      "inputs": [
        {
          "internalType": "uint256",
          "name": "tokenId",
          "type": "uint256"
        }
      ],
      "name": "uri",
      "outputs": [
        {
          "internalType": "string",
          "name": "",
          "type": "string"
        }
      ],
      "stateMutability": "view",
      "type": "function"
    },
    {
      "inputs": [
        {
          "internalType": "uint256",
          "name": "workstreamID",
          "type": "uint256"
        }
      ],
      "name": "withdrawFromWorkstream",
      "outputs": [],
      "stateMutability": "nonpayable",
      "type": "function"
    }
  ],
  "numDeployments": 3,
  "solcInputHash": "976b836cc65042d3b78653e8471bb412",
  "bytecode": "0x60a0604052306080523480156200001557600080fd5b506200002062000026565b620000e8565b600054610100900460ff1615620000935760405162461bcd60e51b815260206004820152602760248201527f496e697469616c697a61626c653a20636f6e747261637420697320696e697469604482015266616c697a696e6760c81b606482015260840160405180910390fd5b60005460ff9081161015620000e6576000805460ff191660ff9081179091556040519081527f7f26b83ff96e1f2b6a682f133852f6798a09c465da95921460cefb38474024989060200160405180910390a15b565b6080516146ce6200012060003960008181610cb601528181610d3b01528181611320015281816113a5015261148b01526146ce6000f3fe6080604052600436106102d05760003560e01c80637f34571011610179578063d422831f116100d6578063e3ca59551161008a578063f242432a11610064578063f242432a146108b4578063f385facc146108cf578063f72c0d8b146108e457600080fd5b8063e3ca59551461081e578063e985e9c51461083e578063f23a6e611461088757600080fd5b8063d59a0ed3116100bb578063d59a0ed3146107be578063d6b0fd2a146107d1578063d7cec155146107fe57600080fd5b8063d422831f146106d4578063d547741f1461079e57600080fd5b8063a217fddf1161012d578063a8319ed211610112578063a8319ed214610709578063bc197c8114610729578063bd85b0391461077157600080fd5b8063a217fddf146106d4578063a22cb465146106e957600080fd5b80638b5d41ef1161015e5780638b5d41ef1461064c5780638e8e18ad1461067957806391d148541461068e57600080fd5b80637f345710146106035780638129fc1c1461063757600080fd5b806336568abe116102325780634562bbea116101e65780634f558e79116101c05780634f558e791461058857806352d1902d146105b75780636c24a76f146105cc57600080fd5b80634562bbea146105125780634e1273f4146105555780634f1ef2861461057557600080fd5b8063372500ab11610217578063372500ab146104bd5780633d39942e146104d257806342f6a961146104f257600080fd5b806336568abe1461047d5780633659cfe61461049d57600080fd5b80630e89341c11610289578063248a9ca31161026e578063248a9ca31461040d5780632eb2c2d61461043d5780632f2ff15d1461045d57600080fd5b80630e89341c146103a7578063222cc569146103d457600080fd5b806302fe5305116102ba57806302fe530514610338578063042bf9f01461035a5780630ab083581461037a57600080fd5b8062fdd58e146102d557806301ffc9a714610308575b600080fd5b3480156102e157600080fd5b506102f56102f03660046138ce565b610918565b6040519081526020015b60405180910390f35b34801561031457600080fd5b5061032861032336600461390e565b6109c3565b60405190151581526020016102ff565b34801561034457600080fd5b506103586103533660046139e2565b6109d4565b005b34801561036657600080fd5b50610358610375366004613b21565b610a0b565b34801561038657600080fd5b5061039a610395366004613b8e565b610b69565b6040516102ff9190613be4565b3480156103b357600080fd5b506103c76103c2366004613bf7565b610bd6565b6040516102ff9190613c68565b3480156103e057600080fd5b506102f56103ef366004613bf7565b3360009081526101c860209081526040808320938352929052205490565b34801561041957600080fd5b506102f5610428366004613bf7565b60009081526097602052604090206001015490565b34801561044957600080fd5b50610358610458366004613c7b565b610be1565b34801561046957600080fd5b50610358610478366004613d25565b610bfa565b34801561048957600080fd5b50610358610498366004613d25565b610c24565b3480156104a957600080fd5b506103586104b8366004613b8e565b610cac565b3480156104c957600080fd5b50610358610e27565b3480156104de57600080fd5b506103586104ed366004613d51565b610ed7565b3480156104fe57600080fd5b5061035861050d366004613dd3565b611068565b34801561051e57600080fd5b506102f561052d3660046138ce565b6001600160a01b0390911660009081526101c660209081526040808320938352929052205490565b34801561056157600080fd5b5061039a610570366004613e1f565b6111d8565b610358610583366004613e83565b611316565b34801561059457600080fd5b506103286105a3366004613bf7565b600090815260c96020526040902054151590565b3480156105c357600080fd5b506102f561147e565b3480156105d857600080fd5b506102f56105e7366004613b8e565b6001600160a01b031660009081526101cb602052604090205490565b34801561060f57600080fd5b506102f57f7804d923f43a17d325d77e781528e0793b2edd9890ab45fc64efd7b4b427744c81565b34801561064357600080fd5b50610358611544565b34801561065857600080fd5b5061066c6106673660046138ce565b6116ea565b6040516102ff9190613f00565b34801561068557600080fd5b506102f5600181565b34801561069a57600080fd5b506103286106a9366004613d25565b60009182526097602090815260408084206001600160a01b0393909316845291905290205460ff1690565b3480156106e057600080fd5b506102f5600081565b3480156106f557600080fd5b50610358610704366004613f52565b6117f7565b34801561071557600080fd5b50610358610724366004613b21565b611802565b34801561073557600080fd5b50610758610744366004613fc5565b63bc197c8160e01b98975050505050505050565b6040516001600160e01b031990911681526020016102ff565b34801561077d57600080fd5b506102f561078c366004613bf7565b600090815260c9602052604090205490565b3480156107aa57600080fd5b506103586107b9366004613d25565b6118e3565b6103586107cc366004614080565b611908565b3480156107dd57600080fd5b506107f16107ec366004613bf7565b611af5565b6040516102ff91906140f0565b34801561080a57600080fd5b50610358610819366004613bf7565b611cdf565b34801561082a57600080fd5b50610358610839366004613bf7565b611d24565b34801561084a57600080fd5b50610328610859366004614189565b6001600160a01b03918216600090815260666020908152604080832093909416825291909152205460ff1690565b34801561089357600080fd5b506107586108a23660046141b3565b63f23a6e6160e01b9695505050505050565b3480156108c057600080fd5b5061035861045836600461422b565b3480156108db57600080fd5b50610358611e7e565b3480156108f057600080fd5b506102f57f189ab7a9244df0848122154315af71fe140f3db0fe014031783b0946b8c9d2e381565b60006001600160a01b03831661099b5760405162461bcd60e51b815260206004820152602a60248201527f455243313135353a2061646472657373207a65726f206973206e6f742061207660448201527f616c6964206f776e65720000000000000000000000000000000000000000000060648201526084015b60405180910390fd5b5060009081526065602090815260408083206001600160a01b03949094168352929052205490565b60006109ce82611f1d565b92915050565b7f7804d923f43a17d325d77e781528e0793b2edd9890ab45fc64efd7b4b427744c6109fe81611f42565b610a0782611f4c565b5050565b60008381526101c460205260409020600681015460ff16610a3f576040516355dcb6f160e01b815260040160405180910390fd5b60018101546001600160a01b03163314610a6c5760405163390cdd9b60e21b815260040160405180910390fd5b3360009081526101c660209081526040808320878452909152902054600003610aa85760405163a95eee8160e01b815260040160405180910390fd5b3360009081526101c860209081526040808320878452909152902054600003610ae45760405163da92a67760e01b815260040160405180910390fd5b610aef848484611f5f565b610afa83838661209e565b600581015415610b1357610b138383836005015461219f565b610b1d83856122df565b610b268461238e565b6040518481527f537df8eb1adad6c5857328cc572568971f50e40fabde274f091190a3f4878e6a9060200160405180910390a1600601805460ff19169055505050565b6001600160a01b03811660009081526101c56020908152604091829020805483518184028101840190945280845260609392830182828015610bca57602002820191906000526020600020905b815481526020019060010190808311610bb6575b50505050509050919050565b60606109ce82612447565b60405163e92ecd6760e01b815260040160405180910390fd5b600082815260976020526040902060010154610c1581611f42565b610c1f8383612527565b505050565b6001600160a01b0381163314610ca25760405162461bcd60e51b815260206004820152602f60248201527f416363657373436f6e74726f6c3a2063616e206f6e6c792072656e6f756e636560448201527f20726f6c657320666f722073656c6600000000000000000000000000000000006064820152608401610992565b610a0782826125c9565b6001600160a01b037f0000000000000000000000000000000000000000000000000000000000000000163003610d395760405162461bcd60e51b815260206004820152602c60248201527f46756e6374696f6e206d7573742062652063616c6c6564207468726f7567682060448201526b19195b1959d85d1958d85b1b60a21b6064820152608401610992565b7f00000000000000000000000000000000000000000000000000000000000000006001600160a01b0316610d947f360894a13ba1a3210667c828492db98dca3e2076cc3735a920a3ca505d382bbc546001600160a01b031690565b6001600160a01b031614610dff5760405162461bcd60e51b815260206004820152602c60248201527f46756e6374696f6e206d7573742062652063616c6c6564207468726f7567682060448201526b6163746976652070726f787960a01b6064820152608401610992565b610e088161264c565b60408051600080825260208201909252610e2491839190612676565b50565b3360009081526101cb60205260408120549003610e5757604051631036b5ad60e31b815260040160405180910390fd5b3360008181526101cb6020526040808220805490839055905190929183156108fc02918491818181858888f19350505050158015610e99573d6000803e3d6000fd5b5060408051338152602081018390527ffc30cddea38e2bf4d6ea7d3f9ed3b6ad7f176419f4963bd81318067a4aee73fe91015b60405180910390a150565b8060ff16610ee6336000610918565b1015610f055760405163a95eee8160e01b815260040160405180910390fd5b3360009081526101ca6020908152604080832085845290915290205460ff16610f415760405163d764187d60e01b815260040160405180910390fd5b3360009081526101c66020908152604080832085845290915290205460ff82168103610faf5760405162461bcd60e51b815260206004820152601260248201527f53616d6520616d6f756e74206f662046555800000000000000000000000000006044820152606401610992565b8160ff16811015610fe357610fe333306000610fce8560ff88166142a6565b60405180602001604052806000815250612816565b8160ff168111156110025761100230336000610fce60ff8716866142a6565b3360008181526101c66020908152604080832087845282529182902060ff8616908190558251938452908301869052908201527f3e0d5a590ba8d04db40e773cf88b938280ed4080a2688ba8e8105fb56f58e224906060015b60405180910390a1505050565b60008381526101c4602052604090206006015460ff1661109b576040516355dcb6f160e01b815260040160405180910390fd5b60008381526101c460205260409020600101546001600160a01b031633146110d65760405163390cdd9b60e21b815260040160405180910390fd5b8060005b818110156111965760008484838181106110f6576110f66142bd565b905060200201602081019061110b9190613b8e565b6001600160a01b031660008181526101c560209081526040808320805460018181018355918552838520018b90558a84526101c48352818420600201805480830182559085528385200180546001600160a01b031916861790559383526101ca82528083208a84529091529020805460ff19169091179055508061118e816142d3565b9150506110da565b507f53f304d7ddc99bcc4695bc068800ce525ea67661c7f16ad157fee5a1ed6f6b3c8484846040516111ca939291906142ec565b60405180910390a150505050565b606081518351146112515760405162461bcd60e51b815260206004820152602960248201527f455243313135353a206163636f756e747320616e6420696473206c656e67746860448201527f206d69736d6174636800000000000000000000000000000000000000000000006064820152608401610992565b6000835167ffffffffffffffff81111561126d5761126d61392b565b604051908082528060200260200182016040528015611296578160200160208202803683370190505b50905060005b845181101561130e576112e18582815181106112ba576112ba6142bd565b60200260200101518583815181106112d4576112d46142bd565b6020026020010151610918565b8282815181106112f3576112f36142bd565b6020908102919091010152611307816142d3565b905061129c565b509392505050565b6001600160a01b037f00000000000000000000000000000000000000000000000000000000000000001630036113a35760405162461bcd60e51b815260206004820152602c60248201527f46756e6374696f6e206d7573742062652063616c6c6564207468726f7567682060448201526b19195b1959d85d1958d85b1b60a21b6064820152608401610992565b7f00000000000000000000000000000000000000000000000000000000000000006001600160a01b03166113fe7f360894a13ba1a3210667c828492db98dca3e2076cc3735a920a3ca505d382bbc546001600160a01b031690565b6001600160a01b0316146114695760405162461bcd60e51b815260206004820152602c60248201527f46756e6374696f6e206d7573742062652063616c6c6564207468726f7567682060448201526b6163746976652070726f787960a01b6064820152608401610992565b6114728261264c565b610a0782826001612676565b6000306001600160a01b037f0000000000000000000000000000000000000000000000000000000000000000161461151e5760405162461bcd60e51b815260206004820152603860248201527f555550535570677261646561626c653a206d757374206e6f742062652063616c60448201527f6c6564207468726f7567682064656c656761746563616c6c00000000000000006064820152608401610992565b507f360894a13ba1a3210667c828492db98dca3e2076cc3735a920a3ca505d382bbc5b90565b600054610100900460ff16158080156115645750600054600160ff909116105b8061157e5750303b15801561157e575060005460ff166001145b6115f05760405162461bcd60e51b815260206004820152602e60248201527f496e697469616c697a61626c653a20636f6e747261637420697320616c72656160448201527f647920696e697469616c697a65640000000000000000000000000000000000006064820152608401610992565b6000805460ff191660011790558015611613576000805461ff0019166101001790555b61162b604051806020016040528060008152506129fe565b611633612a72565b61163b612a72565b611643612a72565b61164e600033612527565b6116787f7804d923f43a17d325d77e781528e0793b2edd9890ab45fc64efd7b4b427744c33612527565b6116a27f189ab7a9244df0848122154315af71fe140f3db0fe014031783b0946b8c9d2e333612527565b60006101c3558015610e24576000805461ff0019169055604051600181527f7f26b83ff96e1f2b6a682f133852f6798a09c465da95921460cefb384740249890602001610ecc565b6040805160608082018352808252602080830182905260008385018190526001600160a01b03871681526101c78252848120868252825284902084518154928302810160809081019096529283018281529394929390928492849184018282801561177e57602002820191906000526020600020905b81546001600160a01b03168152600190910190602001808311611760575b50505050508152602001600182018054806020026020016040519081016040528092919081815260200182805480156117d657602002820191906000526020600020905b8154815260200190600101908083116117c2575b50505091835250506002919091015460ff1615156020909101529392505050565b610a07338383612adf565b3360009081526101ca6020908152604080832086845290915290205460ff1661183e5760405163d764187d60e01b815260040160405180910390fd5b3360009081526101c66020908152604080832086845290915290205460000361187a5760405163a95eee8160e01b815260040160405180910390fd5b8151158061188a57508051825114155b156118d85760405163d647364f60e01b815260206004820152601760248201527f636f6e7472696275746f72732c2076467578476976656e0000000000000000006044820152606401610992565b610c1f838383611f5f565b6000828152609760205260409020600101546118fe81611f42565b610c1f83836125c9565b600082900361195a5760405163d647364f60e01b815260206004820152600c60248201527f636f6e7472696275746f727300000000000000000000000000000000000000006044820152606401610992565b6101c3546040805160e081018252606081830181815281830191909152600060a0830181815260c084018281528a8552336020808701919091526080860189905286518481528082018852909452600190523490528481526101c482529290922081518051929384936119d0928492019061378a565b506020828101516001830180546001600160a01b0319166001600160a01b0390921691909117905560408301518051611a0f926002850192019061380e565b5060608201518051611a2b916003840191602090910190613863565b506080820151600482015560a0820151600582015560c0909101516006909101805460ff1916911515919091179055611a65828686611068565b604080518381523460208201529081018490526080606082018190526012908201527f687474703a2f2f6578616d706c652e636f6d000000000000000000000000000060a08201527f500a40456624e358ffccc959dbc8099d186757aa0a8a913e064aead8baa2e0669060c00160405180910390a16101c354611ae9906001614342565b6101c355505050505050565b611b406040518060e001604052806060815260200160006001600160a01b03168152602001606081526020016060815260200160008152602001600081526020016000151581525090565b60008281526101c4602052604090819020815160e08101909252805482908290611b699061435a565b80601f0160208091040260200160405190810160405280929190818152602001828054611b959061435a565b8015611be25780601f10611bb757610100808354040283529160200191611be2565b820191906000526020600020905b815481529060010190602001808311611bc557829003601f168201915b505050918352505060018201546001600160a01b03166020808301919091526002830180546040805182850281018501825282815294019392830182828015611c5457602002820191906000526020600020905b81546001600160a01b03168152600190910190602001808311611c36575b5050505050815260200160038201805480602002602001604051908101604052809291908181526020018280548015611cac57602002820191906000526020600020905b815481526020019060010190808311611c98575b5050509183525050600482015460208201526005820154604082015260069091015460ff16151560609091015292915050565b3360009081526101ca6020908152604080832084845290915290205460ff16611d1b5760405163d764187d60e01b815260040160405180910390fd5b610e248161238e565b611d498160009081526101c460205260409020600101546001600160a01b0316331490565b611d6657604051634f6429f360e11b815260040160405180910390fd5b3360009081526101c86020908152604080832084845290915290205415611da05760405163463fefc760e01b815260040160405180910390fd5b3360009081526101c660209081526040808320848452909152902054600003611ddc5760405163a95eee8160e01b815260040160405180910390fd5b60008181526101c4602052604090206006015460ff16611e0f576040516355dcb6f160e01b815260040160405180910390fd5b611e2c336001606460405180602001604052806000815250612bd3565b3360008181526101c86020908152604080832085845282529182902060649055815192835282018390527f7b013762bcc4a01787a4815463c2c29ee415e5348c5b65ee468c3c03a76f60eb9101610ecc565b3360009081526101c9602052604090205460ff1615611eb05760405163463fefc760e01b815260040160405180910390fd5b611ecd336000606460405180602001604052806000815250612bd3565b6040513381527f5184a1d5e0b0bcb8ee2c912752a2301033333eba83e58729ac34b470353164539060200160405180910390a13360009081526101c960205260409020805460ff19166001179055565b60006001600160e01b03198216630271189760e51b14806109ce57506109ce82612cf8565b610e248133612d1d565b8051610a0790606790602084019061378a565b611f6a816064612d92565b611f875760405163a95eee8160e01b815260040160405180910390fd5b611f9082612de6565b81511580611fa057508051825114155b15611fee5760405163d647364f60e01b815260206004820152601560248201527f636f6e7472696275746f72732c20726174696e677300000000000000000000006044820152606401610992565b6040805160608101825283815260208082018490526001828401523360009081526101c782528381208782528252929092208151805192939192612035928492019061380e565b50602082810151805161204e9260018501920190613863565b50604091820151600291909101805460ff1916911515919091179055517fc122d799d7d6cf0e12589532937ae647267a673c8921450ca41c6d405ee6abf89061105b908590339086908690614394565b6120a9826064612d92565b6120c65760405163da92a67760e01b815260040160405180910390fd5b81516000805b8281101561215c578481815181106120e6576120e66142bd565b6020026020010151826120f99190614342565b915061214a33878381518110612111576121116142bd565b6020026020010151600188858151811061212d5761212d6142bd565b602002602001015160405180602001604052806000815250612816565b80612154816142d3565b9150506120cc565b503360009081526101c86020908152604080832086845290915290205481146121985760405163a95eee8160e01b815260040160405180910390fd5b5050505050565b81516000805b828110156122bd5760006064858784815181106121c4576121c46142bd565b60200260200101516121d691906143d9565b6121e091906143f8565b90506121ec8184614342565b9250806101cb6000898581518110612206576122066142bd565b60200260200101516001600160a01b03166001600160a01b03168152602001908152602001600020600082825461223d9190614342565b925050819055507f47265b27f934438348d392d07a4bc3087b1f08c6ebf1ee5181b476356f18f67d878381518110612277576122776142bd565b6020026020010151826040516122a29291906001600160a01b03929092168252602082015260400190565b60405180910390a150806122b5816142d3565b9150506121a5565b508281111561219857604051631036b5ad60e31b815260040160405180910390fd5b81516000805b82811015612198576000858281518110612301576123016142bd565b6020026020010151905061233881866001600160a01b0390911660009081526101c660209081526040808320938352929052205490565b6001600160a01b03821660009081526101c66020908152604080832089845282528083208390558051918201905281815291945061237b91309184918790612816565b5080612386816142d3565b9150506122e5565b3360009081526101c660209081526040808320848452909152812054908190036123cb5760405163a95eee8160e01b815260040160405180910390fd5b3360008181526101c66020908152604080832086845282528083208390558051918201905281815261240292309290918590612816565b60408051338152602081018490529081018290527f81c3d6f4c1e03f5c57415284db949754444cf26d552e13742dd88bd8b13a89329060600160405180910390a15050565b600081815260fc60205260408120805460609291906124659061435a565b80601f01602080910402602001604051908101604052809291908181526020018280546124919061435a565b80156124de5780601f106124b3576101008083540402835291602001916124de565b820191906000526020600020905b8154815290600101906020018083116124c157829003601f168201915b5050505050905060008151116124fc576124f783612e80565b612520565b60fb81604051602001612510929190614436565b6040516020818303038152906040525b9392505050565b60008281526097602090815260408083206001600160a01b038516845290915290205460ff16610a075760008281526097602090815260408083206001600160a01b03851684529091529020805460ff191660011790556125853390565b6001600160a01b0316816001600160a01b0316837f2f8788117e7eff1d82e926ec794901d17c78024a50270940304540a733656f0d60405160405180910390a45050565b60008281526097602090815260408083206001600160a01b038516845290915290205460ff1615610a075760008281526097602090815260408083206001600160a01b0385168085529252808320805460ff1916905551339285917ff6391f5c32d9c69d2a47ea670b442974b53935d1edc7fd64eb21e047a839171b9190a45050565b7f189ab7a9244df0848122154315af71fe140f3db0fe014031783b0946b8c9d2e3610a0781611f42565b7f4910fdfa16fed3260ed0e7147f7cc6da11a60208b5b9406d12a635614ffd91435460ff16156126a957610c1f83612f0a565b826001600160a01b03166352d1902d6040518163ffffffff1660e01b8152600401602060405180830381865afa925050508015612703575060408051601f3d908101601f19168201909252612700918101906144d3565b60015b6127755760405162461bcd60e51b815260206004820152602e60248201527f45524331393637557067726164653a206e657720696d706c656d656e7461746960448201527f6f6e206973206e6f7420555550530000000000000000000000000000000000006064820152608401610992565b7f360894a13ba1a3210667c828492db98dca3e2076cc3735a920a3ca505d382bbc811461280a5760405162461bcd60e51b815260206004820152602960248201527f45524331393637557067726164653a20756e737570706f727465642070726f7860448201527f6961626c655555494400000000000000000000000000000000000000000000006064820152608401610992565b50610c1f838383612fc8565b6001600160a01b0384166128925760405162461bcd60e51b815260206004820152602560248201527f455243313135353a207472616e7366657220746f20746865207a65726f20616460448201527f64726573730000000000000000000000000000000000000000000000000000006064820152608401610992565b33600061289e85612ff3565b905060006128ab85612ff3565b90506128bb83898985858961303e565b60008681526065602090815260408083206001600160a01b038c168452909152902054858110156129545760405162461bcd60e51b815260206004820152602a60248201527f455243313135353a20696e73756666696369656e742062616c616e636520666f60448201527f72207472616e73666572000000000000000000000000000000000000000000006064820152608401610992565b60008781526065602090815260408083206001600160a01b038d8116855292528083208985039055908a16825281208054889290612993908490614342565b909155505060408051888152602081018890526001600160a01b03808b16928c821692918816917fc3d58168c5ae7397731d063d5bbf3d657854427343f4c083240f7aacaa2d0f62910160405180910390a46129f3848a8a8a8a8a613054565b505050505050505050565b600054610100900460ff16612a695760405162461bcd60e51b815260206004820152602b60248201527f496e697469616c697a61626c653a20636f6e7472616374206973206e6f74206960448201526a6e697469616c697a696e6760a81b6064820152608401610992565b610e248161320e565b600054610100900460ff16612add5760405162461bcd60e51b815260206004820152602b60248201527f496e697469616c697a61626c653a20636f6e7472616374206973206e6f74206960448201526a6e697469616c697a696e6760a81b6064820152608401610992565b565b816001600160a01b0316836001600160a01b031603612b665760405162461bcd60e51b815260206004820152602960248201527f455243313135353a2073657474696e6720617070726f76616c2073746174757360448201527f20666f722073656c6600000000000000000000000000000000000000000000006064820152608401610992565b6001600160a01b03838116600081815260666020908152604080832094871680845294825291829020805460ff191686151590811790915591519182527f17307eab39ab6107e8899845ad3d59bd9653f200f220920489ca2b5937696c31910160405180910390a3505050565b6001600160a01b038416612c335760405162461bcd60e51b815260206004820152602160248201527f455243313135353a206d696e7420746f20746865207a65726f206164647265736044820152607360f81b6064820152608401610992565b336000612c3f85612ff3565b90506000612c4c85612ff3565b9050612c5d8360008985858961303e565b60008681526065602090815260408083206001600160a01b038b16845290915281208054879290612c8f908490614342565b909155505060408051878152602081018790526001600160a01b03808a1692600092918716917fc3d58168c5ae7397731d063d5bbf3d657854427343f4c083240f7aacaa2d0f62910160405180910390a4612cef83600089898989613054565b50505050505050565b60006001600160e01b03198216637965db0b60e01b14806109ce57506109ce82613282565b60008281526097602090815260408083206001600160a01b038516845290915290205460ff16610a0757612d50816132d2565b612d5b8360206132e4565b604051602001612d6c9291906144ec565b60408051601f198184030181529082905262461bcd60e51b825261099291600401613c68565b815160009081805b82811015612ddb57858181518110612db457612db46142bd565b602002602001015182612dc79190614342565b915080612dd3816142d3565b915050612d9a565b509092149392505050565b805160005b81811015610c1f57336001600160a01b0316838281518110612e0f57612e0f6142bd565b60200260200101516001600160a01b031603612e6e5760405163d647364f60e01b815260206004820152601560248201527f73656e64657220697320636f6e7472696275746f7200000000000000000000006044820152606401610992565b80612e78816142d3565b915050612deb565b606060678054612e8f9061435a565b80601f0160208091040260200160405190810160405280929190818152602001828054612ebb9061435a565b8015610bca5780601f10612edd57610100808354040283529160200191610bca565b820191906000526020600020905b815481529060010190602001808311612eeb5750939695505050505050565b6001600160a01b0381163b612f875760405162461bcd60e51b815260206004820152602d60248201527f455243313936373a206e657720696d706c656d656e746174696f6e206973206e60448201527f6f74206120636f6e7472616374000000000000000000000000000000000000006064820152608401610992565b7f360894a13ba1a3210667c828492db98dca3e2076cc3735a920a3ca505d382bbc80546001600160a01b0319166001600160a01b0392909216919091179055565b612fd18361348d565b600082511180612fde5750805b15610c1f57612fed83836134cd565b50505050565b6040805160018082528183019092526060916000919060208083019080368337019050509050828160008151811061302d5761302d6142bd565b602090810291909101015292915050565b61304c8686868686866135d8565b505050505050565b6001600160a01b0384163b1561304c5760405163f23a6e6160e01b81526001600160a01b0385169063f23a6e6190613098908990899088908890889060040161456d565b6020604051808303816000875af19250505080156130d3575060408051601f3d908101601f191682019092526130d0918101906145a5565b60015b613188576130df6145c2565b806308c379a00361311857506130f36145dd565b806130fe575061311a565b8060405162461bcd60e51b81526004016109929190613c68565b505b60405162461bcd60e51b815260206004820152603460248201527f455243313135353a207472616e7366657220746f206e6f6e2d4552433131353560448201527f526563656976657220696d706c656d656e7465720000000000000000000000006064820152608401610992565b6001600160e01b0319811663f23a6e6160e01b14612cef5760405162461bcd60e51b815260206004820152602860248201527f455243313135353a204552433131353552656365697665722072656a6563746560448201527f6420746f6b656e730000000000000000000000000000000000000000000000006064820152608401610992565b600054610100900460ff166132795760405162461bcd60e51b815260206004820152602b60248201527f496e697469616c697a61626c653a20636f6e7472616374206973206e6f74206960448201526a6e697469616c697a696e6760a81b6064820152608401610992565b610e2481611f4c565b60006001600160e01b03198216636cdb3d1360e11b14806132b357506001600160e01b031982166303a24d0760e21b145b806109ce57506301ffc9a760e01b6001600160e01b03198316146109ce565b60606109ce6001600160a01b03831660145b606060006132f38360026143d9565b6132fe906002614342565b67ffffffffffffffff8111156133165761331661392b565b6040519080825280601f01601f191660200182016040528015613340576020820181803683370190505b509050600360fc1b8160008151811061335b5761335b6142bd565b60200101906001600160f81b031916908160001a905350600f60fb1b8160018151811061338a5761338a6142bd565b60200101906001600160f81b031916908160001a90535060006133ae8460026143d9565b6133b9906001614342565b90505b600181111561343e577f303132333435363738396162636465660000000000000000000000000000000085600f16601081106133fa576133fa6142bd565b1a60f81b828281518110613410576134106142bd565b60200101906001600160f81b031916908160001a90535060049490941c9361343781614667565b90506133bc565b5083156125205760405162461bcd60e51b815260206004820181905260248201527f537472696e67733a20686578206c656e67746820696e73756666696369656e746044820152606401610992565b61349681612f0a565b6040516001600160a01b038216907fbc7cd75a20ee27fd9adebab32041f755214dbc6bffa90cc0225b39da2e5c2d3b90600090a250565b60606001600160a01b0383163b61354c5760405162461bcd60e51b815260206004820152602660248201527f416464726573733a2064656c65676174652063616c6c20746f206e6f6e2d636f60448201527f6e747261637400000000000000000000000000000000000000000000000000006064820152608401610992565b600080846001600160a01b031684604051613567919061467e565b600060405180830381855af49150503d80600081146135a2576040519150601f19603f3d011682016040523d82523d6000602084013e6135a7565b606091505b50915091506135cf828260405180606001604052806027815260200161469b60279139613766565b95945050505050565b6001600160a01b03851661365f5760005b835181101561365d57828181518110613604576136046142bd565b602002602001015160c96000868481518110613622576136226142bd565b6020026020010151815260200190815260200160002060008282546136479190614342565b909155506136569050816142d3565b90506135e9565b505b6001600160a01b03841661304c5760005b8351811015612cef57600084828151811061368d5761368d6142bd565b6020026020010151905060008483815181106136ab576136ab6142bd565b60200260200101519050600060c96000848152602001908152602001600020549050818110156137435760405162461bcd60e51b815260206004820152602860248201527f455243313135353a206275726e20616d6f756e74206578636565647320746f7460448201527f616c537570706c790000000000000000000000000000000000000000000000006064820152608401610992565b600092835260c960205260409092209103905561375f816142d3565b9050613670565b60608315613775575081612520565b61252083838151156130fe5781518083602001fd5b8280546137969061435a565b90600052602060002090601f0160209004810192826137b857600085556137fe565b82601f106137d157805160ff19168380011785556137fe565b828001600101855582156137fe579182015b828111156137fe5782518255916020019190600101906137e3565b5061380a92915061389d565b5090565b8280548282559060005260206000209081019282156137fe579160200282015b828111156137fe57825182546001600160a01b0319166001600160a01b0390911617825560209092019160019091019061382e565b8280548282559060005260206000209081019282156137fe57916020028201828111156137fe5782518255916020019190600101906137e3565b5b8082111561380a576000815560010161389e565b80356001600160a01b03811681146138c957600080fd5b919050565b600080604083850312156138e157600080fd5b6138ea836138b2565b946020939093013593505050565b6001600160e01b031981168114610e2457600080fd5b60006020828403121561392057600080fd5b8135612520816138f8565b634e487b7160e01b600052604160045260246000fd5b601f8201601f1916810167ffffffffffffffff811182821017156139675761396761392b565b6040525050565b600082601f83011261397f57600080fd5b813567ffffffffffffffff8111156139995761399961392b565b6040516139b0601f8301601f191660200182613941565b8181528460208386010111156139c557600080fd5b816020850160208301376000918101602001919091529392505050565b6000602082840312156139f457600080fd5b813567ffffffffffffffff811115613a0b57600080fd5b613a178482850161396e565b949350505050565b600067ffffffffffffffff821115613a3957613a3961392b565b5060051b60200190565b600082601f830112613a5457600080fd5b81356020613a6182613a1f565b604051613a6e8282613941565b83815260059390931b8501820192828101915086841115613a8e57600080fd5b8286015b84811015613ab057613aa3816138b2565b8352918301918301613a92565b509695505050505050565b600082601f830112613acc57600080fd5b81356020613ad982613a1f565b604051613ae68282613941565b83815260059390931b8501820192828101915086841115613b0657600080fd5b8286015b84811015613ab05780358352918301918301613b0a565b600080600060608486031215613b3657600080fd5b83359250602084013567ffffffffffffffff80821115613b5557600080fd5b613b6187838801613a43565b93506040860135915080821115613b7757600080fd5b50613b8486828701613abb565b9150509250925092565b600060208284031215613ba057600080fd5b612520826138b2565b600081518084526020808501945080840160005b83811015613bd957815187529582019590820190600101613bbd565b509495945050505050565b6020815260006125206020830184613ba9565b600060208284031215613c0957600080fd5b5035919050565b60005b83811015613c2b578181015183820152602001613c13565b83811115612fed5750506000910152565b60008151808452613c54816020860160208601613c10565b601f01601f19169290920160200192915050565b6020815260006125206020830184613c3c565b600080600080600060a08688031215613c9357600080fd5b613c9c866138b2565b9450613caa602087016138b2565b9350604086013567ffffffffffffffff80821115613cc757600080fd5b613cd389838a01613abb565b94506060880135915080821115613ce957600080fd5b613cf589838a01613abb565b93506080880135915080821115613d0b57600080fd5b50613d188882890161396e565b9150509295509295909350565b60008060408385031215613d3857600080fd5b82359150613d48602084016138b2565b90509250929050565b60008060408385031215613d6457600080fd5b82359150602083013560ff81168114613d7c57600080fd5b809150509250929050565b60008083601f840112613d9957600080fd5b50813567ffffffffffffffff811115613db157600080fd5b6020830191508360208260051b8501011115613dcc57600080fd5b9250929050565b600080600060408486031215613de857600080fd5b83359250602084013567ffffffffffffffff811115613e0657600080fd5b613e1286828701613d87565b9497909650939450505050565b60008060408385031215613e3257600080fd5b823567ffffffffffffffff80821115613e4a57600080fd5b613e5686838701613a43565b93506020850135915080821115613e6c57600080fd5b50613e7985828601613abb565b9150509250929050565b60008060408385031215613e9657600080fd5b613e9f836138b2565b9150602083013567ffffffffffffffff811115613ebb57600080fd5b613e798582860161396e565b600081518084526020808501945080840160005b83811015613bd95781516001600160a01b031687529582019590820190600101613edb565b602081526000825160606020840152613f1c6080840182613ec7565b90506020840151601f19848303016040850152613f398282613ba9565b9150506040840151151560608401528091505092915050565b60008060408385031215613f6557600080fd5b613f6e836138b2565b915060208301358015158114613d7c57600080fd5b60008083601f840112613f9557600080fd5b50813567ffffffffffffffff811115613fad57600080fd5b602083019150836020828501011115613dcc57600080fd5b60008060008060008060008060a0898b031215613fe157600080fd5b613fea896138b2565b9750613ff860208a016138b2565b9650604089013567ffffffffffffffff8082111561401557600080fd5b6140218c838d01613d87565b909850965060608b013591508082111561403a57600080fd5b6140468c838d01613d87565b909650945060808b013591508082111561405f57600080fd5b5061406c8b828c01613f83565b999c989b5096995094979396929594505050565b6000806000806060858703121561409657600080fd5b843567ffffffffffffffff808211156140ae57600080fd5b6140ba8883890161396e565b955060208701359150808211156140d057600080fd5b506140dd87828801613d87565b9598909750949560400135949350505050565b602081526000825160e0602084015261410d610100840182613c3c565b90506001600160a01b0360208501511660408401526040840151601f198085840301606086015261413e8383613ec7565b925060608601519150808584030160808601525061415c8282613ba9565b915050608084015160a084015260a084015160c084015260c0840151151560e08401528091505092915050565b6000806040838503121561419c57600080fd5b6141a5836138b2565b9150613d48602084016138b2565b60008060008060008060a087890312156141cc57600080fd5b6141d5876138b2565b95506141e3602088016138b2565b94506040870135935060608701359250608087013567ffffffffffffffff81111561420d57600080fd5b61421989828a01613f83565b979a9699509497509295939492505050565b600080600080600060a0868803121561424357600080fd5b61424c866138b2565b945061425a602087016138b2565b93506040860135925060608601359150608086013567ffffffffffffffff81111561428457600080fd5b613d188882890161396e565b634e487b7160e01b600052601160045260246000fd5b6000828210156142b8576142b8614290565b500390565b634e487b7160e01b600052603260045260246000fd5b6000600182016142e5576142e5614290565b5060010190565b83815260406020808301829052908201839052600090849060608401835b86811015614336576001600160a01b03614323856138b2565b168252928201929082019060010161430a565b50979650505050505050565b6000821982111561435557614355614290565b500190565b600181811c9082168061436e57607f821691505b60208210810361438e57634e487b7160e01b600052602260045260246000fd5b50919050565b8481526001600160a01b03841660208201526080604082015260006143bc6080830185613ec7565b82810360608401526143ce8185613ba9565b979650505050505050565b60008160001904831182151516156143f3576143f3614290565b500290565b60008261441557634e487b7160e01b600052601260045260246000fd5b500490565b6000815161442c818560208601613c10565b9290920192915050565b600080845481600182811c91508083168061445257607f831692505b6020808410820361447157634e487b7160e01b86526022600452602486fd5b8180156144855760018114614496576144c3565b60ff198616895284890196506144c3565b60008b81526020902060005b868110156144bb5781548b8201529085019083016144a2565b505084890196505b5050505050506135cf818561441a565b6000602082840312156144e557600080fd5b5051919050565b7f416363657373436f6e74726f6c3a206163636f756e7420000000000000000000815260008351614524816017850160208801613c10565b7f206973206d697373696e6720726f6c65200000000000000000000000000000006017918401918201528351614561816028840160208801613c10565b01602801949350505050565b60006001600160a01b03808816835280871660208401525084604083015283606083015260a060808301526143ce60a0830184613c3c565b6000602082840312156145b757600080fd5b8151612520816138f8565b600060033d11156115415760046000803e5060005160e01c90565b600060443d10156145eb5790565b6040516003193d81016004833e81513d67ffffffffffffffff816024840111818411171561461b57505050505090565b82850191508151818111156146335750505050505090565b843d870101602082850101111561464d5750505050505090565b61465c60208286010187613941565b509095945050505050565b60008161467657614676614290565b506000190190565b60008251614690818460208701613c10565b919091019291505056fe416464726573733a206c6f772d6c6576656c2064656c65676174652063616c6c206661696c6564a164736f6c634300080d000a",
  "devdoc": {
    "kind": "dev",
    "methods": {
      "balanceOf(address,uint256)": {
        "details": "See {IERC1155-balanceOf}. Requirements: - `account` cannot be the zero address."
      },
      "balanceOfBatch(address[],uint256[])": {
        "details": "See {IERC1155-balanceOfBatch}. Requirements: - `accounts` and `ids` must have the same length."
      },
      "constructor": {
        "custom:oz-upgrades-unsafe-allow": "constructor"
      },
      "exists(uint256)": {
        "details": "Indicates whether any token exist with a given id, or not."
      },
      "getRoleAdmin(bytes32)": {
        "details": "Returns the admin role that controls `role`. See {grantRole} and {revokeRole}. To change a role's admin, use {_setRoleAdmin}."
      },
      "grantRole(bytes32,address)": {
        "details": "Grants `role` to `account`. If `account` had not been already granted `role`, emits a {RoleGranted} event. Requirements: - the caller must have ``role``'s admin role. May emit a {RoleGranted} event."
      },
      "hasRole(bytes32,address)": {
        "details": "Returns `true` if `account` has been granted `role`."
      },
      "isApprovedForAll(address,address)": {
        "details": "See {IERC1155-isApprovedForAll}."
      },
      "proxiableUUID()": {
        "details": "Implementation of the ERC1822 {proxiableUUID} function. This returns the storage slot used by the implementation. It is used to validate the implementation's compatibility when performing an upgrade. IMPORTANT: A proxy pointing at a proxiable contract should not be considered proxiable itself, because this risks bricking a proxy that upgrades to it, by delegating to itself until out of gas. Thus it is critical that this function revert if invoked through a proxy. This is guaranteed by the `notDelegated` modifier."
      },
      "renounceRole(bytes32,address)": {
        "details": "Revokes `role` from the calling account. Roles are often managed via {grantRole} and {revokeRole}: this function's purpose is to provide a mechanism for accounts to lose their privileges if they are compromised (such as when a trusted device is misplaced). If the calling account had been revoked `role`, emits a {RoleRevoked} event. Requirements: - the caller must be `account`. May emit a {RoleRevoked} event."
      },
      "revokeRole(bytes32,address)": {
        "details": "Revokes `role` from `account`. If `account` had been granted `role`, emits a {RoleRevoked} event. Requirements: - the caller must have ``role``'s admin role. May emit a {RoleRevoked} event."
      },
      "safeBatchTransferFrom(address,address,uint256[],uint256[],bytes)": {
        "details": "See {IERC1155-safeBatchTransferFrom}."
      },
      "safeTransferFrom(address,address,uint256,uint256,bytes)": {
        "details": "See {IERC1155-safeTransferFrom}."
      },
      "setApprovalForAll(address,bool)": {
        "details": "See {IERC1155-setApprovalForAll}."
      },
      "totalSupply(uint256)": {
        "details": "Total amount of tokens in with a given id."
      },
      "upgradeTo(address)": {
        "details": "Upgrade the implementation of the proxy to `newImplementation`. Calls {_authorizeUpgrade}. Emits an {Upgraded} event."
      },
      "upgradeToAndCall(address,bytes)": {
        "details": "Upgrade the implementation of the proxy to `newImplementation`, and subsequently execute the function call encoded in `data`. Calls {_authorizeUpgrade}. Emits an {Upgraded} event."
      }
    },
    "version": 1
  },
  "userdoc": {
    "kind": "user",
    "methods": {},
    "version": 1
  },
  "storageLayout": {
    "storage": [
      {
        "astId": 804,
        "contract": "contracts/FUX.sol:FUX",
        "label": "_initialized",
        "offset": 0,
        "slot": "0",
        "type": "t_uint8"
      },
      {
        "astId": 807,
        "contract": "contracts/FUX.sol:FUX",
        "label": "_initializing",
        "offset": 1,
        "slot": "0",
        "type": "t_bool"
      },
      {
        "astId": 3195,
        "contract": "contracts/FUX.sol:FUX",
        "label": "__gap",
        "offset": 0,
        "slot": "1",
        "type": "t_array(t_uint256)50_storage"
      },
      {
        "astId": 3474,
        "contract": "contracts/FUX.sol:FUX",
        "label": "__gap",
        "offset": 0,
        "slot": "51",
        "type": "t_array(t_uint256)50_storage"
      },
      {
        "astId": 1131,
        "contract": "contracts/FUX.sol:FUX",
        "label": "_balances",
        "offset": 0,
        "slot": "101",
        "type": "t_mapping(t_uint256,t_mapping(t_address,t_uint256))"
      },
      {
        "astId": 1137,
        "contract": "contracts/FUX.sol:FUX",
        "label": "_operatorApprovals",
        "offset": 0,
        "slot": "102",
        "type": "t_mapping(t_address,t_mapping(t_address,t_bool))"
      },
      {
        "astId": 1139,
        "contract": "contracts/FUX.sol:FUX",
        "label": "_uri",
        "offset": 0,
        "slot": "103",
        "type": "t_string_storage"
      },
      {
        "astId": 2346,
        "contract": "contracts/FUX.sol:FUX",
        "label": "__gap",
        "offset": 0,
        "slot": "104",
        "type": "t_array(t_uint256)47_storage"
      },
      {
        "astId": 39,
        "contract": "contracts/FUX.sol:FUX",
        "label": "_roles",
        "offset": 0,
        "slot": "151",
        "type": "t_mapping(t_bytes32,t_struct(RoleData)34_storage)"
      },
      {
        "astId": 334,
        "contract": "contracts/FUX.sol:FUX",
        "label": "__gap",
        "offset": 0,
        "slot": "152",
        "type": "t_array(t_uint256)49_storage"
      },
      {
        "astId": 2535,
        "contract": "contracts/FUX.sol:FUX",
        "label": "_totalSupply",
        "offset": 0,
        "slot": "201",
        "type": "t_mapping(t_uint256,t_uint256)"
      },
      {
        "astId": 2686,
        "contract": "contracts/FUX.sol:FUX",
        "label": "__gap",
        "offset": 0,
        "slot": "202",
        "type": "t_array(t_uint256)49_storage"
      },
      {
        "astId": 2721,
        "contract": "contracts/FUX.sol:FUX",
        "label": "_baseURI",
        "offset": 0,
        "slot": "251",
        "type": "t_string_storage"
      },
      {
        "astId": 2725,
        "contract": "contracts/FUX.sol:FUX",
        "label": "_tokenURIs",
        "offset": 0,
        "slot": "252",
        "type": "t_mapping(t_uint256,t_string_storage)"
      },
      {
        "astId": 2800,
        "contract": "contracts/FUX.sol:FUX",
        "label": "__gap",
        "offset": 0,
        "slot": "253",
        "type": "t_array(t_uint256)48_storage"
      },
      {
        "astId": 2869,
        "contract": "contracts/FUX.sol:FUX",
        "label": "__gap",
        "offset": 0,
        "slot": "301",
        "type": "t_array(t_uint256)50_storage"
      },
      {
        "astId": 786,
        "contract": "contracts/FUX.sol:FUX",
        "label": "__gap",
        "offset": 0,
        "slot": "351",
        "type": "t_array(t_uint256)50_storage"
      },
      {
        "astId": 1101,
        "contract": "contracts/FUX.sol:FUX",
        "label": "__gap",
        "offset": 0,
        "slot": "401",
        "type": "t_array(t_uint256)50_storage"
      },
      {
        "astId": 4418,
        "contract": "contracts/FUX.sol:FUX",
        "label": "counter",
        "offset": 0,
        "slot": "451",
        "type": "t_uint256"
      },
      {
        "astId": 4526,
        "contract": "contracts/FUX.sol:FUX",
        "label": "workstreams",
        "offset": 0,
        "slot": "452",
        "type": "t_mapping(t_uint256,t_struct(Workstream)4512_storage)"
      },
      {
        "astId": 4531,
        "contract": "contracts/FUX.sol:FUX",
        "label": "contributorWorkstreams",
        "offset": 0,
        "slot": "453",
        "type": "t_mapping(t_address,t_array(t_uint256)dyn_storage)"
      },
      {
        "astId": 4537,
        "contract": "contracts/FUX.sol:FUX",
        "label": "contributorCommitments",
        "offset": 0,
        "slot": "454",
        "type": "t_mapping(t_address,t_mapping(t_uint256,t_uint256))"
      },
      {
        "astId": 4544,
        "contract": "contracts/FUX.sol:FUX",
        "label": "valueEvaluations",
        "offset": 0,
        "slot": "455",
        "type": "t_mapping(t_address,t_mapping(t_uint256,t_struct(Evaluation)4521_storage))"
      },
      {
        "astId": 4550,
        "contract": "contracts/FUX.sol:FUX",
        "label": "vFuxAvailableForWorkstream",
        "offset": 0,
        "slot": "456",
        "type": "t_mapping(t_address,t_mapping(t_uint256,t_uint256))"
      },
      {
        "astId": 4554,
        "contract": "contracts/FUX.sol:FUX",
        "label": "isFuxer",
        "offset": 0,
        "slot": "457",
        "type": "t_mapping(t_address,t_bool)"
      },
      {
        "astId": 4560,
        "contract": "contracts/FUX.sol:FUX",
        "label": "isContributor",
        "offset": 0,
        "slot": "458",
        "type": "t_mapping(t_address,t_mapping(t_uint256,t_bool))"
      },
      {
        "astId": 4564,
        "contract": "contracts/FUX.sol:FUX",
        "label": "balances",
        "offset": 0,
        "slot": "459",
        "type": "t_mapping(t_address,t_uint256)"
      }
    ],
    "types": {
      "t_address": {
        "encoding": "inplace",
        "label": "address",
        "numberOfBytes": "20"
      },
      "t_array(t_address)dyn_storage": {
        "base": "t_address",
        "encoding": "dynamic_array",
        "label": "address[]",
        "numberOfBytes": "32"
      },
      "t_array(t_uint256)47_storage": {
        "base": "t_uint256",
        "encoding": "inplace",
        "label": "uint256[47]",
        "numberOfBytes": "1504"
      },
      "t_array(t_uint256)48_storage": {
        "base": "t_uint256",
        "encoding": "inplace",
        "label": "uint256[48]",
        "numberOfBytes": "1536"
      },
      "t_array(t_uint256)49_storage": {
        "base": "t_uint256",
        "encoding": "inplace",
        "label": "uint256[49]",
        "numberOfBytes": "1568"
      },
      "t_array(t_uint256)50_storage": {
        "base": "t_uint256",
        "encoding": "inplace",
        "label": "uint256[50]",
        "numberOfBytes": "1600"
      },
      "t_array(t_uint256)dyn_storage": {
        "base": "t_uint256",
        "encoding": "dynamic_array",
        "label": "uint256[]",
        "numberOfBytes": "32"
      },
      "t_bool": {
        "encoding": "inplace",
        "label": "bool",
        "numberOfBytes": "1"
      },
      "t_bytes32": {
        "encoding": "inplace",
        "label": "bytes32",
        "numberOfBytes": "32"
      },
      "t_mapping(t_address,t_array(t_uint256)dyn_storage)": {
        "encoding": "mapping",
        "key": "t_address",
        "label": "mapping(address => uint256[])",
        "numberOfBytes": "32",
        "value": "t_array(t_uint256)dyn_storage"
      },
      "t_mapping(t_address,t_bool)": {
        "encoding": "mapping",
        "key": "t_address",
        "label": "mapping(address => bool)",
        "numberOfBytes": "32",
        "value": "t_bool"
      },
      "t_mapping(t_address,t_mapping(t_address,t_bool))": {
        "encoding": "mapping",
        "key": "t_address",
        "label": "mapping(address => mapping(address => bool))",
        "numberOfBytes": "32",
        "value": "t_mapping(t_address,t_bool)"
      },
      "t_mapping(t_address,t_mapping(t_uint256,t_bool))": {
        "encoding": "mapping",
        "key": "t_address",
        "label": "mapping(address => mapping(uint256 => bool))",
        "numberOfBytes": "32",
        "value": "t_mapping(t_uint256,t_bool)"
      },
      "t_mapping(t_address,t_mapping(t_uint256,t_struct(Evaluation)4521_storage))": {
        "encoding": "mapping",
        "key": "t_address",
        "label": "mapping(address => mapping(uint256 => struct FUX.Evaluation))",
        "numberOfBytes": "32",
        "value": "t_mapping(t_uint256,t_struct(Evaluation)4521_storage)"
      },
      "t_mapping(t_address,t_mapping(t_uint256,t_uint256))": {
        "encoding": "mapping",
        "key": "t_address",
        "label": "mapping(address => mapping(uint256 => uint256))",
        "numberOfBytes": "32",
        "value": "t_mapping(t_uint256,t_uint256)"
      },
      "t_mapping(t_address,t_uint256)": {
        "encoding": "mapping",
        "key": "t_address",
        "label": "mapping(address => uint256)",
        "numberOfBytes": "32",
        "value": "t_uint256"
      },
      "t_mapping(t_bytes32,t_struct(RoleData)34_storage)": {
        "encoding": "mapping",
        "key": "t_bytes32",
        "label": "mapping(bytes32 => struct AccessControlUpgradeable.RoleData)",
        "numberOfBytes": "32",
        "value": "t_struct(RoleData)34_storage"
      },
      "t_mapping(t_uint256,t_bool)": {
        "encoding": "mapping",
        "key": "t_uint256",
        "label": "mapping(uint256 => bool)",
        "numberOfBytes": "32",
        "value": "t_bool"
      },
      "t_mapping(t_uint256,t_mapping(t_address,t_uint256))": {
        "encoding": "mapping",
        "key": "t_uint256",
        "label": "mapping(uint256 => mapping(address => uint256))",
        "numberOfBytes": "32",
        "value": "t_mapping(t_address,t_uint256)"
      },
      "t_mapping(t_uint256,t_string_storage)": {
        "encoding": "mapping",
        "key": "t_uint256",
        "label": "mapping(uint256 => string)",
        "numberOfBytes": "32",
        "value": "t_string_storage"
      },
      "t_mapping(t_uint256,t_struct(Evaluation)4521_storage)": {
        "encoding": "mapping",
        "key": "t_uint256",
        "label": "mapping(uint256 => struct FUX.Evaluation)",
        "numberOfBytes": "32",
        "value": "t_struct(Evaluation)4521_storage"
      },
      "t_mapping(t_uint256,t_struct(Workstream)4512_storage)": {
        "encoding": "mapping",
        "key": "t_uint256",
        "label": "mapping(uint256 => struct FUX.Workstream)",
        "numberOfBytes": "32",
        "value": "t_struct(Workstream)4512_storage"
      },
      "t_mapping(t_uint256,t_uint256)": {
        "encoding": "mapping",
        "key": "t_uint256",
        "label": "mapping(uint256 => uint256)",
        "numberOfBytes": "32",
        "value": "t_uint256"
      },
      "t_string_storage": {
        "encoding": "bytes",
        "label": "string",
        "numberOfBytes": "32"
      },
      "t_struct(Evaluation)4521_storage": {
        "encoding": "inplace",
        "label": "struct FUX.Evaluation",
        "members": [
          {
            "astId": 4515,
            "contract": "contracts/FUX.sol:FUX",
            "label": "contributors",
            "offset": 0,
            "slot": "0",
            "type": "t_array(t_address)dyn_storage"
          },
          {
            "astId": 4518,
            "contract": "contracts/FUX.sol:FUX",
            "label": "ratings",
            "offset": 0,
            "slot": "1",
            "type": "t_array(t_uint256)dyn_storage"
          },
          {
            "astId": 4520,
            "contract": "contracts/FUX.sol:FUX",
            "label": "exists",
            "offset": 0,
            "slot": "2",
            "type": "t_bool"
          }
        ],
        "numberOfBytes": "96"
      },
      "t_struct(RoleData)34_storage": {
        "encoding": "inplace",
        "label": "struct AccessControlUpgradeable.RoleData",
        "members": [
          {
            "astId": 31,
            "contract": "contracts/FUX.sol:FUX",
            "label": "members",
            "offset": 0,
            "slot": "0",
            "type": "t_mapping(t_address,t_bool)"
          },
          {
            "astId": 33,
            "contract": "contracts/FUX.sol:FUX",
            "label": "adminRole",
            "offset": 0,
            "slot": "1",
            "type": "t_bytes32"
          }
        ],
        "numberOfBytes": "64"
      },
      "t_struct(Workstream)4512_storage": {
        "encoding": "inplace",
        "label": "struct FUX.Workstream",
        "members": [
          {
            "astId": 4497,
            "contract": "contracts/FUX.sol:FUX",
            "label": "name",
            "offset": 0,
            "slot": "0",
            "type": "t_string_storage"
          },
          {
            "astId": 4499,
            "contract": "contracts/FUX.sol:FUX",
            "label": "creator",
            "offset": 0,
            "slot": "1",
            "type": "t_address"
          },
          {
            "astId": 4502,
            "contract": "contracts/FUX.sol:FUX",
            "label": "contributors",
            "offset": 0,
            "slot": "2",
            "type": "t_array(t_address)dyn_storage"
          },
          {
            "astId": 4505,
            "contract": "contracts/FUX.sol:FUX",
            "label": "evaluations",
            "offset": 0,
            "slot": "3",
            "type": "t_array(t_uint256)dyn_storage"
          },
          {
            "astId": 4507,
            "contract": "contracts/FUX.sol:FUX",
            "label": "deadline",
            "offset": 0,
            "slot": "4",
            "type": "t_uint256"
          },
          {
            "astId": 4509,
            "contract": "contracts/FUX.sol:FUX",
            "label": "funds",
            "offset": 0,
            "slot": "5",
            "type": "t_uint256"
          },
          {
            "astId": 4511,
            "contract": "contracts/FUX.sol:FUX",
            "label": "exists",
            "offset": 0,
            "slot": "6",
            "type": "t_bool"
          }
        ],
        "numberOfBytes": "224"
      },
      "t_uint256": {
        "encoding": "inplace",
        "label": "uint256",
        "numberOfBytes": "32"
      },
      "t_uint8": {
        "encoding": "inplace",
        "label": "uint8",
        "numberOfBytes": "1"
      }
    }
  }
}